
STM32F765 CAN Read.elf:     file format elf32-littlearm

Sections:
Idx Name          Size      VMA       LMA       File off  Algn
  0 .isr_vector   000001f8  08000000  08000000  00010000  2**0
                  CONTENTS, ALLOC, LOAD, READONLY, DATA
  1 .text         00003758  08000200  08000200  00010200  2**4
                  CONTENTS, ALLOC, LOAD, READONLY, CODE
  2 .rodata       00000080  08003958  08003958  00013958  2**2
                  CONTENTS, ALLOC, LOAD, READONLY, DATA
  3 .ARM.extab    00000000  080039d8  080039d8  00020068  2**0
                  CONTENTS
  4 .ARM          00000008  080039d8  080039d8  000139d8  2**2
                  CONTENTS, ALLOC, LOAD, READONLY, DATA
  5 .preinit_array 00000000  080039e0  080039e0  00020068  2**0
                  CONTENTS, ALLOC, LOAD, DATA
  6 .init_array   00000004  080039e0  080039e0  000139e0  2**2
                  CONTENTS, ALLOC, LOAD, DATA
  7 .fini_array   00000004  080039e4  080039e4  000139e4  2**2
                  CONTENTS, ALLOC, LOAD, DATA
  8 .data         00000068  20000000  080039e8  00020000  2**2
                  CONTENTS, ALLOC, LOAD, DATA
  9 .bss          000001ec  20000068  08003a50  00020068  2**2
                  ALLOC
 10 ._user_heap_stack 00000604  20000254  08003a50  00020254  2**0
                  ALLOC
 11 .ARM.attributes 0000002e  00000000  00000000  00020068  2**0
                  CONTENTS, READONLY
 12 .comment      00000043  00000000  00000000  00020096  2**0
                  CONTENTS, READONLY
 13 .debug_info   0000cb2a  00000000  00000000  000200d9  2**0
                  CONTENTS, READONLY, DEBUGGING, OCTETS
 14 .debug_abbrev 000021c4  00000000  00000000  0002cc03  2**0
                  CONTENTS, READONLY, DEBUGGING, OCTETS
 15 .debug_aranges 00000c88  00000000  00000000  0002edc8  2**3
                  CONTENTS, READONLY, DEBUGGING, OCTETS
 16 .debug_rnglists 0000098b  00000000  00000000  0002fa50  2**0
                  CONTENTS, READONLY, DEBUGGING, OCTETS
 17 .debug_macro  00027a08  00000000  00000000  000303db  2**0
                  CONTENTS, READONLY, DEBUGGING, OCTETS
 18 .debug_line   0000eeaf  00000000  00000000  00057de3  2**0
                  CONTENTS, READONLY, DEBUGGING, OCTETS
 19 .debug_str    000f50ec  00000000  00000000  00066c92  2**0
                  CONTENTS, READONLY, DEBUGGING, OCTETS
 20 .debug_frame  00003b74  00000000  00000000  0015bd80  2**2
                  CONTENTS, READONLY, DEBUGGING, OCTETS
 21 .debug_line_str 00000063  00000000  00000000  0015f8f4  2**0
                  CONTENTS, READONLY, DEBUGGING, OCTETS

Disassembly of section .text:

08000200 <__do_global_dtors_aux>:
 8000200:	b510      	push	{r4, lr}
 8000202:	4c05      	ldr	r4, [pc, #20]	; (8000218 <__do_global_dtors_aux+0x18>)
 8000204:	7823      	ldrb	r3, [r4, #0]
 8000206:	b933      	cbnz	r3, 8000216 <__do_global_dtors_aux+0x16>
 8000208:	4b04      	ldr	r3, [pc, #16]	; (800021c <__do_global_dtors_aux+0x1c>)
 800020a:	b113      	cbz	r3, 8000212 <__do_global_dtors_aux+0x12>
 800020c:	4804      	ldr	r0, [pc, #16]	; (8000220 <__do_global_dtors_aux+0x20>)
 800020e:	f3af 8000 	nop.w
 8000212:	2301      	movs	r3, #1
 8000214:	7023      	strb	r3, [r4, #0]
 8000216:	bd10      	pop	{r4, pc}
 8000218:	20000068 	.word	0x20000068
 800021c:	00000000 	.word	0x00000000
 8000220:	08003940 	.word	0x08003940

08000224 <frame_dummy>:
 8000224:	b508      	push	{r3, lr}
 8000226:	4b03      	ldr	r3, [pc, #12]	; (8000234 <frame_dummy+0x10>)
 8000228:	b11b      	cbz	r3, 8000232 <frame_dummy+0xe>
 800022a:	4903      	ldr	r1, [pc, #12]	; (8000238 <frame_dummy+0x14>)
 800022c:	4803      	ldr	r0, [pc, #12]	; (800023c <frame_dummy+0x18>)
 800022e:	f3af 8000 	nop.w
 8000232:	bd08      	pop	{r3, pc}
 8000234:	00000000 	.word	0x00000000
 8000238:	2000006c 	.word	0x2000006c
 800023c:	08003940 	.word	0x08003940

08000240 <memchr>:
 8000240:	f001 01ff 	and.w	r1, r1, #255	; 0xff
 8000244:	2a10      	cmp	r2, #16
 8000246:	db2b      	blt.n	80002a0 <memchr+0x60>
 8000248:	f010 0f07 	tst.w	r0, #7
 800024c:	d008      	beq.n	8000260 <memchr+0x20>
 800024e:	f810 3b01 	ldrb.w	r3, [r0], #1
 8000252:	3a01      	subs	r2, #1
 8000254:	428b      	cmp	r3, r1
 8000256:	d02d      	beq.n	80002b4 <memchr+0x74>
 8000258:	f010 0f07 	tst.w	r0, #7
 800025c:	b342      	cbz	r2, 80002b0 <memchr+0x70>
 800025e:	d1f6      	bne.n	800024e <memchr+0xe>
 8000260:	b4f0      	push	{r4, r5, r6, r7}
 8000262:	ea41 2101 	orr.w	r1, r1, r1, lsl #8
 8000266:	ea41 4101 	orr.w	r1, r1, r1, lsl #16
 800026a:	f022 0407 	bic.w	r4, r2, #7
 800026e:	f07f 0700 	mvns.w	r7, #0
 8000272:	2300      	movs	r3, #0
 8000274:	e8f0 5602 	ldrd	r5, r6, [r0], #8
 8000278:	3c08      	subs	r4, #8
 800027a:	ea85 0501 	eor.w	r5, r5, r1
 800027e:	ea86 0601 	eor.w	r6, r6, r1
 8000282:	fa85 f547 	uadd8	r5, r5, r7
 8000286:	faa3 f587 	sel	r5, r3, r7
 800028a:	fa86 f647 	uadd8	r6, r6, r7
 800028e:	faa5 f687 	sel	r6, r5, r7
 8000292:	b98e      	cbnz	r6, 80002b8 <memchr+0x78>
 8000294:	d1ee      	bne.n	8000274 <memchr+0x34>
 8000296:	bcf0      	pop	{r4, r5, r6, r7}
 8000298:	f001 01ff 	and.w	r1, r1, #255	; 0xff
 800029c:	f002 0207 	and.w	r2, r2, #7
 80002a0:	b132      	cbz	r2, 80002b0 <memchr+0x70>
 80002a2:	f810 3b01 	ldrb.w	r3, [r0], #1
 80002a6:	3a01      	subs	r2, #1
 80002a8:	ea83 0301 	eor.w	r3, r3, r1
 80002ac:	b113      	cbz	r3, 80002b4 <memchr+0x74>
 80002ae:	d1f8      	bne.n	80002a2 <memchr+0x62>
 80002b0:	2000      	movs	r0, #0
 80002b2:	4770      	bx	lr
 80002b4:	3801      	subs	r0, #1
 80002b6:	4770      	bx	lr
 80002b8:	2d00      	cmp	r5, #0
 80002ba:	bf06      	itte	eq
 80002bc:	4635      	moveq	r5, r6
 80002be:	3803      	subeq	r0, #3
 80002c0:	3807      	subne	r0, #7
 80002c2:	f015 0f01 	tst.w	r5, #1
 80002c6:	d107      	bne.n	80002d8 <memchr+0x98>
 80002c8:	3001      	adds	r0, #1
 80002ca:	f415 7f80 	tst.w	r5, #256	; 0x100
 80002ce:	bf02      	ittt	eq
 80002d0:	3001      	addeq	r0, #1
 80002d2:	f415 3fc0 	tsteq.w	r5, #98304	; 0x18000
 80002d6:	3001      	addeq	r0, #1
 80002d8:	bcf0      	pop	{r4, r5, r6, r7}
 80002da:	3801      	subs	r0, #1
 80002dc:	4770      	bx	lr
 80002de:	bf00      	nop

080002e0 <__aeabi_uldivmod>:
 80002e0:	b953      	cbnz	r3, 80002f8 <__aeabi_uldivmod+0x18>
 80002e2:	b94a      	cbnz	r2, 80002f8 <__aeabi_uldivmod+0x18>
 80002e4:	2900      	cmp	r1, #0
 80002e6:	bf08      	it	eq
 80002e8:	2800      	cmpeq	r0, #0
 80002ea:	bf1c      	itt	ne
 80002ec:	f04f 31ff 	movne.w	r1, #4294967295
 80002f0:	f04f 30ff 	movne.w	r0, #4294967295
 80002f4:	f000 b970 	b.w	80005d8 <__aeabi_idiv0>
 80002f8:	f1ad 0c08 	sub.w	ip, sp, #8
 80002fc:	e96d ce04 	strd	ip, lr, [sp, #-16]!
 8000300:	f000 f806 	bl	8000310 <__udivmoddi4>
 8000304:	f8dd e004 	ldr.w	lr, [sp, #4]
 8000308:	e9dd 2302 	ldrd	r2, r3, [sp, #8]
 800030c:	b004      	add	sp, #16
 800030e:	4770      	bx	lr

08000310 <__udivmoddi4>:
 8000310:	e92d 47f0 	stmdb	sp!, {r4, r5, r6, r7, r8, r9, sl, lr}
 8000314:	9e08      	ldr	r6, [sp, #32]
 8000316:	460d      	mov	r5, r1
 8000318:	4604      	mov	r4, r0
 800031a:	460f      	mov	r7, r1
 800031c:	2b00      	cmp	r3, #0
 800031e:	d14a      	bne.n	80003b6 <__udivmoddi4+0xa6>
 8000320:	428a      	cmp	r2, r1
 8000322:	4694      	mov	ip, r2
 8000324:	d965      	bls.n	80003f2 <__udivmoddi4+0xe2>
 8000326:	fab2 f382 	clz	r3, r2
 800032a:	b143      	cbz	r3, 800033e <__udivmoddi4+0x2e>
 800032c:	fa02 fc03 	lsl.w	ip, r2, r3
 8000330:	f1c3 0220 	rsb	r2, r3, #32
 8000334:	409f      	lsls	r7, r3
 8000336:	fa20 f202 	lsr.w	r2, r0, r2
 800033a:	4317      	orrs	r7, r2
 800033c:	409c      	lsls	r4, r3
 800033e:	ea4f 4e1c 	mov.w	lr, ip, lsr #16
 8000342:	fa1f f58c 	uxth.w	r5, ip
 8000346:	fbb7 f1fe 	udiv	r1, r7, lr
 800034a:	0c22      	lsrs	r2, r4, #16
 800034c:	fb0e 7711 	mls	r7, lr, r1, r7
 8000350:	ea42 4207 	orr.w	r2, r2, r7, lsl #16
 8000354:	fb01 f005 	mul.w	r0, r1, r5
 8000358:	4290      	cmp	r0, r2
 800035a:	d90a      	bls.n	8000372 <__udivmoddi4+0x62>
 800035c:	eb1c 0202 	adds.w	r2, ip, r2
 8000360:	f101 37ff 	add.w	r7, r1, #4294967295
 8000364:	f080 811c 	bcs.w	80005a0 <__udivmoddi4+0x290>
 8000368:	4290      	cmp	r0, r2
 800036a:	f240 8119 	bls.w	80005a0 <__udivmoddi4+0x290>
 800036e:	3902      	subs	r1, #2
 8000370:	4462      	add	r2, ip
 8000372:	1a12      	subs	r2, r2, r0
 8000374:	b2a4      	uxth	r4, r4
 8000376:	fbb2 f0fe 	udiv	r0, r2, lr
 800037a:	fb0e 2210 	mls	r2, lr, r0, r2
 800037e:	ea44 4402 	orr.w	r4, r4, r2, lsl #16
 8000382:	fb00 f505 	mul.w	r5, r0, r5
 8000386:	42a5      	cmp	r5, r4
 8000388:	d90a      	bls.n	80003a0 <__udivmoddi4+0x90>
 800038a:	eb1c 0404 	adds.w	r4, ip, r4
 800038e:	f100 32ff 	add.w	r2, r0, #4294967295
 8000392:	f080 8107 	bcs.w	80005a4 <__udivmoddi4+0x294>
 8000396:	42a5      	cmp	r5, r4
 8000398:	f240 8104 	bls.w	80005a4 <__udivmoddi4+0x294>
 800039c:	4464      	add	r4, ip
 800039e:	3802      	subs	r0, #2
 80003a0:	ea40 4001 	orr.w	r0, r0, r1, lsl #16
 80003a4:	1b64      	subs	r4, r4, r5
 80003a6:	2100      	movs	r1, #0
 80003a8:	b11e      	cbz	r6, 80003b2 <__udivmoddi4+0xa2>
 80003aa:	40dc      	lsrs	r4, r3
 80003ac:	2300      	movs	r3, #0
 80003ae:	e9c6 4300 	strd	r4, r3, [r6]
 80003b2:	e8bd 87f0 	ldmia.w	sp!, {r4, r5, r6, r7, r8, r9, sl, pc}
 80003b6:	428b      	cmp	r3, r1
 80003b8:	d908      	bls.n	80003cc <__udivmoddi4+0xbc>
 80003ba:	2e00      	cmp	r6, #0
 80003bc:	f000 80ed 	beq.w	800059a <__udivmoddi4+0x28a>
 80003c0:	2100      	movs	r1, #0
 80003c2:	e9c6 0500 	strd	r0, r5, [r6]
 80003c6:	4608      	mov	r0, r1
 80003c8:	e8bd 87f0 	ldmia.w	sp!, {r4, r5, r6, r7, r8, r9, sl, pc}
 80003cc:	fab3 f183 	clz	r1, r3
 80003d0:	2900      	cmp	r1, #0
 80003d2:	d149      	bne.n	8000468 <__udivmoddi4+0x158>
 80003d4:	42ab      	cmp	r3, r5
 80003d6:	d302      	bcc.n	80003de <__udivmoddi4+0xce>
 80003d8:	4282      	cmp	r2, r0
 80003da:	f200 80f8 	bhi.w	80005ce <__udivmoddi4+0x2be>
 80003de:	1a84      	subs	r4, r0, r2
 80003e0:	eb65 0203 	sbc.w	r2, r5, r3
 80003e4:	2001      	movs	r0, #1
 80003e6:	4617      	mov	r7, r2
 80003e8:	2e00      	cmp	r6, #0
 80003ea:	d0e2      	beq.n	80003b2 <__udivmoddi4+0xa2>
 80003ec:	e9c6 4700 	strd	r4, r7, [r6]
 80003f0:	e7df      	b.n	80003b2 <__udivmoddi4+0xa2>
 80003f2:	b902      	cbnz	r2, 80003f6 <__udivmoddi4+0xe6>
 80003f4:	deff      	udf	#255	; 0xff
 80003f6:	fab2 f382 	clz	r3, r2
 80003fa:	2b00      	cmp	r3, #0
 80003fc:	f040 8090 	bne.w	8000520 <__udivmoddi4+0x210>
 8000400:	1a8a      	subs	r2, r1, r2
 8000402:	ea4f 471c 	mov.w	r7, ip, lsr #16
 8000406:	fa1f fe8c 	uxth.w	lr, ip
 800040a:	2101      	movs	r1, #1
 800040c:	fbb2 f5f7 	udiv	r5, r2, r7
 8000410:	fb07 2015 	mls	r0, r7, r5, r2
 8000414:	0c22      	lsrs	r2, r4, #16
 8000416:	ea42 4200 	orr.w	r2, r2, r0, lsl #16
 800041a:	fb0e f005 	mul.w	r0, lr, r5
 800041e:	4290      	cmp	r0, r2
 8000420:	d908      	bls.n	8000434 <__udivmoddi4+0x124>
 8000422:	eb1c 0202 	adds.w	r2, ip, r2
 8000426:	f105 38ff 	add.w	r8, r5, #4294967295
 800042a:	d202      	bcs.n	8000432 <__udivmoddi4+0x122>
 800042c:	4290      	cmp	r0, r2
 800042e:	f200 80cb 	bhi.w	80005c8 <__udivmoddi4+0x2b8>
 8000432:	4645      	mov	r5, r8
 8000434:	1a12      	subs	r2, r2, r0
 8000436:	b2a4      	uxth	r4, r4
 8000438:	fbb2 f0f7 	udiv	r0, r2, r7
 800043c:	fb07 2210 	mls	r2, r7, r0, r2
 8000440:	ea44 4402 	orr.w	r4, r4, r2, lsl #16
 8000444:	fb0e fe00 	mul.w	lr, lr, r0
 8000448:	45a6      	cmp	lr, r4
 800044a:	d908      	bls.n	800045e <__udivmoddi4+0x14e>
 800044c:	eb1c 0404 	adds.w	r4, ip, r4
 8000450:	f100 32ff 	add.w	r2, r0, #4294967295
 8000454:	d202      	bcs.n	800045c <__udivmoddi4+0x14c>
 8000456:	45a6      	cmp	lr, r4
 8000458:	f200 80bb 	bhi.w	80005d2 <__udivmoddi4+0x2c2>
 800045c:	4610      	mov	r0, r2
 800045e:	eba4 040e 	sub.w	r4, r4, lr
 8000462:	ea40 4005 	orr.w	r0, r0, r5, lsl #16
 8000466:	e79f      	b.n	80003a8 <__udivmoddi4+0x98>
 8000468:	f1c1 0720 	rsb	r7, r1, #32
 800046c:	408b      	lsls	r3, r1
 800046e:	fa22 fc07 	lsr.w	ip, r2, r7
 8000472:	ea4c 0c03 	orr.w	ip, ip, r3
 8000476:	fa05 f401 	lsl.w	r4, r5, r1
 800047a:	fa20 f307 	lsr.w	r3, r0, r7
 800047e:	40fd      	lsrs	r5, r7
 8000480:	ea4f 491c 	mov.w	r9, ip, lsr #16
 8000484:	4323      	orrs	r3, r4
 8000486:	fbb5 f8f9 	udiv	r8, r5, r9
 800048a:	fa1f fe8c 	uxth.w	lr, ip
 800048e:	fb09 5518 	mls	r5, r9, r8, r5
 8000492:	0c1c      	lsrs	r4, r3, #16
 8000494:	ea44 4405 	orr.w	r4, r4, r5, lsl #16
 8000498:	fb08 f50e 	mul.w	r5, r8, lr
 800049c:	42a5      	cmp	r5, r4
 800049e:	fa02 f201 	lsl.w	r2, r2, r1
 80004a2:	fa00 f001 	lsl.w	r0, r0, r1
 80004a6:	d90b      	bls.n	80004c0 <__udivmoddi4+0x1b0>
 80004a8:	eb1c 0404 	adds.w	r4, ip, r4
 80004ac:	f108 3aff 	add.w	sl, r8, #4294967295
 80004b0:	f080 8088 	bcs.w	80005c4 <__udivmoddi4+0x2b4>
 80004b4:	42a5      	cmp	r5, r4
 80004b6:	f240 8085 	bls.w	80005c4 <__udivmoddi4+0x2b4>
 80004ba:	f1a8 0802 	sub.w	r8, r8, #2
 80004be:	4464      	add	r4, ip
 80004c0:	1b64      	subs	r4, r4, r5
 80004c2:	b29d      	uxth	r5, r3
 80004c4:	fbb4 f3f9 	udiv	r3, r4, r9
 80004c8:	fb09 4413 	mls	r4, r9, r3, r4
 80004cc:	ea45 4404 	orr.w	r4, r5, r4, lsl #16
 80004d0:	fb03 fe0e 	mul.w	lr, r3, lr
 80004d4:	45a6      	cmp	lr, r4
 80004d6:	d908      	bls.n	80004ea <__udivmoddi4+0x1da>
 80004d8:	eb1c 0404 	adds.w	r4, ip, r4
 80004dc:	f103 35ff 	add.w	r5, r3, #4294967295
 80004e0:	d26c      	bcs.n	80005bc <__udivmoddi4+0x2ac>
 80004e2:	45a6      	cmp	lr, r4
 80004e4:	d96a      	bls.n	80005bc <__udivmoddi4+0x2ac>
 80004e6:	3b02      	subs	r3, #2
 80004e8:	4464      	add	r4, ip
 80004ea:	ea43 4308 	orr.w	r3, r3, r8, lsl #16
 80004ee:	fba3 9502 	umull	r9, r5, r3, r2
 80004f2:	eba4 040e 	sub.w	r4, r4, lr
 80004f6:	42ac      	cmp	r4, r5
 80004f8:	46c8      	mov	r8, r9
 80004fa:	46ae      	mov	lr, r5
 80004fc:	d356      	bcc.n	80005ac <__udivmoddi4+0x29c>
 80004fe:	d053      	beq.n	80005a8 <__udivmoddi4+0x298>
 8000500:	b156      	cbz	r6, 8000518 <__udivmoddi4+0x208>
 8000502:	ebb0 0208 	subs.w	r2, r0, r8
 8000506:	eb64 040e 	sbc.w	r4, r4, lr
 800050a:	fa04 f707 	lsl.w	r7, r4, r7
 800050e:	40ca      	lsrs	r2, r1
 8000510:	40cc      	lsrs	r4, r1
 8000512:	4317      	orrs	r7, r2
 8000514:	e9c6 7400 	strd	r7, r4, [r6]
 8000518:	4618      	mov	r0, r3
 800051a:	2100      	movs	r1, #0
 800051c:	e8bd 87f0 	ldmia.w	sp!, {r4, r5, r6, r7, r8, r9, sl, pc}
 8000520:	f1c3 0120 	rsb	r1, r3, #32
 8000524:	fa02 fc03 	lsl.w	ip, r2, r3
 8000528:	fa20 f201 	lsr.w	r2, r0, r1
 800052c:	fa25 f101 	lsr.w	r1, r5, r1
 8000530:	409d      	lsls	r5, r3
 8000532:	432a      	orrs	r2, r5
 8000534:	ea4f 471c 	mov.w	r7, ip, lsr #16
 8000538:	fa1f fe8c 	uxth.w	lr, ip
 800053c:	fbb1 f0f7 	udiv	r0, r1, r7
 8000540:	fb07 1510 	mls	r5, r7, r0, r1
 8000544:	0c11      	lsrs	r1, r2, #16
 8000546:	ea41 4105 	orr.w	r1, r1, r5, lsl #16
 800054a:	fb00 f50e 	mul.w	r5, r0, lr
 800054e:	428d      	cmp	r5, r1
 8000550:	fa04 f403 	lsl.w	r4, r4, r3
 8000554:	d908      	bls.n	8000568 <__udivmoddi4+0x258>
 8000556:	eb1c 0101 	adds.w	r1, ip, r1
 800055a:	f100 38ff 	add.w	r8, r0, #4294967295
 800055e:	d22f      	bcs.n	80005c0 <__udivmoddi4+0x2b0>
 8000560:	428d      	cmp	r5, r1
 8000562:	d92d      	bls.n	80005c0 <__udivmoddi4+0x2b0>
 8000564:	3802      	subs	r0, #2
 8000566:	4461      	add	r1, ip
 8000568:	1b49      	subs	r1, r1, r5
 800056a:	b292      	uxth	r2, r2
 800056c:	fbb1 f5f7 	udiv	r5, r1, r7
 8000570:	fb07 1115 	mls	r1, r7, r5, r1
 8000574:	ea42 4201 	orr.w	r2, r2, r1, lsl #16
 8000578:	fb05 f10e 	mul.w	r1, r5, lr
 800057c:	4291      	cmp	r1, r2
 800057e:	d908      	bls.n	8000592 <__udivmoddi4+0x282>
 8000580:	eb1c 0202 	adds.w	r2, ip, r2
 8000584:	f105 38ff 	add.w	r8, r5, #4294967295
 8000588:	d216      	bcs.n	80005b8 <__udivmoddi4+0x2a8>
 800058a:	4291      	cmp	r1, r2
 800058c:	d914      	bls.n	80005b8 <__udivmoddi4+0x2a8>
 800058e:	3d02      	subs	r5, #2
 8000590:	4462      	add	r2, ip
 8000592:	1a52      	subs	r2, r2, r1
 8000594:	ea45 4100 	orr.w	r1, r5, r0, lsl #16
 8000598:	e738      	b.n	800040c <__udivmoddi4+0xfc>
 800059a:	4631      	mov	r1, r6
 800059c:	4630      	mov	r0, r6
 800059e:	e708      	b.n	80003b2 <__udivmoddi4+0xa2>
 80005a0:	4639      	mov	r1, r7
 80005a2:	e6e6      	b.n	8000372 <__udivmoddi4+0x62>
 80005a4:	4610      	mov	r0, r2
 80005a6:	e6fb      	b.n	80003a0 <__udivmoddi4+0x90>
 80005a8:	4548      	cmp	r0, r9
 80005aa:	d2a9      	bcs.n	8000500 <__udivmoddi4+0x1f0>
 80005ac:	ebb9 0802 	subs.w	r8, r9, r2
 80005b0:	eb65 0e0c 	sbc.w	lr, r5, ip
 80005b4:	3b01      	subs	r3, #1
 80005b6:	e7a3      	b.n	8000500 <__udivmoddi4+0x1f0>
 80005b8:	4645      	mov	r5, r8
 80005ba:	e7ea      	b.n	8000592 <__udivmoddi4+0x282>
 80005bc:	462b      	mov	r3, r5
 80005be:	e794      	b.n	80004ea <__udivmoddi4+0x1da>
 80005c0:	4640      	mov	r0, r8
 80005c2:	e7d1      	b.n	8000568 <__udivmoddi4+0x258>
 80005c4:	46d0      	mov	r8, sl
 80005c6:	e77b      	b.n	80004c0 <__udivmoddi4+0x1b0>
 80005c8:	3d02      	subs	r5, #2
 80005ca:	4462      	add	r2, ip
 80005cc:	e732      	b.n	8000434 <__udivmoddi4+0x124>
 80005ce:	4608      	mov	r0, r1
 80005d0:	e70a      	b.n	80003e8 <__udivmoddi4+0xd8>
 80005d2:	4464      	add	r4, ip
 80005d4:	3802      	subs	r0, #2
 80005d6:	e742      	b.n	800045e <__udivmoddi4+0x14e>

080005d8 <__aeabi_idiv0>:
 80005d8:	4770      	bx	lr
 80005da:	bf00      	nop

080005dc <MX_CAN1_Init>:
/* USER CODE END 0 */

CAN_HandleTypeDef hcan1;

/* CAN1 init function */
void MX_CAN1_Init(void) {
 80005dc:	b580      	push	{r7, lr}
 80005de:	b08a      	sub	sp, #40	; 0x28
 80005e0:	af00      	add	r7, sp, #0
	/* USER CODE END CAN1_Init 0 */

	/* USER CODE BEGIN CAN1_Init 1 */

	/* USER CODE END CAN1_Init 1 */
	hcan1.Instance = CAN1;
 80005e2:	4b24      	ldr	r3, [pc, #144]	; (8000674 <MX_CAN1_Init+0x98>)
 80005e4:	4a24      	ldr	r2, [pc, #144]	; (8000678 <MX_CAN1_Init+0x9c>)
 80005e6:	601a      	str	r2, [r3, #0]
	hcan1.Init.Prescaler = 6;
 80005e8:	4b22      	ldr	r3, [pc, #136]	; (8000674 <MX_CAN1_Init+0x98>)
 80005ea:	2206      	movs	r2, #6
 80005ec:	605a      	str	r2, [r3, #4]
	hcan1.Init.Mode = CAN_MODE_NORMAL;
 80005ee:	4b21      	ldr	r3, [pc, #132]	; (8000674 <MX_CAN1_Init+0x98>)
 80005f0:	2200      	movs	r2, #0
 80005f2:	609a      	str	r2, [r3, #8]
	hcan1.Init.SyncJumpWidth = CAN_SJW_1TQ;
 80005f4:	4b1f      	ldr	r3, [pc, #124]	; (8000674 <MX_CAN1_Init+0x98>)
 80005f6:	2200      	movs	r2, #0
 80005f8:	60da      	str	r2, [r3, #12]
	hcan1.Init.TimeSeg1 = CAN_BS1_6TQ;
 80005fa:	4b1e      	ldr	r3, [pc, #120]	; (8000674 <MX_CAN1_Init+0x98>)
 80005fc:	f44f 22a0 	mov.w	r2, #327680	; 0x50000
 8000600:	611a      	str	r2, [r3, #16]
	hcan1.Init.TimeSeg2 = CAN_BS2_1TQ;
 8000602:	4b1c      	ldr	r3, [pc, #112]	; (8000674 <MX_CAN1_Init+0x98>)
 8000604:	2200      	movs	r2, #0
 8000606:	615a      	str	r2, [r3, #20]
	hcan1.Init.TimeTriggeredMode = DISABLE;
 8000608:	4b1a      	ldr	r3, [pc, #104]	; (8000674 <MX_CAN1_Init+0x98>)
 800060a:	2200      	movs	r2, #0
 800060c:	761a      	strb	r2, [r3, #24]
	hcan1.Init.AutoBusOff = DISABLE;
 800060e:	4b19      	ldr	r3, [pc, #100]	; (8000674 <MX_CAN1_Init+0x98>)
 8000610:	2200      	movs	r2, #0
 8000612:	765a      	strb	r2, [r3, #25]
	hcan1.Init.AutoWakeUp = DISABLE;
 8000614:	4b17      	ldr	r3, [pc, #92]	; (8000674 <MX_CAN1_Init+0x98>)
 8000616:	2200      	movs	r2, #0
 8000618:	769a      	strb	r2, [r3, #26]
	hcan1.Init.AutoRetransmission = DISABLE;
 800061a:	4b16      	ldr	r3, [pc, #88]	; (8000674 <MX_CAN1_Init+0x98>)
 800061c:	2200      	movs	r2, #0
 800061e:	76da      	strb	r2, [r3, #27]
	hcan1.Init.ReceiveFifoLocked = DISABLE;
 8000620:	4b14      	ldr	r3, [pc, #80]	; (8000674 <MX_CAN1_Init+0x98>)
 8000622:	2200      	movs	r2, #0
 8000624:	771a      	strb	r2, [r3, #28]
	hcan1.Init.TransmitFifoPriority = DISABLE;
 8000626:	4b13      	ldr	r3, [pc, #76]	; (8000674 <MX_CAN1_Init+0x98>)
 8000628:	2200      	movs	r2, #0
 800062a:	775a      	strb	r2, [r3, #29]
	if (HAL_CAN_Init(&hcan1) != HAL_OK) {
 800062c:	4811      	ldr	r0, [pc, #68]	; (8000674 <MX_CAN1_Init+0x98>)
 800062e:	f000 fbc9 	bl	8000dc4 <HAL_CAN_Init>
 8000632:	4603      	mov	r3, r0
 8000634:	2b00      	cmp	r3, #0
 8000636:	d001      	beq.n	800063c <MX_CAN1_Init+0x60>
		Error_Handler();
 8000638:	f000 f9d6 	bl	80009e8 <Error_Handler>
	}
	/* USER CODE BEGIN CAN1_Init 2 */
	// Configure filters to allow packets through
	CAN_FilterTypeDef sf;
	sf.FilterMaskIdHigh = 0x0000; // IDs are int32_t-sized
 800063c:	2300      	movs	r3, #0
 800063e:	60bb      	str	r3, [r7, #8]
	sf.FilterMaskIdLow = 0x0000;
 8000640:	2300      	movs	r3, #0
 8000642:	60fb      	str	r3, [r7, #12]
	sf.FilterFIFOAssignment = CAN_FILTER_FIFO0;
 8000644:	2300      	movs	r3, #0
 8000646:	613b      	str	r3, [r7, #16]
	sf.FilterBank = 0;
 8000648:	2300      	movs	r3, #0
 800064a:	617b      	str	r3, [r7, #20]
	sf.FilterMode = CAN_FILTERMODE_IDMASK;
 800064c:	2300      	movs	r3, #0
 800064e:	61bb      	str	r3, [r7, #24]
	sf.FilterScale = CAN_FILTERSCALE_32BIT;
 8000650:	2301      	movs	r3, #1
 8000652:	61fb      	str	r3, [r7, #28]
	sf.FilterActivation = CAN_FILTER_ENABLE;
 8000654:	2301      	movs	r3, #1
 8000656:	623b      	str	r3, [r7, #32]

	if (HAL_CAN_ConfigFilter(&hcan1, &sf) != HAL_OK) {
 8000658:	463b      	mov	r3, r7
 800065a:	4619      	mov	r1, r3
 800065c:	4805      	ldr	r0, [pc, #20]	; (8000674 <MX_CAN1_Init+0x98>)
 800065e:	f000 fcad 	bl	8000fbc <HAL_CAN_ConfigFilter>
 8000662:	4603      	mov	r3, r0
 8000664:	2b00      	cmp	r3, #0
 8000666:	d001      	beq.n	800066c <MX_CAN1_Init+0x90>
		Error_Handler();
 8000668:	f000 f9be 	bl	80009e8 <Error_Handler>
	}
	/* USER CODE END CAN1_Init 2 */

}
 800066c:	bf00      	nop
 800066e:	3728      	adds	r7, #40	; 0x28
 8000670:	46bd      	mov	sp, r7
 8000672:	bd80      	pop	{r7, pc}
 8000674:	20000084 	.word	0x20000084
 8000678:	40006400 	.word	0x40006400

0800067c <HAL_CAN_MspInit>:

void HAL_CAN_MspInit(CAN_HandleTypeDef *canHandle) {
 800067c:	b580      	push	{r7, lr}
 800067e:	b08a      	sub	sp, #40	; 0x28
 8000680:	af00      	add	r7, sp, #0
 8000682:	6078      	str	r0, [r7, #4]

	GPIO_InitTypeDef GPIO_InitStruct = { 0 };
 8000684:	f107 0314 	add.w	r3, r7, #20
 8000688:	2200      	movs	r2, #0
 800068a:	601a      	str	r2, [r3, #0]
 800068c:	605a      	str	r2, [r3, #4]
 800068e:	609a      	str	r2, [r3, #8]
 8000690:	60da      	str	r2, [r3, #12]
 8000692:	611a      	str	r2, [r3, #16]
	if (canHandle->Instance == CAN1) {
 8000694:	687b      	ldr	r3, [r7, #4]
 8000696:	681b      	ldr	r3, [r3, #0]
 8000698:	4a17      	ldr	r2, [pc, #92]	; (80006f8 <HAL_CAN_MspInit+0x7c>)
 800069a:	4293      	cmp	r3, r2
 800069c:	d127      	bne.n	80006ee <HAL_CAN_MspInit+0x72>
		/* USER CODE BEGIN CAN1_MspInit 0 */

		/* USER CODE END CAN1_MspInit 0 */
		/* CAN1 clock enable */
		__HAL_RCC_CAN1_CLK_ENABLE();
 800069e:	4b17      	ldr	r3, [pc, #92]	; (80006fc <HAL_CAN_MspInit+0x80>)
 80006a0:	6c1b      	ldr	r3, [r3, #64]	; 0x40
 80006a2:	4a16      	ldr	r2, [pc, #88]	; (80006fc <HAL_CAN_MspInit+0x80>)
 80006a4:	f043 7300 	orr.w	r3, r3, #33554432	; 0x2000000
 80006a8:	6413      	str	r3, [r2, #64]	; 0x40
 80006aa:	4b14      	ldr	r3, [pc, #80]	; (80006fc <HAL_CAN_MspInit+0x80>)
 80006ac:	6c1b      	ldr	r3, [r3, #64]	; 0x40
 80006ae:	f003 7300 	and.w	r3, r3, #33554432	; 0x2000000
 80006b2:	613b      	str	r3, [r7, #16]
 80006b4:	693b      	ldr	r3, [r7, #16]

		__HAL_RCC_GPIOD_CLK_ENABLE();
 80006b6:	4b11      	ldr	r3, [pc, #68]	; (80006fc <HAL_CAN_MspInit+0x80>)
 80006b8:	6b1b      	ldr	r3, [r3, #48]	; 0x30
 80006ba:	4a10      	ldr	r2, [pc, #64]	; (80006fc <HAL_CAN_MspInit+0x80>)
 80006bc:	f043 0308 	orr.w	r3, r3, #8
 80006c0:	6313      	str	r3, [r2, #48]	; 0x30
 80006c2:	4b0e      	ldr	r3, [pc, #56]	; (80006fc <HAL_CAN_MspInit+0x80>)
 80006c4:	6b1b      	ldr	r3, [r3, #48]	; 0x30
 80006c6:	f003 0308 	and.w	r3, r3, #8
 80006ca:	60fb      	str	r3, [r7, #12]
 80006cc:	68fb      	ldr	r3, [r7, #12]
		/**CAN1 GPIO Configuration
		 PD0     ------> CAN1_RX
		 PD1     ------> CAN1_TX
		 */
		GPIO_InitStruct.Pin = GPIO_PIN_0 | GPIO_PIN_1;
 80006ce:	2303      	movs	r3, #3
 80006d0:	617b      	str	r3, [r7, #20]
		GPIO_InitStruct.Mode = GPIO_MODE_AF_PP;
 80006d2:	2302      	movs	r3, #2
 80006d4:	61bb      	str	r3, [r7, #24]
		GPIO_InitStruct.Pull = GPIO_NOPULL;
 80006d6:	2300      	movs	r3, #0
 80006d8:	61fb      	str	r3, [r7, #28]
		GPIO_InitStruct.Speed = GPIO_SPEED_FREQ_VERY_HIGH;
 80006da:	2303      	movs	r3, #3
 80006dc:	623b      	str	r3, [r7, #32]
		GPIO_InitStruct.Alternate = GPIO_AF9_CAN1;
 80006de:	2309      	movs	r3, #9
 80006e0:	627b      	str	r3, [r7, #36]	; 0x24
		HAL_GPIO_Init(GPIOD, &GPIO_InitStruct);
 80006e2:	f107 0314 	add.w	r3, r7, #20
 80006e6:	4619      	mov	r1, r3
 80006e8:	4805      	ldr	r0, [pc, #20]	; (8000700 <HAL_CAN_MspInit+0x84>)
 80006ea:	f000 ffb3 	bl	8001654 <HAL_GPIO_Init>

		/* USER CODE BEGIN CAN1_MspInit 1 */

		/* USER CODE END CAN1_MspInit 1 */
	}
}
 80006ee:	bf00      	nop
 80006f0:	3728      	adds	r7, #40	; 0x28
 80006f2:	46bd      	mov	sp, r7
 80006f4:	bd80      	pop	{r7, pc}
 80006f6:	bf00      	nop
 80006f8:	40006400 	.word	0x40006400
 80006fc:	40023800 	.word	0x40023800
 8000700:	40020c00 	.word	0x40020c00

08000704 <MX_GPIO_Init>:
        * Output
        * EVENT_OUT
        * EXTI
*/
void MX_GPIO_Init(void)
{
 8000704:	b580      	push	{r7, lr}
 8000706:	b088      	sub	sp, #32
 8000708:	af00      	add	r7, sp, #0

  GPIO_InitTypeDef GPIO_InitStruct = {0};
 800070a:	f107 030c 	add.w	r3, r7, #12
 800070e:	2200      	movs	r2, #0
 8000710:	601a      	str	r2, [r3, #0]
 8000712:	605a      	str	r2, [r3, #4]
 8000714:	609a      	str	r2, [r3, #8]
 8000716:	60da      	str	r2, [r3, #12]
 8000718:	611a      	str	r2, [r3, #16]

  /* GPIO Ports Clock Enable */
  __HAL_RCC_GPIOA_CLK_ENABLE();
 800071a:	4b1d      	ldr	r3, [pc, #116]	; (8000790 <MX_GPIO_Init+0x8c>)
 800071c:	6b1b      	ldr	r3, [r3, #48]	; 0x30
 800071e:	4a1c      	ldr	r2, [pc, #112]	; (8000790 <MX_GPIO_Init+0x8c>)
 8000720:	f043 0301 	orr.w	r3, r3, #1
 8000724:	6313      	str	r3, [r2, #48]	; 0x30
 8000726:	4b1a      	ldr	r3, [pc, #104]	; (8000790 <MX_GPIO_Init+0x8c>)
 8000728:	6b1b      	ldr	r3, [r3, #48]	; 0x30
 800072a:	f003 0301 	and.w	r3, r3, #1
 800072e:	60bb      	str	r3, [r7, #8]
 8000730:	68bb      	ldr	r3, [r7, #8]
  __HAL_RCC_GPIOD_CLK_ENABLE();
 8000732:	4b17      	ldr	r3, [pc, #92]	; (8000790 <MX_GPIO_Init+0x8c>)
 8000734:	6b1b      	ldr	r3, [r3, #48]	; 0x30
 8000736:	4a16      	ldr	r2, [pc, #88]	; (8000790 <MX_GPIO_Init+0x8c>)
 8000738:	f043 0308 	orr.w	r3, r3, #8
 800073c:	6313      	str	r3, [r2, #48]	; 0x30
 800073e:	4b14      	ldr	r3, [pc, #80]	; (8000790 <MX_GPIO_Init+0x8c>)
 8000740:	6b1b      	ldr	r3, [r3, #48]	; 0x30
 8000742:	f003 0308 	and.w	r3, r3, #8
 8000746:	607b      	str	r3, [r7, #4]
 8000748:	687b      	ldr	r3, [r7, #4]
  __HAL_RCC_GPIOB_CLK_ENABLE();
 800074a:	4b11      	ldr	r3, [pc, #68]	; (8000790 <MX_GPIO_Init+0x8c>)
 800074c:	6b1b      	ldr	r3, [r3, #48]	; 0x30
 800074e:	4a10      	ldr	r2, [pc, #64]	; (8000790 <MX_GPIO_Init+0x8c>)
 8000750:	f043 0302 	orr.w	r3, r3, #2
 8000754:	6313      	str	r3, [r2, #48]	; 0x30
 8000756:	4b0e      	ldr	r3, [pc, #56]	; (8000790 <MX_GPIO_Init+0x8c>)
 8000758:	6b1b      	ldr	r3, [r3, #48]	; 0x30
 800075a:	f003 0302 	and.w	r3, r3, #2
 800075e:	603b      	str	r3, [r7, #0]
 8000760:	683b      	ldr	r3, [r7, #0]

  /*Configure GPIO pin Output Level */
  HAL_GPIO_WritePin(PWR_ON_GPIO_Port, PWR_ON_Pin, GPIO_PIN_RESET);
 8000762:	2200      	movs	r2, #0
 8000764:	2140      	movs	r1, #64	; 0x40
 8000766:	480b      	ldr	r0, [pc, #44]	; (8000794 <MX_GPIO_Init+0x90>)
 8000768:	f001 f920 	bl	80019ac <HAL_GPIO_WritePin>

  /*Configure GPIO pin : PtPin */
  GPIO_InitStruct.Pin = PWR_ON_Pin;
 800076c:	2340      	movs	r3, #64	; 0x40
 800076e:	60fb      	str	r3, [r7, #12]
  GPIO_InitStruct.Mode = GPIO_MODE_OUTPUT_PP;
 8000770:	2301      	movs	r3, #1
 8000772:	613b      	str	r3, [r7, #16]
  GPIO_InitStruct.Pull = GPIO_NOPULL;
 8000774:	2300      	movs	r3, #0
 8000776:	617b      	str	r3, [r7, #20]
  GPIO_InitStruct.Speed = GPIO_SPEED_FREQ_LOW;
 8000778:	2300      	movs	r3, #0
 800077a:	61bb      	str	r3, [r7, #24]
  HAL_GPIO_Init(PWR_ON_GPIO_Port, &GPIO_InitStruct);
 800077c:	f107 030c 	add.w	r3, r7, #12
 8000780:	4619      	mov	r1, r3
 8000782:	4804      	ldr	r0, [pc, #16]	; (8000794 <MX_GPIO_Init+0x90>)
 8000784:	f000 ff66 	bl	8001654 <HAL_GPIO_Init>

}
 8000788:	bf00      	nop
 800078a:	3720      	adds	r7, #32
 800078c:	46bd      	mov	sp, r7
 800078e:	bd80      	pop	{r7, pc}
 8000790:	40023800 	.word	0x40023800
 8000794:	40020000 	.word	0x40020000

08000798 <ITM_SendChar>:
           \li Is blocking when a debugger is connected, but the previous character sent has not been transmitted.
  \param [in]     ch  Character to transmit.
  \returns            Character to transmit.
 */
__STATIC_INLINE uint32_t ITM_SendChar (uint32_t ch)
{
 8000798:	b480      	push	{r7}
 800079a:	b083      	sub	sp, #12
 800079c:	af00      	add	r7, sp, #0
 800079e:	6078      	str	r0, [r7, #4]
  if (((ITM->TCR & ITM_TCR_ITMENA_Msk) != 0UL) &&      /* ITM enabled */
 80007a0:	f04f 4360 	mov.w	r3, #3758096384	; 0xe0000000
 80007a4:	f8d3 3e80 	ldr.w	r3, [r3, #3712]	; 0xe80
 80007a8:	f003 0301 	and.w	r3, r3, #1
 80007ac:	2b00      	cmp	r3, #0
 80007ae:	d013      	beq.n	80007d8 <ITM_SendChar+0x40>
      ((ITM->TER & 1UL               ) != 0UL)   )     /* ITM Port #0 enabled */
 80007b0:	f04f 4360 	mov.w	r3, #3758096384	; 0xe0000000
 80007b4:	f8d3 3e00 	ldr.w	r3, [r3, #3584]	; 0xe00
 80007b8:	f003 0301 	and.w	r3, r3, #1
  if (((ITM->TCR & ITM_TCR_ITMENA_Msk) != 0UL) &&      /* ITM enabled */
 80007bc:	2b00      	cmp	r3, #0
 80007be:	d00b      	beq.n	80007d8 <ITM_SendChar+0x40>
  {
    while (ITM->PORT[0U].u32 == 0UL)
 80007c0:	e000      	b.n	80007c4 <ITM_SendChar+0x2c>
    {
      __NOP();
 80007c2:	bf00      	nop
    while (ITM->PORT[0U].u32 == 0UL)
 80007c4:	f04f 4360 	mov.w	r3, #3758096384	; 0xe0000000
 80007c8:	681b      	ldr	r3, [r3, #0]
 80007ca:	2b00      	cmp	r3, #0
 80007cc:	d0f9      	beq.n	80007c2 <ITM_SendChar+0x2a>
    }
    ITM->PORT[0U].u8 = (uint8_t)ch;
 80007ce:	f04f 4360 	mov.w	r3, #3758096384	; 0xe0000000
 80007d2:	687a      	ldr	r2, [r7, #4]
 80007d4:	b2d2      	uxtb	r2, r2
 80007d6:	701a      	strb	r2, [r3, #0]
  }
  return (ch);
 80007d8:	687b      	ldr	r3, [r7, #4]
}
 80007da:	4618      	mov	r0, r3
 80007dc:	370c      	adds	r7, #12
 80007de:	46bd      	mov	sp, r7
 80007e0:	f85d 7b04 	ldr.w	r7, [sp], #4
 80007e4:	4770      	bx	lr

080007e6 <_write>:
uint8_t can_packet[PACKET_SIZE];

/**
 * Masking used for SWV printing via SWO pin
 * */
int _write(int32_t file, uint8_t *ptr, int32_t len) {
 80007e6:	b580      	push	{r7, lr}
 80007e8:	b086      	sub	sp, #24
 80007ea:	af00      	add	r7, sp, #0
 80007ec:	60f8      	str	r0, [r7, #12]
 80007ee:	60b9      	str	r1, [r7, #8]
 80007f0:	607a      	str	r2, [r7, #4]
	for (int i = 0; i < len; i++) {
 80007f2:	2300      	movs	r3, #0
 80007f4:	617b      	str	r3, [r7, #20]
 80007f6:	e009      	b.n	800080c <_write+0x26>
		ITM_SendChar(*ptr++);
 80007f8:	68bb      	ldr	r3, [r7, #8]
 80007fa:	1c5a      	adds	r2, r3, #1
 80007fc:	60ba      	str	r2, [r7, #8]
 80007fe:	781b      	ldrb	r3, [r3, #0]
 8000800:	4618      	mov	r0, r3
 8000802:	f7ff ffc9 	bl	8000798 <ITM_SendChar>
	for (int i = 0; i < len; i++) {
 8000806:	697b      	ldr	r3, [r7, #20]
 8000808:	3301      	adds	r3, #1
 800080a:	617b      	str	r3, [r7, #20]
 800080c:	697a      	ldr	r2, [r7, #20]
 800080e:	687b      	ldr	r3, [r7, #4]
 8000810:	429a      	cmp	r2, r3
 8000812:	dbf1      	blt.n	80007f8 <_write+0x12>
	}
	return len;
 8000814:	687b      	ldr	r3, [r7, #4]
}
 8000816:	4618      	mov	r0, r3
 8000818:	3718      	adds	r7, #24
 800081a:	46bd      	mov	sp, r7
 800081c:	bd80      	pop	{r7, pc}
	...

08000820 <main>:

/**
 * @brief  The application entry point.
 * @retval int
 */
int main(void) {
 8000820:	b580      	push	{r7, lr}
 8000822:	b088      	sub	sp, #32
 8000824:	af00      	add	r7, sp, #0
	/* USER CODE END 1 */

	/* MCU Configuration--------------------------------------------------------*/

	/* Reset of all peripherals, Initializes the Flash interface and the Systick. */
	HAL_Init();
 8000826:	f000 fa7c 	bl	8000d22 <HAL_Init>
	/* USER CODE BEGIN Init */

	/* USER CODE END Init */

	/* Configure the system clock */
	SystemClock_Config();
 800082a:	f000 f85b 	bl	80008e4 <SystemClock_Config>
	/* USER CODE BEGIN SysInit */

	/* USER CODE END SysInit */

	/* Initialize all configured peripherals */
	MX_GPIO_Init();
 800082e:	f7ff ff69 	bl	8000704 <MX_GPIO_Init>
	MX_CAN1_Init();
 8000832:	f7ff fed3 	bl	80005dc <MX_CAN1_Init>
	/* USER CODE BEGIN 2 */
	HAL_CAN_Start(&hcan1);
 8000836:	4823      	ldr	r0, [pc, #140]	; (80008c4 <main+0xa4>)
 8000838:	f000 fcac 	bl	8001194 <HAL_CAN_Start>
	HAL_GPIO_WritePin(PWR_ON_GPIO_Port, PWR_ON_Pin, GPIO_PIN_SET);
 800083c:	2201      	movs	r2, #1
 800083e:	2140      	movs	r1, #64	; 0x40
 8000840:	4821      	ldr	r0, [pc, #132]	; (80008c8 <main+0xa8>)
 8000842:	f001 f8b3 	bl	80019ac <HAL_GPIO_WritePin>
	/* USER CODE BEGIN WHILE */
	while (1) {
		/* USER CODE END WHILE */

		/* USER CODE BEGIN 3 */
		if (HAL_CAN_GetRxFifoFillLevel(&hcan1, CAN_RX_FIFO0) > 0) {
 8000846:	2100      	movs	r1, #0
 8000848:	481e      	ldr	r0, [pc, #120]	; (80008c4 <main+0xa4>)
 800084a:	f000 fdf9 	bl	8001440 <HAL_CAN_GetRxFifoFillLevel>
 800084e:	4603      	mov	r3, r0
 8000850:	2b00      	cmp	r3, #0
 8000852:	d032      	beq.n	80008ba <main+0x9a>
			CAN_RxHeaderTypeDef header = {};
 8000854:	463b      	mov	r3, r7
 8000856:	2200      	movs	r2, #0
 8000858:	601a      	str	r2, [r3, #0]
 800085a:	605a      	str	r2, [r3, #4]
 800085c:	609a      	str	r2, [r3, #8]
 800085e:	60da      	str	r2, [r3, #12]
 8000860:	611a      	str	r2, [r3, #16]
 8000862:	615a      	str	r2, [r3, #20]
 8000864:	619a      	str	r2, [r3, #24]
			// Read packet
			HAL_CAN_GetRxMessage(&hcan1, CAN_RX_FIFO0, &header, can_packet);
 8000866:	463a      	mov	r2, r7
 8000868:	4b18      	ldr	r3, [pc, #96]	; (80008cc <main+0xac>)
 800086a:	2100      	movs	r1, #0
 800086c:	4815      	ldr	r0, [pc, #84]	; (80008c4 <main+0xa4>)
 800086e:	f000 fcd5 	bl	800121c <HAL_CAN_GetRxMessage>

			printf("===============\n");
 8000872:	4817      	ldr	r0, [pc, #92]	; (80008d0 <main+0xb0>)
 8000874:	f002 f9c6 	bl	8002c04 <puts>
			printf("Id: %x\n", (unsigned) header.StdId);
 8000878:	683b      	ldr	r3, [r7, #0]
 800087a:	4619      	mov	r1, r3
 800087c:	4815      	ldr	r0, [pc, #84]	; (80008d4 <main+0xb4>)
 800087e:	f002 f953 	bl	8002b28 <iprintf>
			printf("Length: %d\n", (int) header.DLC);
 8000882:	693b      	ldr	r3, [r7, #16]
 8000884:	4619      	mov	r1, r3
 8000886:	4814      	ldr	r0, [pc, #80]	; (80008d8 <main+0xb8>)
 8000888:	f002 f94e 	bl	8002b28 <iprintf>
			printf("Content: ");
 800088c:	4813      	ldr	r0, [pc, #76]	; (80008dc <main+0xbc>)
 800088e:	f002 f94b 	bl	8002b28 <iprintf>

			for (int i = 0; i < PACKET_SIZE; i++) {
 8000892:	2300      	movs	r3, #0
 8000894:	61fb      	str	r3, [r7, #28]
 8000896:	e00a      	b.n	80008ae <main+0x8e>
				printf("%x ", can_packet[i]);
 8000898:	4a0c      	ldr	r2, [pc, #48]	; (80008cc <main+0xac>)
 800089a:	69fb      	ldr	r3, [r7, #28]
 800089c:	4413      	add	r3, r2
 800089e:	781b      	ldrb	r3, [r3, #0]
 80008a0:	4619      	mov	r1, r3
 80008a2:	480f      	ldr	r0, [pc, #60]	; (80008e0 <main+0xc0>)
 80008a4:	f002 f940 	bl	8002b28 <iprintf>
			for (int i = 0; i < PACKET_SIZE; i++) {
 80008a8:	69fb      	ldr	r3, [r7, #28]
 80008aa:	3301      	adds	r3, #1
 80008ac:	61fb      	str	r3, [r7, #28]
 80008ae:	69fb      	ldr	r3, [r7, #28]
 80008b0:	2b07      	cmp	r3, #7
 80008b2:	ddf1      	ble.n	8000898 <main+0x78>
			}

			printf("\n");
 80008b4:	200a      	movs	r0, #10
 80008b6:	f002 f949 	bl	8002b4c <putchar>
		}
		HAL_Delay(10);
 80008ba:	200a      	movs	r0, #10
 80008bc:	f000 fa5e 	bl	8000d7c <HAL_Delay>
		if (HAL_CAN_GetRxFifoFillLevel(&hcan1, CAN_RX_FIFO0) > 0) {
 80008c0:	e7c1      	b.n	8000846 <main+0x26>
 80008c2:	bf00      	nop
 80008c4:	20000084 	.word	0x20000084
 80008c8:	40020000 	.word	0x40020000
 80008cc:	200000ac 	.word	0x200000ac
 80008d0:	08003958 	.word	0x08003958
 80008d4:	08003968 	.word	0x08003968
 80008d8:	08003970 	.word	0x08003970
 80008dc:	0800397c 	.word	0x0800397c
 80008e0:	08003988 	.word	0x08003988

080008e4 <SystemClock_Config>:

/**
 * @brief System Clock Configuration
 * @retval None
 */
void SystemClock_Config(void) {
 80008e4:	b580      	push	{r7, lr}
 80008e6:	b094      	sub	sp, #80	; 0x50
 80008e8:	af00      	add	r7, sp, #0
	RCC_OscInitTypeDef RCC_OscInitStruct = { 0 };
 80008ea:	f107 031c 	add.w	r3, r7, #28
 80008ee:	2234      	movs	r2, #52	; 0x34
 80008f0:	2100      	movs	r1, #0
 80008f2:	4618      	mov	r0, r3
 80008f4:	f002 fa66 	bl	8002dc4 <memset>
	RCC_ClkInitTypeDef RCC_ClkInitStruct = { 0 };
 80008f8:	f107 0308 	add.w	r3, r7, #8
 80008fc:	2200      	movs	r2, #0
 80008fe:	601a      	str	r2, [r3, #0]
 8000900:	605a      	str	r2, [r3, #4]
 8000902:	609a      	str	r2, [r3, #8]
 8000904:	60da      	str	r2, [r3, #12]
 8000906:	611a      	str	r2, [r3, #16]

	/** Configure the main internal regulator output voltage
	 */
	__HAL_RCC_PWR_CLK_ENABLE();
 8000908:	4b2c      	ldr	r3, [pc, #176]	; (80009bc <SystemClock_Config+0xd8>)
 800090a:	6c1b      	ldr	r3, [r3, #64]	; 0x40
 800090c:	4a2b      	ldr	r2, [pc, #172]	; (80009bc <SystemClock_Config+0xd8>)
 800090e:	f043 5380 	orr.w	r3, r3, #268435456	; 0x10000000
 8000912:	6413      	str	r3, [r2, #64]	; 0x40
 8000914:	4b29      	ldr	r3, [pc, #164]	; (80009bc <SystemClock_Config+0xd8>)
 8000916:	6c1b      	ldr	r3, [r3, #64]	; 0x40
 8000918:	f003 5380 	and.w	r3, r3, #268435456	; 0x10000000
 800091c:	607b      	str	r3, [r7, #4]
 800091e:	687b      	ldr	r3, [r7, #4]
	__HAL_PWR_VOLTAGESCALING_CONFIG(PWR_REGULATOR_VOLTAGE_SCALE3);
 8000920:	4b27      	ldr	r3, [pc, #156]	; (80009c0 <SystemClock_Config+0xdc>)
 8000922:	681b      	ldr	r3, [r3, #0]
 8000924:	f423 4340 	bic.w	r3, r3, #49152	; 0xc000
 8000928:	4a25      	ldr	r2, [pc, #148]	; (80009c0 <SystemClock_Config+0xdc>)
 800092a:	f443 4380 	orr.w	r3, r3, #16384	; 0x4000
 800092e:	6013      	str	r3, [r2, #0]
 8000930:	4b23      	ldr	r3, [pc, #140]	; (80009c0 <SystemClock_Config+0xdc>)
 8000932:	681b      	ldr	r3, [r3, #0]
 8000934:	f403 4340 	and.w	r3, r3, #49152	; 0xc000
 8000938:	603b      	str	r3, [r7, #0]
 800093a:	683b      	ldr	r3, [r7, #0]

	/** Initializes the RCC Oscillators according to the specified parameters
	 * in the RCC_OscInitTypeDef structure.
	 */
	RCC_OscInitStruct.OscillatorType = RCC_OSCILLATORTYPE_HSI;
 800093c:	2302      	movs	r3, #2
 800093e:	61fb      	str	r3, [r7, #28]
	RCC_OscInitStruct.HSIState = RCC_HSI_ON;
 8000940:	2301      	movs	r3, #1
 8000942:	62bb      	str	r3, [r7, #40]	; 0x28
	RCC_OscInitStruct.HSICalibrationValue = RCC_HSICALIBRATION_DEFAULT;
 8000944:	2310      	movs	r3, #16
 8000946:	62fb      	str	r3, [r7, #44]	; 0x2c
	RCC_OscInitStruct.PLL.PLLState = RCC_PLL_ON;
 8000948:	2302      	movs	r3, #2
 800094a:	637b      	str	r3, [r7, #52]	; 0x34
	RCC_OscInitStruct.PLL.PLLSource = RCC_PLLSOURCE_HSI;
 800094c:	2300      	movs	r3, #0
 800094e:	63bb      	str	r3, [r7, #56]	; 0x38
	RCC_OscInitStruct.PLL.PLLM = 16;
 8000950:	2310      	movs	r3, #16
 8000952:	63fb      	str	r3, [r7, #60]	; 0x3c
	RCC_OscInitStruct.PLL.PLLN = 192;
 8000954:	23c0      	movs	r3, #192	; 0xc0
 8000956:	643b      	str	r3, [r7, #64]	; 0x40
	RCC_OscInitStruct.PLL.PLLP = RCC_PLLP_DIV2;
 8000958:	2302      	movs	r3, #2
 800095a:	647b      	str	r3, [r7, #68]	; 0x44
	RCC_OscInitStruct.PLL.PLLQ = 2;
 800095c:	2302      	movs	r3, #2
 800095e:	64bb      	str	r3, [r7, #72]	; 0x48
	RCC_OscInitStruct.PLL.PLLR = 2;
 8000960:	2302      	movs	r3, #2
 8000962:	64fb      	str	r3, [r7, #76]	; 0x4c
	if (HAL_RCC_OscConfig(&RCC_OscInitStruct) != HAL_OK) {
 8000964:	f107 031c 	add.w	r3, r7, #28
 8000968:	4618      	mov	r0, r3
 800096a:	f001 f889 	bl	8001a80 <HAL_RCC_OscConfig>
 800096e:	4603      	mov	r3, r0
 8000970:	2b00      	cmp	r3, #0
 8000972:	d001      	beq.n	8000978 <SystemClock_Config+0x94>
		Error_Handler();
 8000974:	f000 f838 	bl	80009e8 <Error_Handler>
	}

	/** Activate the Over-Drive mode
	 */
	if (HAL_PWREx_EnableOverDrive() != HAL_OK) {
 8000978:	f001 f832 	bl	80019e0 <HAL_PWREx_EnableOverDrive>
 800097c:	4603      	mov	r3, r0
 800097e:	2b00      	cmp	r3, #0
 8000980:	d001      	beq.n	8000986 <SystemClock_Config+0xa2>
		Error_Handler();
 8000982:	f000 f831 	bl	80009e8 <Error_Handler>
	}

	/** Initializes the CPU, AHB and APB buses clocks
	 */
	RCC_ClkInitStruct.ClockType = RCC_CLOCKTYPE_HCLK | RCC_CLOCKTYPE_SYSCLK
 8000986:	230f      	movs	r3, #15
 8000988:	60bb      	str	r3, [r7, #8]
			| RCC_CLOCKTYPE_PCLK1 | RCC_CLOCKTYPE_PCLK2;
	RCC_ClkInitStruct.SYSCLKSource = RCC_SYSCLKSOURCE_PLLCLK;
 800098a:	2302      	movs	r3, #2
 800098c:	60fb      	str	r3, [r7, #12]
	RCC_ClkInitStruct.AHBCLKDivider = RCC_SYSCLK_DIV1;
 800098e:	2300      	movs	r3, #0
 8000990:	613b      	str	r3, [r7, #16]
	RCC_ClkInitStruct.APB1CLKDivider = RCC_HCLK_DIV2;
 8000992:	f44f 5380 	mov.w	r3, #4096	; 0x1000
 8000996:	617b      	str	r3, [r7, #20]
	RCC_ClkInitStruct.APB2CLKDivider = RCC_HCLK_DIV1;
 8000998:	2300      	movs	r3, #0
 800099a:	61bb      	str	r3, [r7, #24]

	if (HAL_RCC_ClockConfig(&RCC_ClkInitStruct, FLASH_LATENCY_3) != HAL_OK) {
 800099c:	f107 0308 	add.w	r3, r7, #8
 80009a0:	2103      	movs	r1, #3
 80009a2:	4618      	mov	r0, r3
 80009a4:	f001 fb1a 	bl	8001fdc <HAL_RCC_ClockConfig>
 80009a8:	4603      	mov	r3, r0
 80009aa:	2b00      	cmp	r3, #0
 80009ac:	d001      	beq.n	80009b2 <SystemClock_Config+0xce>
		Error_Handler();
 80009ae:	f000 f81b 	bl	80009e8 <Error_Handler>
	}
}
 80009b2:	bf00      	nop
 80009b4:	3750      	adds	r7, #80	; 0x50
 80009b6:	46bd      	mov	sp, r7
 80009b8:	bd80      	pop	{r7, pc}
 80009ba:	bf00      	nop
 80009bc:	40023800 	.word	0x40023800
 80009c0:	40007000 	.word	0x40007000

080009c4 <HAL_TIM_PeriodElapsedCallback>:
 * HAL_TIM_IRQHandler(). It makes a direct call to HAL_IncTick() to increment
 * a global variable "uwTick" used as application time base.
 * @param  htim : TIM handle
 * @retval None
 */
void HAL_TIM_PeriodElapsedCallback(TIM_HandleTypeDef *htim) {
 80009c4:	b580      	push	{r7, lr}
 80009c6:	b082      	sub	sp, #8
 80009c8:	af00      	add	r7, sp, #0
 80009ca:	6078      	str	r0, [r7, #4]
	/* USER CODE BEGIN Callback 0 */

	/* USER CODE END Callback 0 */
	if (htim->Instance == TIM6) {
 80009cc:	687b      	ldr	r3, [r7, #4]
 80009ce:	681b      	ldr	r3, [r3, #0]
 80009d0:	4a04      	ldr	r2, [pc, #16]	; (80009e4 <HAL_TIM_PeriodElapsedCallback+0x20>)
 80009d2:	4293      	cmp	r3, r2
 80009d4:	d101      	bne.n	80009da <HAL_TIM_PeriodElapsedCallback+0x16>
		HAL_IncTick();
 80009d6:	f000 f9b1 	bl	8000d3c <HAL_IncTick>
	}
	/* USER CODE BEGIN Callback 1 */

	/* USER CODE END Callback 1 */
}
 80009da:	bf00      	nop
 80009dc:	3708      	adds	r7, #8
 80009de:	46bd      	mov	sp, r7
 80009e0:	bd80      	pop	{r7, pc}
 80009e2:	bf00      	nop
 80009e4:	40001000 	.word	0x40001000

080009e8 <Error_Handler>:

/**
 * @brief  This function is executed in case of error occurrence.
 * @retval None
 */
void Error_Handler(void) {
 80009e8:	b480      	push	{r7}
 80009ea:	af00      	add	r7, sp, #0
  \details Disables IRQ interrupts by setting the I-bit in the CPSR.
           Can only be executed in Privileged modes.
 */
__STATIC_FORCEINLINE void __disable_irq(void)
{
  __ASM volatile ("cpsid i" : : : "memory");
 80009ec:	b672      	cpsid	i
}
 80009ee:	bf00      	nop
	/* USER CODE BEGIN Error_Handler_Debug */
	/* User can add his own implementation to report the HAL error return state */
	__disable_irq();
	while (1) {
 80009f0:	e7fe      	b.n	80009f0 <Error_Handler+0x8>
	...

080009f4 <HAL_MspInit>:
/* USER CODE END 0 */
/**
  * Initializes the Global MSP.
  */
void HAL_MspInit(void)
{
 80009f4:	b480      	push	{r7}
 80009f6:	b083      	sub	sp, #12
 80009f8:	af00      	add	r7, sp, #0
  /* USER CODE BEGIN MspInit 0 */

  /* USER CODE END MspInit 0 */

  __HAL_RCC_PWR_CLK_ENABLE();
 80009fa:	4b0f      	ldr	r3, [pc, #60]	; (8000a38 <HAL_MspInit+0x44>)
 80009fc:	6c1b      	ldr	r3, [r3, #64]	; 0x40
 80009fe:	4a0e      	ldr	r2, [pc, #56]	; (8000a38 <HAL_MspInit+0x44>)
 8000a00:	f043 5380 	orr.w	r3, r3, #268435456	; 0x10000000
 8000a04:	6413      	str	r3, [r2, #64]	; 0x40
 8000a06:	4b0c      	ldr	r3, [pc, #48]	; (8000a38 <HAL_MspInit+0x44>)
 8000a08:	6c1b      	ldr	r3, [r3, #64]	; 0x40
 8000a0a:	f003 5380 	and.w	r3, r3, #268435456	; 0x10000000
 8000a0e:	607b      	str	r3, [r7, #4]
 8000a10:	687b      	ldr	r3, [r7, #4]
  __HAL_RCC_SYSCFG_CLK_ENABLE();
 8000a12:	4b09      	ldr	r3, [pc, #36]	; (8000a38 <HAL_MspInit+0x44>)
 8000a14:	6c5b      	ldr	r3, [r3, #68]	; 0x44
 8000a16:	4a08      	ldr	r2, [pc, #32]	; (8000a38 <HAL_MspInit+0x44>)
 8000a18:	f443 4380 	orr.w	r3, r3, #16384	; 0x4000
 8000a1c:	6453      	str	r3, [r2, #68]	; 0x44
 8000a1e:	4b06      	ldr	r3, [pc, #24]	; (8000a38 <HAL_MspInit+0x44>)
 8000a20:	6c5b      	ldr	r3, [r3, #68]	; 0x44
 8000a22:	f403 4380 	and.w	r3, r3, #16384	; 0x4000
 8000a26:	603b      	str	r3, [r7, #0]
 8000a28:	683b      	ldr	r3, [r7, #0]
  /* System interrupt init*/

  /* USER CODE BEGIN MspInit 1 */

  /* USER CODE END MspInit 1 */
}
 8000a2a:	bf00      	nop
 8000a2c:	370c      	adds	r7, #12
 8000a2e:	46bd      	mov	sp, r7
 8000a30:	f85d 7b04 	ldr.w	r7, [sp], #4
 8000a34:	4770      	bx	lr
 8000a36:	bf00      	nop
 8000a38:	40023800 	.word	0x40023800

08000a3c <HAL_InitTick>:
  *         reset by HAL_Init() or at any time when clock is configured, by HAL_RCC_ClockConfig().
  * @param  TickPriority: Tick interrupt priority.
  * @retval HAL status
  */
HAL_StatusTypeDef HAL_InitTick(uint32_t TickPriority)
{
 8000a3c:	b580      	push	{r7, lr}
 8000a3e:	b08e      	sub	sp, #56	; 0x38
 8000a40:	af00      	add	r7, sp, #0
 8000a42:	6078      	str	r0, [r7, #4]
  RCC_ClkInitTypeDef    clkconfig;
  uint32_t              uwTimclock, uwAPB1Prescaler = 0U;
 8000a44:	2300      	movs	r3, #0
 8000a46:	62fb      	str	r3, [r7, #44]	; 0x2c

  uint32_t              uwPrescalerValue = 0U;
 8000a48:	2300      	movs	r3, #0
 8000a4a:	62bb      	str	r3, [r7, #40]	; 0x28
  uint32_t              pFLatency;
  HAL_StatusTypeDef     status;

  /* Enable TIM6 clock */
  __HAL_RCC_TIM6_CLK_ENABLE();
 8000a4c:	4b33      	ldr	r3, [pc, #204]	; (8000b1c <HAL_InitTick+0xe0>)
 8000a4e:	6c1b      	ldr	r3, [r3, #64]	; 0x40
 8000a50:	4a32      	ldr	r2, [pc, #200]	; (8000b1c <HAL_InitTick+0xe0>)
 8000a52:	f043 0310 	orr.w	r3, r3, #16
 8000a56:	6413      	str	r3, [r2, #64]	; 0x40
 8000a58:	4b30      	ldr	r3, [pc, #192]	; (8000b1c <HAL_InitTick+0xe0>)
 8000a5a:	6c1b      	ldr	r3, [r3, #64]	; 0x40
 8000a5c:	f003 0310 	and.w	r3, r3, #16
 8000a60:	60fb      	str	r3, [r7, #12]
 8000a62:	68fb      	ldr	r3, [r7, #12]

  /* Get clock configuration */
  HAL_RCC_GetClockConfig(&clkconfig, &pFLatency);
 8000a64:	f107 0210 	add.w	r2, r7, #16
 8000a68:	f107 0314 	add.w	r3, r7, #20
 8000a6c:	4611      	mov	r1, r2
 8000a6e:	4618      	mov	r0, r3
 8000a70:	f001 fc86 	bl	8002380 <HAL_RCC_GetClockConfig>

  /* Get APB1 prescaler */
  uwAPB1Prescaler = clkconfig.APB1CLKDivider;
 8000a74:	6a3b      	ldr	r3, [r7, #32]
 8000a76:	62fb      	str	r3, [r7, #44]	; 0x2c
  /* Compute TIM6 clock */
  if (uwAPB1Prescaler == RCC_HCLK_DIV1)
 8000a78:	6afb      	ldr	r3, [r7, #44]	; 0x2c
 8000a7a:	2b00      	cmp	r3, #0
 8000a7c:	d103      	bne.n	8000a86 <HAL_InitTick+0x4a>
  {
    uwTimclock = HAL_RCC_GetPCLK1Freq();
 8000a7e:	f001 fc6b 	bl	8002358 <HAL_RCC_GetPCLK1Freq>
 8000a82:	6378      	str	r0, [r7, #52]	; 0x34
 8000a84:	e004      	b.n	8000a90 <HAL_InitTick+0x54>
  }
  else
  {
    uwTimclock = 2UL * HAL_RCC_GetPCLK1Freq();
 8000a86:	f001 fc67 	bl	8002358 <HAL_RCC_GetPCLK1Freq>
 8000a8a:	4603      	mov	r3, r0
 8000a8c:	005b      	lsls	r3, r3, #1
 8000a8e:	637b      	str	r3, [r7, #52]	; 0x34
  }

  /* Compute the prescaler value to have TIM6 counter clock equal to 1MHz */
  uwPrescalerValue = (uint32_t) ((uwTimclock / 1000000U) - 1U);
 8000a90:	6b7b      	ldr	r3, [r7, #52]	; 0x34
 8000a92:	4a23      	ldr	r2, [pc, #140]	; (8000b20 <HAL_InitTick+0xe4>)
 8000a94:	fba2 2303 	umull	r2, r3, r2, r3
 8000a98:	0c9b      	lsrs	r3, r3, #18
 8000a9a:	3b01      	subs	r3, #1
 8000a9c:	62bb      	str	r3, [r7, #40]	; 0x28

  /* Initialize TIM6 */
  htim6.Instance = TIM6;
 8000a9e:	4b21      	ldr	r3, [pc, #132]	; (8000b24 <HAL_InitTick+0xe8>)
 8000aa0:	4a21      	ldr	r2, [pc, #132]	; (8000b28 <HAL_InitTick+0xec>)
 8000aa2:	601a      	str	r2, [r3, #0]
  + Period = [(TIM6CLK/1000) - 1]. to have a (1/1000) s time base.
  + Prescaler = (uwTimclock/1000000 - 1) to have a 1MHz counter clock.
  + ClockDivision = 0
  + Counter direction = Up
  */
  htim6.Init.Period = (1000000U / 1000U) - 1U;
 8000aa4:	4b1f      	ldr	r3, [pc, #124]	; (8000b24 <HAL_InitTick+0xe8>)
 8000aa6:	f240 32e7 	movw	r2, #999	; 0x3e7
 8000aaa:	60da      	str	r2, [r3, #12]
  htim6.Init.Prescaler = uwPrescalerValue;
 8000aac:	4a1d      	ldr	r2, [pc, #116]	; (8000b24 <HAL_InitTick+0xe8>)
 8000aae:	6abb      	ldr	r3, [r7, #40]	; 0x28
 8000ab0:	6053      	str	r3, [r2, #4]
  htim6.Init.ClockDivision = 0;
 8000ab2:	4b1c      	ldr	r3, [pc, #112]	; (8000b24 <HAL_InitTick+0xe8>)
 8000ab4:	2200      	movs	r2, #0
 8000ab6:	611a      	str	r2, [r3, #16]
  htim6.Init.CounterMode = TIM_COUNTERMODE_UP;
 8000ab8:	4b1a      	ldr	r3, [pc, #104]	; (8000b24 <HAL_InitTick+0xe8>)
 8000aba:	2200      	movs	r2, #0
 8000abc:	609a      	str	r2, [r3, #8]
  htim6.Init.AutoReloadPreload = TIM_AUTORELOAD_PRELOAD_DISABLE;
 8000abe:	4b19      	ldr	r3, [pc, #100]	; (8000b24 <HAL_InitTick+0xe8>)
 8000ac0:	2200      	movs	r2, #0
 8000ac2:	619a      	str	r2, [r3, #24]

  status = HAL_TIM_Base_Init(&htim6);
 8000ac4:	4817      	ldr	r0, [pc, #92]	; (8000b24 <HAL_InitTick+0xe8>)
 8000ac6:	f001 fc8d 	bl	80023e4 <HAL_TIM_Base_Init>
 8000aca:	4603      	mov	r3, r0
 8000acc:	f887 3033 	strb.w	r3, [r7, #51]	; 0x33
  if (status == HAL_OK)
 8000ad0:	f897 3033 	ldrb.w	r3, [r7, #51]	; 0x33
 8000ad4:	2b00      	cmp	r3, #0
 8000ad6:	d11b      	bne.n	8000b10 <HAL_InitTick+0xd4>
  {
    /* Start the TIM time Base generation in interrupt mode */
    status = HAL_TIM_Base_Start_IT(&htim6);
 8000ad8:	4812      	ldr	r0, [pc, #72]	; (8000b24 <HAL_InitTick+0xe8>)
 8000ada:	f001 fce5 	bl	80024a8 <HAL_TIM_Base_Start_IT>
 8000ade:	4603      	mov	r3, r0
 8000ae0:	f887 3033 	strb.w	r3, [r7, #51]	; 0x33
    if (status == HAL_OK)
 8000ae4:	f897 3033 	ldrb.w	r3, [r7, #51]	; 0x33
 8000ae8:	2b00      	cmp	r3, #0
 8000aea:	d111      	bne.n	8000b10 <HAL_InitTick+0xd4>
    {
    /* Enable the TIM6 global Interrupt */
        HAL_NVIC_EnableIRQ(TIM6_DAC_IRQn);
 8000aec:	2036      	movs	r0, #54	; 0x36
 8000aee:	f000 fda3 	bl	8001638 <HAL_NVIC_EnableIRQ>
      /* Configure the SysTick IRQ priority */
      if (TickPriority < (1UL << __NVIC_PRIO_BITS))
 8000af2:	687b      	ldr	r3, [r7, #4]
 8000af4:	2b0f      	cmp	r3, #15
 8000af6:	d808      	bhi.n	8000b0a <HAL_InitTick+0xce>
      {
        /* Configure the TIM IRQ priority */
        HAL_NVIC_SetPriority(TIM6_DAC_IRQn, TickPriority, 0U);
 8000af8:	2200      	movs	r2, #0
 8000afa:	6879      	ldr	r1, [r7, #4]
 8000afc:	2036      	movs	r0, #54	; 0x36
 8000afe:	f000 fd7f 	bl	8001600 <HAL_NVIC_SetPriority>
        uwTickPrio = TickPriority;
 8000b02:	4a0a      	ldr	r2, [pc, #40]	; (8000b2c <HAL_InitTick+0xf0>)
 8000b04:	687b      	ldr	r3, [r7, #4]
 8000b06:	6013      	str	r3, [r2, #0]
 8000b08:	e002      	b.n	8000b10 <HAL_InitTick+0xd4>
      }
      else
      {
        status = HAL_ERROR;
 8000b0a:	2301      	movs	r3, #1
 8000b0c:	f887 3033 	strb.w	r3, [r7, #51]	; 0x33
      }
    }
  }

 /* Return function status */
  return status;
 8000b10:	f897 3033 	ldrb.w	r3, [r7, #51]	; 0x33
}
 8000b14:	4618      	mov	r0, r3
 8000b16:	3738      	adds	r7, #56	; 0x38
 8000b18:	46bd      	mov	sp, r7
 8000b1a:	bd80      	pop	{r7, pc}
 8000b1c:	40023800 	.word	0x40023800
 8000b20:	431bde83 	.word	0x431bde83
 8000b24:	200000b4 	.word	0x200000b4
 8000b28:	40001000 	.word	0x40001000
 8000b2c:	20000004 	.word	0x20000004

08000b30 <NMI_Handler>:
/******************************************************************************/
/**
  * @brief This function handles Non maskable interrupt.
  */
void NMI_Handler(void)
{
 8000b30:	b480      	push	{r7}
 8000b32:	af00      	add	r7, sp, #0
  /* USER CODE BEGIN NonMaskableInt_IRQn 0 */

  /* USER CODE END NonMaskableInt_IRQn 0 */
  /* USER CODE BEGIN NonMaskableInt_IRQn 1 */
   while (1)
 8000b34:	e7fe      	b.n	8000b34 <NMI_Handler+0x4>

08000b36 <HardFault_Handler>:

/**
  * @brief This function handles Hard fault interrupt.
  */
void HardFault_Handler(void)
{
 8000b36:	b480      	push	{r7}
 8000b38:	af00      	add	r7, sp, #0
  /* USER CODE BEGIN HardFault_IRQn 0 */

  /* USER CODE END HardFault_IRQn 0 */
  while (1)
 8000b3a:	e7fe      	b.n	8000b3a <HardFault_Handler+0x4>

08000b3c <MemManage_Handler>:

/**
  * @brief This function handles Memory management fault.
  */
void MemManage_Handler(void)
{
 8000b3c:	b480      	push	{r7}
 8000b3e:	af00      	add	r7, sp, #0
  /* USER CODE BEGIN MemoryManagement_IRQn 0 */

  /* USER CODE END MemoryManagement_IRQn 0 */
  while (1)
 8000b40:	e7fe      	b.n	8000b40 <MemManage_Handler+0x4>

08000b42 <BusFault_Handler>:

/**
  * @brief This function handles Pre-fetch fault, memory access fault.
  */
void BusFault_Handler(void)
{
 8000b42:	b480      	push	{r7}
 8000b44:	af00      	add	r7, sp, #0
  /* USER CODE BEGIN BusFault_IRQn 0 */

  /* USER CODE END BusFault_IRQn 0 */
  while (1)
 8000b46:	e7fe      	b.n	8000b46 <BusFault_Handler+0x4>

08000b48 <UsageFault_Handler>:

/**
  * @brief This function handles Undefined instruction or illegal state.
  */
void UsageFault_Handler(void)
{
 8000b48:	b480      	push	{r7}
 8000b4a:	af00      	add	r7, sp, #0
  /* USER CODE BEGIN UsageFault_IRQn 0 */

  /* USER CODE END UsageFault_IRQn 0 */
  while (1)
 8000b4c:	e7fe      	b.n	8000b4c <UsageFault_Handler+0x4>

08000b4e <SVC_Handler>:

/**
  * @brief This function handles System service call via SWI instruction.
  */
void SVC_Handler(void)
{
 8000b4e:	b480      	push	{r7}
 8000b50:	af00      	add	r7, sp, #0

  /* USER CODE END SVCall_IRQn 0 */
  /* USER CODE BEGIN SVCall_IRQn 1 */

  /* USER CODE END SVCall_IRQn 1 */
}
 8000b52:	bf00      	nop
 8000b54:	46bd      	mov	sp, r7
 8000b56:	f85d 7b04 	ldr.w	r7, [sp], #4
 8000b5a:	4770      	bx	lr

08000b5c <DebugMon_Handler>:

/**
  * @brief This function handles Debug monitor.
  */
void DebugMon_Handler(void)
{
 8000b5c:	b480      	push	{r7}
 8000b5e:	af00      	add	r7, sp, #0

  /* USER CODE END DebugMonitor_IRQn 0 */
  /* USER CODE BEGIN DebugMonitor_IRQn 1 */

  /* USER CODE END DebugMonitor_IRQn 1 */
}
 8000b60:	bf00      	nop
 8000b62:	46bd      	mov	sp, r7
 8000b64:	f85d 7b04 	ldr.w	r7, [sp], #4
 8000b68:	4770      	bx	lr

08000b6a <PendSV_Handler>:

/**
  * @brief This function handles Pendable request for system service.
  */
void PendSV_Handler(void)
{
 8000b6a:	b480      	push	{r7}
 8000b6c:	af00      	add	r7, sp, #0

  /* USER CODE END PendSV_IRQn 0 */
  /* USER CODE BEGIN PendSV_IRQn 1 */

  /* USER CODE END PendSV_IRQn 1 */
}
 8000b6e:	bf00      	nop
 8000b70:	46bd      	mov	sp, r7
 8000b72:	f85d 7b04 	ldr.w	r7, [sp], #4
 8000b76:	4770      	bx	lr

08000b78 <SysTick_Handler>:

/**
  * @brief This function handles System tick timer.
  */
void SysTick_Handler(void)
{
 8000b78:	b480      	push	{r7}
 8000b7a:	af00      	add	r7, sp, #0
  /* USER CODE END SysTick_IRQn 0 */

  /* USER CODE BEGIN SysTick_IRQn 1 */

  /* USER CODE END SysTick_IRQn 1 */
}
 8000b7c:	bf00      	nop
 8000b7e:	46bd      	mov	sp, r7
 8000b80:	f85d 7b04 	ldr.w	r7, [sp], #4
 8000b84:	4770      	bx	lr
	...

08000b88 <TIM6_DAC_IRQHandler>:

/**
  * @brief This function handles TIM6 global interrupt, DAC1 and DAC2 underrun error interrupts.
  */
void TIM6_DAC_IRQHandler(void)
{
 8000b88:	b580      	push	{r7, lr}
 8000b8a:	af00      	add	r7, sp, #0
  /* USER CODE BEGIN TIM6_DAC_IRQn 0 */

  /* USER CODE END TIM6_DAC_IRQn 0 */
  HAL_TIM_IRQHandler(&htim6);
 8000b8c:	4802      	ldr	r0, [pc, #8]	; (8000b98 <TIM6_DAC_IRQHandler+0x10>)
 8000b8e:	f001 fd03 	bl	8002598 <HAL_TIM_IRQHandler>
  /* USER CODE BEGIN TIM6_DAC_IRQn 1 */

  /* USER CODE END TIM6_DAC_IRQn 1 */
}
 8000b92:	bf00      	nop
 8000b94:	bd80      	pop	{r7, pc}
 8000b96:	bf00      	nop
 8000b98:	200000b4 	.word	0x200000b4

08000b9c <_read>:
  _kill(status, -1);
  while (1) {}    /* Make sure we hang here */
}

__attribute__((weak)) int _read(int file, char *ptr, int len)
{
 8000b9c:	b580      	push	{r7, lr}
 8000b9e:	b086      	sub	sp, #24
 8000ba0:	af00      	add	r7, sp, #0
 8000ba2:	60f8      	str	r0, [r7, #12]
 8000ba4:	60b9      	str	r1, [r7, #8]
 8000ba6:	607a      	str	r2, [r7, #4]
  (void)file;
  int DataIdx;

  for (DataIdx = 0; DataIdx < len; DataIdx++)
 8000ba8:	2300      	movs	r3, #0
 8000baa:	617b      	str	r3, [r7, #20]
 8000bac:	e00a      	b.n	8000bc4 <_read+0x28>
  {
    *ptr++ = __io_getchar();
 8000bae:	f3af 8000 	nop.w
 8000bb2:	4601      	mov	r1, r0
 8000bb4:	68bb      	ldr	r3, [r7, #8]
 8000bb6:	1c5a      	adds	r2, r3, #1
 8000bb8:	60ba      	str	r2, [r7, #8]
 8000bba:	b2ca      	uxtb	r2, r1
 8000bbc:	701a      	strb	r2, [r3, #0]
  for (DataIdx = 0; DataIdx < len; DataIdx++)
 8000bbe:	697b      	ldr	r3, [r7, #20]
 8000bc0:	3301      	adds	r3, #1
 8000bc2:	617b      	str	r3, [r7, #20]
 8000bc4:	697a      	ldr	r2, [r7, #20]
 8000bc6:	687b      	ldr	r3, [r7, #4]
 8000bc8:	429a      	cmp	r2, r3
 8000bca:	dbf0      	blt.n	8000bae <_read+0x12>
  }

  return len;
 8000bcc:	687b      	ldr	r3, [r7, #4]
}
 8000bce:	4618      	mov	r0, r3
 8000bd0:	3718      	adds	r7, #24
 8000bd2:	46bd      	mov	sp, r7
 8000bd4:	bd80      	pop	{r7, pc}

08000bd6 <_close>:
  }
  return len;
}

int _close(int file)
{
 8000bd6:	b480      	push	{r7}
 8000bd8:	b083      	sub	sp, #12
 8000bda:	af00      	add	r7, sp, #0
 8000bdc:	6078      	str	r0, [r7, #4]
  (void)file;
  return -1;
 8000bde:	f04f 33ff 	mov.w	r3, #4294967295
}
 8000be2:	4618      	mov	r0, r3
 8000be4:	370c      	adds	r7, #12
 8000be6:	46bd      	mov	sp, r7
 8000be8:	f85d 7b04 	ldr.w	r7, [sp], #4
 8000bec:	4770      	bx	lr

08000bee <_fstat>:


int _fstat(int file, struct stat *st)
{
 8000bee:	b480      	push	{r7}
 8000bf0:	b083      	sub	sp, #12
 8000bf2:	af00      	add	r7, sp, #0
 8000bf4:	6078      	str	r0, [r7, #4]
 8000bf6:	6039      	str	r1, [r7, #0]
  (void)file;
  st->st_mode = S_IFCHR;
 8000bf8:	683b      	ldr	r3, [r7, #0]
 8000bfa:	f44f 5200 	mov.w	r2, #8192	; 0x2000
 8000bfe:	605a      	str	r2, [r3, #4]
  return 0;
 8000c00:	2300      	movs	r3, #0
}
 8000c02:	4618      	mov	r0, r3
 8000c04:	370c      	adds	r7, #12
 8000c06:	46bd      	mov	sp, r7
 8000c08:	f85d 7b04 	ldr.w	r7, [sp], #4
 8000c0c:	4770      	bx	lr

08000c0e <_isatty>:

int _isatty(int file)
{
 8000c0e:	b480      	push	{r7}
 8000c10:	b083      	sub	sp, #12
 8000c12:	af00      	add	r7, sp, #0
 8000c14:	6078      	str	r0, [r7, #4]
  (void)file;
  return 1;
 8000c16:	2301      	movs	r3, #1
}
 8000c18:	4618      	mov	r0, r3
 8000c1a:	370c      	adds	r7, #12
 8000c1c:	46bd      	mov	sp, r7
 8000c1e:	f85d 7b04 	ldr.w	r7, [sp], #4
 8000c22:	4770      	bx	lr

08000c24 <_lseek>:

int _lseek(int file, int ptr, int dir)
{
 8000c24:	b480      	push	{r7}
 8000c26:	b085      	sub	sp, #20
 8000c28:	af00      	add	r7, sp, #0
 8000c2a:	60f8      	str	r0, [r7, #12]
 8000c2c:	60b9      	str	r1, [r7, #8]
 8000c2e:	607a      	str	r2, [r7, #4]
  (void)file;
  (void)ptr;
  (void)dir;
  return 0;
 8000c30:	2300      	movs	r3, #0
}
 8000c32:	4618      	mov	r0, r3
 8000c34:	3714      	adds	r7, #20
 8000c36:	46bd      	mov	sp, r7
 8000c38:	f85d 7b04 	ldr.w	r7, [sp], #4
 8000c3c:	4770      	bx	lr
	...

08000c40 <_sbrk>:
 *
 * @param incr Memory size
 * @return Pointer to allocated memory
 */
void *_sbrk(ptrdiff_t incr)
{
 8000c40:	b580      	push	{r7, lr}
 8000c42:	b086      	sub	sp, #24
 8000c44:	af00      	add	r7, sp, #0
 8000c46:	6078      	str	r0, [r7, #4]
  extern uint8_t _end; /* Symbol defined in the linker script */
  extern uint8_t _estack; /* Symbol defined in the linker script */
  extern uint32_t _Min_Stack_Size; /* Symbol defined in the linker script */
  const uint32_t stack_limit = (uint32_t)&_estack - (uint32_t)&_Min_Stack_Size;
 8000c48:	4a14      	ldr	r2, [pc, #80]	; (8000c9c <_sbrk+0x5c>)
 8000c4a:	4b15      	ldr	r3, [pc, #84]	; (8000ca0 <_sbrk+0x60>)
 8000c4c:	1ad3      	subs	r3, r2, r3
 8000c4e:	617b      	str	r3, [r7, #20]
  const uint8_t *max_heap = (uint8_t *)stack_limit;
 8000c50:	697b      	ldr	r3, [r7, #20]
 8000c52:	613b      	str	r3, [r7, #16]
  uint8_t *prev_heap_end;

  /* Initialize heap end at first call */
  if (NULL == __sbrk_heap_end)
 8000c54:	4b13      	ldr	r3, [pc, #76]	; (8000ca4 <_sbrk+0x64>)
 8000c56:	681b      	ldr	r3, [r3, #0]
 8000c58:	2b00      	cmp	r3, #0
 8000c5a:	d102      	bne.n	8000c62 <_sbrk+0x22>
  {
    __sbrk_heap_end = &_end;
 8000c5c:	4b11      	ldr	r3, [pc, #68]	; (8000ca4 <_sbrk+0x64>)
 8000c5e:	4a12      	ldr	r2, [pc, #72]	; (8000ca8 <_sbrk+0x68>)
 8000c60:	601a      	str	r2, [r3, #0]
  }

  /* Protect heap from growing into the reserved MSP stack */
  if (__sbrk_heap_end + incr > max_heap)
 8000c62:	4b10      	ldr	r3, [pc, #64]	; (8000ca4 <_sbrk+0x64>)
 8000c64:	681a      	ldr	r2, [r3, #0]
 8000c66:	687b      	ldr	r3, [r7, #4]
 8000c68:	4413      	add	r3, r2
 8000c6a:	693a      	ldr	r2, [r7, #16]
 8000c6c:	429a      	cmp	r2, r3
 8000c6e:	d207      	bcs.n	8000c80 <_sbrk+0x40>
  {
    errno = ENOMEM;
 8000c70:	f002 f8f6 	bl	8002e60 <__errno>
 8000c74:	4603      	mov	r3, r0
 8000c76:	220c      	movs	r2, #12
 8000c78:	601a      	str	r2, [r3, #0]
    return (void *)-1;
 8000c7a:	f04f 33ff 	mov.w	r3, #4294967295
 8000c7e:	e009      	b.n	8000c94 <_sbrk+0x54>
  }

  prev_heap_end = __sbrk_heap_end;
 8000c80:	4b08      	ldr	r3, [pc, #32]	; (8000ca4 <_sbrk+0x64>)
 8000c82:	681b      	ldr	r3, [r3, #0]
 8000c84:	60fb      	str	r3, [r7, #12]
  __sbrk_heap_end += incr;
 8000c86:	4b07      	ldr	r3, [pc, #28]	; (8000ca4 <_sbrk+0x64>)
 8000c88:	681a      	ldr	r2, [r3, #0]
 8000c8a:	687b      	ldr	r3, [r7, #4]
 8000c8c:	4413      	add	r3, r2
 8000c8e:	4a05      	ldr	r2, [pc, #20]	; (8000ca4 <_sbrk+0x64>)
 8000c90:	6013      	str	r3, [r2, #0]

  return (void *)prev_heap_end;
 8000c92:	68fb      	ldr	r3, [r7, #12]
}
 8000c94:	4618      	mov	r0, r3
 8000c96:	3718      	adds	r7, #24
 8000c98:	46bd      	mov	sp, r7
 8000c9a:	bd80      	pop	{r7, pc}
 8000c9c:	20080000 	.word	0x20080000
 8000ca0:	00000400 	.word	0x00000400
 8000ca4:	20000100 	.word	0x20000100
 8000ca8:	20000258 	.word	0x20000258

08000cac <SystemInit>:
  *         SystemFrequency variable.
  * @param  None
  * @retval None
  */
void SystemInit(void)
{
 8000cac:	b480      	push	{r7}
 8000cae:	af00      	add	r7, sp, #0
  /* FPU settings ------------------------------------------------------------*/
#if (__FPU_PRESENT == 1) && (__FPU_USED == 1)
  SCB->CPACR |= ((3UL << 10*2)|(3UL << 11*2));  /* set CP10 and CP11 Full Access */
 8000cb0:	4b06      	ldr	r3, [pc, #24]	; (8000ccc <SystemInit+0x20>)
 8000cb2:	f8d3 3088 	ldr.w	r3, [r3, #136]	; 0x88
 8000cb6:	4a05      	ldr	r2, [pc, #20]	; (8000ccc <SystemInit+0x20>)
 8000cb8:	f443 0370 	orr.w	r3, r3, #15728640	; 0xf00000
 8000cbc:	f8c2 3088 	str.w	r3, [r2, #136]	; 0x88

  /* Configure the Vector Table location -------------------------------------*/
#if defined(USER_VECT_TAB_ADDRESS)
  SCB->VTOR = VECT_TAB_BASE_ADDRESS | VECT_TAB_OFFSET; /* Vector Table Relocation in Internal SRAM */
#endif /* USER_VECT_TAB_ADDRESS */
}
 8000cc0:	bf00      	nop
 8000cc2:	46bd      	mov	sp, r7
 8000cc4:	f85d 7b04 	ldr.w	r7, [sp], #4
 8000cc8:	4770      	bx	lr
 8000cca:	bf00      	nop
 8000ccc:	e000ed00 	.word	0xe000ed00

08000cd0 <Reset_Handler>:

    .section  .text.Reset_Handler
  .weak  Reset_Handler
  .type  Reset_Handler, %function
Reset_Handler:  
  ldr   sp, =_estack      /* set stack pointer */
 8000cd0:	f8df d034 	ldr.w	sp, [pc, #52]	; 8000d08 <LoopFillZerobss+0x12>

/* Copy the data segment initializers from flash to SRAM */  
  ldr r0, =_sdata
 8000cd4:	480d      	ldr	r0, [pc, #52]	; (8000d0c <LoopFillZerobss+0x16>)
  ldr r1, =_edata
 8000cd6:	490e      	ldr	r1, [pc, #56]	; (8000d10 <LoopFillZerobss+0x1a>)
  ldr r2, =_sidata
 8000cd8:	4a0e      	ldr	r2, [pc, #56]	; (8000d14 <LoopFillZerobss+0x1e>)
  movs r3, #0
 8000cda:	2300      	movs	r3, #0
  b LoopCopyDataInit
 8000cdc:	e002      	b.n	8000ce4 <LoopCopyDataInit>

08000cde <CopyDataInit>:

CopyDataInit:
  ldr r4, [r2, r3]
 8000cde:	58d4      	ldr	r4, [r2, r3]
  str r4, [r0, r3]
 8000ce0:	50c4      	str	r4, [r0, r3]
  adds r3, r3, #4
 8000ce2:	3304      	adds	r3, #4

08000ce4 <LoopCopyDataInit>:

LoopCopyDataInit:
  adds r4, r0, r3
 8000ce4:	18c4      	adds	r4, r0, r3
  cmp r4, r1
 8000ce6:	428c      	cmp	r4, r1
  bcc CopyDataInit
 8000ce8:	d3f9      	bcc.n	8000cde <CopyDataInit>
  
/* Zero fill the bss segment. */
  ldr r2, =_sbss
 8000cea:	4a0b      	ldr	r2, [pc, #44]	; (8000d18 <LoopFillZerobss+0x22>)
  ldr r4, =_ebss
 8000cec:	4c0b      	ldr	r4, [pc, #44]	; (8000d1c <LoopFillZerobss+0x26>)
  movs r3, #0
 8000cee:	2300      	movs	r3, #0
  b LoopFillZerobss
 8000cf0:	e001      	b.n	8000cf6 <LoopFillZerobss>

08000cf2 <FillZerobss>:

FillZerobss:
  str  r3, [r2]
 8000cf2:	6013      	str	r3, [r2, #0]
  adds r2, r2, #4
 8000cf4:	3204      	adds	r2, #4

08000cf6 <LoopFillZerobss>:

LoopFillZerobss:
  cmp r2, r4
 8000cf6:	42a2      	cmp	r2, r4
  bcc FillZerobss
 8000cf8:	d3fb      	bcc.n	8000cf2 <FillZerobss>

/* Call the clock system initialization function.*/
  bl  SystemInit   
 8000cfa:	f7ff ffd7 	bl	8000cac <SystemInit>
/* Call static constructors */
    bl __libc_init_array
 8000cfe:	f002 f8b5 	bl	8002e6c <__libc_init_array>
/* Call the application's entry point.*/
  bl  main
 8000d02:	f7ff fd8d 	bl	8000820 <main>
  bx  lr    
 8000d06:	4770      	bx	lr
  ldr   sp, =_estack      /* set stack pointer */
 8000d08:	20080000 	.word	0x20080000
  ldr r0, =_sdata
 8000d0c:	20000000 	.word	0x20000000
  ldr r1, =_edata
 8000d10:	20000068 	.word	0x20000068
  ldr r2, =_sidata
 8000d14:	080039e8 	.word	0x080039e8
  ldr r2, =_sbss
 8000d18:	20000068 	.word	0x20000068
  ldr r4, =_ebss
 8000d1c:	20000254 	.word	0x20000254

08000d20 <ADC_IRQHandler>:
 * @retval None       
*/
    .section  .text.Default_Handler,"ax",%progbits
Default_Handler:
Infinite_Loop:
  b  Infinite_Loop
 8000d20:	e7fe      	b.n	8000d20 <ADC_IRQHandler>

08000d22 <HAL_Init>:
  *         need to ensure that the SysTick time base is always set to 1 millisecond
  *         to have correct HAL operation.
  * @retval HAL status
  */
HAL_StatusTypeDef HAL_Init(void)
{
 8000d22:	b580      	push	{r7, lr}
 8000d24:	af00      	add	r7, sp, #0
#if (PREFETCH_ENABLE != 0U)
  __HAL_FLASH_PREFETCH_BUFFER_ENABLE();
#endif /* PREFETCH_ENABLE */

  /* Set Interrupt Group Priority */
  HAL_NVIC_SetPriorityGrouping(NVIC_PRIORITYGROUP_4);
 8000d26:	2003      	movs	r0, #3
 8000d28:	f000 fc5f 	bl	80015ea <HAL_NVIC_SetPriorityGrouping>

  /* Use systick as time base source and configure 1ms tick (default clock after Reset is HSI) */
  HAL_InitTick(TICK_INT_PRIORITY);
 8000d2c:	200f      	movs	r0, #15
 8000d2e:	f7ff fe85 	bl	8000a3c <HAL_InitTick>

  /* Init the low level hardware */
  HAL_MspInit();
 8000d32:	f7ff fe5f 	bl	80009f4 <HAL_MspInit>

  /* Return function status */
  return HAL_OK;
 8000d36:	2300      	movs	r3, #0
}
 8000d38:	4618      	mov	r0, r3
 8000d3a:	bd80      	pop	{r7, pc}

08000d3c <HAL_IncTick>:
 * @note This function is declared as __weak to be overwritten in case of other 
  *      implementations in user file.
  * @retval None
  */
__weak void HAL_IncTick(void)
{
 8000d3c:	b480      	push	{r7}
 8000d3e:	af00      	add	r7, sp, #0
  uwTick += uwTickFreq;
 8000d40:	4b06      	ldr	r3, [pc, #24]	; (8000d5c <HAL_IncTick+0x20>)
 8000d42:	781b      	ldrb	r3, [r3, #0]
 8000d44:	461a      	mov	r2, r3
 8000d46:	4b06      	ldr	r3, [pc, #24]	; (8000d60 <HAL_IncTick+0x24>)
 8000d48:	681b      	ldr	r3, [r3, #0]
 8000d4a:	4413      	add	r3, r2
 8000d4c:	4a04      	ldr	r2, [pc, #16]	; (8000d60 <HAL_IncTick+0x24>)
 8000d4e:	6013      	str	r3, [r2, #0]
}
 8000d50:	bf00      	nop
 8000d52:	46bd      	mov	sp, r7
 8000d54:	f85d 7b04 	ldr.w	r7, [sp], #4
 8000d58:	4770      	bx	lr
 8000d5a:	bf00      	nop
 8000d5c:	20000008 	.word	0x20000008
 8000d60:	20000104 	.word	0x20000104

08000d64 <HAL_GetTick>:
  * @note This function is declared as __weak to be overwritten in case of other 
  *       implementations in user file.
  * @retval tick value
  */
__weak uint32_t HAL_GetTick(void)
{
 8000d64:	b480      	push	{r7}
 8000d66:	af00      	add	r7, sp, #0
  return uwTick;
 8000d68:	4b03      	ldr	r3, [pc, #12]	; (8000d78 <HAL_GetTick+0x14>)
 8000d6a:	681b      	ldr	r3, [r3, #0]
}
 8000d6c:	4618      	mov	r0, r3
 8000d6e:	46bd      	mov	sp, r7
 8000d70:	f85d 7b04 	ldr.w	r7, [sp], #4
 8000d74:	4770      	bx	lr
 8000d76:	bf00      	nop
 8000d78:	20000104 	.word	0x20000104

08000d7c <HAL_Delay>:
  *       implementations in user file.
  * @param Delay  specifies the delay time length, in milliseconds.
  * @retval None
  */
__weak void HAL_Delay(uint32_t Delay)
{
 8000d7c:	b580      	push	{r7, lr}
 8000d7e:	b084      	sub	sp, #16
 8000d80:	af00      	add	r7, sp, #0
 8000d82:	6078      	str	r0, [r7, #4]
  uint32_t tickstart = HAL_GetTick();
 8000d84:	f7ff ffee 	bl	8000d64 <HAL_GetTick>
 8000d88:	60b8      	str	r0, [r7, #8]
  uint32_t wait = Delay;
 8000d8a:	687b      	ldr	r3, [r7, #4]
 8000d8c:	60fb      	str	r3, [r7, #12]

  /* Add a freq to guarantee minimum wait */
  if (wait < HAL_MAX_DELAY)
 8000d8e:	68fb      	ldr	r3, [r7, #12]
 8000d90:	f1b3 3fff 	cmp.w	r3, #4294967295
 8000d94:	d005      	beq.n	8000da2 <HAL_Delay+0x26>
  {
    wait += (uint32_t)(uwTickFreq);
 8000d96:	4b0a      	ldr	r3, [pc, #40]	; (8000dc0 <HAL_Delay+0x44>)
 8000d98:	781b      	ldrb	r3, [r3, #0]
 8000d9a:	461a      	mov	r2, r3
 8000d9c:	68fb      	ldr	r3, [r7, #12]
 8000d9e:	4413      	add	r3, r2
 8000da0:	60fb      	str	r3, [r7, #12]
  }

  while ((HAL_GetTick() - tickstart) < wait)
 8000da2:	bf00      	nop
 8000da4:	f7ff ffde 	bl	8000d64 <HAL_GetTick>
 8000da8:	4602      	mov	r2, r0
 8000daa:	68bb      	ldr	r3, [r7, #8]
 8000dac:	1ad3      	subs	r3, r2, r3
 8000dae:	68fa      	ldr	r2, [r7, #12]
 8000db0:	429a      	cmp	r2, r3
 8000db2:	d8f7      	bhi.n	8000da4 <HAL_Delay+0x28>
  {
  }
}
 8000db4:	bf00      	nop
 8000db6:	bf00      	nop
 8000db8:	3710      	adds	r7, #16
 8000dba:	46bd      	mov	sp, r7
 8000dbc:	bd80      	pop	{r7, pc}
 8000dbe:	bf00      	nop
 8000dc0:	20000008 	.word	0x20000008

08000dc4 <HAL_CAN_Init>:
  * @param  hcan pointer to a CAN_HandleTypeDef structure that contains
  *         the configuration information for the specified CAN.
  * @retval HAL status
  */
HAL_StatusTypeDef HAL_CAN_Init(CAN_HandleTypeDef *hcan)
{
 8000dc4:	b580      	push	{r7, lr}
 8000dc6:	b084      	sub	sp, #16
 8000dc8:	af00      	add	r7, sp, #0
 8000dca:	6078      	str	r0, [r7, #4]
  uint32_t tickstart;

  /* Check CAN handle */
  if (hcan == NULL)
 8000dcc:	687b      	ldr	r3, [r7, #4]
 8000dce:	2b00      	cmp	r3, #0
 8000dd0:	d101      	bne.n	8000dd6 <HAL_CAN_Init+0x12>
  {
    return HAL_ERROR;
 8000dd2:	2301      	movs	r3, #1
 8000dd4:	e0ed      	b.n	8000fb2 <HAL_CAN_Init+0x1ee>
    /* Init the low level hardware: CLOCK, NVIC */
    hcan->MspInitCallback(hcan);
  }

#else
  if (hcan->State == HAL_CAN_STATE_RESET)
 8000dd6:	687b      	ldr	r3, [r7, #4]
 8000dd8:	f893 3020 	ldrb.w	r3, [r3, #32]
 8000ddc:	b2db      	uxtb	r3, r3
 8000dde:	2b00      	cmp	r3, #0
 8000de0:	d102      	bne.n	8000de8 <HAL_CAN_Init+0x24>
  {
    /* Init the low level hardware: CLOCK, NVIC */
    HAL_CAN_MspInit(hcan);
 8000de2:	6878      	ldr	r0, [r7, #4]
 8000de4:	f7ff fc4a 	bl	800067c <HAL_CAN_MspInit>
  }
#endif /* (USE_HAL_CAN_REGISTER_CALLBACKS) */

  /* Request initialisation */
  SET_BIT(hcan->Instance->MCR, CAN_MCR_INRQ);
 8000de8:	687b      	ldr	r3, [r7, #4]
 8000dea:	681b      	ldr	r3, [r3, #0]
 8000dec:	681a      	ldr	r2, [r3, #0]
 8000dee:	687b      	ldr	r3, [r7, #4]
 8000df0:	681b      	ldr	r3, [r3, #0]
 8000df2:	f042 0201 	orr.w	r2, r2, #1
 8000df6:	601a      	str	r2, [r3, #0]

  /* Get tick */
  tickstart = HAL_GetTick();
 8000df8:	f7ff ffb4 	bl	8000d64 <HAL_GetTick>
 8000dfc:	60f8      	str	r0, [r7, #12]

  /* Wait initialisation acknowledge */
  while ((hcan->Instance->MSR & CAN_MSR_INAK) == 0U)
 8000dfe:	e012      	b.n	8000e26 <HAL_CAN_Init+0x62>
  {
    if ((HAL_GetTick() - tickstart) > CAN_TIMEOUT_VALUE)
 8000e00:	f7ff ffb0 	bl	8000d64 <HAL_GetTick>
 8000e04:	4602      	mov	r2, r0
 8000e06:	68fb      	ldr	r3, [r7, #12]
 8000e08:	1ad3      	subs	r3, r2, r3
 8000e0a:	2b0a      	cmp	r3, #10
 8000e0c:	d90b      	bls.n	8000e26 <HAL_CAN_Init+0x62>
    {
      /* Update error code */
      hcan->ErrorCode |= HAL_CAN_ERROR_TIMEOUT;
 8000e0e:	687b      	ldr	r3, [r7, #4]
 8000e10:	6a5b      	ldr	r3, [r3, #36]	; 0x24
 8000e12:	f443 3200 	orr.w	r2, r3, #131072	; 0x20000
 8000e16:	687b      	ldr	r3, [r7, #4]
 8000e18:	625a      	str	r2, [r3, #36]	; 0x24

      /* Change CAN state */
      hcan->State = HAL_CAN_STATE_ERROR;
 8000e1a:	687b      	ldr	r3, [r7, #4]
 8000e1c:	2205      	movs	r2, #5
 8000e1e:	f883 2020 	strb.w	r2, [r3, #32]

      return HAL_ERROR;
 8000e22:	2301      	movs	r3, #1
 8000e24:	e0c5      	b.n	8000fb2 <HAL_CAN_Init+0x1ee>
  while ((hcan->Instance->MSR & CAN_MSR_INAK) == 0U)
 8000e26:	687b      	ldr	r3, [r7, #4]
 8000e28:	681b      	ldr	r3, [r3, #0]
 8000e2a:	685b      	ldr	r3, [r3, #4]
 8000e2c:	f003 0301 	and.w	r3, r3, #1
 8000e30:	2b00      	cmp	r3, #0
 8000e32:	d0e5      	beq.n	8000e00 <HAL_CAN_Init+0x3c>
    }
  }

  /* Exit from sleep mode */
  CLEAR_BIT(hcan->Instance->MCR, CAN_MCR_SLEEP);
 8000e34:	687b      	ldr	r3, [r7, #4]
 8000e36:	681b      	ldr	r3, [r3, #0]
 8000e38:	681a      	ldr	r2, [r3, #0]
 8000e3a:	687b      	ldr	r3, [r7, #4]
 8000e3c:	681b      	ldr	r3, [r3, #0]
 8000e3e:	f022 0202 	bic.w	r2, r2, #2
 8000e42:	601a      	str	r2, [r3, #0]

  /* Get tick */
  tickstart = HAL_GetTick();
 8000e44:	f7ff ff8e 	bl	8000d64 <HAL_GetTick>
 8000e48:	60f8      	str	r0, [r7, #12]

  /* Check Sleep mode leave acknowledge */
  while ((hcan->Instance->MSR & CAN_MSR_SLAK) != 0U)
 8000e4a:	e012      	b.n	8000e72 <HAL_CAN_Init+0xae>
  {
    if ((HAL_GetTick() - tickstart) > CAN_TIMEOUT_VALUE)
 8000e4c:	f7ff ff8a 	bl	8000d64 <HAL_GetTick>
 8000e50:	4602      	mov	r2, r0
 8000e52:	68fb      	ldr	r3, [r7, #12]
 8000e54:	1ad3      	subs	r3, r2, r3
 8000e56:	2b0a      	cmp	r3, #10
 8000e58:	d90b      	bls.n	8000e72 <HAL_CAN_Init+0xae>
    {
      /* Update error code */
      hcan->ErrorCode |= HAL_CAN_ERROR_TIMEOUT;
 8000e5a:	687b      	ldr	r3, [r7, #4]
 8000e5c:	6a5b      	ldr	r3, [r3, #36]	; 0x24
 8000e5e:	f443 3200 	orr.w	r2, r3, #131072	; 0x20000
 8000e62:	687b      	ldr	r3, [r7, #4]
 8000e64:	625a      	str	r2, [r3, #36]	; 0x24

      /* Change CAN state */
      hcan->State = HAL_CAN_STATE_ERROR;
 8000e66:	687b      	ldr	r3, [r7, #4]
 8000e68:	2205      	movs	r2, #5
 8000e6a:	f883 2020 	strb.w	r2, [r3, #32]

      return HAL_ERROR;
 8000e6e:	2301      	movs	r3, #1
 8000e70:	e09f      	b.n	8000fb2 <HAL_CAN_Init+0x1ee>
  while ((hcan->Instance->MSR & CAN_MSR_SLAK) != 0U)
 8000e72:	687b      	ldr	r3, [r7, #4]
 8000e74:	681b      	ldr	r3, [r3, #0]
 8000e76:	685b      	ldr	r3, [r3, #4]
 8000e78:	f003 0302 	and.w	r3, r3, #2
 8000e7c:	2b00      	cmp	r3, #0
 8000e7e:	d1e5      	bne.n	8000e4c <HAL_CAN_Init+0x88>
    }
  }

  /* Set the time triggered communication mode */
  if (hcan->Init.TimeTriggeredMode == ENABLE)
 8000e80:	687b      	ldr	r3, [r7, #4]
 8000e82:	7e1b      	ldrb	r3, [r3, #24]
 8000e84:	2b01      	cmp	r3, #1
 8000e86:	d108      	bne.n	8000e9a <HAL_CAN_Init+0xd6>
  {
    SET_BIT(hcan->Instance->MCR, CAN_MCR_TTCM);
 8000e88:	687b      	ldr	r3, [r7, #4]
 8000e8a:	681b      	ldr	r3, [r3, #0]
 8000e8c:	681a      	ldr	r2, [r3, #0]
 8000e8e:	687b      	ldr	r3, [r7, #4]
 8000e90:	681b      	ldr	r3, [r3, #0]
 8000e92:	f042 0280 	orr.w	r2, r2, #128	; 0x80
 8000e96:	601a      	str	r2, [r3, #0]
 8000e98:	e007      	b.n	8000eaa <HAL_CAN_Init+0xe6>
  }
  else
  {
    CLEAR_BIT(hcan->Instance->MCR, CAN_MCR_TTCM);
 8000e9a:	687b      	ldr	r3, [r7, #4]
 8000e9c:	681b      	ldr	r3, [r3, #0]
 8000e9e:	681a      	ldr	r2, [r3, #0]
 8000ea0:	687b      	ldr	r3, [r7, #4]
 8000ea2:	681b      	ldr	r3, [r3, #0]
 8000ea4:	f022 0280 	bic.w	r2, r2, #128	; 0x80
 8000ea8:	601a      	str	r2, [r3, #0]
  }

  /* Set the automatic bus-off management */
  if (hcan->Init.AutoBusOff == ENABLE)
 8000eaa:	687b      	ldr	r3, [r7, #4]
 8000eac:	7e5b      	ldrb	r3, [r3, #25]
 8000eae:	2b01      	cmp	r3, #1
 8000eb0:	d108      	bne.n	8000ec4 <HAL_CAN_Init+0x100>
  {
    SET_BIT(hcan->Instance->MCR, CAN_MCR_ABOM);
 8000eb2:	687b      	ldr	r3, [r7, #4]
 8000eb4:	681b      	ldr	r3, [r3, #0]
 8000eb6:	681a      	ldr	r2, [r3, #0]
 8000eb8:	687b      	ldr	r3, [r7, #4]
 8000eba:	681b      	ldr	r3, [r3, #0]
 8000ebc:	f042 0240 	orr.w	r2, r2, #64	; 0x40
 8000ec0:	601a      	str	r2, [r3, #0]
 8000ec2:	e007      	b.n	8000ed4 <HAL_CAN_Init+0x110>
  }
  else
  {
    CLEAR_BIT(hcan->Instance->MCR, CAN_MCR_ABOM);
 8000ec4:	687b      	ldr	r3, [r7, #4]
 8000ec6:	681b      	ldr	r3, [r3, #0]
 8000ec8:	681a      	ldr	r2, [r3, #0]
 8000eca:	687b      	ldr	r3, [r7, #4]
 8000ecc:	681b      	ldr	r3, [r3, #0]
 8000ece:	f022 0240 	bic.w	r2, r2, #64	; 0x40
 8000ed2:	601a      	str	r2, [r3, #0]
  }

  /* Set the automatic wake-up mode */
  if (hcan->Init.AutoWakeUp == ENABLE)
 8000ed4:	687b      	ldr	r3, [r7, #4]
 8000ed6:	7e9b      	ldrb	r3, [r3, #26]
 8000ed8:	2b01      	cmp	r3, #1
 8000eda:	d108      	bne.n	8000eee <HAL_CAN_Init+0x12a>
  {
    SET_BIT(hcan->Instance->MCR, CAN_MCR_AWUM);
 8000edc:	687b      	ldr	r3, [r7, #4]
 8000ede:	681b      	ldr	r3, [r3, #0]
 8000ee0:	681a      	ldr	r2, [r3, #0]
 8000ee2:	687b      	ldr	r3, [r7, #4]
 8000ee4:	681b      	ldr	r3, [r3, #0]
 8000ee6:	f042 0220 	orr.w	r2, r2, #32
 8000eea:	601a      	str	r2, [r3, #0]
 8000eec:	e007      	b.n	8000efe <HAL_CAN_Init+0x13a>
  }
  else
  {
    CLEAR_BIT(hcan->Instance->MCR, CAN_MCR_AWUM);
 8000eee:	687b      	ldr	r3, [r7, #4]
 8000ef0:	681b      	ldr	r3, [r3, #0]
 8000ef2:	681a      	ldr	r2, [r3, #0]
 8000ef4:	687b      	ldr	r3, [r7, #4]
 8000ef6:	681b      	ldr	r3, [r3, #0]
 8000ef8:	f022 0220 	bic.w	r2, r2, #32
 8000efc:	601a      	str	r2, [r3, #0]
  }

  /* Set the automatic retransmission */
  if (hcan->Init.AutoRetransmission == ENABLE)
 8000efe:	687b      	ldr	r3, [r7, #4]
 8000f00:	7edb      	ldrb	r3, [r3, #27]
 8000f02:	2b01      	cmp	r3, #1
 8000f04:	d108      	bne.n	8000f18 <HAL_CAN_Init+0x154>
  {
    CLEAR_BIT(hcan->Instance->MCR, CAN_MCR_NART);
 8000f06:	687b      	ldr	r3, [r7, #4]
 8000f08:	681b      	ldr	r3, [r3, #0]
 8000f0a:	681a      	ldr	r2, [r3, #0]
 8000f0c:	687b      	ldr	r3, [r7, #4]
 8000f0e:	681b      	ldr	r3, [r3, #0]
 8000f10:	f022 0210 	bic.w	r2, r2, #16
 8000f14:	601a      	str	r2, [r3, #0]
 8000f16:	e007      	b.n	8000f28 <HAL_CAN_Init+0x164>
  }
  else
  {
    SET_BIT(hcan->Instance->MCR, CAN_MCR_NART);
 8000f18:	687b      	ldr	r3, [r7, #4]
 8000f1a:	681b      	ldr	r3, [r3, #0]
 8000f1c:	681a      	ldr	r2, [r3, #0]
 8000f1e:	687b      	ldr	r3, [r7, #4]
 8000f20:	681b      	ldr	r3, [r3, #0]
 8000f22:	f042 0210 	orr.w	r2, r2, #16
 8000f26:	601a      	str	r2, [r3, #0]
  }

  /* Set the receive FIFO locked mode */
  if (hcan->Init.ReceiveFifoLocked == ENABLE)
 8000f28:	687b      	ldr	r3, [r7, #4]
 8000f2a:	7f1b      	ldrb	r3, [r3, #28]
 8000f2c:	2b01      	cmp	r3, #1
 8000f2e:	d108      	bne.n	8000f42 <HAL_CAN_Init+0x17e>
  {
    SET_BIT(hcan->Instance->MCR, CAN_MCR_RFLM);
 8000f30:	687b      	ldr	r3, [r7, #4]
 8000f32:	681b      	ldr	r3, [r3, #0]
 8000f34:	681a      	ldr	r2, [r3, #0]
 8000f36:	687b      	ldr	r3, [r7, #4]
 8000f38:	681b      	ldr	r3, [r3, #0]
 8000f3a:	f042 0208 	orr.w	r2, r2, #8
 8000f3e:	601a      	str	r2, [r3, #0]
 8000f40:	e007      	b.n	8000f52 <HAL_CAN_Init+0x18e>
  }
  else
  {
    CLEAR_BIT(hcan->Instance->MCR, CAN_MCR_RFLM);
 8000f42:	687b      	ldr	r3, [r7, #4]
 8000f44:	681b      	ldr	r3, [r3, #0]
 8000f46:	681a      	ldr	r2, [r3, #0]
 8000f48:	687b      	ldr	r3, [r7, #4]
 8000f4a:	681b      	ldr	r3, [r3, #0]
 8000f4c:	f022 0208 	bic.w	r2, r2, #8
 8000f50:	601a      	str	r2, [r3, #0]
  }

  /* Set the transmit FIFO priority */
  if (hcan->Init.TransmitFifoPriority == ENABLE)
 8000f52:	687b      	ldr	r3, [r7, #4]
 8000f54:	7f5b      	ldrb	r3, [r3, #29]
 8000f56:	2b01      	cmp	r3, #1
 8000f58:	d108      	bne.n	8000f6c <HAL_CAN_Init+0x1a8>
  {
    SET_BIT(hcan->Instance->MCR, CAN_MCR_TXFP);
 8000f5a:	687b      	ldr	r3, [r7, #4]
 8000f5c:	681b      	ldr	r3, [r3, #0]
 8000f5e:	681a      	ldr	r2, [r3, #0]
 8000f60:	687b      	ldr	r3, [r7, #4]
 8000f62:	681b      	ldr	r3, [r3, #0]
 8000f64:	f042 0204 	orr.w	r2, r2, #4
 8000f68:	601a      	str	r2, [r3, #0]
 8000f6a:	e007      	b.n	8000f7c <HAL_CAN_Init+0x1b8>
  }
  else
  {
    CLEAR_BIT(hcan->Instance->MCR, CAN_MCR_TXFP);
 8000f6c:	687b      	ldr	r3, [r7, #4]
 8000f6e:	681b      	ldr	r3, [r3, #0]
 8000f70:	681a      	ldr	r2, [r3, #0]
 8000f72:	687b      	ldr	r3, [r7, #4]
 8000f74:	681b      	ldr	r3, [r3, #0]
 8000f76:	f022 0204 	bic.w	r2, r2, #4
 8000f7a:	601a      	str	r2, [r3, #0]
  }

  /* Set the bit timing register */
  WRITE_REG(hcan->Instance->BTR, (uint32_t)(hcan->Init.Mode           |
 8000f7c:	687b      	ldr	r3, [r7, #4]
 8000f7e:	689a      	ldr	r2, [r3, #8]
 8000f80:	687b      	ldr	r3, [r7, #4]
 8000f82:	68db      	ldr	r3, [r3, #12]
 8000f84:	431a      	orrs	r2, r3
 8000f86:	687b      	ldr	r3, [r7, #4]
 8000f88:	691b      	ldr	r3, [r3, #16]
 8000f8a:	431a      	orrs	r2, r3
 8000f8c:	687b      	ldr	r3, [r7, #4]
 8000f8e:	695b      	ldr	r3, [r3, #20]
 8000f90:	ea42 0103 	orr.w	r1, r2, r3
 8000f94:	687b      	ldr	r3, [r7, #4]
 8000f96:	685b      	ldr	r3, [r3, #4]
 8000f98:	1e5a      	subs	r2, r3, #1
 8000f9a:	687b      	ldr	r3, [r7, #4]
 8000f9c:	681b      	ldr	r3, [r3, #0]
 8000f9e:	430a      	orrs	r2, r1
 8000fa0:	61da      	str	r2, [r3, #28]
                                            hcan->Init.TimeSeg1       |
                                            hcan->Init.TimeSeg2       |
                                            (hcan->Init.Prescaler - 1U)));

  /* Initialize the error code */
  hcan->ErrorCode = HAL_CAN_ERROR_NONE;
 8000fa2:	687b      	ldr	r3, [r7, #4]
 8000fa4:	2200      	movs	r2, #0
 8000fa6:	625a      	str	r2, [r3, #36]	; 0x24

  /* Initialize the CAN state */
  hcan->State = HAL_CAN_STATE_READY;
 8000fa8:	687b      	ldr	r3, [r7, #4]
 8000faa:	2201      	movs	r2, #1
 8000fac:	f883 2020 	strb.w	r2, [r3, #32]

  /* Return function status */
  return HAL_OK;
 8000fb0:	2300      	movs	r3, #0
}
 8000fb2:	4618      	mov	r0, r3
 8000fb4:	3710      	adds	r7, #16
 8000fb6:	46bd      	mov	sp, r7
 8000fb8:	bd80      	pop	{r7, pc}
	...

08000fbc <HAL_CAN_ConfigFilter>:
  * @param  sFilterConfig pointer to a CAN_FilterTypeDef structure that
  *         contains the filter configuration information.
  * @retval None
  */
HAL_StatusTypeDef HAL_CAN_ConfigFilter(CAN_HandleTypeDef *hcan, const CAN_FilterTypeDef *sFilterConfig)
{
 8000fbc:	b480      	push	{r7}
 8000fbe:	b087      	sub	sp, #28
 8000fc0:	af00      	add	r7, sp, #0
 8000fc2:	6078      	str	r0, [r7, #4]
 8000fc4:	6039      	str	r1, [r7, #0]
  uint32_t filternbrbitpos;
  CAN_TypeDef *can_ip = hcan->Instance;
 8000fc6:	687b      	ldr	r3, [r7, #4]
 8000fc8:	681b      	ldr	r3, [r3, #0]
 8000fca:	617b      	str	r3, [r7, #20]
  HAL_CAN_StateTypeDef state = hcan->State;
 8000fcc:	687b      	ldr	r3, [r7, #4]
 8000fce:	f893 3020 	ldrb.w	r3, [r3, #32]
 8000fd2:	74fb      	strb	r3, [r7, #19]

  if ((state == HAL_CAN_STATE_READY) ||
 8000fd4:	7cfb      	ldrb	r3, [r7, #19]
 8000fd6:	2b01      	cmp	r3, #1
 8000fd8:	d003      	beq.n	8000fe2 <HAL_CAN_ConfigFilter+0x26>
 8000fda:	7cfb      	ldrb	r3, [r7, #19]
 8000fdc:	2b02      	cmp	r3, #2
 8000fde:	f040 80c7 	bne.w	8001170 <HAL_CAN_ConfigFilter+0x1b4>
    assert_param(IS_CAN_FILTER_FIFO(sFilterConfig->FilterFIFOAssignment));
    assert_param(IS_CAN_FILTER_ACTIVATION(sFilterConfig->FilterActivation));

#if defined(CAN3)
    /* Check the CAN instance */
    if (hcan->Instance == CAN3)
 8000fe2:	687b      	ldr	r3, [r7, #4]
 8000fe4:	681b      	ldr	r3, [r3, #0]
 8000fe6:	4a69      	ldr	r2, [pc, #420]	; (800118c <HAL_CAN_ConfigFilter+0x1d0>)
 8000fe8:	4293      	cmp	r3, r2
 8000fea:	d001      	beq.n	8000ff0 <HAL_CAN_ConfigFilter+0x34>
    }
    else
    {
      /* CAN1 and CAN2 are dual instances with 28 common filters banks */
      /* Select master instance to access the filter banks */
      can_ip = CAN1;
 8000fec:	4b68      	ldr	r3, [pc, #416]	; (8001190 <HAL_CAN_ConfigFilter+0x1d4>)
 8000fee:	617b      	str	r3, [r7, #20]
    /* Check the parameters */
    assert_param(IS_CAN_FILTER_BANK_SINGLE(sFilterConfig->FilterBank));
#endif

    /* Initialisation mode for the filter */
    SET_BIT(can_ip->FMR, CAN_FMR_FINIT);
 8000ff0:	697b      	ldr	r3, [r7, #20]
 8000ff2:	f8d3 3200 	ldr.w	r3, [r3, #512]	; 0x200
 8000ff6:	f043 0201 	orr.w	r2, r3, #1
 8000ffa:	697b      	ldr	r3, [r7, #20]
 8000ffc:	f8c3 2200 	str.w	r2, [r3, #512]	; 0x200

#if defined(CAN3)
    /* Check the CAN instance */
    if (can_ip == CAN1)
 8001000:	697b      	ldr	r3, [r7, #20]
 8001002:	4a63      	ldr	r2, [pc, #396]	; (8001190 <HAL_CAN_ConfigFilter+0x1d4>)
 8001004:	4293      	cmp	r3, r2
 8001006:	d111      	bne.n	800102c <HAL_CAN_ConfigFilter+0x70>
    {
      /* Select the start filter number of CAN2 slave instance */
      CLEAR_BIT(can_ip->FMR, CAN_FMR_CAN2SB);
 8001008:	697b      	ldr	r3, [r7, #20]
 800100a:	f8d3 3200 	ldr.w	r3, [r3, #512]	; 0x200
 800100e:	f423 527c 	bic.w	r2, r3, #16128	; 0x3f00
 8001012:	697b      	ldr	r3, [r7, #20]
 8001014:	f8c3 2200 	str.w	r2, [r3, #512]	; 0x200
      SET_BIT(can_ip->FMR, sFilterConfig->SlaveStartFilterBank << CAN_FMR_CAN2SB_Pos);
 8001018:	697b      	ldr	r3, [r7, #20]
 800101a:	f8d3 2200 	ldr.w	r2, [r3, #512]	; 0x200
 800101e:	683b      	ldr	r3, [r7, #0]
 8001020:	6a5b      	ldr	r3, [r3, #36]	; 0x24
 8001022:	021b      	lsls	r3, r3, #8
 8001024:	431a      	orrs	r2, r3
 8001026:	697b      	ldr	r3, [r7, #20]
 8001028:	f8c3 2200 	str.w	r2, [r3, #512]	; 0x200
    CLEAR_BIT(can_ip->FMR, CAN_FMR_CAN2SB);
    SET_BIT(can_ip->FMR, sFilterConfig->SlaveStartFilterBank << CAN_FMR_CAN2SB_Pos);

#endif
    /* Convert filter number into bit position */
    filternbrbitpos = (uint32_t)1 << (sFilterConfig->FilterBank & 0x1FU);
 800102c:	683b      	ldr	r3, [r7, #0]
 800102e:	695b      	ldr	r3, [r3, #20]
 8001030:	f003 031f 	and.w	r3, r3, #31
 8001034:	2201      	movs	r2, #1
 8001036:	fa02 f303 	lsl.w	r3, r2, r3
 800103a:	60fb      	str	r3, [r7, #12]

    /* Filter Deactivation */
    CLEAR_BIT(can_ip->FA1R, filternbrbitpos);
 800103c:	697b      	ldr	r3, [r7, #20]
 800103e:	f8d3 221c 	ldr.w	r2, [r3, #540]	; 0x21c
 8001042:	68fb      	ldr	r3, [r7, #12]
 8001044:	43db      	mvns	r3, r3
 8001046:	401a      	ands	r2, r3
 8001048:	697b      	ldr	r3, [r7, #20]
 800104a:	f8c3 221c 	str.w	r2, [r3, #540]	; 0x21c

    /* Filter Scale */
    if (sFilterConfig->FilterScale == CAN_FILTERSCALE_16BIT)
 800104e:	683b      	ldr	r3, [r7, #0]
 8001050:	69db      	ldr	r3, [r3, #28]
 8001052:	2b00      	cmp	r3, #0
 8001054:	d123      	bne.n	800109e <HAL_CAN_ConfigFilter+0xe2>
    {
      /* 16-bit scale for the filter */
      CLEAR_BIT(can_ip->FS1R, filternbrbitpos);
 8001056:	697b      	ldr	r3, [r7, #20]
 8001058:	f8d3 220c 	ldr.w	r2, [r3, #524]	; 0x20c
 800105c:	68fb      	ldr	r3, [r7, #12]
 800105e:	43db      	mvns	r3, r3
 8001060:	401a      	ands	r2, r3
 8001062:	697b      	ldr	r3, [r7, #20]
 8001064:	f8c3 220c 	str.w	r2, [r3, #524]	; 0x20c

      /* First 16-bit identifier and First 16-bit mask */
      /* Or First 16-bit identifier and Second 16-bit identifier */
      can_ip->sFilterRegister[sFilterConfig->FilterBank].FR1 =
        ((0x0000FFFFU & (uint32_t)sFilterConfig->FilterMaskIdLow) << 16U) |
 8001068:	683b      	ldr	r3, [r7, #0]
 800106a:	68db      	ldr	r3, [r3, #12]
 800106c:	0419      	lsls	r1, r3, #16
        (0x0000FFFFU & (uint32_t)sFilterConfig->FilterIdLow);
 800106e:	683b      	ldr	r3, [r7, #0]
 8001070:	685b      	ldr	r3, [r3, #4]
 8001072:	b29b      	uxth	r3, r3
      can_ip->sFilterRegister[sFilterConfig->FilterBank].FR1 =
 8001074:	683a      	ldr	r2, [r7, #0]
 8001076:	6952      	ldr	r2, [r2, #20]
        ((0x0000FFFFU & (uint32_t)sFilterConfig->FilterMaskIdLow) << 16U) |
 8001078:	4319      	orrs	r1, r3
      can_ip->sFilterRegister[sFilterConfig->FilterBank].FR1 =
 800107a:	697b      	ldr	r3, [r7, #20]
 800107c:	3248      	adds	r2, #72	; 0x48
 800107e:	f843 1032 	str.w	r1, [r3, r2, lsl #3]

      /* Second 16-bit identifier and Second 16-bit mask */
      /* Or Third 16-bit identifier and Fourth 16-bit identifier */
      can_ip->sFilterRegister[sFilterConfig->FilterBank].FR2 =
        ((0x0000FFFFU & (uint32_t)sFilterConfig->FilterMaskIdHigh) << 16U) |
 8001082:	683b      	ldr	r3, [r7, #0]
 8001084:	689b      	ldr	r3, [r3, #8]
 8001086:	0419      	lsls	r1, r3, #16
        (0x0000FFFFU & (uint32_t)sFilterConfig->FilterIdHigh);
 8001088:	683b      	ldr	r3, [r7, #0]
 800108a:	681b      	ldr	r3, [r3, #0]
 800108c:	b29a      	uxth	r2, r3
      can_ip->sFilterRegister[sFilterConfig->FilterBank].FR2 =
 800108e:	683b      	ldr	r3, [r7, #0]
 8001090:	695b      	ldr	r3, [r3, #20]
        ((0x0000FFFFU & (uint32_t)sFilterConfig->FilterMaskIdHigh) << 16U) |
 8001092:	430a      	orrs	r2, r1
      can_ip->sFilterRegister[sFilterConfig->FilterBank].FR2 =
 8001094:	6979      	ldr	r1, [r7, #20]
 8001096:	3348      	adds	r3, #72	; 0x48
 8001098:	00db      	lsls	r3, r3, #3
 800109a:	440b      	add	r3, r1
 800109c:	605a      	str	r2, [r3, #4]
    }

    if (sFilterConfig->FilterScale == CAN_FILTERSCALE_32BIT)
 800109e:	683b      	ldr	r3, [r7, #0]
 80010a0:	69db      	ldr	r3, [r3, #28]
 80010a2:	2b01      	cmp	r3, #1
 80010a4:	d122      	bne.n	80010ec <HAL_CAN_ConfigFilter+0x130>
    {
      /* 32-bit scale for the filter */
      SET_BIT(can_ip->FS1R, filternbrbitpos);
 80010a6:	697b      	ldr	r3, [r7, #20]
 80010a8:	f8d3 220c 	ldr.w	r2, [r3, #524]	; 0x20c
 80010ac:	68fb      	ldr	r3, [r7, #12]
 80010ae:	431a      	orrs	r2, r3
 80010b0:	697b      	ldr	r3, [r7, #20]
 80010b2:	f8c3 220c 	str.w	r2, [r3, #524]	; 0x20c

      /* 32-bit identifier or First 32-bit identifier */
      can_ip->sFilterRegister[sFilterConfig->FilterBank].FR1 =
        ((0x0000FFFFU & (uint32_t)sFilterConfig->FilterIdHigh) << 16U) |
 80010b6:	683b      	ldr	r3, [r7, #0]
 80010b8:	681b      	ldr	r3, [r3, #0]
 80010ba:	0419      	lsls	r1, r3, #16
        (0x0000FFFFU & (uint32_t)sFilterConfig->FilterIdLow);
 80010bc:	683b      	ldr	r3, [r7, #0]
 80010be:	685b      	ldr	r3, [r3, #4]
 80010c0:	b29b      	uxth	r3, r3
      can_ip->sFilterRegister[sFilterConfig->FilterBank].FR1 =
 80010c2:	683a      	ldr	r2, [r7, #0]
 80010c4:	6952      	ldr	r2, [r2, #20]
        ((0x0000FFFFU & (uint32_t)sFilterConfig->FilterIdHigh) << 16U) |
 80010c6:	4319      	orrs	r1, r3
      can_ip->sFilterRegister[sFilterConfig->FilterBank].FR1 =
 80010c8:	697b      	ldr	r3, [r7, #20]
 80010ca:	3248      	adds	r2, #72	; 0x48
 80010cc:	f843 1032 	str.w	r1, [r3, r2, lsl #3]

      /* 32-bit mask or Second 32-bit identifier */
      can_ip->sFilterRegister[sFilterConfig->FilterBank].FR2 =
        ((0x0000FFFFU & (uint32_t)sFilterConfig->FilterMaskIdHigh) << 16U) |
 80010d0:	683b      	ldr	r3, [r7, #0]
 80010d2:	689b      	ldr	r3, [r3, #8]
 80010d4:	0419      	lsls	r1, r3, #16
        (0x0000FFFFU & (uint32_t)sFilterConfig->FilterMaskIdLow);
 80010d6:	683b      	ldr	r3, [r7, #0]
 80010d8:	68db      	ldr	r3, [r3, #12]
 80010da:	b29a      	uxth	r2, r3
      can_ip->sFilterRegister[sFilterConfig->FilterBank].FR2 =
 80010dc:	683b      	ldr	r3, [r7, #0]
 80010de:	695b      	ldr	r3, [r3, #20]
        ((0x0000FFFFU & (uint32_t)sFilterConfig->FilterMaskIdHigh) << 16U) |
 80010e0:	430a      	orrs	r2, r1
      can_ip->sFilterRegister[sFilterConfig->FilterBank].FR2 =
 80010e2:	6979      	ldr	r1, [r7, #20]
 80010e4:	3348      	adds	r3, #72	; 0x48
 80010e6:	00db      	lsls	r3, r3, #3
 80010e8:	440b      	add	r3, r1
 80010ea:	605a      	str	r2, [r3, #4]
    }

    /* Filter Mode */
    if (sFilterConfig->FilterMode == CAN_FILTERMODE_IDMASK)
 80010ec:	683b      	ldr	r3, [r7, #0]
 80010ee:	699b      	ldr	r3, [r3, #24]
 80010f0:	2b00      	cmp	r3, #0
 80010f2:	d109      	bne.n	8001108 <HAL_CAN_ConfigFilter+0x14c>
    {
      /* Id/Mask mode for the filter*/
      CLEAR_BIT(can_ip->FM1R, filternbrbitpos);
 80010f4:	697b      	ldr	r3, [r7, #20]
 80010f6:	f8d3 2204 	ldr.w	r2, [r3, #516]	; 0x204
 80010fa:	68fb      	ldr	r3, [r7, #12]
 80010fc:	43db      	mvns	r3, r3
 80010fe:	401a      	ands	r2, r3
 8001100:	697b      	ldr	r3, [r7, #20]
 8001102:	f8c3 2204 	str.w	r2, [r3, #516]	; 0x204
 8001106:	e007      	b.n	8001118 <HAL_CAN_ConfigFilter+0x15c>
    }
    else /* CAN_FilterInitStruct->CAN_FilterMode == CAN_FilterMode_IdList */
    {
      /* Identifier list mode for the filter*/
      SET_BIT(can_ip->FM1R, filternbrbitpos);
 8001108:	697b      	ldr	r3, [r7, #20]
 800110a:	f8d3 2204 	ldr.w	r2, [r3, #516]	; 0x204
 800110e:	68fb      	ldr	r3, [r7, #12]
 8001110:	431a      	orrs	r2, r3
 8001112:	697b      	ldr	r3, [r7, #20]
 8001114:	f8c3 2204 	str.w	r2, [r3, #516]	; 0x204
    }

    /* Filter FIFO assignment */
    if (sFilterConfig->FilterFIFOAssignment == CAN_FILTER_FIFO0)
 8001118:	683b      	ldr	r3, [r7, #0]
 800111a:	691b      	ldr	r3, [r3, #16]
 800111c:	2b00      	cmp	r3, #0
 800111e:	d109      	bne.n	8001134 <HAL_CAN_ConfigFilter+0x178>
    {
      /* FIFO 0 assignation for the filter */
      CLEAR_BIT(can_ip->FFA1R, filternbrbitpos);
 8001120:	697b      	ldr	r3, [r7, #20]
 8001122:	f8d3 2214 	ldr.w	r2, [r3, #532]	; 0x214
 8001126:	68fb      	ldr	r3, [r7, #12]
 8001128:	43db      	mvns	r3, r3
 800112a:	401a      	ands	r2, r3
 800112c:	697b      	ldr	r3, [r7, #20]
 800112e:	f8c3 2214 	str.w	r2, [r3, #532]	; 0x214
 8001132:	e007      	b.n	8001144 <HAL_CAN_ConfigFilter+0x188>
    }
    else
    {
      /* FIFO 1 assignation for the filter */
      SET_BIT(can_ip->FFA1R, filternbrbitpos);
 8001134:	697b      	ldr	r3, [r7, #20]
 8001136:	f8d3 2214 	ldr.w	r2, [r3, #532]	; 0x214
 800113a:	68fb      	ldr	r3, [r7, #12]
 800113c:	431a      	orrs	r2, r3
 800113e:	697b      	ldr	r3, [r7, #20]
 8001140:	f8c3 2214 	str.w	r2, [r3, #532]	; 0x214
    }

    /* Filter activation */
    if (sFilterConfig->FilterActivation == CAN_FILTER_ENABLE)
 8001144:	683b      	ldr	r3, [r7, #0]
 8001146:	6a1b      	ldr	r3, [r3, #32]
 8001148:	2b01      	cmp	r3, #1
 800114a:	d107      	bne.n	800115c <HAL_CAN_ConfigFilter+0x1a0>
    {
      SET_BIT(can_ip->FA1R, filternbrbitpos);
 800114c:	697b      	ldr	r3, [r7, #20]
 800114e:	f8d3 221c 	ldr.w	r2, [r3, #540]	; 0x21c
 8001152:	68fb      	ldr	r3, [r7, #12]
 8001154:	431a      	orrs	r2, r3
 8001156:	697b      	ldr	r3, [r7, #20]
 8001158:	f8c3 221c 	str.w	r2, [r3, #540]	; 0x21c
    }

    /* Leave the initialisation mode for the filter */
    CLEAR_BIT(can_ip->FMR, CAN_FMR_FINIT);
 800115c:	697b      	ldr	r3, [r7, #20]
 800115e:	f8d3 3200 	ldr.w	r3, [r3, #512]	; 0x200
 8001162:	f023 0201 	bic.w	r2, r3, #1
 8001166:	697b      	ldr	r3, [r7, #20]
 8001168:	f8c3 2200 	str.w	r2, [r3, #512]	; 0x200

    /* Return function status */
    return HAL_OK;
 800116c:	2300      	movs	r3, #0
 800116e:	e006      	b.n	800117e <HAL_CAN_ConfigFilter+0x1c2>
  }
  else
  {
    /* Update error code */
    hcan->ErrorCode |= HAL_CAN_ERROR_NOT_INITIALIZED;
 8001170:	687b      	ldr	r3, [r7, #4]
 8001172:	6a5b      	ldr	r3, [r3, #36]	; 0x24
 8001174:	f443 2280 	orr.w	r2, r3, #262144	; 0x40000
 8001178:	687b      	ldr	r3, [r7, #4]
 800117a:	625a      	str	r2, [r3, #36]	; 0x24

    return HAL_ERROR;
 800117c:	2301      	movs	r3, #1
  }
}
 800117e:	4618      	mov	r0, r3
 8001180:	371c      	adds	r7, #28
 8001182:	46bd      	mov	sp, r7
 8001184:	f85d 7b04 	ldr.w	r7, [sp], #4
 8001188:	4770      	bx	lr
 800118a:	bf00      	nop
 800118c:	40003400 	.word	0x40003400
 8001190:	40006400 	.word	0x40006400

08001194 <HAL_CAN_Start>:
  * @param  hcan pointer to an CAN_HandleTypeDef structure that contains
  *         the configuration information for the specified CAN.
  * @retval HAL status
  */
HAL_StatusTypeDef HAL_CAN_Start(CAN_HandleTypeDef *hcan)
{
 8001194:	b580      	push	{r7, lr}
 8001196:	b084      	sub	sp, #16
 8001198:	af00      	add	r7, sp, #0
 800119a:	6078      	str	r0, [r7, #4]
  uint32_t tickstart;

  if (hcan->State == HAL_CAN_STATE_READY)
 800119c:	687b      	ldr	r3, [r7, #4]
 800119e:	f893 3020 	ldrb.w	r3, [r3, #32]
 80011a2:	b2db      	uxtb	r3, r3
 80011a4:	2b01      	cmp	r3, #1
 80011a6:	d12e      	bne.n	8001206 <HAL_CAN_Start+0x72>
  {
    /* Change CAN peripheral state */
    hcan->State = HAL_CAN_STATE_LISTENING;
 80011a8:	687b      	ldr	r3, [r7, #4]
 80011aa:	2202      	movs	r2, #2
 80011ac:	f883 2020 	strb.w	r2, [r3, #32]

    /* Request leave initialisation */
    CLEAR_BIT(hcan->Instance->MCR, CAN_MCR_INRQ);
 80011b0:	687b      	ldr	r3, [r7, #4]
 80011b2:	681b      	ldr	r3, [r3, #0]
 80011b4:	681a      	ldr	r2, [r3, #0]
 80011b6:	687b      	ldr	r3, [r7, #4]
 80011b8:	681b      	ldr	r3, [r3, #0]
 80011ba:	f022 0201 	bic.w	r2, r2, #1
 80011be:	601a      	str	r2, [r3, #0]

    /* Get tick */
    tickstart = HAL_GetTick();
 80011c0:	f7ff fdd0 	bl	8000d64 <HAL_GetTick>
 80011c4:	60f8      	str	r0, [r7, #12]

    /* Wait the acknowledge */
    while ((hcan->Instance->MSR & CAN_MSR_INAK) != 0U)
 80011c6:	e012      	b.n	80011ee <HAL_CAN_Start+0x5a>
    {
      /* Check for the Timeout */
      if ((HAL_GetTick() - tickstart) > CAN_TIMEOUT_VALUE)
 80011c8:	f7ff fdcc 	bl	8000d64 <HAL_GetTick>
 80011cc:	4602      	mov	r2, r0
 80011ce:	68fb      	ldr	r3, [r7, #12]
 80011d0:	1ad3      	subs	r3, r2, r3
 80011d2:	2b0a      	cmp	r3, #10
 80011d4:	d90b      	bls.n	80011ee <HAL_CAN_Start+0x5a>
      {
        /* Update error code */
        hcan->ErrorCode |= HAL_CAN_ERROR_TIMEOUT;
 80011d6:	687b      	ldr	r3, [r7, #4]
 80011d8:	6a5b      	ldr	r3, [r3, #36]	; 0x24
 80011da:	f443 3200 	orr.w	r2, r3, #131072	; 0x20000
 80011de:	687b      	ldr	r3, [r7, #4]
 80011e0:	625a      	str	r2, [r3, #36]	; 0x24

        /* Change CAN state */
        hcan->State = HAL_CAN_STATE_ERROR;
 80011e2:	687b      	ldr	r3, [r7, #4]
 80011e4:	2205      	movs	r2, #5
 80011e6:	f883 2020 	strb.w	r2, [r3, #32]

        return HAL_ERROR;
 80011ea:	2301      	movs	r3, #1
 80011ec:	e012      	b.n	8001214 <HAL_CAN_Start+0x80>
    while ((hcan->Instance->MSR & CAN_MSR_INAK) != 0U)
 80011ee:	687b      	ldr	r3, [r7, #4]
 80011f0:	681b      	ldr	r3, [r3, #0]
 80011f2:	685b      	ldr	r3, [r3, #4]
 80011f4:	f003 0301 	and.w	r3, r3, #1
 80011f8:	2b00      	cmp	r3, #0
 80011fa:	d1e5      	bne.n	80011c8 <HAL_CAN_Start+0x34>
      }
    }

    /* Reset the CAN ErrorCode */
    hcan->ErrorCode = HAL_CAN_ERROR_NONE;
 80011fc:	687b      	ldr	r3, [r7, #4]
 80011fe:	2200      	movs	r2, #0
 8001200:	625a      	str	r2, [r3, #36]	; 0x24

    /* Return function status */
    return HAL_OK;
 8001202:	2300      	movs	r3, #0
 8001204:	e006      	b.n	8001214 <HAL_CAN_Start+0x80>
  }
  else
  {
    /* Update error code */
    hcan->ErrorCode |= HAL_CAN_ERROR_NOT_READY;
 8001206:	687b      	ldr	r3, [r7, #4]
 8001208:	6a5b      	ldr	r3, [r3, #36]	; 0x24
 800120a:	f443 2200 	orr.w	r2, r3, #524288	; 0x80000
 800120e:	687b      	ldr	r3, [r7, #4]
 8001210:	625a      	str	r2, [r3, #36]	; 0x24

    return HAL_ERROR;
 8001212:	2301      	movs	r3, #1
  }
}
 8001214:	4618      	mov	r0, r3
 8001216:	3710      	adds	r7, #16
 8001218:	46bd      	mov	sp, r7
 800121a:	bd80      	pop	{r7, pc}

0800121c <HAL_CAN_GetRxMessage>:
  * @param  aData array where the payload of the Rx frame will be stored.
  * @retval HAL status
  */
HAL_StatusTypeDef HAL_CAN_GetRxMessage(CAN_HandleTypeDef *hcan, uint32_t RxFifo,
                                       CAN_RxHeaderTypeDef *pHeader, uint8_t aData[])
{
 800121c:	b480      	push	{r7}
 800121e:	b087      	sub	sp, #28
 8001220:	af00      	add	r7, sp, #0
 8001222:	60f8      	str	r0, [r7, #12]
 8001224:	60b9      	str	r1, [r7, #8]
 8001226:	607a      	str	r2, [r7, #4]
 8001228:	603b      	str	r3, [r7, #0]
  HAL_CAN_StateTypeDef state = hcan->State;
 800122a:	68fb      	ldr	r3, [r7, #12]
 800122c:	f893 3020 	ldrb.w	r3, [r3, #32]
 8001230:	75fb      	strb	r3, [r7, #23]

  assert_param(IS_CAN_RX_FIFO(RxFifo));

  if ((state == HAL_CAN_STATE_READY) ||
 8001232:	7dfb      	ldrb	r3, [r7, #23]
 8001234:	2b01      	cmp	r3, #1
 8001236:	d003      	beq.n	8001240 <HAL_CAN_GetRxMessage+0x24>
 8001238:	7dfb      	ldrb	r3, [r7, #23]
 800123a:	2b02      	cmp	r3, #2
 800123c:	f040 80f3 	bne.w	8001426 <HAL_CAN_GetRxMessage+0x20a>
      (state == HAL_CAN_STATE_LISTENING))
  {
    /* Check the Rx FIFO */
    if (RxFifo == CAN_RX_FIFO0) /* Rx element is assigned to Rx FIFO 0 */
 8001240:	68bb      	ldr	r3, [r7, #8]
 8001242:	2b00      	cmp	r3, #0
 8001244:	d10e      	bne.n	8001264 <HAL_CAN_GetRxMessage+0x48>
    {
      /* Check that the Rx FIFO 0 is not empty */
      if ((hcan->Instance->RF0R & CAN_RF0R_FMP0) == 0U)
 8001246:	68fb      	ldr	r3, [r7, #12]
 8001248:	681b      	ldr	r3, [r3, #0]
 800124a:	68db      	ldr	r3, [r3, #12]
 800124c:	f003 0303 	and.w	r3, r3, #3
 8001250:	2b00      	cmp	r3, #0
 8001252:	d116      	bne.n	8001282 <HAL_CAN_GetRxMessage+0x66>
      {
        /* Update error code */
        hcan->ErrorCode |= HAL_CAN_ERROR_PARAM;
 8001254:	68fb      	ldr	r3, [r7, #12]
 8001256:	6a5b      	ldr	r3, [r3, #36]	; 0x24
 8001258:	f443 1200 	orr.w	r2, r3, #2097152	; 0x200000
 800125c:	68fb      	ldr	r3, [r7, #12]
 800125e:	625a      	str	r2, [r3, #36]	; 0x24

        return HAL_ERROR;
 8001260:	2301      	movs	r3, #1
 8001262:	e0e7      	b.n	8001434 <HAL_CAN_GetRxMessage+0x218>
      }
    }
    else /* Rx element is assigned to Rx FIFO 1 */
    {
      /* Check that the Rx FIFO 1 is not empty */
      if ((hcan->Instance->RF1R & CAN_RF1R_FMP1) == 0U)
 8001264:	68fb      	ldr	r3, [r7, #12]
 8001266:	681b      	ldr	r3, [r3, #0]
 8001268:	691b      	ldr	r3, [r3, #16]
 800126a:	f003 0303 	and.w	r3, r3, #3
 800126e:	2b00      	cmp	r3, #0
 8001270:	d107      	bne.n	8001282 <HAL_CAN_GetRxMessage+0x66>
      {
        /* Update error code */
        hcan->ErrorCode |= HAL_CAN_ERROR_PARAM;
 8001272:	68fb      	ldr	r3, [r7, #12]
 8001274:	6a5b      	ldr	r3, [r3, #36]	; 0x24
 8001276:	f443 1200 	orr.w	r2, r3, #2097152	; 0x200000
 800127a:	68fb      	ldr	r3, [r7, #12]
 800127c:	625a      	str	r2, [r3, #36]	; 0x24

        return HAL_ERROR;
 800127e:	2301      	movs	r3, #1
 8001280:	e0d8      	b.n	8001434 <HAL_CAN_GetRxMessage+0x218>
      }
    }

    /* Get the header */
    pHeader->IDE = CAN_RI0R_IDE & hcan->Instance->sFIFOMailBox[RxFifo].RIR;
 8001282:	68fb      	ldr	r3, [r7, #12]
 8001284:	681a      	ldr	r2, [r3, #0]
 8001286:	68bb      	ldr	r3, [r7, #8]
 8001288:	331b      	adds	r3, #27
 800128a:	011b      	lsls	r3, r3, #4
 800128c:	4413      	add	r3, r2
 800128e:	681b      	ldr	r3, [r3, #0]
 8001290:	f003 0204 	and.w	r2, r3, #4
 8001294:	687b      	ldr	r3, [r7, #4]
 8001296:	609a      	str	r2, [r3, #8]
    if (pHeader->IDE == CAN_ID_STD)
 8001298:	687b      	ldr	r3, [r7, #4]
 800129a:	689b      	ldr	r3, [r3, #8]
 800129c:	2b00      	cmp	r3, #0
 800129e:	d10c      	bne.n	80012ba <HAL_CAN_GetRxMessage+0x9e>
    {
      pHeader->StdId = (CAN_RI0R_STID & hcan->Instance->sFIFOMailBox[RxFifo].RIR) >> CAN_TI0R_STID_Pos;
 80012a0:	68fb      	ldr	r3, [r7, #12]
 80012a2:	681a      	ldr	r2, [r3, #0]
 80012a4:	68bb      	ldr	r3, [r7, #8]
 80012a6:	331b      	adds	r3, #27
 80012a8:	011b      	lsls	r3, r3, #4
 80012aa:	4413      	add	r3, r2
 80012ac:	681b      	ldr	r3, [r3, #0]
 80012ae:	0d5b      	lsrs	r3, r3, #21
 80012b0:	f3c3 020a 	ubfx	r2, r3, #0, #11
 80012b4:	687b      	ldr	r3, [r7, #4]
 80012b6:	601a      	str	r2, [r3, #0]
 80012b8:	e00b      	b.n	80012d2 <HAL_CAN_GetRxMessage+0xb6>
    }
    else
    {
      pHeader->ExtId = ((CAN_RI0R_EXID | CAN_RI0R_STID) &
                        hcan->Instance->sFIFOMailBox[RxFifo].RIR) >> CAN_RI0R_EXID_Pos;
 80012ba:	68fb      	ldr	r3, [r7, #12]
 80012bc:	681a      	ldr	r2, [r3, #0]
 80012be:	68bb      	ldr	r3, [r7, #8]
 80012c0:	331b      	adds	r3, #27
 80012c2:	011b      	lsls	r3, r3, #4
 80012c4:	4413      	add	r3, r2
 80012c6:	681b      	ldr	r3, [r3, #0]
 80012c8:	08db      	lsrs	r3, r3, #3
 80012ca:	f023 4260 	bic.w	r2, r3, #3758096384	; 0xe0000000
      pHeader->ExtId = ((CAN_RI0R_EXID | CAN_RI0R_STID) &
 80012ce:	687b      	ldr	r3, [r7, #4]
 80012d0:	605a      	str	r2, [r3, #4]
    }
    pHeader->RTR = (CAN_RI0R_RTR & hcan->Instance->sFIFOMailBox[RxFifo].RIR);
 80012d2:	68fb      	ldr	r3, [r7, #12]
 80012d4:	681a      	ldr	r2, [r3, #0]
 80012d6:	68bb      	ldr	r3, [r7, #8]
 80012d8:	331b      	adds	r3, #27
 80012da:	011b      	lsls	r3, r3, #4
 80012dc:	4413      	add	r3, r2
 80012de:	681b      	ldr	r3, [r3, #0]
 80012e0:	f003 0202 	and.w	r2, r3, #2
 80012e4:	687b      	ldr	r3, [r7, #4]
 80012e6:	60da      	str	r2, [r3, #12]
    pHeader->DLC = (CAN_RDT0R_DLC & hcan->Instance->sFIFOMailBox[RxFifo].RDTR) >> CAN_RDT0R_DLC_Pos;
 80012e8:	68fb      	ldr	r3, [r7, #12]
 80012ea:	681a      	ldr	r2, [r3, #0]
 80012ec:	68bb      	ldr	r3, [r7, #8]
 80012ee:	331b      	adds	r3, #27
 80012f0:	011b      	lsls	r3, r3, #4
 80012f2:	4413      	add	r3, r2
 80012f4:	3304      	adds	r3, #4
 80012f6:	681b      	ldr	r3, [r3, #0]
 80012f8:	f003 020f 	and.w	r2, r3, #15
 80012fc:	687b      	ldr	r3, [r7, #4]
 80012fe:	611a      	str	r2, [r3, #16]
    pHeader->FilterMatchIndex = (CAN_RDT0R_FMI & hcan->Instance->sFIFOMailBox[RxFifo].RDTR) >> CAN_RDT0R_FMI_Pos;
 8001300:	68fb      	ldr	r3, [r7, #12]
 8001302:	681a      	ldr	r2, [r3, #0]
 8001304:	68bb      	ldr	r3, [r7, #8]
 8001306:	331b      	adds	r3, #27
 8001308:	011b      	lsls	r3, r3, #4
 800130a:	4413      	add	r3, r2
 800130c:	3304      	adds	r3, #4
 800130e:	681b      	ldr	r3, [r3, #0]
 8001310:	0a1b      	lsrs	r3, r3, #8
 8001312:	b2da      	uxtb	r2, r3
 8001314:	687b      	ldr	r3, [r7, #4]
 8001316:	619a      	str	r2, [r3, #24]
    pHeader->Timestamp = (CAN_RDT0R_TIME & hcan->Instance->sFIFOMailBox[RxFifo].RDTR) >> CAN_RDT0R_TIME_Pos;
 8001318:	68fb      	ldr	r3, [r7, #12]
 800131a:	681a      	ldr	r2, [r3, #0]
 800131c:	68bb      	ldr	r3, [r7, #8]
 800131e:	331b      	adds	r3, #27
 8001320:	011b      	lsls	r3, r3, #4
 8001322:	4413      	add	r3, r2
 8001324:	3304      	adds	r3, #4
 8001326:	681b      	ldr	r3, [r3, #0]
 8001328:	0c1b      	lsrs	r3, r3, #16
 800132a:	b29a      	uxth	r2, r3
 800132c:	687b      	ldr	r3, [r7, #4]
 800132e:	615a      	str	r2, [r3, #20]

    /* Get the data */
    aData[0] = (uint8_t)((CAN_RDL0R_DATA0 & hcan->Instance->sFIFOMailBox[RxFifo].RDLR) >> CAN_RDL0R_DATA0_Pos);
 8001330:	68fb      	ldr	r3, [r7, #12]
 8001332:	681a      	ldr	r2, [r3, #0]
 8001334:	68bb      	ldr	r3, [r7, #8]
 8001336:	011b      	lsls	r3, r3, #4
 8001338:	4413      	add	r3, r2
 800133a:	f503 73dc 	add.w	r3, r3, #440	; 0x1b8
 800133e:	681b      	ldr	r3, [r3, #0]
 8001340:	b2da      	uxtb	r2, r3
 8001342:	683b      	ldr	r3, [r7, #0]
 8001344:	701a      	strb	r2, [r3, #0]
    aData[1] = (uint8_t)((CAN_RDL0R_DATA1 & hcan->Instance->sFIFOMailBox[RxFifo].RDLR) >> CAN_RDL0R_DATA1_Pos);
 8001346:	68fb      	ldr	r3, [r7, #12]
 8001348:	681a      	ldr	r2, [r3, #0]
 800134a:	68bb      	ldr	r3, [r7, #8]
 800134c:	011b      	lsls	r3, r3, #4
 800134e:	4413      	add	r3, r2
 8001350:	f503 73dc 	add.w	r3, r3, #440	; 0x1b8
 8001354:	681b      	ldr	r3, [r3, #0]
 8001356:	0a1a      	lsrs	r2, r3, #8
 8001358:	683b      	ldr	r3, [r7, #0]
 800135a:	3301      	adds	r3, #1
 800135c:	b2d2      	uxtb	r2, r2
 800135e:	701a      	strb	r2, [r3, #0]
    aData[2] = (uint8_t)((CAN_RDL0R_DATA2 & hcan->Instance->sFIFOMailBox[RxFifo].RDLR) >> CAN_RDL0R_DATA2_Pos);
 8001360:	68fb      	ldr	r3, [r7, #12]
 8001362:	681a      	ldr	r2, [r3, #0]
 8001364:	68bb      	ldr	r3, [r7, #8]
 8001366:	011b      	lsls	r3, r3, #4
 8001368:	4413      	add	r3, r2
 800136a:	f503 73dc 	add.w	r3, r3, #440	; 0x1b8
 800136e:	681b      	ldr	r3, [r3, #0]
 8001370:	0c1a      	lsrs	r2, r3, #16
 8001372:	683b      	ldr	r3, [r7, #0]
 8001374:	3302      	adds	r3, #2
 8001376:	b2d2      	uxtb	r2, r2
 8001378:	701a      	strb	r2, [r3, #0]
    aData[3] = (uint8_t)((CAN_RDL0R_DATA3 & hcan->Instance->sFIFOMailBox[RxFifo].RDLR) >> CAN_RDL0R_DATA3_Pos);
 800137a:	68fb      	ldr	r3, [r7, #12]
 800137c:	681a      	ldr	r2, [r3, #0]
 800137e:	68bb      	ldr	r3, [r7, #8]
 8001380:	011b      	lsls	r3, r3, #4
 8001382:	4413      	add	r3, r2
 8001384:	f503 73dc 	add.w	r3, r3, #440	; 0x1b8
 8001388:	681b      	ldr	r3, [r3, #0]
 800138a:	0e1a      	lsrs	r2, r3, #24
 800138c:	683b      	ldr	r3, [r7, #0]
 800138e:	3303      	adds	r3, #3
 8001390:	b2d2      	uxtb	r2, r2
 8001392:	701a      	strb	r2, [r3, #0]
    aData[4] = (uint8_t)((CAN_RDH0R_DATA4 & hcan->Instance->sFIFOMailBox[RxFifo].RDHR) >> CAN_RDH0R_DATA4_Pos);
 8001394:	68fb      	ldr	r3, [r7, #12]
 8001396:	681a      	ldr	r2, [r3, #0]
 8001398:	68bb      	ldr	r3, [r7, #8]
 800139a:	011b      	lsls	r3, r3, #4
 800139c:	4413      	add	r3, r2
 800139e:	f503 73de 	add.w	r3, r3, #444	; 0x1bc
 80013a2:	681a      	ldr	r2, [r3, #0]
 80013a4:	683b      	ldr	r3, [r7, #0]
 80013a6:	3304      	adds	r3, #4
 80013a8:	b2d2      	uxtb	r2, r2
 80013aa:	701a      	strb	r2, [r3, #0]
    aData[5] = (uint8_t)((CAN_RDH0R_DATA5 & hcan->Instance->sFIFOMailBox[RxFifo].RDHR) >> CAN_RDH0R_DATA5_Pos);
 80013ac:	68fb      	ldr	r3, [r7, #12]
 80013ae:	681a      	ldr	r2, [r3, #0]
 80013b0:	68bb      	ldr	r3, [r7, #8]
 80013b2:	011b      	lsls	r3, r3, #4
 80013b4:	4413      	add	r3, r2
 80013b6:	f503 73de 	add.w	r3, r3, #444	; 0x1bc
 80013ba:	681b      	ldr	r3, [r3, #0]
 80013bc:	0a1a      	lsrs	r2, r3, #8
 80013be:	683b      	ldr	r3, [r7, #0]
 80013c0:	3305      	adds	r3, #5
 80013c2:	b2d2      	uxtb	r2, r2
 80013c4:	701a      	strb	r2, [r3, #0]
    aData[6] = (uint8_t)((CAN_RDH0R_DATA6 & hcan->Instance->sFIFOMailBox[RxFifo].RDHR) >> CAN_RDH0R_DATA6_Pos);
 80013c6:	68fb      	ldr	r3, [r7, #12]
 80013c8:	681a      	ldr	r2, [r3, #0]
 80013ca:	68bb      	ldr	r3, [r7, #8]
 80013cc:	011b      	lsls	r3, r3, #4
 80013ce:	4413      	add	r3, r2
 80013d0:	f503 73de 	add.w	r3, r3, #444	; 0x1bc
 80013d4:	681b      	ldr	r3, [r3, #0]
 80013d6:	0c1a      	lsrs	r2, r3, #16
 80013d8:	683b      	ldr	r3, [r7, #0]
 80013da:	3306      	adds	r3, #6
 80013dc:	b2d2      	uxtb	r2, r2
 80013de:	701a      	strb	r2, [r3, #0]
    aData[7] = (uint8_t)((CAN_RDH0R_DATA7 & hcan->Instance->sFIFOMailBox[RxFifo].RDHR) >> CAN_RDH0R_DATA7_Pos);
 80013e0:	68fb      	ldr	r3, [r7, #12]
 80013e2:	681a      	ldr	r2, [r3, #0]
 80013e4:	68bb      	ldr	r3, [r7, #8]
 80013e6:	011b      	lsls	r3, r3, #4
 80013e8:	4413      	add	r3, r2
 80013ea:	f503 73de 	add.w	r3, r3, #444	; 0x1bc
 80013ee:	681b      	ldr	r3, [r3, #0]
 80013f0:	0e1a      	lsrs	r2, r3, #24
 80013f2:	683b      	ldr	r3, [r7, #0]
 80013f4:	3307      	adds	r3, #7
 80013f6:	b2d2      	uxtb	r2, r2
 80013f8:	701a      	strb	r2, [r3, #0]

    /* Release the FIFO */
    if (RxFifo == CAN_RX_FIFO0) /* Rx element is assigned to Rx FIFO 0 */
 80013fa:	68bb      	ldr	r3, [r7, #8]
 80013fc:	2b00      	cmp	r3, #0
 80013fe:	d108      	bne.n	8001412 <HAL_CAN_GetRxMessage+0x1f6>
    {
      /* Release RX FIFO 0 */
      SET_BIT(hcan->Instance->RF0R, CAN_RF0R_RFOM0);
 8001400:	68fb      	ldr	r3, [r7, #12]
 8001402:	681b      	ldr	r3, [r3, #0]
 8001404:	68da      	ldr	r2, [r3, #12]
 8001406:	68fb      	ldr	r3, [r7, #12]
 8001408:	681b      	ldr	r3, [r3, #0]
 800140a:	f042 0220 	orr.w	r2, r2, #32
 800140e:	60da      	str	r2, [r3, #12]
 8001410:	e007      	b.n	8001422 <HAL_CAN_GetRxMessage+0x206>
    }
    else /* Rx element is assigned to Rx FIFO 1 */
    {
      /* Release RX FIFO 1 */
      SET_BIT(hcan->Instance->RF1R, CAN_RF1R_RFOM1);
 8001412:	68fb      	ldr	r3, [r7, #12]
 8001414:	681b      	ldr	r3, [r3, #0]
 8001416:	691a      	ldr	r2, [r3, #16]
 8001418:	68fb      	ldr	r3, [r7, #12]
 800141a:	681b      	ldr	r3, [r3, #0]
 800141c:	f042 0220 	orr.w	r2, r2, #32
 8001420:	611a      	str	r2, [r3, #16]
    }

    /* Return function status */
    return HAL_OK;
 8001422:	2300      	movs	r3, #0
 8001424:	e006      	b.n	8001434 <HAL_CAN_GetRxMessage+0x218>
  }
  else
  {
    /* Update error code */
    hcan->ErrorCode |= HAL_CAN_ERROR_NOT_INITIALIZED;
 8001426:	68fb      	ldr	r3, [r7, #12]
 8001428:	6a5b      	ldr	r3, [r3, #36]	; 0x24
 800142a:	f443 2280 	orr.w	r2, r3, #262144	; 0x40000
 800142e:	68fb      	ldr	r3, [r7, #12]
 8001430:	625a      	str	r2, [r3, #36]	; 0x24

    return HAL_ERROR;
 8001432:	2301      	movs	r3, #1
  }
}
 8001434:	4618      	mov	r0, r3
 8001436:	371c      	adds	r7, #28
 8001438:	46bd      	mov	sp, r7
 800143a:	f85d 7b04 	ldr.w	r7, [sp], #4
 800143e:	4770      	bx	lr

08001440 <HAL_CAN_GetRxFifoFillLevel>:
  * @param  RxFifo Rx FIFO.
  *         This parameter can be a value of @arg CAN_receive_FIFO_number.
  * @retval Number of messages available in Rx FIFO.
  */
uint32_t HAL_CAN_GetRxFifoFillLevel(const CAN_HandleTypeDef *hcan, uint32_t RxFifo)
{
 8001440:	b480      	push	{r7}
 8001442:	b085      	sub	sp, #20
 8001444:	af00      	add	r7, sp, #0
 8001446:	6078      	str	r0, [r7, #4]
 8001448:	6039      	str	r1, [r7, #0]
  uint32_t filllevel = 0U;
 800144a:	2300      	movs	r3, #0
 800144c:	60fb      	str	r3, [r7, #12]
  HAL_CAN_StateTypeDef state = hcan->State;
 800144e:	687b      	ldr	r3, [r7, #4]
 8001450:	f893 3020 	ldrb.w	r3, [r3, #32]
 8001454:	72fb      	strb	r3, [r7, #11]

  /* Check function parameters */
  assert_param(IS_CAN_RX_FIFO(RxFifo));

  if ((state == HAL_CAN_STATE_READY) ||
 8001456:	7afb      	ldrb	r3, [r7, #11]
 8001458:	2b01      	cmp	r3, #1
 800145a:	d002      	beq.n	8001462 <HAL_CAN_GetRxFifoFillLevel+0x22>
 800145c:	7afb      	ldrb	r3, [r7, #11]
 800145e:	2b02      	cmp	r3, #2
 8001460:	d10f      	bne.n	8001482 <HAL_CAN_GetRxFifoFillLevel+0x42>
      (state == HAL_CAN_STATE_LISTENING))
  {
    if (RxFifo == CAN_RX_FIFO0)
 8001462:	683b      	ldr	r3, [r7, #0]
 8001464:	2b00      	cmp	r3, #0
 8001466:	d106      	bne.n	8001476 <HAL_CAN_GetRxFifoFillLevel+0x36>
    {
      filllevel = hcan->Instance->RF0R & CAN_RF0R_FMP0;
 8001468:	687b      	ldr	r3, [r7, #4]
 800146a:	681b      	ldr	r3, [r3, #0]
 800146c:	68db      	ldr	r3, [r3, #12]
 800146e:	f003 0303 	and.w	r3, r3, #3
 8001472:	60fb      	str	r3, [r7, #12]
 8001474:	e005      	b.n	8001482 <HAL_CAN_GetRxFifoFillLevel+0x42>
    }
    else /* RxFifo == CAN_RX_FIFO1 */
    {
      filllevel = hcan->Instance->RF1R & CAN_RF1R_FMP1;
 8001476:	687b      	ldr	r3, [r7, #4]
 8001478:	681b      	ldr	r3, [r3, #0]
 800147a:	691b      	ldr	r3, [r3, #16]
 800147c:	f003 0303 	and.w	r3, r3, #3
 8001480:	60fb      	str	r3, [r7, #12]
    }
  }

  /* Return Rx FIFO fill level */
  return filllevel;
 8001482:	68fb      	ldr	r3, [r7, #12]
}
 8001484:	4618      	mov	r0, r3
 8001486:	3714      	adds	r7, #20
 8001488:	46bd      	mov	sp, r7
 800148a:	f85d 7b04 	ldr.w	r7, [sp], #4
 800148e:	4770      	bx	lr

08001490 <__NVIC_SetPriorityGrouping>:
{
 8001490:	b480      	push	{r7}
 8001492:	b085      	sub	sp, #20
 8001494:	af00      	add	r7, sp, #0
 8001496:	6078      	str	r0, [r7, #4]
  uint32_t PriorityGroupTmp = (PriorityGroup & (uint32_t)0x07UL);             /* only values 0..7 are used          */
 8001498:	687b      	ldr	r3, [r7, #4]
 800149a:	f003 0307 	and.w	r3, r3, #7
 800149e:	60fb      	str	r3, [r7, #12]
  reg_value  =  SCB->AIRCR;                                                   /* read old register configuration    */
 80014a0:	4b0b      	ldr	r3, [pc, #44]	; (80014d0 <__NVIC_SetPriorityGrouping+0x40>)
 80014a2:	68db      	ldr	r3, [r3, #12]
 80014a4:	60bb      	str	r3, [r7, #8]
  reg_value &= ~((uint32_t)(SCB_AIRCR_VECTKEY_Msk | SCB_AIRCR_PRIGROUP_Msk)); /* clear bits to change               */
 80014a6:	68ba      	ldr	r2, [r7, #8]
 80014a8:	f64f 03ff 	movw	r3, #63743	; 0xf8ff
 80014ac:	4013      	ands	r3, r2
 80014ae:	60bb      	str	r3, [r7, #8]
                (PriorityGroupTmp << SCB_AIRCR_PRIGROUP_Pos)  );              /* Insert write key and priority group */
 80014b0:	68fb      	ldr	r3, [r7, #12]
 80014b2:	021a      	lsls	r2, r3, #8
                ((uint32_t)0x5FAUL << SCB_AIRCR_VECTKEY_Pos) |
 80014b4:	68bb      	ldr	r3, [r7, #8]
 80014b6:	431a      	orrs	r2, r3
  reg_value  =  (reg_value                                   |
 80014b8:	4b06      	ldr	r3, [pc, #24]	; (80014d4 <__NVIC_SetPriorityGrouping+0x44>)
 80014ba:	4313      	orrs	r3, r2
 80014bc:	60bb      	str	r3, [r7, #8]
  SCB->AIRCR =  reg_value;
 80014be:	4a04      	ldr	r2, [pc, #16]	; (80014d0 <__NVIC_SetPriorityGrouping+0x40>)
 80014c0:	68bb      	ldr	r3, [r7, #8]
 80014c2:	60d3      	str	r3, [r2, #12]
}
 80014c4:	bf00      	nop
 80014c6:	3714      	adds	r7, #20
 80014c8:	46bd      	mov	sp, r7
 80014ca:	f85d 7b04 	ldr.w	r7, [sp], #4
 80014ce:	4770      	bx	lr
 80014d0:	e000ed00 	.word	0xe000ed00
 80014d4:	05fa0000 	.word	0x05fa0000

080014d8 <__NVIC_GetPriorityGrouping>:
{
 80014d8:	b480      	push	{r7}
 80014da:	af00      	add	r7, sp, #0
  return ((uint32_t)((SCB->AIRCR & SCB_AIRCR_PRIGROUP_Msk) >> SCB_AIRCR_PRIGROUP_Pos));
 80014dc:	4b04      	ldr	r3, [pc, #16]	; (80014f0 <__NVIC_GetPriorityGrouping+0x18>)
 80014de:	68db      	ldr	r3, [r3, #12]
 80014e0:	0a1b      	lsrs	r3, r3, #8
 80014e2:	f003 0307 	and.w	r3, r3, #7
}
 80014e6:	4618      	mov	r0, r3
 80014e8:	46bd      	mov	sp, r7
 80014ea:	f85d 7b04 	ldr.w	r7, [sp], #4
 80014ee:	4770      	bx	lr
 80014f0:	e000ed00 	.word	0xe000ed00

080014f4 <__NVIC_EnableIRQ>:
{
 80014f4:	b480      	push	{r7}
 80014f6:	b083      	sub	sp, #12
 80014f8:	af00      	add	r7, sp, #0
 80014fa:	4603      	mov	r3, r0
 80014fc:	71fb      	strb	r3, [r7, #7]
  if ((int32_t)(IRQn) >= 0)
 80014fe:	f997 3007 	ldrsb.w	r3, [r7, #7]
 8001502:	2b00      	cmp	r3, #0
 8001504:	db0b      	blt.n	800151e <__NVIC_EnableIRQ+0x2a>
    NVIC->ISER[(((uint32_t)IRQn) >> 5UL)] = (uint32_t)(1UL << (((uint32_t)IRQn) & 0x1FUL));
 8001506:	79fb      	ldrb	r3, [r7, #7]
 8001508:	f003 021f 	and.w	r2, r3, #31
 800150c:	4907      	ldr	r1, [pc, #28]	; (800152c <__NVIC_EnableIRQ+0x38>)
 800150e:	f997 3007 	ldrsb.w	r3, [r7, #7]
 8001512:	095b      	lsrs	r3, r3, #5
 8001514:	2001      	movs	r0, #1
 8001516:	fa00 f202 	lsl.w	r2, r0, r2
 800151a:	f841 2023 	str.w	r2, [r1, r3, lsl #2]
}
 800151e:	bf00      	nop
 8001520:	370c      	adds	r7, #12
 8001522:	46bd      	mov	sp, r7
 8001524:	f85d 7b04 	ldr.w	r7, [sp], #4
 8001528:	4770      	bx	lr
 800152a:	bf00      	nop
 800152c:	e000e100 	.word	0xe000e100

08001530 <__NVIC_SetPriority>:
{
 8001530:	b480      	push	{r7}
 8001532:	b083      	sub	sp, #12
 8001534:	af00      	add	r7, sp, #0
 8001536:	4603      	mov	r3, r0
 8001538:	6039      	str	r1, [r7, #0]
 800153a:	71fb      	strb	r3, [r7, #7]
  if ((int32_t)(IRQn) >= 0)
 800153c:	f997 3007 	ldrsb.w	r3, [r7, #7]
 8001540:	2b00      	cmp	r3, #0
 8001542:	db0a      	blt.n	800155a <__NVIC_SetPriority+0x2a>
    NVIC->IP[((uint32_t)IRQn)]                = (uint8_t)((priority << (8U - __NVIC_PRIO_BITS)) & (uint32_t)0xFFUL);
 8001544:	683b      	ldr	r3, [r7, #0]
 8001546:	b2da      	uxtb	r2, r3
 8001548:	490c      	ldr	r1, [pc, #48]	; (800157c <__NVIC_SetPriority+0x4c>)
 800154a:	f997 3007 	ldrsb.w	r3, [r7, #7]
 800154e:	0112      	lsls	r2, r2, #4
 8001550:	b2d2      	uxtb	r2, r2
 8001552:	440b      	add	r3, r1
 8001554:	f883 2300 	strb.w	r2, [r3, #768]	; 0x300
}
 8001558:	e00a      	b.n	8001570 <__NVIC_SetPriority+0x40>
    SCB->SHPR[(((uint32_t)IRQn) & 0xFUL)-4UL] = (uint8_t)((priority << (8U - __NVIC_PRIO_BITS)) & (uint32_t)0xFFUL);
 800155a:	683b      	ldr	r3, [r7, #0]
 800155c:	b2da      	uxtb	r2, r3
 800155e:	4908      	ldr	r1, [pc, #32]	; (8001580 <__NVIC_SetPriority+0x50>)
 8001560:	79fb      	ldrb	r3, [r7, #7]
 8001562:	f003 030f 	and.w	r3, r3, #15
 8001566:	3b04      	subs	r3, #4
 8001568:	0112      	lsls	r2, r2, #4
 800156a:	b2d2      	uxtb	r2, r2
 800156c:	440b      	add	r3, r1
 800156e:	761a      	strb	r2, [r3, #24]
}
 8001570:	bf00      	nop
 8001572:	370c      	adds	r7, #12
 8001574:	46bd      	mov	sp, r7
 8001576:	f85d 7b04 	ldr.w	r7, [sp], #4
 800157a:	4770      	bx	lr
 800157c:	e000e100 	.word	0xe000e100
 8001580:	e000ed00 	.word	0xe000ed00

08001584 <NVIC_EncodePriority>:
{
 8001584:	b480      	push	{r7}
 8001586:	b089      	sub	sp, #36	; 0x24
 8001588:	af00      	add	r7, sp, #0
 800158a:	60f8      	str	r0, [r7, #12]
 800158c:	60b9      	str	r1, [r7, #8]
 800158e:	607a      	str	r2, [r7, #4]
  uint32_t PriorityGroupTmp = (PriorityGroup & (uint32_t)0x07UL);   /* only values 0..7 are used          */
 8001590:	68fb      	ldr	r3, [r7, #12]
 8001592:	f003 0307 	and.w	r3, r3, #7
 8001596:	61fb      	str	r3, [r7, #28]
  PreemptPriorityBits = ((7UL - PriorityGroupTmp) > (uint32_t)(__NVIC_PRIO_BITS)) ? (uint32_t)(__NVIC_PRIO_BITS) : (uint32_t)(7UL - PriorityGroupTmp);
 8001598:	69fb      	ldr	r3, [r7, #28]
 800159a:	f1c3 0307 	rsb	r3, r3, #7
 800159e:	2b04      	cmp	r3, #4
 80015a0:	bf28      	it	cs
 80015a2:	2304      	movcs	r3, #4
 80015a4:	61bb      	str	r3, [r7, #24]
  SubPriorityBits     = ((PriorityGroupTmp + (uint32_t)(__NVIC_PRIO_BITS)) < (uint32_t)7UL) ? (uint32_t)0UL : (uint32_t)((PriorityGroupTmp - 7UL) + (uint32_t)(__NVIC_PRIO_BITS));
 80015a6:	69fb      	ldr	r3, [r7, #28]
 80015a8:	3304      	adds	r3, #4
 80015aa:	2b06      	cmp	r3, #6
 80015ac:	d902      	bls.n	80015b4 <NVIC_EncodePriority+0x30>
 80015ae:	69fb      	ldr	r3, [r7, #28]
 80015b0:	3b03      	subs	r3, #3
 80015b2:	e000      	b.n	80015b6 <NVIC_EncodePriority+0x32>
 80015b4:	2300      	movs	r3, #0
 80015b6:	617b      	str	r3, [r7, #20]
           ((PreemptPriority & (uint32_t)((1UL << (PreemptPriorityBits)) - 1UL)) << SubPriorityBits) |
 80015b8:	f04f 32ff 	mov.w	r2, #4294967295
 80015bc:	69bb      	ldr	r3, [r7, #24]
 80015be:	fa02 f303 	lsl.w	r3, r2, r3
 80015c2:	43da      	mvns	r2, r3
 80015c4:	68bb      	ldr	r3, [r7, #8]
 80015c6:	401a      	ands	r2, r3
 80015c8:	697b      	ldr	r3, [r7, #20]
 80015ca:	409a      	lsls	r2, r3
           ((SubPriority     & (uint32_t)((1UL << (SubPriorityBits    )) - 1UL)))
 80015cc:	f04f 31ff 	mov.w	r1, #4294967295
 80015d0:	697b      	ldr	r3, [r7, #20]
 80015d2:	fa01 f303 	lsl.w	r3, r1, r3
 80015d6:	43d9      	mvns	r1, r3
 80015d8:	687b      	ldr	r3, [r7, #4]
 80015da:	400b      	ands	r3, r1
           ((PreemptPriority & (uint32_t)((1UL << (PreemptPriorityBits)) - 1UL)) << SubPriorityBits) |
 80015dc:	4313      	orrs	r3, r2
}
 80015de:	4618      	mov	r0, r3
 80015e0:	3724      	adds	r7, #36	; 0x24
 80015e2:	46bd      	mov	sp, r7
 80015e4:	f85d 7b04 	ldr.w	r7, [sp], #4
 80015e8:	4770      	bx	lr

080015ea <HAL_NVIC_SetPriorityGrouping>:
  * @note   When the NVIC_PriorityGroup_0 is selected, IRQ preemption is no more possible. 
  *         The pending IRQ priority will be managed only by the subpriority. 
  * @retval None
  */
void HAL_NVIC_SetPriorityGrouping(uint32_t PriorityGroup)
{
 80015ea:	b580      	push	{r7, lr}
 80015ec:	b082      	sub	sp, #8
 80015ee:	af00      	add	r7, sp, #0
 80015f0:	6078      	str	r0, [r7, #4]
  /* Check the parameters */
  assert_param(IS_NVIC_PRIORITY_GROUP(PriorityGroup));
  
  /* Set the PRIGROUP[10:8] bits according to the PriorityGroup parameter value */
  NVIC_SetPriorityGrouping(PriorityGroup);
 80015f2:	6878      	ldr	r0, [r7, #4]
 80015f4:	f7ff ff4c 	bl	8001490 <__NVIC_SetPriorityGrouping>
}
 80015f8:	bf00      	nop
 80015fa:	3708      	adds	r7, #8
 80015fc:	46bd      	mov	sp, r7
 80015fe:	bd80      	pop	{r7, pc}

08001600 <HAL_NVIC_SetPriority>:
  *         This parameter can be a value between 0 and 15
  *         A lower priority value indicates a higher priority.          
  * @retval None
  */
void HAL_NVIC_SetPriority(IRQn_Type IRQn, uint32_t PreemptPriority, uint32_t SubPriority)
{ 
 8001600:	b580      	push	{r7, lr}
 8001602:	b086      	sub	sp, #24
 8001604:	af00      	add	r7, sp, #0
 8001606:	4603      	mov	r3, r0
 8001608:	60b9      	str	r1, [r7, #8]
 800160a:	607a      	str	r2, [r7, #4]
 800160c:	73fb      	strb	r3, [r7, #15]
  uint32_t prioritygroup = 0x00;
 800160e:	2300      	movs	r3, #0
 8001610:	617b      	str	r3, [r7, #20]
  
  /* Check the parameters */
  assert_param(IS_NVIC_SUB_PRIORITY(SubPriority));
  assert_param(IS_NVIC_PREEMPTION_PRIORITY(PreemptPriority));
  
  prioritygroup = NVIC_GetPriorityGrouping();
 8001612:	f7ff ff61 	bl	80014d8 <__NVIC_GetPriorityGrouping>
 8001616:	6178      	str	r0, [r7, #20]
  
  NVIC_SetPriority(IRQn, NVIC_EncodePriority(prioritygroup, PreemptPriority, SubPriority));
 8001618:	687a      	ldr	r2, [r7, #4]
 800161a:	68b9      	ldr	r1, [r7, #8]
 800161c:	6978      	ldr	r0, [r7, #20]
 800161e:	f7ff ffb1 	bl	8001584 <NVIC_EncodePriority>
 8001622:	4602      	mov	r2, r0
 8001624:	f997 300f 	ldrsb.w	r3, [r7, #15]
 8001628:	4611      	mov	r1, r2
 800162a:	4618      	mov	r0, r3
 800162c:	f7ff ff80 	bl	8001530 <__NVIC_SetPriority>
}
 8001630:	bf00      	nop
 8001632:	3718      	adds	r7, #24
 8001634:	46bd      	mov	sp, r7
 8001636:	bd80      	pop	{r7, pc}

08001638 <HAL_NVIC_EnableIRQ>:
  *         This parameter can be an enumerator of IRQn_Type enumeration
  *         (For the complete STM32 Devices IRQ Channels list, please refer to the appropriate CMSIS device file (stm32f7xxxx.h))
  * @retval None
  */
void HAL_NVIC_EnableIRQ(IRQn_Type IRQn)
{
 8001638:	b580      	push	{r7, lr}
 800163a:	b082      	sub	sp, #8
 800163c:	af00      	add	r7, sp, #0
 800163e:	4603      	mov	r3, r0
 8001640:	71fb      	strb	r3, [r7, #7]
  /* Check the parameters */
  assert_param(IS_NVIC_DEVICE_IRQ(IRQn));
  
  /* Enable interrupt */
  NVIC_EnableIRQ(IRQn);
 8001642:	f997 3007 	ldrsb.w	r3, [r7, #7]
 8001646:	4618      	mov	r0, r3
 8001648:	f7ff ff54 	bl	80014f4 <__NVIC_EnableIRQ>
}
 800164c:	bf00      	nop
 800164e:	3708      	adds	r7, #8
 8001650:	46bd      	mov	sp, r7
 8001652:	bd80      	pop	{r7, pc}

08001654 <HAL_GPIO_Init>:
  * @param  GPIO_Init pointer to a GPIO_InitTypeDef structure that contains
  *         the configuration information for the specified GPIO peripheral.
  * @retval None
  */
void HAL_GPIO_Init(GPIO_TypeDef  *GPIOx, GPIO_InitTypeDef *GPIO_Init)
{
 8001654:	b480      	push	{r7}
 8001656:	b089      	sub	sp, #36	; 0x24
 8001658:	af00      	add	r7, sp, #0
 800165a:	6078      	str	r0, [r7, #4]
 800165c:	6039      	str	r1, [r7, #0]
  uint32_t position = 0x00;
 800165e:	2300      	movs	r3, #0
 8001660:	61fb      	str	r3, [r7, #28]
  uint32_t ioposition = 0x00;
 8001662:	2300      	movs	r3, #0
 8001664:	617b      	str	r3, [r7, #20]
  uint32_t iocurrent = 0x00;
 8001666:	2300      	movs	r3, #0
 8001668:	613b      	str	r3, [r7, #16]
  uint32_t temp = 0x00;
 800166a:	2300      	movs	r3, #0
 800166c:	61bb      	str	r3, [r7, #24]
  assert_param(IS_GPIO_ALL_INSTANCE(GPIOx));
  assert_param(IS_GPIO_PIN(GPIO_Init->Pin));
  assert_param(IS_GPIO_MODE(GPIO_Init->Mode));

  /* Configure the port pins */
  for(position = 0; position < GPIO_NUMBER; position++)
 800166e:	2300      	movs	r3, #0
 8001670:	61fb      	str	r3, [r7, #28]
 8001672:	e175      	b.n	8001960 <HAL_GPIO_Init+0x30c>
  {
    /* Get the IO position */
    ioposition = ((uint32_t)0x01) << position;
 8001674:	2201      	movs	r2, #1
 8001676:	69fb      	ldr	r3, [r7, #28]
 8001678:	fa02 f303 	lsl.w	r3, r2, r3
 800167c:	617b      	str	r3, [r7, #20]
    /* Get the current IO position */
    iocurrent = (uint32_t)(GPIO_Init->Pin) & ioposition;
 800167e:	683b      	ldr	r3, [r7, #0]
 8001680:	681b      	ldr	r3, [r3, #0]
 8001682:	697a      	ldr	r2, [r7, #20]
 8001684:	4013      	ands	r3, r2
 8001686:	613b      	str	r3, [r7, #16]

    if(iocurrent == ioposition)
 8001688:	693a      	ldr	r2, [r7, #16]
 800168a:	697b      	ldr	r3, [r7, #20]
 800168c:	429a      	cmp	r2, r3
 800168e:	f040 8164 	bne.w	800195a <HAL_GPIO_Init+0x306>
    {
      /*--------------------- GPIO Mode Configuration ------------------------*/
      /* In case of Output or Alternate function mode selection */
      if(((GPIO_Init->Mode & GPIO_MODE) == MODE_OUTPUT) || ((GPIO_Init->Mode & GPIO_MODE) == MODE_AF))
 8001692:	683b      	ldr	r3, [r7, #0]
 8001694:	685b      	ldr	r3, [r3, #4]
 8001696:	f003 0303 	and.w	r3, r3, #3
 800169a:	2b01      	cmp	r3, #1
 800169c:	d005      	beq.n	80016aa <HAL_GPIO_Init+0x56>
 800169e:	683b      	ldr	r3, [r7, #0]
 80016a0:	685b      	ldr	r3, [r3, #4]
 80016a2:	f003 0303 	and.w	r3, r3, #3
 80016a6:	2b02      	cmp	r3, #2
 80016a8:	d130      	bne.n	800170c <HAL_GPIO_Init+0xb8>
      {
        /* Check the Speed parameter */
        assert_param(IS_GPIO_SPEED(GPIO_Init->Speed));
        /* Configure the IO Speed */
        temp = GPIOx->OSPEEDR; 
 80016aa:	687b      	ldr	r3, [r7, #4]
 80016ac:	689b      	ldr	r3, [r3, #8]
 80016ae:	61bb      	str	r3, [r7, #24]
        temp &= ~(GPIO_OSPEEDER_OSPEEDR0 << (position * 2));
 80016b0:	69fb      	ldr	r3, [r7, #28]
 80016b2:	005b      	lsls	r3, r3, #1
 80016b4:	2203      	movs	r2, #3
 80016b6:	fa02 f303 	lsl.w	r3, r2, r3
 80016ba:	43db      	mvns	r3, r3
 80016bc:	69ba      	ldr	r2, [r7, #24]
 80016be:	4013      	ands	r3, r2
 80016c0:	61bb      	str	r3, [r7, #24]
        temp |= (GPIO_Init->Speed << (position * 2));
 80016c2:	683b      	ldr	r3, [r7, #0]
 80016c4:	68da      	ldr	r2, [r3, #12]
 80016c6:	69fb      	ldr	r3, [r7, #28]
 80016c8:	005b      	lsls	r3, r3, #1
 80016ca:	fa02 f303 	lsl.w	r3, r2, r3
 80016ce:	69ba      	ldr	r2, [r7, #24]
 80016d0:	4313      	orrs	r3, r2
 80016d2:	61bb      	str	r3, [r7, #24]
        GPIOx->OSPEEDR = temp;
 80016d4:	687b      	ldr	r3, [r7, #4]
 80016d6:	69ba      	ldr	r2, [r7, #24]
 80016d8:	609a      	str	r2, [r3, #8]

        /* Configure the IO Output Type */
        temp = GPIOx->OTYPER;
 80016da:	687b      	ldr	r3, [r7, #4]
 80016dc:	685b      	ldr	r3, [r3, #4]
 80016de:	61bb      	str	r3, [r7, #24]
        temp &= ~(GPIO_OTYPER_OT_0 << position) ;
 80016e0:	2201      	movs	r2, #1
 80016e2:	69fb      	ldr	r3, [r7, #28]
 80016e4:	fa02 f303 	lsl.w	r3, r2, r3
 80016e8:	43db      	mvns	r3, r3
 80016ea:	69ba      	ldr	r2, [r7, #24]
 80016ec:	4013      	ands	r3, r2
 80016ee:	61bb      	str	r3, [r7, #24]
        temp |= (((GPIO_Init->Mode & OUTPUT_TYPE) >> OUTPUT_TYPE_Pos) << position);
 80016f0:	683b      	ldr	r3, [r7, #0]
 80016f2:	685b      	ldr	r3, [r3, #4]
 80016f4:	091b      	lsrs	r3, r3, #4
 80016f6:	f003 0201 	and.w	r2, r3, #1
 80016fa:	69fb      	ldr	r3, [r7, #28]
 80016fc:	fa02 f303 	lsl.w	r3, r2, r3
 8001700:	69ba      	ldr	r2, [r7, #24]
 8001702:	4313      	orrs	r3, r2
 8001704:	61bb      	str	r3, [r7, #24]
        GPIOx->OTYPER = temp;
 8001706:	687b      	ldr	r3, [r7, #4]
 8001708:	69ba      	ldr	r2, [r7, #24]
 800170a:	605a      	str	r2, [r3, #4]
      }
      
      if((GPIO_Init->Mode & GPIO_MODE) != MODE_ANALOG)
 800170c:	683b      	ldr	r3, [r7, #0]
 800170e:	685b      	ldr	r3, [r3, #4]
 8001710:	f003 0303 	and.w	r3, r3, #3
 8001714:	2b03      	cmp	r3, #3
 8001716:	d017      	beq.n	8001748 <HAL_GPIO_Init+0xf4>
      {
        /* Check the Pull parameter */
        assert_param(IS_GPIO_PULL(GPIO_Init->Pull));

        /* Activate the Pull-up or Pull down resistor for the current IO */
        temp = GPIOx->PUPDR;
 8001718:	687b      	ldr	r3, [r7, #4]
 800171a:	68db      	ldr	r3, [r3, #12]
 800171c:	61bb      	str	r3, [r7, #24]
        temp &= ~(GPIO_PUPDR_PUPDR0 << (position * 2));
 800171e:	69fb      	ldr	r3, [r7, #28]
 8001720:	005b      	lsls	r3, r3, #1
 8001722:	2203      	movs	r2, #3
 8001724:	fa02 f303 	lsl.w	r3, r2, r3
 8001728:	43db      	mvns	r3, r3
 800172a:	69ba      	ldr	r2, [r7, #24]
 800172c:	4013      	ands	r3, r2
 800172e:	61bb      	str	r3, [r7, #24]
        temp |= ((GPIO_Init->Pull) << (position * 2));
 8001730:	683b      	ldr	r3, [r7, #0]
 8001732:	689a      	ldr	r2, [r3, #8]
 8001734:	69fb      	ldr	r3, [r7, #28]
 8001736:	005b      	lsls	r3, r3, #1
 8001738:	fa02 f303 	lsl.w	r3, r2, r3
 800173c:	69ba      	ldr	r2, [r7, #24]
 800173e:	4313      	orrs	r3, r2
 8001740:	61bb      	str	r3, [r7, #24]
        GPIOx->PUPDR = temp;
 8001742:	687b      	ldr	r3, [r7, #4]
 8001744:	69ba      	ldr	r2, [r7, #24]
 8001746:	60da      	str	r2, [r3, #12]
      }

      /* In case of Alternate function mode selection */
      if((GPIO_Init->Mode & GPIO_MODE) == MODE_AF)
 8001748:	683b      	ldr	r3, [r7, #0]
 800174a:	685b      	ldr	r3, [r3, #4]
 800174c:	f003 0303 	and.w	r3, r3, #3
 8001750:	2b02      	cmp	r3, #2
 8001752:	d123      	bne.n	800179c <HAL_GPIO_Init+0x148>
      {
        /* Check the Alternate function parameter */
        assert_param(IS_GPIO_AF(GPIO_Init->Alternate));

        /* Configure Alternate function mapped with the current IO */
        temp = GPIOx->AFR[position >> 3];
 8001754:	69fb      	ldr	r3, [r7, #28]
 8001756:	08da      	lsrs	r2, r3, #3
 8001758:	687b      	ldr	r3, [r7, #4]
 800175a:	3208      	adds	r2, #8
 800175c:	f853 3022 	ldr.w	r3, [r3, r2, lsl #2]
 8001760:	61bb      	str	r3, [r7, #24]
        temp &= ~((uint32_t)0xF << ((uint32_t)(position & (uint32_t)0x07) * 4)) ;
 8001762:	69fb      	ldr	r3, [r7, #28]
 8001764:	f003 0307 	and.w	r3, r3, #7
 8001768:	009b      	lsls	r3, r3, #2
 800176a:	220f      	movs	r2, #15
 800176c:	fa02 f303 	lsl.w	r3, r2, r3
 8001770:	43db      	mvns	r3, r3
 8001772:	69ba      	ldr	r2, [r7, #24]
 8001774:	4013      	ands	r3, r2
 8001776:	61bb      	str	r3, [r7, #24]
        temp |= ((uint32_t)(GPIO_Init->Alternate) << (((uint32_t)position & (uint32_t)0x07) * 4));
 8001778:	683b      	ldr	r3, [r7, #0]
 800177a:	691a      	ldr	r2, [r3, #16]
 800177c:	69fb      	ldr	r3, [r7, #28]
 800177e:	f003 0307 	and.w	r3, r3, #7
 8001782:	009b      	lsls	r3, r3, #2
 8001784:	fa02 f303 	lsl.w	r3, r2, r3
 8001788:	69ba      	ldr	r2, [r7, #24]
 800178a:	4313      	orrs	r3, r2
 800178c:	61bb      	str	r3, [r7, #24]
        GPIOx->AFR[position >> 3] = temp;
 800178e:	69fb      	ldr	r3, [r7, #28]
 8001790:	08da      	lsrs	r2, r3, #3
 8001792:	687b      	ldr	r3, [r7, #4]
 8001794:	3208      	adds	r2, #8
 8001796:	69b9      	ldr	r1, [r7, #24]
 8001798:	f843 1022 	str.w	r1, [r3, r2, lsl #2]
      }
      
      /* Configure IO Direction mode (Input, Output, Alternate or Analog) */
      temp = GPIOx->MODER;
 800179c:	687b      	ldr	r3, [r7, #4]
 800179e:	681b      	ldr	r3, [r3, #0]
 80017a0:	61bb      	str	r3, [r7, #24]
      temp &= ~(GPIO_MODER_MODER0 << (position * 2));
 80017a2:	69fb      	ldr	r3, [r7, #28]
 80017a4:	005b      	lsls	r3, r3, #1
 80017a6:	2203      	movs	r2, #3
 80017a8:	fa02 f303 	lsl.w	r3, r2, r3
 80017ac:	43db      	mvns	r3, r3
 80017ae:	69ba      	ldr	r2, [r7, #24]
 80017b0:	4013      	ands	r3, r2
 80017b2:	61bb      	str	r3, [r7, #24]
      temp |= ((GPIO_Init->Mode & GPIO_MODE) << (position * 2));
 80017b4:	683b      	ldr	r3, [r7, #0]
 80017b6:	685b      	ldr	r3, [r3, #4]
 80017b8:	f003 0203 	and.w	r2, r3, #3
 80017bc:	69fb      	ldr	r3, [r7, #28]
 80017be:	005b      	lsls	r3, r3, #1
 80017c0:	fa02 f303 	lsl.w	r3, r2, r3
 80017c4:	69ba      	ldr	r2, [r7, #24]
 80017c6:	4313      	orrs	r3, r2
 80017c8:	61bb      	str	r3, [r7, #24]
      GPIOx->MODER = temp;
 80017ca:	687b      	ldr	r3, [r7, #4]
 80017cc:	69ba      	ldr	r2, [r7, #24]
 80017ce:	601a      	str	r2, [r3, #0]

      /*--------------------- EXTI Mode Configuration ------------------------*/
      /* Configure the External Interrupt or event for the current IO */
      if((GPIO_Init->Mode & EXTI_MODE) != 0x00u)
 80017d0:	683b      	ldr	r3, [r7, #0]
 80017d2:	685b      	ldr	r3, [r3, #4]
 80017d4:	f403 3340 	and.w	r3, r3, #196608	; 0x30000
 80017d8:	2b00      	cmp	r3, #0
 80017da:	f000 80be 	beq.w	800195a <HAL_GPIO_Init+0x306>
      {
        /* Enable SYSCFG Clock */
        __HAL_RCC_SYSCFG_CLK_ENABLE();
 80017de:	4b66      	ldr	r3, [pc, #408]	; (8001978 <HAL_GPIO_Init+0x324>)
 80017e0:	6c5b      	ldr	r3, [r3, #68]	; 0x44
 80017e2:	4a65      	ldr	r2, [pc, #404]	; (8001978 <HAL_GPIO_Init+0x324>)
 80017e4:	f443 4380 	orr.w	r3, r3, #16384	; 0x4000
 80017e8:	6453      	str	r3, [r2, #68]	; 0x44
 80017ea:	4b63      	ldr	r3, [pc, #396]	; (8001978 <HAL_GPIO_Init+0x324>)
 80017ec:	6c5b      	ldr	r3, [r3, #68]	; 0x44
 80017ee:	f403 4380 	and.w	r3, r3, #16384	; 0x4000
 80017f2:	60fb      	str	r3, [r7, #12]
 80017f4:	68fb      	ldr	r3, [r7, #12]

        temp = SYSCFG->EXTICR[position >> 2];
 80017f6:	4a61      	ldr	r2, [pc, #388]	; (800197c <HAL_GPIO_Init+0x328>)
 80017f8:	69fb      	ldr	r3, [r7, #28]
 80017fa:	089b      	lsrs	r3, r3, #2
 80017fc:	3302      	adds	r3, #2
 80017fe:	f852 3023 	ldr.w	r3, [r2, r3, lsl #2]
 8001802:	61bb      	str	r3, [r7, #24]
        temp &= ~(((uint32_t)0x0F) << (4 * (position & 0x03)));
 8001804:	69fb      	ldr	r3, [r7, #28]
 8001806:	f003 0303 	and.w	r3, r3, #3
 800180a:	009b      	lsls	r3, r3, #2
 800180c:	220f      	movs	r2, #15
 800180e:	fa02 f303 	lsl.w	r3, r2, r3
 8001812:	43db      	mvns	r3, r3
 8001814:	69ba      	ldr	r2, [r7, #24]
 8001816:	4013      	ands	r3, r2
 8001818:	61bb      	str	r3, [r7, #24]
        temp |= ((uint32_t)(GPIO_GET_INDEX(GPIOx)) << (4 * (position & 0x03)));
 800181a:	687b      	ldr	r3, [r7, #4]
 800181c:	4a58      	ldr	r2, [pc, #352]	; (8001980 <HAL_GPIO_Init+0x32c>)
 800181e:	4293      	cmp	r3, r2
 8001820:	d037      	beq.n	8001892 <HAL_GPIO_Init+0x23e>
 8001822:	687b      	ldr	r3, [r7, #4]
 8001824:	4a57      	ldr	r2, [pc, #348]	; (8001984 <HAL_GPIO_Init+0x330>)
 8001826:	4293      	cmp	r3, r2
 8001828:	d031      	beq.n	800188e <HAL_GPIO_Init+0x23a>
 800182a:	687b      	ldr	r3, [r7, #4]
 800182c:	4a56      	ldr	r2, [pc, #344]	; (8001988 <HAL_GPIO_Init+0x334>)
 800182e:	4293      	cmp	r3, r2
 8001830:	d02b      	beq.n	800188a <HAL_GPIO_Init+0x236>
 8001832:	687b      	ldr	r3, [r7, #4]
 8001834:	4a55      	ldr	r2, [pc, #340]	; (800198c <HAL_GPIO_Init+0x338>)
 8001836:	4293      	cmp	r3, r2
 8001838:	d025      	beq.n	8001886 <HAL_GPIO_Init+0x232>
 800183a:	687b      	ldr	r3, [r7, #4]
 800183c:	4a54      	ldr	r2, [pc, #336]	; (8001990 <HAL_GPIO_Init+0x33c>)
 800183e:	4293      	cmp	r3, r2
 8001840:	d01f      	beq.n	8001882 <HAL_GPIO_Init+0x22e>
 8001842:	687b      	ldr	r3, [r7, #4]
 8001844:	4a53      	ldr	r2, [pc, #332]	; (8001994 <HAL_GPIO_Init+0x340>)
 8001846:	4293      	cmp	r3, r2
 8001848:	d019      	beq.n	800187e <HAL_GPIO_Init+0x22a>
 800184a:	687b      	ldr	r3, [r7, #4]
 800184c:	4a52      	ldr	r2, [pc, #328]	; (8001998 <HAL_GPIO_Init+0x344>)
 800184e:	4293      	cmp	r3, r2
 8001850:	d013      	beq.n	800187a <HAL_GPIO_Init+0x226>
 8001852:	687b      	ldr	r3, [r7, #4]
 8001854:	4a51      	ldr	r2, [pc, #324]	; (800199c <HAL_GPIO_Init+0x348>)
 8001856:	4293      	cmp	r3, r2
 8001858:	d00d      	beq.n	8001876 <HAL_GPIO_Init+0x222>
 800185a:	687b      	ldr	r3, [r7, #4]
 800185c:	4a50      	ldr	r2, [pc, #320]	; (80019a0 <HAL_GPIO_Init+0x34c>)
 800185e:	4293      	cmp	r3, r2
 8001860:	d007      	beq.n	8001872 <HAL_GPIO_Init+0x21e>
 8001862:	687b      	ldr	r3, [r7, #4]
 8001864:	4a4f      	ldr	r2, [pc, #316]	; (80019a4 <HAL_GPIO_Init+0x350>)
 8001866:	4293      	cmp	r3, r2
 8001868:	d101      	bne.n	800186e <HAL_GPIO_Init+0x21a>
 800186a:	2309      	movs	r3, #9
 800186c:	e012      	b.n	8001894 <HAL_GPIO_Init+0x240>
 800186e:	230a      	movs	r3, #10
 8001870:	e010      	b.n	8001894 <HAL_GPIO_Init+0x240>
 8001872:	2308      	movs	r3, #8
 8001874:	e00e      	b.n	8001894 <HAL_GPIO_Init+0x240>
 8001876:	2307      	movs	r3, #7
 8001878:	e00c      	b.n	8001894 <HAL_GPIO_Init+0x240>
 800187a:	2306      	movs	r3, #6
 800187c:	e00a      	b.n	8001894 <HAL_GPIO_Init+0x240>
 800187e:	2305      	movs	r3, #5
 8001880:	e008      	b.n	8001894 <HAL_GPIO_Init+0x240>
 8001882:	2304      	movs	r3, #4
 8001884:	e006      	b.n	8001894 <HAL_GPIO_Init+0x240>
 8001886:	2303      	movs	r3, #3
 8001888:	e004      	b.n	8001894 <HAL_GPIO_Init+0x240>
 800188a:	2302      	movs	r3, #2
 800188c:	e002      	b.n	8001894 <HAL_GPIO_Init+0x240>
 800188e:	2301      	movs	r3, #1
 8001890:	e000      	b.n	8001894 <HAL_GPIO_Init+0x240>
 8001892:	2300      	movs	r3, #0
 8001894:	69fa      	ldr	r2, [r7, #28]
 8001896:	f002 0203 	and.w	r2, r2, #3
 800189a:	0092      	lsls	r2, r2, #2
 800189c:	4093      	lsls	r3, r2
 800189e:	69ba      	ldr	r2, [r7, #24]
 80018a0:	4313      	orrs	r3, r2
 80018a2:	61bb      	str	r3, [r7, #24]
        SYSCFG->EXTICR[position >> 2] = temp;
 80018a4:	4935      	ldr	r1, [pc, #212]	; (800197c <HAL_GPIO_Init+0x328>)
 80018a6:	69fb      	ldr	r3, [r7, #28]
 80018a8:	089b      	lsrs	r3, r3, #2
 80018aa:	3302      	adds	r3, #2
 80018ac:	69ba      	ldr	r2, [r7, #24]
 80018ae:	f841 2023 	str.w	r2, [r1, r3, lsl #2]

        /* Clear Rising Falling edge configuration */
        temp = EXTI->RTSR;
 80018b2:	4b3d      	ldr	r3, [pc, #244]	; (80019a8 <HAL_GPIO_Init+0x354>)
 80018b4:	689b      	ldr	r3, [r3, #8]
 80018b6:	61bb      	str	r3, [r7, #24]
        temp &= ~((uint32_t)iocurrent);
 80018b8:	693b      	ldr	r3, [r7, #16]
 80018ba:	43db      	mvns	r3, r3
 80018bc:	69ba      	ldr	r2, [r7, #24]
 80018be:	4013      	ands	r3, r2
 80018c0:	61bb      	str	r3, [r7, #24]
        if((GPIO_Init->Mode & TRIGGER_RISING) != 0x00u)
 80018c2:	683b      	ldr	r3, [r7, #0]
 80018c4:	685b      	ldr	r3, [r3, #4]
 80018c6:	f403 1380 	and.w	r3, r3, #1048576	; 0x100000
 80018ca:	2b00      	cmp	r3, #0
 80018cc:	d003      	beq.n	80018d6 <HAL_GPIO_Init+0x282>
        {
          temp |= iocurrent;
 80018ce:	69ba      	ldr	r2, [r7, #24]
 80018d0:	693b      	ldr	r3, [r7, #16]
 80018d2:	4313      	orrs	r3, r2
 80018d4:	61bb      	str	r3, [r7, #24]
        }
        EXTI->RTSR = temp;
 80018d6:	4a34      	ldr	r2, [pc, #208]	; (80019a8 <HAL_GPIO_Init+0x354>)
 80018d8:	69bb      	ldr	r3, [r7, #24]
 80018da:	6093      	str	r3, [r2, #8]

        temp = EXTI->FTSR;
 80018dc:	4b32      	ldr	r3, [pc, #200]	; (80019a8 <HAL_GPIO_Init+0x354>)
 80018de:	68db      	ldr	r3, [r3, #12]
 80018e0:	61bb      	str	r3, [r7, #24]
        temp &= ~((uint32_t)iocurrent);
 80018e2:	693b      	ldr	r3, [r7, #16]
 80018e4:	43db      	mvns	r3, r3
 80018e6:	69ba      	ldr	r2, [r7, #24]
 80018e8:	4013      	ands	r3, r2
 80018ea:	61bb      	str	r3, [r7, #24]
        if((GPIO_Init->Mode & TRIGGER_FALLING) != 0x00u)
 80018ec:	683b      	ldr	r3, [r7, #0]
 80018ee:	685b      	ldr	r3, [r3, #4]
 80018f0:	f403 1300 	and.w	r3, r3, #2097152	; 0x200000
 80018f4:	2b00      	cmp	r3, #0
 80018f6:	d003      	beq.n	8001900 <HAL_GPIO_Init+0x2ac>
        {
          temp |= iocurrent;
 80018f8:	69ba      	ldr	r2, [r7, #24]
 80018fa:	693b      	ldr	r3, [r7, #16]
 80018fc:	4313      	orrs	r3, r2
 80018fe:	61bb      	str	r3, [r7, #24]
        }
        EXTI->FTSR = temp;
 8001900:	4a29      	ldr	r2, [pc, #164]	; (80019a8 <HAL_GPIO_Init+0x354>)
 8001902:	69bb      	ldr	r3, [r7, #24]
 8001904:	60d3      	str	r3, [r2, #12]

        temp = EXTI->EMR;
 8001906:	4b28      	ldr	r3, [pc, #160]	; (80019a8 <HAL_GPIO_Init+0x354>)
 8001908:	685b      	ldr	r3, [r3, #4]
 800190a:	61bb      	str	r3, [r7, #24]
        temp &= ~((uint32_t)iocurrent);
 800190c:	693b      	ldr	r3, [r7, #16]
 800190e:	43db      	mvns	r3, r3
 8001910:	69ba      	ldr	r2, [r7, #24]
 8001912:	4013      	ands	r3, r2
 8001914:	61bb      	str	r3, [r7, #24]
        if((GPIO_Init->Mode & EXTI_EVT) != 0x00u)
 8001916:	683b      	ldr	r3, [r7, #0]
 8001918:	685b      	ldr	r3, [r3, #4]
 800191a:	f403 3300 	and.w	r3, r3, #131072	; 0x20000
 800191e:	2b00      	cmp	r3, #0
 8001920:	d003      	beq.n	800192a <HAL_GPIO_Init+0x2d6>
        {
          temp |= iocurrent;
 8001922:	69ba      	ldr	r2, [r7, #24]
 8001924:	693b      	ldr	r3, [r7, #16]
 8001926:	4313      	orrs	r3, r2
 8001928:	61bb      	str	r3, [r7, #24]
        }
        EXTI->EMR = temp;
 800192a:	4a1f      	ldr	r2, [pc, #124]	; (80019a8 <HAL_GPIO_Init+0x354>)
 800192c:	69bb      	ldr	r3, [r7, #24]
 800192e:	6053      	str	r3, [r2, #4]

        /* Clear EXTI line configuration */
        temp = EXTI->IMR;
 8001930:	4b1d      	ldr	r3, [pc, #116]	; (80019a8 <HAL_GPIO_Init+0x354>)
 8001932:	681b      	ldr	r3, [r3, #0]
 8001934:	61bb      	str	r3, [r7, #24]
        temp &= ~((uint32_t)iocurrent);
 8001936:	693b      	ldr	r3, [r7, #16]
 8001938:	43db      	mvns	r3, r3
 800193a:	69ba      	ldr	r2, [r7, #24]
 800193c:	4013      	ands	r3, r2
 800193e:	61bb      	str	r3, [r7, #24]
        if((GPIO_Init->Mode & EXTI_IT) != 0x00u)
 8001940:	683b      	ldr	r3, [r7, #0]
 8001942:	685b      	ldr	r3, [r3, #4]
 8001944:	f403 3380 	and.w	r3, r3, #65536	; 0x10000
 8001948:	2b00      	cmp	r3, #0
 800194a:	d003      	beq.n	8001954 <HAL_GPIO_Init+0x300>
        {
          temp |= iocurrent;
 800194c:	69ba      	ldr	r2, [r7, #24]
 800194e:	693b      	ldr	r3, [r7, #16]
 8001950:	4313      	orrs	r3, r2
 8001952:	61bb      	str	r3, [r7, #24]
        }
        EXTI->IMR = temp;
 8001954:	4a14      	ldr	r2, [pc, #80]	; (80019a8 <HAL_GPIO_Init+0x354>)
 8001956:	69bb      	ldr	r3, [r7, #24]
 8001958:	6013      	str	r3, [r2, #0]
  for(position = 0; position < GPIO_NUMBER; position++)
 800195a:	69fb      	ldr	r3, [r7, #28]
 800195c:	3301      	adds	r3, #1
 800195e:	61fb      	str	r3, [r7, #28]
 8001960:	69fb      	ldr	r3, [r7, #28]
 8001962:	2b0f      	cmp	r3, #15
 8001964:	f67f ae86 	bls.w	8001674 <HAL_GPIO_Init+0x20>
      }
    }
  }
}
 8001968:	bf00      	nop
 800196a:	bf00      	nop
 800196c:	3724      	adds	r7, #36	; 0x24
 800196e:	46bd      	mov	sp, r7
 8001970:	f85d 7b04 	ldr.w	r7, [sp], #4
 8001974:	4770      	bx	lr
 8001976:	bf00      	nop
 8001978:	40023800 	.word	0x40023800
 800197c:	40013800 	.word	0x40013800
 8001980:	40020000 	.word	0x40020000
 8001984:	40020400 	.word	0x40020400
 8001988:	40020800 	.word	0x40020800
 800198c:	40020c00 	.word	0x40020c00
 8001990:	40021000 	.word	0x40021000
 8001994:	40021400 	.word	0x40021400
 8001998:	40021800 	.word	0x40021800
 800199c:	40021c00 	.word	0x40021c00
 80019a0:	40022000 	.word	0x40022000
 80019a4:	40022400 	.word	0x40022400
 80019a8:	40013c00 	.word	0x40013c00

080019ac <HAL_GPIO_WritePin>:
  *            @arg GPIO_PIN_RESET: to clear the port pin
  *            @arg GPIO_PIN_SET: to set the port pin
  * @retval None
  */
void HAL_GPIO_WritePin(GPIO_TypeDef* GPIOx, uint16_t GPIO_Pin, GPIO_PinState PinState)
{
 80019ac:	b480      	push	{r7}
 80019ae:	b083      	sub	sp, #12
 80019b0:	af00      	add	r7, sp, #0
 80019b2:	6078      	str	r0, [r7, #4]
 80019b4:	460b      	mov	r3, r1
 80019b6:	807b      	strh	r3, [r7, #2]
 80019b8:	4613      	mov	r3, r2
 80019ba:	707b      	strb	r3, [r7, #1]
  /* Check the parameters */
  assert_param(IS_GPIO_PIN(GPIO_Pin));
  assert_param(IS_GPIO_PIN_ACTION(PinState));

  if(PinState != GPIO_PIN_RESET)
 80019bc:	787b      	ldrb	r3, [r7, #1]
 80019be:	2b00      	cmp	r3, #0
 80019c0:	d003      	beq.n	80019ca <HAL_GPIO_WritePin+0x1e>
  {
    GPIOx->BSRR = GPIO_Pin;
 80019c2:	887a      	ldrh	r2, [r7, #2]
 80019c4:	687b      	ldr	r3, [r7, #4]
 80019c6:	619a      	str	r2, [r3, #24]
  }
  else
  {
    GPIOx->BSRR = (uint32_t)GPIO_Pin << 16;
  }
}
 80019c8:	e003      	b.n	80019d2 <HAL_GPIO_WritePin+0x26>
    GPIOx->BSRR = (uint32_t)GPIO_Pin << 16;
 80019ca:	887b      	ldrh	r3, [r7, #2]
 80019cc:	041a      	lsls	r2, r3, #16
 80019ce:	687b      	ldr	r3, [r7, #4]
 80019d0:	619a      	str	r2, [r3, #24]
}
 80019d2:	bf00      	nop
 80019d4:	370c      	adds	r7, #12
 80019d6:	46bd      	mov	sp, r7
 80019d8:	f85d 7b04 	ldr.w	r7, [sp], #4
 80019dc:	4770      	bx	lr
	...

080019e0 <HAL_PWREx_EnableOverDrive>:
  *         During the Over-drive switch activation, no peripheral clocks should be enabled.   
  *         The peripheral clocks must be enabled once the Over-drive mode is activated.   
  * @retval HAL status
  */
HAL_StatusTypeDef HAL_PWREx_EnableOverDrive(void)
{
 80019e0:	b580      	push	{r7, lr}
 80019e2:	b082      	sub	sp, #8
 80019e4:	af00      	add	r7, sp, #0
  uint32_t tickstart = 0;
 80019e6:	2300      	movs	r3, #0
 80019e8:	607b      	str	r3, [r7, #4]

  __HAL_RCC_PWR_CLK_ENABLE();
 80019ea:	4b23      	ldr	r3, [pc, #140]	; (8001a78 <HAL_PWREx_EnableOverDrive+0x98>)
 80019ec:	6c1b      	ldr	r3, [r3, #64]	; 0x40
 80019ee:	4a22      	ldr	r2, [pc, #136]	; (8001a78 <HAL_PWREx_EnableOverDrive+0x98>)
 80019f0:	f043 5380 	orr.w	r3, r3, #268435456	; 0x10000000
 80019f4:	6413      	str	r3, [r2, #64]	; 0x40
 80019f6:	4b20      	ldr	r3, [pc, #128]	; (8001a78 <HAL_PWREx_EnableOverDrive+0x98>)
 80019f8:	6c1b      	ldr	r3, [r3, #64]	; 0x40
 80019fa:	f003 5380 	and.w	r3, r3, #268435456	; 0x10000000
 80019fe:	603b      	str	r3, [r7, #0]
 8001a00:	683b      	ldr	r3, [r7, #0]
  
  /* Enable the Over-drive to extend the clock frequency to 216 MHz */
  __HAL_PWR_OVERDRIVE_ENABLE();
 8001a02:	4b1e      	ldr	r3, [pc, #120]	; (8001a7c <HAL_PWREx_EnableOverDrive+0x9c>)
 8001a04:	681b      	ldr	r3, [r3, #0]
 8001a06:	4a1d      	ldr	r2, [pc, #116]	; (8001a7c <HAL_PWREx_EnableOverDrive+0x9c>)
 8001a08:	f443 3380 	orr.w	r3, r3, #65536	; 0x10000
 8001a0c:	6013      	str	r3, [r2, #0]

  /* Get tick */
  tickstart = HAL_GetTick();
 8001a0e:	f7ff f9a9 	bl	8000d64 <HAL_GetTick>
 8001a12:	6078      	str	r0, [r7, #4]

  while(!__HAL_PWR_GET_FLAG(PWR_FLAG_ODRDY))
 8001a14:	e009      	b.n	8001a2a <HAL_PWREx_EnableOverDrive+0x4a>
  {
    if((HAL_GetTick() - tickstart ) > PWR_OVERDRIVE_TIMEOUT_VALUE)
 8001a16:	f7ff f9a5 	bl	8000d64 <HAL_GetTick>
 8001a1a:	4602      	mov	r2, r0
 8001a1c:	687b      	ldr	r3, [r7, #4]
 8001a1e:	1ad3      	subs	r3, r2, r3
 8001a20:	f5b3 7f7a 	cmp.w	r3, #1000	; 0x3e8
 8001a24:	d901      	bls.n	8001a2a <HAL_PWREx_EnableOverDrive+0x4a>
    {
      return HAL_TIMEOUT;
 8001a26:	2303      	movs	r3, #3
 8001a28:	e022      	b.n	8001a70 <HAL_PWREx_EnableOverDrive+0x90>
  while(!__HAL_PWR_GET_FLAG(PWR_FLAG_ODRDY))
 8001a2a:	4b14      	ldr	r3, [pc, #80]	; (8001a7c <HAL_PWREx_EnableOverDrive+0x9c>)
 8001a2c:	685b      	ldr	r3, [r3, #4]
 8001a2e:	f403 3380 	and.w	r3, r3, #65536	; 0x10000
 8001a32:	f5b3 3f80 	cmp.w	r3, #65536	; 0x10000
 8001a36:	d1ee      	bne.n	8001a16 <HAL_PWREx_EnableOverDrive+0x36>
    }
  }
  
  /* Enable the Over-drive switch */
  __HAL_PWR_OVERDRIVESWITCHING_ENABLE();
 8001a38:	4b10      	ldr	r3, [pc, #64]	; (8001a7c <HAL_PWREx_EnableOverDrive+0x9c>)
 8001a3a:	681b      	ldr	r3, [r3, #0]
 8001a3c:	4a0f      	ldr	r2, [pc, #60]	; (8001a7c <HAL_PWREx_EnableOverDrive+0x9c>)
 8001a3e:	f443 3300 	orr.w	r3, r3, #131072	; 0x20000
 8001a42:	6013      	str	r3, [r2, #0]

  /* Get tick */
  tickstart = HAL_GetTick();
 8001a44:	f7ff f98e 	bl	8000d64 <HAL_GetTick>
 8001a48:	6078      	str	r0, [r7, #4]

  while(!__HAL_PWR_GET_FLAG(PWR_FLAG_ODSWRDY))
 8001a4a:	e009      	b.n	8001a60 <HAL_PWREx_EnableOverDrive+0x80>
  {
    if((HAL_GetTick() - tickstart ) > PWR_OVERDRIVE_TIMEOUT_VALUE)
 8001a4c:	f7ff f98a 	bl	8000d64 <HAL_GetTick>
 8001a50:	4602      	mov	r2, r0
 8001a52:	687b      	ldr	r3, [r7, #4]
 8001a54:	1ad3      	subs	r3, r2, r3
 8001a56:	f5b3 7f7a 	cmp.w	r3, #1000	; 0x3e8
 8001a5a:	d901      	bls.n	8001a60 <HAL_PWREx_EnableOverDrive+0x80>
    {
      return HAL_TIMEOUT;
 8001a5c:	2303      	movs	r3, #3
 8001a5e:	e007      	b.n	8001a70 <HAL_PWREx_EnableOverDrive+0x90>
  while(!__HAL_PWR_GET_FLAG(PWR_FLAG_ODSWRDY))
 8001a60:	4b06      	ldr	r3, [pc, #24]	; (8001a7c <HAL_PWREx_EnableOverDrive+0x9c>)
 8001a62:	685b      	ldr	r3, [r3, #4]
 8001a64:	f403 3300 	and.w	r3, r3, #131072	; 0x20000
 8001a68:	f5b3 3f00 	cmp.w	r3, #131072	; 0x20000
 8001a6c:	d1ee      	bne.n	8001a4c <HAL_PWREx_EnableOverDrive+0x6c>
    }
  } 
  return HAL_OK;
 8001a6e:	2300      	movs	r3, #0
}
 8001a70:	4618      	mov	r0, r3
 8001a72:	3708      	adds	r7, #8
 8001a74:	46bd      	mov	sp, r7
 8001a76:	bd80      	pop	{r7, pc}
 8001a78:	40023800 	.word	0x40023800
 8001a7c:	40007000 	.word	0x40007000

08001a80 <HAL_RCC_OscConfig>:
  *         supported by this function. User should request a transition to HSE Off
  *         first and then HSE On or HSE Bypass.
  * @retval HAL status
  */
HAL_StatusTypeDef HAL_RCC_OscConfig(RCC_OscInitTypeDef  *RCC_OscInitStruct)
{
 8001a80:	b580      	push	{r7, lr}
 8001a82:	b086      	sub	sp, #24
 8001a84:	af00      	add	r7, sp, #0
 8001a86:	6078      	str	r0, [r7, #4]
  uint32_t tickstart;
  uint32_t pll_config;
  FlagStatus pwrclkchanged = RESET;
 8001a88:	2300      	movs	r3, #0
 8001a8a:	75fb      	strb	r3, [r7, #23]

  /* Check Null pointer */
  if (RCC_OscInitStruct == NULL)
 8001a8c:	687b      	ldr	r3, [r7, #4]
 8001a8e:	2b00      	cmp	r3, #0
 8001a90:	d101      	bne.n	8001a96 <HAL_RCC_OscConfig+0x16>
  {
    return HAL_ERROR;
 8001a92:	2301      	movs	r3, #1
 8001a94:	e29b      	b.n	8001fce <HAL_RCC_OscConfig+0x54e>

  /* Check the parameters */
  assert_param(IS_RCC_OSCILLATORTYPE(RCC_OscInitStruct->OscillatorType));

  /*------------------------------- HSE Configuration ------------------------*/
  if (((RCC_OscInitStruct->OscillatorType) & RCC_OSCILLATORTYPE_HSE) == RCC_OSCILLATORTYPE_HSE)
 8001a96:	687b      	ldr	r3, [r7, #4]
 8001a98:	681b      	ldr	r3, [r3, #0]
 8001a9a:	f003 0301 	and.w	r3, r3, #1
 8001a9e:	2b00      	cmp	r3, #0
 8001aa0:	f000 8087 	beq.w	8001bb2 <HAL_RCC_OscConfig+0x132>
  {
    /* Check the parameters */
    assert_param(IS_RCC_HSE(RCC_OscInitStruct->HSEState));
    /* When the HSE is used as system clock or clock source for PLL, It can not be disabled */
    if ((__HAL_RCC_GET_SYSCLK_SOURCE() == RCC_SYSCLKSOURCE_STATUS_HSE)
 8001aa4:	4b96      	ldr	r3, [pc, #600]	; (8001d00 <HAL_RCC_OscConfig+0x280>)
 8001aa6:	689b      	ldr	r3, [r3, #8]
 8001aa8:	f003 030c 	and.w	r3, r3, #12
 8001aac:	2b04      	cmp	r3, #4
 8001aae:	d00c      	beq.n	8001aca <HAL_RCC_OscConfig+0x4a>
        || ((__HAL_RCC_GET_SYSCLK_SOURCE() == RCC_SYSCLKSOURCE_STATUS_PLLCLK) && ((RCC->PLLCFGR & RCC_PLLCFGR_PLLSRC) == RCC_PLLCFGR_PLLSRC_HSE)))
 8001ab0:	4b93      	ldr	r3, [pc, #588]	; (8001d00 <HAL_RCC_OscConfig+0x280>)
 8001ab2:	689b      	ldr	r3, [r3, #8]
 8001ab4:	f003 030c 	and.w	r3, r3, #12
 8001ab8:	2b08      	cmp	r3, #8
 8001aba:	d112      	bne.n	8001ae2 <HAL_RCC_OscConfig+0x62>
 8001abc:	4b90      	ldr	r3, [pc, #576]	; (8001d00 <HAL_RCC_OscConfig+0x280>)
 8001abe:	685b      	ldr	r3, [r3, #4]
 8001ac0:	f403 0380 	and.w	r3, r3, #4194304	; 0x400000
 8001ac4:	f5b3 0f80 	cmp.w	r3, #4194304	; 0x400000
 8001ac8:	d10b      	bne.n	8001ae2 <HAL_RCC_OscConfig+0x62>
    {
      if ((__HAL_RCC_GET_FLAG(RCC_FLAG_HSERDY) != RESET) && (RCC_OscInitStruct->HSEState == RCC_HSE_OFF))
 8001aca:	4b8d      	ldr	r3, [pc, #564]	; (8001d00 <HAL_RCC_OscConfig+0x280>)
 8001acc:	681b      	ldr	r3, [r3, #0]
 8001ace:	f403 3300 	and.w	r3, r3, #131072	; 0x20000
 8001ad2:	2b00      	cmp	r3, #0
 8001ad4:	d06c      	beq.n	8001bb0 <HAL_RCC_OscConfig+0x130>
 8001ad6:	687b      	ldr	r3, [r7, #4]
 8001ad8:	685b      	ldr	r3, [r3, #4]
 8001ada:	2b00      	cmp	r3, #0
 8001adc:	d168      	bne.n	8001bb0 <HAL_RCC_OscConfig+0x130>
      {
        return HAL_ERROR;
 8001ade:	2301      	movs	r3, #1
 8001ae0:	e275      	b.n	8001fce <HAL_RCC_OscConfig+0x54e>
      }
    }
    else
    {
      /* Set the new HSE configuration ---------------------------------------*/
      __HAL_RCC_HSE_CONFIG(RCC_OscInitStruct->HSEState);
 8001ae2:	687b      	ldr	r3, [r7, #4]
 8001ae4:	685b      	ldr	r3, [r3, #4]
 8001ae6:	f5b3 3f80 	cmp.w	r3, #65536	; 0x10000
 8001aea:	d106      	bne.n	8001afa <HAL_RCC_OscConfig+0x7a>
 8001aec:	4b84      	ldr	r3, [pc, #528]	; (8001d00 <HAL_RCC_OscConfig+0x280>)
 8001aee:	681b      	ldr	r3, [r3, #0]
 8001af0:	4a83      	ldr	r2, [pc, #524]	; (8001d00 <HAL_RCC_OscConfig+0x280>)
 8001af2:	f443 3380 	orr.w	r3, r3, #65536	; 0x10000
 8001af6:	6013      	str	r3, [r2, #0]
 8001af8:	e02e      	b.n	8001b58 <HAL_RCC_OscConfig+0xd8>
 8001afa:	687b      	ldr	r3, [r7, #4]
 8001afc:	685b      	ldr	r3, [r3, #4]
 8001afe:	2b00      	cmp	r3, #0
 8001b00:	d10c      	bne.n	8001b1c <HAL_RCC_OscConfig+0x9c>
 8001b02:	4b7f      	ldr	r3, [pc, #508]	; (8001d00 <HAL_RCC_OscConfig+0x280>)
 8001b04:	681b      	ldr	r3, [r3, #0]
 8001b06:	4a7e      	ldr	r2, [pc, #504]	; (8001d00 <HAL_RCC_OscConfig+0x280>)
 8001b08:	f423 3380 	bic.w	r3, r3, #65536	; 0x10000
 8001b0c:	6013      	str	r3, [r2, #0]
 8001b0e:	4b7c      	ldr	r3, [pc, #496]	; (8001d00 <HAL_RCC_OscConfig+0x280>)
 8001b10:	681b      	ldr	r3, [r3, #0]
 8001b12:	4a7b      	ldr	r2, [pc, #492]	; (8001d00 <HAL_RCC_OscConfig+0x280>)
 8001b14:	f423 2380 	bic.w	r3, r3, #262144	; 0x40000
 8001b18:	6013      	str	r3, [r2, #0]
 8001b1a:	e01d      	b.n	8001b58 <HAL_RCC_OscConfig+0xd8>
 8001b1c:	687b      	ldr	r3, [r7, #4]
 8001b1e:	685b      	ldr	r3, [r3, #4]
 8001b20:	f5b3 2fa0 	cmp.w	r3, #327680	; 0x50000
 8001b24:	d10c      	bne.n	8001b40 <HAL_RCC_OscConfig+0xc0>
 8001b26:	4b76      	ldr	r3, [pc, #472]	; (8001d00 <HAL_RCC_OscConfig+0x280>)
 8001b28:	681b      	ldr	r3, [r3, #0]
 8001b2a:	4a75      	ldr	r2, [pc, #468]	; (8001d00 <HAL_RCC_OscConfig+0x280>)
 8001b2c:	f443 2380 	orr.w	r3, r3, #262144	; 0x40000
 8001b30:	6013      	str	r3, [r2, #0]
 8001b32:	4b73      	ldr	r3, [pc, #460]	; (8001d00 <HAL_RCC_OscConfig+0x280>)
 8001b34:	681b      	ldr	r3, [r3, #0]
 8001b36:	4a72      	ldr	r2, [pc, #456]	; (8001d00 <HAL_RCC_OscConfig+0x280>)
 8001b38:	f443 3380 	orr.w	r3, r3, #65536	; 0x10000
 8001b3c:	6013      	str	r3, [r2, #0]
 8001b3e:	e00b      	b.n	8001b58 <HAL_RCC_OscConfig+0xd8>
 8001b40:	4b6f      	ldr	r3, [pc, #444]	; (8001d00 <HAL_RCC_OscConfig+0x280>)
 8001b42:	681b      	ldr	r3, [r3, #0]
 8001b44:	4a6e      	ldr	r2, [pc, #440]	; (8001d00 <HAL_RCC_OscConfig+0x280>)
 8001b46:	f423 3380 	bic.w	r3, r3, #65536	; 0x10000
 8001b4a:	6013      	str	r3, [r2, #0]
 8001b4c:	4b6c      	ldr	r3, [pc, #432]	; (8001d00 <HAL_RCC_OscConfig+0x280>)
 8001b4e:	681b      	ldr	r3, [r3, #0]
 8001b50:	4a6b      	ldr	r2, [pc, #428]	; (8001d00 <HAL_RCC_OscConfig+0x280>)
 8001b52:	f423 2380 	bic.w	r3, r3, #262144	; 0x40000
 8001b56:	6013      	str	r3, [r2, #0]

      /* Check the HSE State */
      if (RCC_OscInitStruct->HSEState != RCC_HSE_OFF)
 8001b58:	687b      	ldr	r3, [r7, #4]
 8001b5a:	685b      	ldr	r3, [r3, #4]
 8001b5c:	2b00      	cmp	r3, #0
 8001b5e:	d013      	beq.n	8001b88 <HAL_RCC_OscConfig+0x108>
      {
        /* Get Start Tick*/
        tickstart = HAL_GetTick();
 8001b60:	f7ff f900 	bl	8000d64 <HAL_GetTick>
 8001b64:	6138      	str	r0, [r7, #16]

        /* Wait till HSE is ready */
        while (__HAL_RCC_GET_FLAG(RCC_FLAG_HSERDY) == RESET)
 8001b66:	e008      	b.n	8001b7a <HAL_RCC_OscConfig+0xfa>
        {
          if ((HAL_GetTick() - tickstart) > HSE_TIMEOUT_VALUE)
 8001b68:	f7ff f8fc 	bl	8000d64 <HAL_GetTick>
 8001b6c:	4602      	mov	r2, r0
 8001b6e:	693b      	ldr	r3, [r7, #16]
 8001b70:	1ad3      	subs	r3, r2, r3
 8001b72:	2b64      	cmp	r3, #100	; 0x64
 8001b74:	d901      	bls.n	8001b7a <HAL_RCC_OscConfig+0xfa>
          {
            return HAL_TIMEOUT;
 8001b76:	2303      	movs	r3, #3
 8001b78:	e229      	b.n	8001fce <HAL_RCC_OscConfig+0x54e>
        while (__HAL_RCC_GET_FLAG(RCC_FLAG_HSERDY) == RESET)
 8001b7a:	4b61      	ldr	r3, [pc, #388]	; (8001d00 <HAL_RCC_OscConfig+0x280>)
 8001b7c:	681b      	ldr	r3, [r3, #0]
 8001b7e:	f403 3300 	and.w	r3, r3, #131072	; 0x20000
 8001b82:	2b00      	cmp	r3, #0
 8001b84:	d0f0      	beq.n	8001b68 <HAL_RCC_OscConfig+0xe8>
 8001b86:	e014      	b.n	8001bb2 <HAL_RCC_OscConfig+0x132>
        }
      }
      else
      {
        /* Get Start Tick*/
        tickstart = HAL_GetTick();
 8001b88:	f7ff f8ec 	bl	8000d64 <HAL_GetTick>
 8001b8c:	6138      	str	r0, [r7, #16]

        /* Wait till HSE is bypassed or disabled */
        while (__HAL_RCC_GET_FLAG(RCC_FLAG_HSERDY) != RESET)
 8001b8e:	e008      	b.n	8001ba2 <HAL_RCC_OscConfig+0x122>
        {
          if ((HAL_GetTick() - tickstart) > HSE_TIMEOUT_VALUE)
 8001b90:	f7ff f8e8 	bl	8000d64 <HAL_GetTick>
 8001b94:	4602      	mov	r2, r0
 8001b96:	693b      	ldr	r3, [r7, #16]
 8001b98:	1ad3      	subs	r3, r2, r3
 8001b9a:	2b64      	cmp	r3, #100	; 0x64
 8001b9c:	d901      	bls.n	8001ba2 <HAL_RCC_OscConfig+0x122>
          {
            return HAL_TIMEOUT;
 8001b9e:	2303      	movs	r3, #3
 8001ba0:	e215      	b.n	8001fce <HAL_RCC_OscConfig+0x54e>
        while (__HAL_RCC_GET_FLAG(RCC_FLAG_HSERDY) != RESET)
 8001ba2:	4b57      	ldr	r3, [pc, #348]	; (8001d00 <HAL_RCC_OscConfig+0x280>)
 8001ba4:	681b      	ldr	r3, [r3, #0]
 8001ba6:	f403 3300 	and.w	r3, r3, #131072	; 0x20000
 8001baa:	2b00      	cmp	r3, #0
 8001bac:	d1f0      	bne.n	8001b90 <HAL_RCC_OscConfig+0x110>
 8001bae:	e000      	b.n	8001bb2 <HAL_RCC_OscConfig+0x132>
      if ((__HAL_RCC_GET_FLAG(RCC_FLAG_HSERDY) != RESET) && (RCC_OscInitStruct->HSEState == RCC_HSE_OFF))
 8001bb0:	bf00      	nop
        }
      }
    }
  }
  /*----------------------------- HSI Configuration --------------------------*/
  if (((RCC_OscInitStruct->OscillatorType) & RCC_OSCILLATORTYPE_HSI) == RCC_OSCILLATORTYPE_HSI)
 8001bb2:	687b      	ldr	r3, [r7, #4]
 8001bb4:	681b      	ldr	r3, [r3, #0]
 8001bb6:	f003 0302 	and.w	r3, r3, #2
 8001bba:	2b00      	cmp	r3, #0
 8001bbc:	d069      	beq.n	8001c92 <HAL_RCC_OscConfig+0x212>
    /* Check the parameters */
    assert_param(IS_RCC_HSI(RCC_OscInitStruct->HSIState));
    assert_param(IS_RCC_CALIBRATION_VALUE(RCC_OscInitStruct->HSICalibrationValue));

    /* Check if HSI is used as system clock or as PLL source when PLL is selected as system clock */
    if ((__HAL_RCC_GET_SYSCLK_SOURCE() == RCC_SYSCLKSOURCE_STATUS_HSI)
 8001bbe:	4b50      	ldr	r3, [pc, #320]	; (8001d00 <HAL_RCC_OscConfig+0x280>)
 8001bc0:	689b      	ldr	r3, [r3, #8]
 8001bc2:	f003 030c 	and.w	r3, r3, #12
 8001bc6:	2b00      	cmp	r3, #0
 8001bc8:	d00b      	beq.n	8001be2 <HAL_RCC_OscConfig+0x162>
        || ((__HAL_RCC_GET_SYSCLK_SOURCE() == RCC_SYSCLKSOURCE_STATUS_PLLCLK) && ((RCC->PLLCFGR & RCC_PLLCFGR_PLLSRC) == RCC_PLLCFGR_PLLSRC_HSI)))
 8001bca:	4b4d      	ldr	r3, [pc, #308]	; (8001d00 <HAL_RCC_OscConfig+0x280>)
 8001bcc:	689b      	ldr	r3, [r3, #8]
 8001bce:	f003 030c 	and.w	r3, r3, #12
 8001bd2:	2b08      	cmp	r3, #8
 8001bd4:	d11c      	bne.n	8001c10 <HAL_RCC_OscConfig+0x190>
 8001bd6:	4b4a      	ldr	r3, [pc, #296]	; (8001d00 <HAL_RCC_OscConfig+0x280>)
 8001bd8:	685b      	ldr	r3, [r3, #4]
 8001bda:	f403 0380 	and.w	r3, r3, #4194304	; 0x400000
 8001bde:	2b00      	cmp	r3, #0
 8001be0:	d116      	bne.n	8001c10 <HAL_RCC_OscConfig+0x190>
    {
      /* When HSI is used as system clock it will not disabled */
      if ((__HAL_RCC_GET_FLAG(RCC_FLAG_HSIRDY) != RESET) && (RCC_OscInitStruct->HSIState != RCC_HSI_ON))
 8001be2:	4b47      	ldr	r3, [pc, #284]	; (8001d00 <HAL_RCC_OscConfig+0x280>)
 8001be4:	681b      	ldr	r3, [r3, #0]
 8001be6:	f003 0302 	and.w	r3, r3, #2
 8001bea:	2b00      	cmp	r3, #0
 8001bec:	d005      	beq.n	8001bfa <HAL_RCC_OscConfig+0x17a>
 8001bee:	687b      	ldr	r3, [r7, #4]
 8001bf0:	68db      	ldr	r3, [r3, #12]
 8001bf2:	2b01      	cmp	r3, #1
 8001bf4:	d001      	beq.n	8001bfa <HAL_RCC_OscConfig+0x17a>
      {
        return HAL_ERROR;
 8001bf6:	2301      	movs	r3, #1
 8001bf8:	e1e9      	b.n	8001fce <HAL_RCC_OscConfig+0x54e>
      }
      /* Otherwise, just the calibration is allowed */
      else
      {
        /* Adjusts the Internal High Speed oscillator (HSI) calibration value.*/
        __HAL_RCC_HSI_CALIBRATIONVALUE_ADJUST(RCC_OscInitStruct->HSICalibrationValue);
 8001bfa:	4b41      	ldr	r3, [pc, #260]	; (8001d00 <HAL_RCC_OscConfig+0x280>)
 8001bfc:	681b      	ldr	r3, [r3, #0]
 8001bfe:	f023 02f8 	bic.w	r2, r3, #248	; 0xf8
 8001c02:	687b      	ldr	r3, [r7, #4]
 8001c04:	691b      	ldr	r3, [r3, #16]
 8001c06:	00db      	lsls	r3, r3, #3
 8001c08:	493d      	ldr	r1, [pc, #244]	; (8001d00 <HAL_RCC_OscConfig+0x280>)
 8001c0a:	4313      	orrs	r3, r2
 8001c0c:	600b      	str	r3, [r1, #0]
      if ((__HAL_RCC_GET_FLAG(RCC_FLAG_HSIRDY) != RESET) && (RCC_OscInitStruct->HSIState != RCC_HSI_ON))
 8001c0e:	e040      	b.n	8001c92 <HAL_RCC_OscConfig+0x212>
      }
    }
    else
    {
      /* Check the HSI State */
      if ((RCC_OscInitStruct->HSIState) != RCC_HSI_OFF)
 8001c10:	687b      	ldr	r3, [r7, #4]
 8001c12:	68db      	ldr	r3, [r3, #12]
 8001c14:	2b00      	cmp	r3, #0
 8001c16:	d023      	beq.n	8001c60 <HAL_RCC_OscConfig+0x1e0>
      {
        /* Enable the Internal High Speed oscillator (HSI). */
        __HAL_RCC_HSI_ENABLE();
 8001c18:	4b39      	ldr	r3, [pc, #228]	; (8001d00 <HAL_RCC_OscConfig+0x280>)
 8001c1a:	681b      	ldr	r3, [r3, #0]
 8001c1c:	4a38      	ldr	r2, [pc, #224]	; (8001d00 <HAL_RCC_OscConfig+0x280>)
 8001c1e:	f043 0301 	orr.w	r3, r3, #1
 8001c22:	6013      	str	r3, [r2, #0]

        /* Get Start Tick*/
        tickstart = HAL_GetTick();
 8001c24:	f7ff f89e 	bl	8000d64 <HAL_GetTick>
 8001c28:	6138      	str	r0, [r7, #16]

        /* Wait till HSI is ready */
        while (__HAL_RCC_GET_FLAG(RCC_FLAG_HSIRDY) == RESET)
 8001c2a:	e008      	b.n	8001c3e <HAL_RCC_OscConfig+0x1be>
        {
          if ((HAL_GetTick() - tickstart) > HSI_TIMEOUT_VALUE)
 8001c2c:	f7ff f89a 	bl	8000d64 <HAL_GetTick>
 8001c30:	4602      	mov	r2, r0
 8001c32:	693b      	ldr	r3, [r7, #16]
 8001c34:	1ad3      	subs	r3, r2, r3
 8001c36:	2b02      	cmp	r3, #2
 8001c38:	d901      	bls.n	8001c3e <HAL_RCC_OscConfig+0x1be>
          {
            return HAL_TIMEOUT;
 8001c3a:	2303      	movs	r3, #3
 8001c3c:	e1c7      	b.n	8001fce <HAL_RCC_OscConfig+0x54e>
        while (__HAL_RCC_GET_FLAG(RCC_FLAG_HSIRDY) == RESET)
 8001c3e:	4b30      	ldr	r3, [pc, #192]	; (8001d00 <HAL_RCC_OscConfig+0x280>)
 8001c40:	681b      	ldr	r3, [r3, #0]
 8001c42:	f003 0302 	and.w	r3, r3, #2
 8001c46:	2b00      	cmp	r3, #0
 8001c48:	d0f0      	beq.n	8001c2c <HAL_RCC_OscConfig+0x1ac>
          }
        }

        /* Adjusts the Internal High Speed oscillator (HSI) calibration value.*/
        __HAL_RCC_HSI_CALIBRATIONVALUE_ADJUST(RCC_OscInitStruct->HSICalibrationValue);
 8001c4a:	4b2d      	ldr	r3, [pc, #180]	; (8001d00 <HAL_RCC_OscConfig+0x280>)
 8001c4c:	681b      	ldr	r3, [r3, #0]
 8001c4e:	f023 02f8 	bic.w	r2, r3, #248	; 0xf8
 8001c52:	687b      	ldr	r3, [r7, #4]
 8001c54:	691b      	ldr	r3, [r3, #16]
 8001c56:	00db      	lsls	r3, r3, #3
 8001c58:	4929      	ldr	r1, [pc, #164]	; (8001d00 <HAL_RCC_OscConfig+0x280>)
 8001c5a:	4313      	orrs	r3, r2
 8001c5c:	600b      	str	r3, [r1, #0]
 8001c5e:	e018      	b.n	8001c92 <HAL_RCC_OscConfig+0x212>
      }
      else
      {
        /* Disable the Internal High Speed oscillator (HSI). */
        __HAL_RCC_HSI_DISABLE();
 8001c60:	4b27      	ldr	r3, [pc, #156]	; (8001d00 <HAL_RCC_OscConfig+0x280>)
 8001c62:	681b      	ldr	r3, [r3, #0]
 8001c64:	4a26      	ldr	r2, [pc, #152]	; (8001d00 <HAL_RCC_OscConfig+0x280>)
 8001c66:	f023 0301 	bic.w	r3, r3, #1
 8001c6a:	6013      	str	r3, [r2, #0]

        /* Get Start Tick*/
        tickstart = HAL_GetTick();
 8001c6c:	f7ff f87a 	bl	8000d64 <HAL_GetTick>
 8001c70:	6138      	str	r0, [r7, #16]

        /* Wait till HSI is ready */
        while (__HAL_RCC_GET_FLAG(RCC_FLAG_HSIRDY) != RESET)
 8001c72:	e008      	b.n	8001c86 <HAL_RCC_OscConfig+0x206>
        {
          if ((HAL_GetTick() - tickstart) > HSI_TIMEOUT_VALUE)
 8001c74:	f7ff f876 	bl	8000d64 <HAL_GetTick>
 8001c78:	4602      	mov	r2, r0
 8001c7a:	693b      	ldr	r3, [r7, #16]
 8001c7c:	1ad3      	subs	r3, r2, r3
 8001c7e:	2b02      	cmp	r3, #2
 8001c80:	d901      	bls.n	8001c86 <HAL_RCC_OscConfig+0x206>
          {
            return HAL_TIMEOUT;
 8001c82:	2303      	movs	r3, #3
 8001c84:	e1a3      	b.n	8001fce <HAL_RCC_OscConfig+0x54e>
        while (__HAL_RCC_GET_FLAG(RCC_FLAG_HSIRDY) != RESET)
 8001c86:	4b1e      	ldr	r3, [pc, #120]	; (8001d00 <HAL_RCC_OscConfig+0x280>)
 8001c88:	681b      	ldr	r3, [r3, #0]
 8001c8a:	f003 0302 	and.w	r3, r3, #2
 8001c8e:	2b00      	cmp	r3, #0
 8001c90:	d1f0      	bne.n	8001c74 <HAL_RCC_OscConfig+0x1f4>
        }
      }
    }
  }
  /*------------------------------ LSI Configuration -------------------------*/
  if (((RCC_OscInitStruct->OscillatorType) & RCC_OSCILLATORTYPE_LSI) == RCC_OSCILLATORTYPE_LSI)
 8001c92:	687b      	ldr	r3, [r7, #4]
 8001c94:	681b      	ldr	r3, [r3, #0]
 8001c96:	f003 0308 	and.w	r3, r3, #8
 8001c9a:	2b00      	cmp	r3, #0
 8001c9c:	d038      	beq.n	8001d10 <HAL_RCC_OscConfig+0x290>
  {
    /* Check the parameters */
    assert_param(IS_RCC_LSI(RCC_OscInitStruct->LSIState));

    /* Check the LSI State */
    if ((RCC_OscInitStruct->LSIState) != RCC_LSI_OFF)
 8001c9e:	687b      	ldr	r3, [r7, #4]
 8001ca0:	695b      	ldr	r3, [r3, #20]
 8001ca2:	2b00      	cmp	r3, #0
 8001ca4:	d019      	beq.n	8001cda <HAL_RCC_OscConfig+0x25a>
    {
      /* Enable the Internal Low Speed oscillator (LSI). */
      __HAL_RCC_LSI_ENABLE();
 8001ca6:	4b16      	ldr	r3, [pc, #88]	; (8001d00 <HAL_RCC_OscConfig+0x280>)
 8001ca8:	6f5b      	ldr	r3, [r3, #116]	; 0x74
 8001caa:	4a15      	ldr	r2, [pc, #84]	; (8001d00 <HAL_RCC_OscConfig+0x280>)
 8001cac:	f043 0301 	orr.w	r3, r3, #1
 8001cb0:	6753      	str	r3, [r2, #116]	; 0x74

      /* Get Start Tick*/
      tickstart = HAL_GetTick();
 8001cb2:	f7ff f857 	bl	8000d64 <HAL_GetTick>
 8001cb6:	6138      	str	r0, [r7, #16]

      /* Wait till LSI is ready */
      while (__HAL_RCC_GET_FLAG(RCC_FLAG_LSIRDY) == RESET)
 8001cb8:	e008      	b.n	8001ccc <HAL_RCC_OscConfig+0x24c>
      {
        if ((HAL_GetTick() - tickstart) > LSI_TIMEOUT_VALUE)
 8001cba:	f7ff f853 	bl	8000d64 <HAL_GetTick>
 8001cbe:	4602      	mov	r2, r0
 8001cc0:	693b      	ldr	r3, [r7, #16]
 8001cc2:	1ad3      	subs	r3, r2, r3
 8001cc4:	2b02      	cmp	r3, #2
 8001cc6:	d901      	bls.n	8001ccc <HAL_RCC_OscConfig+0x24c>
        {
          return HAL_TIMEOUT;
 8001cc8:	2303      	movs	r3, #3
 8001cca:	e180      	b.n	8001fce <HAL_RCC_OscConfig+0x54e>
      while (__HAL_RCC_GET_FLAG(RCC_FLAG_LSIRDY) == RESET)
 8001ccc:	4b0c      	ldr	r3, [pc, #48]	; (8001d00 <HAL_RCC_OscConfig+0x280>)
 8001cce:	6f5b      	ldr	r3, [r3, #116]	; 0x74
 8001cd0:	f003 0302 	and.w	r3, r3, #2
 8001cd4:	2b00      	cmp	r3, #0
 8001cd6:	d0f0      	beq.n	8001cba <HAL_RCC_OscConfig+0x23a>
 8001cd8:	e01a      	b.n	8001d10 <HAL_RCC_OscConfig+0x290>
      }
    }
    else
    {
      /* Disable the Internal Low Speed oscillator (LSI). */
      __HAL_RCC_LSI_DISABLE();
 8001cda:	4b09      	ldr	r3, [pc, #36]	; (8001d00 <HAL_RCC_OscConfig+0x280>)
 8001cdc:	6f5b      	ldr	r3, [r3, #116]	; 0x74
 8001cde:	4a08      	ldr	r2, [pc, #32]	; (8001d00 <HAL_RCC_OscConfig+0x280>)
 8001ce0:	f023 0301 	bic.w	r3, r3, #1
 8001ce4:	6753      	str	r3, [r2, #116]	; 0x74

      /* Get Start Tick*/
      tickstart = HAL_GetTick();
 8001ce6:	f7ff f83d 	bl	8000d64 <HAL_GetTick>
 8001cea:	6138      	str	r0, [r7, #16]

      /* Wait till LSI is ready */
      while (__HAL_RCC_GET_FLAG(RCC_FLAG_LSIRDY) != RESET)
 8001cec:	e00a      	b.n	8001d04 <HAL_RCC_OscConfig+0x284>
      {
        if ((HAL_GetTick() - tickstart) > LSI_TIMEOUT_VALUE)
 8001cee:	f7ff f839 	bl	8000d64 <HAL_GetTick>
 8001cf2:	4602      	mov	r2, r0
 8001cf4:	693b      	ldr	r3, [r7, #16]
 8001cf6:	1ad3      	subs	r3, r2, r3
 8001cf8:	2b02      	cmp	r3, #2
 8001cfa:	d903      	bls.n	8001d04 <HAL_RCC_OscConfig+0x284>
        {
          return HAL_TIMEOUT;
 8001cfc:	2303      	movs	r3, #3
 8001cfe:	e166      	b.n	8001fce <HAL_RCC_OscConfig+0x54e>
 8001d00:	40023800 	.word	0x40023800
      while (__HAL_RCC_GET_FLAG(RCC_FLAG_LSIRDY) != RESET)
 8001d04:	4b92      	ldr	r3, [pc, #584]	; (8001f50 <HAL_RCC_OscConfig+0x4d0>)
 8001d06:	6f5b      	ldr	r3, [r3, #116]	; 0x74
 8001d08:	f003 0302 	and.w	r3, r3, #2
 8001d0c:	2b00      	cmp	r3, #0
 8001d0e:	d1ee      	bne.n	8001cee <HAL_RCC_OscConfig+0x26e>
        }
      }
    }
  }
  /*------------------------------ LSE Configuration -------------------------*/
  if (((RCC_OscInitStruct->OscillatorType) & RCC_OSCILLATORTYPE_LSE) == RCC_OSCILLATORTYPE_LSE)
 8001d10:	687b      	ldr	r3, [r7, #4]
 8001d12:	681b      	ldr	r3, [r3, #0]
 8001d14:	f003 0304 	and.w	r3, r3, #4
 8001d18:	2b00      	cmp	r3, #0
 8001d1a:	f000 80a4 	beq.w	8001e66 <HAL_RCC_OscConfig+0x3e6>
    /* Check the parameters */
    assert_param(IS_RCC_LSE(RCC_OscInitStruct->LSEState));

    /* Update LSE configuration in Backup Domain control register    */
    /* Requires to enable write access to Backup Domain of necessary */
    if (__HAL_RCC_PWR_IS_CLK_DISABLED())
 8001d1e:	4b8c      	ldr	r3, [pc, #560]	; (8001f50 <HAL_RCC_OscConfig+0x4d0>)
 8001d20:	6c1b      	ldr	r3, [r3, #64]	; 0x40
 8001d22:	f003 5380 	and.w	r3, r3, #268435456	; 0x10000000
 8001d26:	2b00      	cmp	r3, #0
 8001d28:	d10d      	bne.n	8001d46 <HAL_RCC_OscConfig+0x2c6>
    {
      /* Enable Power Clock*/
      __HAL_RCC_PWR_CLK_ENABLE();
 8001d2a:	4b89      	ldr	r3, [pc, #548]	; (8001f50 <HAL_RCC_OscConfig+0x4d0>)
 8001d2c:	6c1b      	ldr	r3, [r3, #64]	; 0x40
 8001d2e:	4a88      	ldr	r2, [pc, #544]	; (8001f50 <HAL_RCC_OscConfig+0x4d0>)
 8001d30:	f043 5380 	orr.w	r3, r3, #268435456	; 0x10000000
 8001d34:	6413      	str	r3, [r2, #64]	; 0x40
 8001d36:	4b86      	ldr	r3, [pc, #536]	; (8001f50 <HAL_RCC_OscConfig+0x4d0>)
 8001d38:	6c1b      	ldr	r3, [r3, #64]	; 0x40
 8001d3a:	f003 5380 	and.w	r3, r3, #268435456	; 0x10000000
 8001d3e:	60bb      	str	r3, [r7, #8]
 8001d40:	68bb      	ldr	r3, [r7, #8]
      pwrclkchanged = SET;
 8001d42:	2301      	movs	r3, #1
 8001d44:	75fb      	strb	r3, [r7, #23]
    }

    if (HAL_IS_BIT_CLR(PWR->CR1, PWR_CR1_DBP))
 8001d46:	4b83      	ldr	r3, [pc, #524]	; (8001f54 <HAL_RCC_OscConfig+0x4d4>)
 8001d48:	681b      	ldr	r3, [r3, #0]
 8001d4a:	f403 7380 	and.w	r3, r3, #256	; 0x100
 8001d4e:	2b00      	cmp	r3, #0
 8001d50:	d118      	bne.n	8001d84 <HAL_RCC_OscConfig+0x304>
    {
      /* Enable write access to Backup domain */
      PWR->CR1 |= PWR_CR1_DBP;
 8001d52:	4b80      	ldr	r3, [pc, #512]	; (8001f54 <HAL_RCC_OscConfig+0x4d4>)
 8001d54:	681b      	ldr	r3, [r3, #0]
 8001d56:	4a7f      	ldr	r2, [pc, #508]	; (8001f54 <HAL_RCC_OscConfig+0x4d4>)
 8001d58:	f443 7380 	orr.w	r3, r3, #256	; 0x100
 8001d5c:	6013      	str	r3, [r2, #0]

      /* Wait for Backup domain Write protection disable */
      tickstart = HAL_GetTick();
 8001d5e:	f7ff f801 	bl	8000d64 <HAL_GetTick>
 8001d62:	6138      	str	r0, [r7, #16]

      while (HAL_IS_BIT_CLR(PWR->CR1, PWR_CR1_DBP))
 8001d64:	e008      	b.n	8001d78 <HAL_RCC_OscConfig+0x2f8>
      {
        if ((HAL_GetTick() - tickstart) > RCC_DBP_TIMEOUT_VALUE)
 8001d66:	f7fe fffd 	bl	8000d64 <HAL_GetTick>
 8001d6a:	4602      	mov	r2, r0
 8001d6c:	693b      	ldr	r3, [r7, #16]
 8001d6e:	1ad3      	subs	r3, r2, r3
 8001d70:	2b64      	cmp	r3, #100	; 0x64
 8001d72:	d901      	bls.n	8001d78 <HAL_RCC_OscConfig+0x2f8>
        {
          return HAL_TIMEOUT;
 8001d74:	2303      	movs	r3, #3
 8001d76:	e12a      	b.n	8001fce <HAL_RCC_OscConfig+0x54e>
      while (HAL_IS_BIT_CLR(PWR->CR1, PWR_CR1_DBP))
 8001d78:	4b76      	ldr	r3, [pc, #472]	; (8001f54 <HAL_RCC_OscConfig+0x4d4>)
 8001d7a:	681b      	ldr	r3, [r3, #0]
 8001d7c:	f403 7380 	and.w	r3, r3, #256	; 0x100
 8001d80:	2b00      	cmp	r3, #0
 8001d82:	d0f0      	beq.n	8001d66 <HAL_RCC_OscConfig+0x2e6>
        }
      }
    }

    /* Set the new LSE configuration -----------------------------------------*/
    __HAL_RCC_LSE_CONFIG(RCC_OscInitStruct->LSEState);
 8001d84:	687b      	ldr	r3, [r7, #4]
 8001d86:	689b      	ldr	r3, [r3, #8]
 8001d88:	2b01      	cmp	r3, #1
 8001d8a:	d106      	bne.n	8001d9a <HAL_RCC_OscConfig+0x31a>
 8001d8c:	4b70      	ldr	r3, [pc, #448]	; (8001f50 <HAL_RCC_OscConfig+0x4d0>)
 8001d8e:	6f1b      	ldr	r3, [r3, #112]	; 0x70
 8001d90:	4a6f      	ldr	r2, [pc, #444]	; (8001f50 <HAL_RCC_OscConfig+0x4d0>)
 8001d92:	f043 0301 	orr.w	r3, r3, #1
 8001d96:	6713      	str	r3, [r2, #112]	; 0x70
 8001d98:	e02d      	b.n	8001df6 <HAL_RCC_OscConfig+0x376>
 8001d9a:	687b      	ldr	r3, [r7, #4]
 8001d9c:	689b      	ldr	r3, [r3, #8]
 8001d9e:	2b00      	cmp	r3, #0
 8001da0:	d10c      	bne.n	8001dbc <HAL_RCC_OscConfig+0x33c>
 8001da2:	4b6b      	ldr	r3, [pc, #428]	; (8001f50 <HAL_RCC_OscConfig+0x4d0>)
 8001da4:	6f1b      	ldr	r3, [r3, #112]	; 0x70
 8001da6:	4a6a      	ldr	r2, [pc, #424]	; (8001f50 <HAL_RCC_OscConfig+0x4d0>)
 8001da8:	f023 0301 	bic.w	r3, r3, #1
 8001dac:	6713      	str	r3, [r2, #112]	; 0x70
 8001dae:	4b68      	ldr	r3, [pc, #416]	; (8001f50 <HAL_RCC_OscConfig+0x4d0>)
 8001db0:	6f1b      	ldr	r3, [r3, #112]	; 0x70
 8001db2:	4a67      	ldr	r2, [pc, #412]	; (8001f50 <HAL_RCC_OscConfig+0x4d0>)
 8001db4:	f023 0304 	bic.w	r3, r3, #4
 8001db8:	6713      	str	r3, [r2, #112]	; 0x70
 8001dba:	e01c      	b.n	8001df6 <HAL_RCC_OscConfig+0x376>
 8001dbc:	687b      	ldr	r3, [r7, #4]
 8001dbe:	689b      	ldr	r3, [r3, #8]
 8001dc0:	2b05      	cmp	r3, #5
 8001dc2:	d10c      	bne.n	8001dde <HAL_RCC_OscConfig+0x35e>
 8001dc4:	4b62      	ldr	r3, [pc, #392]	; (8001f50 <HAL_RCC_OscConfig+0x4d0>)
 8001dc6:	6f1b      	ldr	r3, [r3, #112]	; 0x70
 8001dc8:	4a61      	ldr	r2, [pc, #388]	; (8001f50 <HAL_RCC_OscConfig+0x4d0>)
 8001dca:	f043 0304 	orr.w	r3, r3, #4
 8001dce:	6713      	str	r3, [r2, #112]	; 0x70
 8001dd0:	4b5f      	ldr	r3, [pc, #380]	; (8001f50 <HAL_RCC_OscConfig+0x4d0>)
 8001dd2:	6f1b      	ldr	r3, [r3, #112]	; 0x70
 8001dd4:	4a5e      	ldr	r2, [pc, #376]	; (8001f50 <HAL_RCC_OscConfig+0x4d0>)
 8001dd6:	f043 0301 	orr.w	r3, r3, #1
 8001dda:	6713      	str	r3, [r2, #112]	; 0x70
 8001ddc:	e00b      	b.n	8001df6 <HAL_RCC_OscConfig+0x376>
 8001dde:	4b5c      	ldr	r3, [pc, #368]	; (8001f50 <HAL_RCC_OscConfig+0x4d0>)
 8001de0:	6f1b      	ldr	r3, [r3, #112]	; 0x70
 8001de2:	4a5b      	ldr	r2, [pc, #364]	; (8001f50 <HAL_RCC_OscConfig+0x4d0>)
 8001de4:	f023 0301 	bic.w	r3, r3, #1
 8001de8:	6713      	str	r3, [r2, #112]	; 0x70
 8001dea:	4b59      	ldr	r3, [pc, #356]	; (8001f50 <HAL_RCC_OscConfig+0x4d0>)
 8001dec:	6f1b      	ldr	r3, [r3, #112]	; 0x70
 8001dee:	4a58      	ldr	r2, [pc, #352]	; (8001f50 <HAL_RCC_OscConfig+0x4d0>)
 8001df0:	f023 0304 	bic.w	r3, r3, #4
 8001df4:	6713      	str	r3, [r2, #112]	; 0x70
    /* Check the LSE State */
    if ((RCC_OscInitStruct->LSEState) != RCC_LSE_OFF)
 8001df6:	687b      	ldr	r3, [r7, #4]
 8001df8:	689b      	ldr	r3, [r3, #8]
 8001dfa:	2b00      	cmp	r3, #0
 8001dfc:	d015      	beq.n	8001e2a <HAL_RCC_OscConfig+0x3aa>
    {
      /* Get Start Tick*/
      tickstart = HAL_GetTick();
 8001dfe:	f7fe ffb1 	bl	8000d64 <HAL_GetTick>
 8001e02:	6138      	str	r0, [r7, #16]

      /* Wait till LSE is ready */
      while (__HAL_RCC_GET_FLAG(RCC_FLAG_LSERDY) == RESET)
 8001e04:	e00a      	b.n	8001e1c <HAL_RCC_OscConfig+0x39c>
      {
        if ((HAL_GetTick() - tickstart) > RCC_LSE_TIMEOUT_VALUE)
 8001e06:	f7fe ffad 	bl	8000d64 <HAL_GetTick>
 8001e0a:	4602      	mov	r2, r0
 8001e0c:	693b      	ldr	r3, [r7, #16]
 8001e0e:	1ad3      	subs	r3, r2, r3
 8001e10:	f241 3288 	movw	r2, #5000	; 0x1388
 8001e14:	4293      	cmp	r3, r2
 8001e16:	d901      	bls.n	8001e1c <HAL_RCC_OscConfig+0x39c>
        {
          return HAL_TIMEOUT;
 8001e18:	2303      	movs	r3, #3
 8001e1a:	e0d8      	b.n	8001fce <HAL_RCC_OscConfig+0x54e>
      while (__HAL_RCC_GET_FLAG(RCC_FLAG_LSERDY) == RESET)
 8001e1c:	4b4c      	ldr	r3, [pc, #304]	; (8001f50 <HAL_RCC_OscConfig+0x4d0>)
 8001e1e:	6f1b      	ldr	r3, [r3, #112]	; 0x70
 8001e20:	f003 0302 	and.w	r3, r3, #2
 8001e24:	2b00      	cmp	r3, #0
 8001e26:	d0ee      	beq.n	8001e06 <HAL_RCC_OscConfig+0x386>
 8001e28:	e014      	b.n	8001e54 <HAL_RCC_OscConfig+0x3d4>
      }
    }
    else
    {
      /* Get Start Tick*/
      tickstart = HAL_GetTick();
 8001e2a:	f7fe ff9b 	bl	8000d64 <HAL_GetTick>
 8001e2e:	6138      	str	r0, [r7, #16]

      /* Wait till LSE is ready */
      while (__HAL_RCC_GET_FLAG(RCC_FLAG_LSERDY) != RESET)
 8001e30:	e00a      	b.n	8001e48 <HAL_RCC_OscConfig+0x3c8>
      {
        if ((HAL_GetTick() - tickstart) > RCC_LSE_TIMEOUT_VALUE)
 8001e32:	f7fe ff97 	bl	8000d64 <HAL_GetTick>
 8001e36:	4602      	mov	r2, r0
 8001e38:	693b      	ldr	r3, [r7, #16]
 8001e3a:	1ad3      	subs	r3, r2, r3
 8001e3c:	f241 3288 	movw	r2, #5000	; 0x1388
 8001e40:	4293      	cmp	r3, r2
 8001e42:	d901      	bls.n	8001e48 <HAL_RCC_OscConfig+0x3c8>
        {
          return HAL_TIMEOUT;
 8001e44:	2303      	movs	r3, #3
 8001e46:	e0c2      	b.n	8001fce <HAL_RCC_OscConfig+0x54e>
      while (__HAL_RCC_GET_FLAG(RCC_FLAG_LSERDY) != RESET)
 8001e48:	4b41      	ldr	r3, [pc, #260]	; (8001f50 <HAL_RCC_OscConfig+0x4d0>)
 8001e4a:	6f1b      	ldr	r3, [r3, #112]	; 0x70
 8001e4c:	f003 0302 	and.w	r3, r3, #2
 8001e50:	2b00      	cmp	r3, #0
 8001e52:	d1ee      	bne.n	8001e32 <HAL_RCC_OscConfig+0x3b2>
        }
      }
    }

    /* Restore clock configuration if changed */
    if (pwrclkchanged == SET)
 8001e54:	7dfb      	ldrb	r3, [r7, #23]
 8001e56:	2b01      	cmp	r3, #1
 8001e58:	d105      	bne.n	8001e66 <HAL_RCC_OscConfig+0x3e6>
    {
      __HAL_RCC_PWR_CLK_DISABLE();
 8001e5a:	4b3d      	ldr	r3, [pc, #244]	; (8001f50 <HAL_RCC_OscConfig+0x4d0>)
 8001e5c:	6c1b      	ldr	r3, [r3, #64]	; 0x40
 8001e5e:	4a3c      	ldr	r2, [pc, #240]	; (8001f50 <HAL_RCC_OscConfig+0x4d0>)
 8001e60:	f023 5380 	bic.w	r3, r3, #268435456	; 0x10000000
 8001e64:	6413      	str	r3, [r2, #64]	; 0x40
    }
  }
  /*-------------------------------- PLL Configuration -----------------------*/
  /* Check the parameters */
  assert_param(IS_RCC_PLL(RCC_OscInitStruct->PLL.PLLState));
  if ((RCC_OscInitStruct->PLL.PLLState) != RCC_PLL_NONE)
 8001e66:	687b      	ldr	r3, [r7, #4]
 8001e68:	699b      	ldr	r3, [r3, #24]
 8001e6a:	2b00      	cmp	r3, #0
 8001e6c:	f000 80ae 	beq.w	8001fcc <HAL_RCC_OscConfig+0x54c>
  {
    /* Check if the PLL is used as system clock or not */
    if (__HAL_RCC_GET_SYSCLK_SOURCE() != RCC_SYSCLKSOURCE_STATUS_PLLCLK)
 8001e70:	4b37      	ldr	r3, [pc, #220]	; (8001f50 <HAL_RCC_OscConfig+0x4d0>)
 8001e72:	689b      	ldr	r3, [r3, #8]
 8001e74:	f003 030c 	and.w	r3, r3, #12
 8001e78:	2b08      	cmp	r3, #8
 8001e7a:	d06d      	beq.n	8001f58 <HAL_RCC_OscConfig+0x4d8>
    {
      if ((RCC_OscInitStruct->PLL.PLLState) == RCC_PLL_ON)
 8001e7c:	687b      	ldr	r3, [r7, #4]
 8001e7e:	699b      	ldr	r3, [r3, #24]
 8001e80:	2b02      	cmp	r3, #2
 8001e82:	d14b      	bne.n	8001f1c <HAL_RCC_OscConfig+0x49c>
#if defined (RCC_PLLCFGR_PLLR)
        assert_param(IS_RCC_PLLR_VALUE(RCC_OscInitStruct->PLL.PLLR));
#endif

        /* Disable the main PLL. */
        __HAL_RCC_PLL_DISABLE();
 8001e84:	4b32      	ldr	r3, [pc, #200]	; (8001f50 <HAL_RCC_OscConfig+0x4d0>)
 8001e86:	681b      	ldr	r3, [r3, #0]
 8001e88:	4a31      	ldr	r2, [pc, #196]	; (8001f50 <HAL_RCC_OscConfig+0x4d0>)
 8001e8a:	f023 7380 	bic.w	r3, r3, #16777216	; 0x1000000
 8001e8e:	6013      	str	r3, [r2, #0]

        /* Get Start Tick*/
        tickstart = HAL_GetTick();
 8001e90:	f7fe ff68 	bl	8000d64 <HAL_GetTick>
 8001e94:	6138      	str	r0, [r7, #16]

        /* Wait till PLL is ready */
        while (__HAL_RCC_GET_FLAG(RCC_FLAG_PLLRDY) != RESET)
 8001e96:	e008      	b.n	8001eaa <HAL_RCC_OscConfig+0x42a>
        {
          if ((HAL_GetTick() - tickstart) > PLL_TIMEOUT_VALUE)
 8001e98:	f7fe ff64 	bl	8000d64 <HAL_GetTick>
 8001e9c:	4602      	mov	r2, r0
 8001e9e:	693b      	ldr	r3, [r7, #16]
 8001ea0:	1ad3      	subs	r3, r2, r3
 8001ea2:	2b02      	cmp	r3, #2
 8001ea4:	d901      	bls.n	8001eaa <HAL_RCC_OscConfig+0x42a>
          {
            return HAL_TIMEOUT;
 8001ea6:	2303      	movs	r3, #3
 8001ea8:	e091      	b.n	8001fce <HAL_RCC_OscConfig+0x54e>
        while (__HAL_RCC_GET_FLAG(RCC_FLAG_PLLRDY) != RESET)
 8001eaa:	4b29      	ldr	r3, [pc, #164]	; (8001f50 <HAL_RCC_OscConfig+0x4d0>)
 8001eac:	681b      	ldr	r3, [r3, #0]
 8001eae:	f003 7300 	and.w	r3, r3, #33554432	; 0x2000000
 8001eb2:	2b00      	cmp	r3, #0
 8001eb4:	d1f0      	bne.n	8001e98 <HAL_RCC_OscConfig+0x418>
          }
        }

        /* Configure the main PLL clock source, multiplication and division factors. */
#if defined (RCC_PLLCFGR_PLLR)
        __HAL_RCC_PLL_CONFIG(RCC_OscInitStruct->PLL.PLLSource,
 8001eb6:	687b      	ldr	r3, [r7, #4]
 8001eb8:	69da      	ldr	r2, [r3, #28]
 8001eba:	687b      	ldr	r3, [r7, #4]
 8001ebc:	6a1b      	ldr	r3, [r3, #32]
 8001ebe:	431a      	orrs	r2, r3
 8001ec0:	687b      	ldr	r3, [r7, #4]
 8001ec2:	6a5b      	ldr	r3, [r3, #36]	; 0x24
 8001ec4:	019b      	lsls	r3, r3, #6
 8001ec6:	431a      	orrs	r2, r3
 8001ec8:	687b      	ldr	r3, [r7, #4]
 8001eca:	6a9b      	ldr	r3, [r3, #40]	; 0x28
 8001ecc:	085b      	lsrs	r3, r3, #1
 8001ece:	3b01      	subs	r3, #1
 8001ed0:	041b      	lsls	r3, r3, #16
 8001ed2:	431a      	orrs	r2, r3
 8001ed4:	687b      	ldr	r3, [r7, #4]
 8001ed6:	6adb      	ldr	r3, [r3, #44]	; 0x2c
 8001ed8:	061b      	lsls	r3, r3, #24
 8001eda:	431a      	orrs	r2, r3
 8001edc:	687b      	ldr	r3, [r7, #4]
 8001ede:	6b1b      	ldr	r3, [r3, #48]	; 0x30
 8001ee0:	071b      	lsls	r3, r3, #28
 8001ee2:	491b      	ldr	r1, [pc, #108]	; (8001f50 <HAL_RCC_OscConfig+0x4d0>)
 8001ee4:	4313      	orrs	r3, r2
 8001ee6:	604b      	str	r3, [r1, #4]
                             RCC_OscInitStruct->PLL.PLLP,
                             RCC_OscInitStruct->PLL.PLLQ);
#endif

        /* Enable the main PLL. */
        __HAL_RCC_PLL_ENABLE();
 8001ee8:	4b19      	ldr	r3, [pc, #100]	; (8001f50 <HAL_RCC_OscConfig+0x4d0>)
 8001eea:	681b      	ldr	r3, [r3, #0]
 8001eec:	4a18      	ldr	r2, [pc, #96]	; (8001f50 <HAL_RCC_OscConfig+0x4d0>)
 8001eee:	f043 7380 	orr.w	r3, r3, #16777216	; 0x1000000
 8001ef2:	6013      	str	r3, [r2, #0]

        /* Get Start Tick*/
        tickstart = HAL_GetTick();
 8001ef4:	f7fe ff36 	bl	8000d64 <HAL_GetTick>
 8001ef8:	6138      	str	r0, [r7, #16]

        /* Wait till PLL is ready */
        while (__HAL_RCC_GET_FLAG(RCC_FLAG_PLLRDY) == RESET)
 8001efa:	e008      	b.n	8001f0e <HAL_RCC_OscConfig+0x48e>
        {
          if ((HAL_GetTick() - tickstart) > PLL_TIMEOUT_VALUE)
 8001efc:	f7fe ff32 	bl	8000d64 <HAL_GetTick>
 8001f00:	4602      	mov	r2, r0
 8001f02:	693b      	ldr	r3, [r7, #16]
 8001f04:	1ad3      	subs	r3, r2, r3
 8001f06:	2b02      	cmp	r3, #2
 8001f08:	d901      	bls.n	8001f0e <HAL_RCC_OscConfig+0x48e>
          {
            return HAL_TIMEOUT;
 8001f0a:	2303      	movs	r3, #3
 8001f0c:	e05f      	b.n	8001fce <HAL_RCC_OscConfig+0x54e>
        while (__HAL_RCC_GET_FLAG(RCC_FLAG_PLLRDY) == RESET)
 8001f0e:	4b10      	ldr	r3, [pc, #64]	; (8001f50 <HAL_RCC_OscConfig+0x4d0>)
 8001f10:	681b      	ldr	r3, [r3, #0]
 8001f12:	f003 7300 	and.w	r3, r3, #33554432	; 0x2000000
 8001f16:	2b00      	cmp	r3, #0
 8001f18:	d0f0      	beq.n	8001efc <HAL_RCC_OscConfig+0x47c>
 8001f1a:	e057      	b.n	8001fcc <HAL_RCC_OscConfig+0x54c>
        }
      }
      else
      {
        /* Disable the main PLL. */
        __HAL_RCC_PLL_DISABLE();
 8001f1c:	4b0c      	ldr	r3, [pc, #48]	; (8001f50 <HAL_RCC_OscConfig+0x4d0>)
 8001f1e:	681b      	ldr	r3, [r3, #0]
 8001f20:	4a0b      	ldr	r2, [pc, #44]	; (8001f50 <HAL_RCC_OscConfig+0x4d0>)
 8001f22:	f023 7380 	bic.w	r3, r3, #16777216	; 0x1000000
 8001f26:	6013      	str	r3, [r2, #0]

        /* Get Start Tick*/
        tickstart = HAL_GetTick();
 8001f28:	f7fe ff1c 	bl	8000d64 <HAL_GetTick>
 8001f2c:	6138      	str	r0, [r7, #16]

        /* Wait till PLL is ready */
        while (__HAL_RCC_GET_FLAG(RCC_FLAG_PLLRDY) != RESET)
 8001f2e:	e008      	b.n	8001f42 <HAL_RCC_OscConfig+0x4c2>
        {
          if ((HAL_GetTick() - tickstart) > PLL_TIMEOUT_VALUE)
 8001f30:	f7fe ff18 	bl	8000d64 <HAL_GetTick>
 8001f34:	4602      	mov	r2, r0
 8001f36:	693b      	ldr	r3, [r7, #16]
 8001f38:	1ad3      	subs	r3, r2, r3
 8001f3a:	2b02      	cmp	r3, #2
 8001f3c:	d901      	bls.n	8001f42 <HAL_RCC_OscConfig+0x4c2>
          {
            return HAL_TIMEOUT;
 8001f3e:	2303      	movs	r3, #3
 8001f40:	e045      	b.n	8001fce <HAL_RCC_OscConfig+0x54e>
        while (__HAL_RCC_GET_FLAG(RCC_FLAG_PLLRDY) != RESET)
 8001f42:	4b03      	ldr	r3, [pc, #12]	; (8001f50 <HAL_RCC_OscConfig+0x4d0>)
 8001f44:	681b      	ldr	r3, [r3, #0]
 8001f46:	f003 7300 	and.w	r3, r3, #33554432	; 0x2000000
 8001f4a:	2b00      	cmp	r3, #0
 8001f4c:	d1f0      	bne.n	8001f30 <HAL_RCC_OscConfig+0x4b0>
 8001f4e:	e03d      	b.n	8001fcc <HAL_RCC_OscConfig+0x54c>
 8001f50:	40023800 	.word	0x40023800
 8001f54:	40007000 	.word	0x40007000
      }
    }
    else
    {
      /* Do not return HAL_ERROR if request repeats the current configuration */
      pll_config = RCC->PLLCFGR;
 8001f58:	4b1f      	ldr	r3, [pc, #124]	; (8001fd8 <HAL_RCC_OscConfig+0x558>)
 8001f5a:	685b      	ldr	r3, [r3, #4]
 8001f5c:	60fb      	str	r3, [r7, #12]
#if defined (RCC_PLLCFGR_PLLR)
      if (((RCC_OscInitStruct->PLL.PLLState) == RCC_PLL_OFF) ||
 8001f5e:	687b      	ldr	r3, [r7, #4]
 8001f60:	699b      	ldr	r3, [r3, #24]
 8001f62:	2b01      	cmp	r3, #1
 8001f64:	d030      	beq.n	8001fc8 <HAL_RCC_OscConfig+0x548>
          (READ_BIT(pll_config, RCC_PLLCFGR_PLLSRC) != RCC_OscInitStruct->PLL.PLLSource) ||
 8001f66:	68fb      	ldr	r3, [r7, #12]
 8001f68:	f403 0280 	and.w	r2, r3, #4194304	; 0x400000
 8001f6c:	687b      	ldr	r3, [r7, #4]
 8001f6e:	69db      	ldr	r3, [r3, #28]
      if (((RCC_OscInitStruct->PLL.PLLState) == RCC_PLL_OFF) ||
 8001f70:	429a      	cmp	r2, r3
 8001f72:	d129      	bne.n	8001fc8 <HAL_RCC_OscConfig+0x548>
          (READ_BIT(pll_config, RCC_PLLCFGR_PLLM) != RCC_OscInitStruct->PLL.PLLM) ||
 8001f74:	68fb      	ldr	r3, [r7, #12]
 8001f76:	f003 023f 	and.w	r2, r3, #63	; 0x3f
 8001f7a:	687b      	ldr	r3, [r7, #4]
 8001f7c:	6a1b      	ldr	r3, [r3, #32]
          (READ_BIT(pll_config, RCC_PLLCFGR_PLLSRC) != RCC_OscInitStruct->PLL.PLLSource) ||
 8001f7e:	429a      	cmp	r2, r3
 8001f80:	d122      	bne.n	8001fc8 <HAL_RCC_OscConfig+0x548>
          (READ_BIT(pll_config, RCC_PLLCFGR_PLLN) != (RCC_OscInitStruct->PLL.PLLN << RCC_PLLCFGR_PLLN_Pos)) ||
 8001f82:	68fa      	ldr	r2, [r7, #12]
 8001f84:	f647 73c0 	movw	r3, #32704	; 0x7fc0
 8001f88:	4013      	ands	r3, r2
 8001f8a:	687a      	ldr	r2, [r7, #4]
 8001f8c:	6a52      	ldr	r2, [r2, #36]	; 0x24
 8001f8e:	0192      	lsls	r2, r2, #6
          (READ_BIT(pll_config, RCC_PLLCFGR_PLLM) != RCC_OscInitStruct->PLL.PLLM) ||
 8001f90:	4293      	cmp	r3, r2
 8001f92:	d119      	bne.n	8001fc8 <HAL_RCC_OscConfig+0x548>
          (READ_BIT(pll_config, RCC_PLLCFGR_PLLP) != ((((RCC_OscInitStruct->PLL.PLLP) >> 1U) - 1U) << RCC_PLLCFGR_PLLP_Pos)) ||
 8001f94:	68fb      	ldr	r3, [r7, #12]
 8001f96:	f403 3240 	and.w	r2, r3, #196608	; 0x30000
 8001f9a:	687b      	ldr	r3, [r7, #4]
 8001f9c:	6a9b      	ldr	r3, [r3, #40]	; 0x28
 8001f9e:	085b      	lsrs	r3, r3, #1
 8001fa0:	3b01      	subs	r3, #1
 8001fa2:	041b      	lsls	r3, r3, #16
          (READ_BIT(pll_config, RCC_PLLCFGR_PLLN) != (RCC_OscInitStruct->PLL.PLLN << RCC_PLLCFGR_PLLN_Pos)) ||
 8001fa4:	429a      	cmp	r2, r3
 8001fa6:	d10f      	bne.n	8001fc8 <HAL_RCC_OscConfig+0x548>
          (READ_BIT(pll_config, RCC_PLLCFGR_PLLQ) != (RCC_OscInitStruct->PLL.PLLQ << RCC_PLLCFGR_PLLQ_Pos)) ||
 8001fa8:	68fb      	ldr	r3, [r7, #12]
 8001faa:	f003 6270 	and.w	r2, r3, #251658240	; 0xf000000
 8001fae:	687b      	ldr	r3, [r7, #4]
 8001fb0:	6adb      	ldr	r3, [r3, #44]	; 0x2c
 8001fb2:	061b      	lsls	r3, r3, #24
          (READ_BIT(pll_config, RCC_PLLCFGR_PLLP) != ((((RCC_OscInitStruct->PLL.PLLP) >> 1U) - 1U) << RCC_PLLCFGR_PLLP_Pos)) ||
 8001fb4:	429a      	cmp	r2, r3
 8001fb6:	d107      	bne.n	8001fc8 <HAL_RCC_OscConfig+0x548>
          (READ_BIT(pll_config, RCC_PLLCFGR_PLLR) != (RCC_OscInitStruct->PLL.PLLR << RCC_PLLCFGR_PLLR_Pos)))
 8001fb8:	68fb      	ldr	r3, [r7, #12]
 8001fba:	f003 42e0 	and.w	r2, r3, #1879048192	; 0x70000000
 8001fbe:	687b      	ldr	r3, [r7, #4]
 8001fc0:	6b1b      	ldr	r3, [r3, #48]	; 0x30
 8001fc2:	071b      	lsls	r3, r3, #28
          (READ_BIT(pll_config, RCC_PLLCFGR_PLLQ) != (RCC_OscInitStruct->PLL.PLLQ << RCC_PLLCFGR_PLLQ_Pos)) ||
 8001fc4:	429a      	cmp	r2, r3
 8001fc6:	d001      	beq.n	8001fcc <HAL_RCC_OscConfig+0x54c>
          (READ_BIT(pll_config, RCC_PLLCFGR_PLLN) != (RCC_OscInitStruct->PLL.PLLN << RCC_PLLCFGR_PLLN_Pos)) ||
          (READ_BIT(pll_config, RCC_PLLCFGR_PLLP) != ((((RCC_OscInitStruct->PLL.PLLP) >> 1U) - 1U) << RCC_PLLCFGR_PLLP_Pos)) ||
          (READ_BIT(pll_config, RCC_PLLCFGR_PLLQ) != (RCC_OscInitStruct->PLL.PLLQ << RCC_PLLCFGR_PLLQ_Pos)))
#endif
      {
        return HAL_ERROR;
 8001fc8:	2301      	movs	r3, #1
 8001fca:	e000      	b.n	8001fce <HAL_RCC_OscConfig+0x54e>
      }
    }
  }
  return HAL_OK;
 8001fcc:	2300      	movs	r3, #0
}
 8001fce:	4618      	mov	r0, r3
 8001fd0:	3718      	adds	r7, #24
 8001fd2:	46bd      	mov	sp, r7
 8001fd4:	bd80      	pop	{r7, pc}
 8001fd6:	bf00      	nop
 8001fd8:	40023800 	.word	0x40023800

08001fdc <HAL_RCC_ClockConfig>:
  *         HPRE[3:0] bits to ensure that HCLK not exceed the maximum allowed frequency
  *         (for more details refer to section above "Initialization/de-initialization functions")
  * @retval None
  */
HAL_StatusTypeDef HAL_RCC_ClockConfig(RCC_ClkInitTypeDef  *RCC_ClkInitStruct, uint32_t FLatency)
{
 8001fdc:	b580      	push	{r7, lr}
 8001fde:	b084      	sub	sp, #16
 8001fe0:	af00      	add	r7, sp, #0
 8001fe2:	6078      	str	r0, [r7, #4]
 8001fe4:	6039      	str	r1, [r7, #0]
  uint32_t tickstart = 0;
 8001fe6:	2300      	movs	r3, #0
 8001fe8:	60fb      	str	r3, [r7, #12]

  /* Check Null pointer */
  if (RCC_ClkInitStruct == NULL)
 8001fea:	687b      	ldr	r3, [r7, #4]
 8001fec:	2b00      	cmp	r3, #0
 8001fee:	d101      	bne.n	8001ff4 <HAL_RCC_ClockConfig+0x18>
  {
    return HAL_ERROR;
 8001ff0:	2301      	movs	r3, #1
 8001ff2:	e0d0      	b.n	8002196 <HAL_RCC_ClockConfig+0x1ba>
  /* To correctly read data from FLASH memory, the number of wait states (LATENCY)
     must be correctly programmed according to the frequency of the CPU clock
     (HCLK) and the supply voltage of the device. */

  /* Increasing the CPU frequency */
  if (FLatency > __HAL_FLASH_GET_LATENCY())
 8001ff4:	4b6a      	ldr	r3, [pc, #424]	; (80021a0 <HAL_RCC_ClockConfig+0x1c4>)
 8001ff6:	681b      	ldr	r3, [r3, #0]
 8001ff8:	f003 030f 	and.w	r3, r3, #15
 8001ffc:	683a      	ldr	r2, [r7, #0]
 8001ffe:	429a      	cmp	r2, r3
 8002000:	d910      	bls.n	8002024 <HAL_RCC_ClockConfig+0x48>
  {
    /* Program the new number of wait states to the LATENCY bits in the FLASH_ACR register */
    __HAL_FLASH_SET_LATENCY(FLatency);
 8002002:	4b67      	ldr	r3, [pc, #412]	; (80021a0 <HAL_RCC_ClockConfig+0x1c4>)
 8002004:	681b      	ldr	r3, [r3, #0]
 8002006:	f023 020f 	bic.w	r2, r3, #15
 800200a:	4965      	ldr	r1, [pc, #404]	; (80021a0 <HAL_RCC_ClockConfig+0x1c4>)
 800200c:	683b      	ldr	r3, [r7, #0]
 800200e:	4313      	orrs	r3, r2
 8002010:	600b      	str	r3, [r1, #0]

    /* Check that the new number of wait states is taken into account to access the Flash
    memory by reading the FLASH_ACR register */
    if (__HAL_FLASH_GET_LATENCY() != FLatency)
 8002012:	4b63      	ldr	r3, [pc, #396]	; (80021a0 <HAL_RCC_ClockConfig+0x1c4>)
 8002014:	681b      	ldr	r3, [r3, #0]
 8002016:	f003 030f 	and.w	r3, r3, #15
 800201a:	683a      	ldr	r2, [r7, #0]
 800201c:	429a      	cmp	r2, r3
 800201e:	d001      	beq.n	8002024 <HAL_RCC_ClockConfig+0x48>
    {
      return HAL_ERROR;
 8002020:	2301      	movs	r3, #1
 8002022:	e0b8      	b.n	8002196 <HAL_RCC_ClockConfig+0x1ba>
    }
  }

  /*-------------------------- HCLK Configuration --------------------------*/
  if (((RCC_ClkInitStruct->ClockType) & RCC_CLOCKTYPE_HCLK) == RCC_CLOCKTYPE_HCLK)
 8002024:	687b      	ldr	r3, [r7, #4]
 8002026:	681b      	ldr	r3, [r3, #0]
 8002028:	f003 0302 	and.w	r3, r3, #2
 800202c:	2b00      	cmp	r3, #0
 800202e:	d020      	beq.n	8002072 <HAL_RCC_ClockConfig+0x96>
  {
    /* Set the highest APBx dividers in order to ensure that we do not go through
       a non-spec phase whatever we decrease or increase HCLK. */
    if (((RCC_ClkInitStruct->ClockType) & RCC_CLOCKTYPE_PCLK1) == RCC_CLOCKTYPE_PCLK1)
 8002030:	687b      	ldr	r3, [r7, #4]
 8002032:	681b      	ldr	r3, [r3, #0]
 8002034:	f003 0304 	and.w	r3, r3, #4
 8002038:	2b00      	cmp	r3, #0
 800203a:	d005      	beq.n	8002048 <HAL_RCC_ClockConfig+0x6c>
    {
      MODIFY_REG(RCC->CFGR, RCC_CFGR_PPRE1, RCC_HCLK_DIV16);
 800203c:	4b59      	ldr	r3, [pc, #356]	; (80021a4 <HAL_RCC_ClockConfig+0x1c8>)
 800203e:	689b      	ldr	r3, [r3, #8]
 8002040:	4a58      	ldr	r2, [pc, #352]	; (80021a4 <HAL_RCC_ClockConfig+0x1c8>)
 8002042:	f443 53e0 	orr.w	r3, r3, #7168	; 0x1c00
 8002046:	6093      	str	r3, [r2, #8]
    }

    if (((RCC_ClkInitStruct->ClockType) & RCC_CLOCKTYPE_PCLK2) == RCC_CLOCKTYPE_PCLK2)
 8002048:	687b      	ldr	r3, [r7, #4]
 800204a:	681b      	ldr	r3, [r3, #0]
 800204c:	f003 0308 	and.w	r3, r3, #8
 8002050:	2b00      	cmp	r3, #0
 8002052:	d005      	beq.n	8002060 <HAL_RCC_ClockConfig+0x84>
    {
      MODIFY_REG(RCC->CFGR, RCC_CFGR_PPRE2, (RCC_HCLK_DIV16 << 3));
 8002054:	4b53      	ldr	r3, [pc, #332]	; (80021a4 <HAL_RCC_ClockConfig+0x1c8>)
 8002056:	689b      	ldr	r3, [r3, #8]
 8002058:	4a52      	ldr	r2, [pc, #328]	; (80021a4 <HAL_RCC_ClockConfig+0x1c8>)
 800205a:	f443 4360 	orr.w	r3, r3, #57344	; 0xe000
 800205e:	6093      	str	r3, [r2, #8]
    }

    /* Set the new HCLK clock divider */
    assert_param(IS_RCC_HCLK(RCC_ClkInitStruct->AHBCLKDivider));
    MODIFY_REG(RCC->CFGR, RCC_CFGR_HPRE, RCC_ClkInitStruct->AHBCLKDivider);
 8002060:	4b50      	ldr	r3, [pc, #320]	; (80021a4 <HAL_RCC_ClockConfig+0x1c8>)
 8002062:	689b      	ldr	r3, [r3, #8]
 8002064:	f023 02f0 	bic.w	r2, r3, #240	; 0xf0
 8002068:	687b      	ldr	r3, [r7, #4]
 800206a:	689b      	ldr	r3, [r3, #8]
 800206c:	494d      	ldr	r1, [pc, #308]	; (80021a4 <HAL_RCC_ClockConfig+0x1c8>)
 800206e:	4313      	orrs	r3, r2
 8002070:	608b      	str	r3, [r1, #8]
  }

  /*------------------------- SYSCLK Configuration ---------------------------*/
  if (((RCC_ClkInitStruct->ClockType) & RCC_CLOCKTYPE_SYSCLK) == RCC_CLOCKTYPE_SYSCLK)
 8002072:	687b      	ldr	r3, [r7, #4]
 8002074:	681b      	ldr	r3, [r3, #0]
 8002076:	f003 0301 	and.w	r3, r3, #1
 800207a:	2b00      	cmp	r3, #0
 800207c:	d040      	beq.n	8002100 <HAL_RCC_ClockConfig+0x124>
  {
    assert_param(IS_RCC_SYSCLKSOURCE(RCC_ClkInitStruct->SYSCLKSource));

    /* HSE is selected as System Clock Source */
    if (RCC_ClkInitStruct->SYSCLKSource == RCC_SYSCLKSOURCE_HSE)
 800207e:	687b      	ldr	r3, [r7, #4]
 8002080:	685b      	ldr	r3, [r3, #4]
 8002082:	2b01      	cmp	r3, #1
 8002084:	d107      	bne.n	8002096 <HAL_RCC_ClockConfig+0xba>
    {
      /* Check the HSE ready flag */
      if (__HAL_RCC_GET_FLAG(RCC_FLAG_HSERDY) == RESET)
 8002086:	4b47      	ldr	r3, [pc, #284]	; (80021a4 <HAL_RCC_ClockConfig+0x1c8>)
 8002088:	681b      	ldr	r3, [r3, #0]
 800208a:	f403 3300 	and.w	r3, r3, #131072	; 0x20000
 800208e:	2b00      	cmp	r3, #0
 8002090:	d115      	bne.n	80020be <HAL_RCC_ClockConfig+0xe2>
      {
        return HAL_ERROR;
 8002092:	2301      	movs	r3, #1
 8002094:	e07f      	b.n	8002196 <HAL_RCC_ClockConfig+0x1ba>
      }
    }
    /* PLL is selected as System Clock Source */
    else if (RCC_ClkInitStruct->SYSCLKSource == RCC_SYSCLKSOURCE_PLLCLK)
 8002096:	687b      	ldr	r3, [r7, #4]
 8002098:	685b      	ldr	r3, [r3, #4]
 800209a:	2b02      	cmp	r3, #2
 800209c:	d107      	bne.n	80020ae <HAL_RCC_ClockConfig+0xd2>
    {
      /* Check the PLL ready flag */
      if (__HAL_RCC_GET_FLAG(RCC_FLAG_PLLRDY) == RESET)
 800209e:	4b41      	ldr	r3, [pc, #260]	; (80021a4 <HAL_RCC_ClockConfig+0x1c8>)
 80020a0:	681b      	ldr	r3, [r3, #0]
 80020a2:	f003 7300 	and.w	r3, r3, #33554432	; 0x2000000
 80020a6:	2b00      	cmp	r3, #0
 80020a8:	d109      	bne.n	80020be <HAL_RCC_ClockConfig+0xe2>
      {
        return HAL_ERROR;
 80020aa:	2301      	movs	r3, #1
 80020ac:	e073      	b.n	8002196 <HAL_RCC_ClockConfig+0x1ba>
    }
    /* HSI is selected as System Clock Source */
    else
    {
      /* Check the HSI ready flag */
      if (__HAL_RCC_GET_FLAG(RCC_FLAG_HSIRDY) == RESET)
 80020ae:	4b3d      	ldr	r3, [pc, #244]	; (80021a4 <HAL_RCC_ClockConfig+0x1c8>)
 80020b0:	681b      	ldr	r3, [r3, #0]
 80020b2:	f003 0302 	and.w	r3, r3, #2
 80020b6:	2b00      	cmp	r3, #0
 80020b8:	d101      	bne.n	80020be <HAL_RCC_ClockConfig+0xe2>
      {
        return HAL_ERROR;
 80020ba:	2301      	movs	r3, #1
 80020bc:	e06b      	b.n	8002196 <HAL_RCC_ClockConfig+0x1ba>
      }
    }

    __HAL_RCC_SYSCLK_CONFIG(RCC_ClkInitStruct->SYSCLKSource);
 80020be:	4b39      	ldr	r3, [pc, #228]	; (80021a4 <HAL_RCC_ClockConfig+0x1c8>)
 80020c0:	689b      	ldr	r3, [r3, #8]
 80020c2:	f023 0203 	bic.w	r2, r3, #3
 80020c6:	687b      	ldr	r3, [r7, #4]
 80020c8:	685b      	ldr	r3, [r3, #4]
