
STM32F765 CAN Write.elf:     file format elf32-littlearm

Sections:
Idx Name          Size      VMA       LMA       File off  Algn
  0 .isr_vector   000001f8  08000000  08000000  00010000  2**0
                  CONTENTS, ALLOC, LOAD, READONLY, DATA
  1 .text         00002d84  080001f8  080001f8  000101f8  2**2
                  CONTENTS, ALLOC, LOAD, READONLY, CODE
  2 .rodata       00000028  08002f7c  08002f7c  00012f7c  2**2
                  CONTENTS, ALLOC, LOAD, READONLY, DATA
  3 .ARM.extab    00000000  08002fa4  08002fa4  00020068  2**0
                  CONTENTS
  4 .ARM          00000008  08002fa4  08002fa4  00012fa4  2**2
                  CONTENTS, ALLOC, LOAD, READONLY, DATA
  5 .preinit_array 00000000  08002fac  08002fac  00020068  2**0
                  CONTENTS, ALLOC, LOAD, DATA
  6 .init_array   00000004  08002fac  08002fac  00012fac  2**2
                  CONTENTS, ALLOC, LOAD, DATA
  7 .fini_array   00000004  08002fb0  08002fb0  00012fb0  2**2
                  CONTENTS, ALLOC, LOAD, DATA
  8 .data         00000068  20000000  08002fb4  00020000  2**2
                  CONTENTS, ALLOC, LOAD, DATA
  9 .bss          000001e4  20000068  0800301c  00020068  2**2
                  ALLOC
 10 ._user_heap_stack 00000604  2000024c  0800301c  0002024c  2**0
                  ALLOC
 11 .ARM.attributes 0000002e  00000000  00000000  00020068  2**0
                  CONTENTS, READONLY
 12 .comment      00000043  00000000  00000000  00020096  2**0
                  CONTENTS, READONLY
 13 .debug_info   0000ca6c  00000000  00000000  000200d9  2**0
                  CONTENTS, READONLY, DEBUGGING, OCTETS
 14 .debug_abbrev 000021a9  00000000  00000000  0002cb45  2**0
                  CONTENTS, READONLY, DEBUGGING, OCTETS
 15 .debug_aranges 00000c88  00000000  00000000  0002ecf0  2**3
                  CONTENTS, READONLY, DEBUGGING, OCTETS
 16 .debug_rnglists 0000098a  00000000  00000000  0002f978  2**0
                  CONTENTS, READONLY, DEBUGGING, OCTETS
 17 .debug_macro  00027a08  00000000  00000000  00030302  2**0
                  CONTENTS, READONLY, DEBUGGING, OCTETS
 18 .debug_line   0000ee77  00000000  00000000  00057d0a  2**0
                  CONTENTS, READONLY, DEBUGGING, OCTETS
 19 .debug_str    000f50e2  00000000  00000000  00066b81  2**0
                  CONTENTS, READONLY, DEBUGGING, OCTETS
 20 .debug_frame  0000398c  00000000  00000000  0015bc64  2**2
                  CONTENTS, READONLY, DEBUGGING, OCTETS
 21 .debug_line_str 00000064  00000000  00000000  0015f5f0  2**0
                  CONTENTS, READONLY, DEBUGGING, OCTETS

Disassembly of section .text:

080001f8 <__do_global_dtors_aux>:
 80001f8:	b510      	push	{r4, lr}
 80001fa:	4c05      	ldr	r4, [pc, #20]	; (8000210 <__do_global_dtors_aux+0x18>)
 80001fc:	7823      	ldrb	r3, [r4, #0]
 80001fe:	b933      	cbnz	r3, 800020e <__do_global_dtors_aux+0x16>
 8000200:	4b04      	ldr	r3, [pc, #16]	; (8000214 <__do_global_dtors_aux+0x1c>)
 8000202:	b113      	cbz	r3, 800020a <__do_global_dtors_aux+0x12>
 8000204:	4804      	ldr	r0, [pc, #16]	; (8000218 <__do_global_dtors_aux+0x20>)
 8000206:	f3af 8000 	nop.w
 800020a:	2301      	movs	r3, #1
 800020c:	7023      	strb	r3, [r4, #0]
 800020e:	bd10      	pop	{r4, pc}
 8000210:	20000068 	.word	0x20000068
 8000214:	00000000 	.word	0x00000000
 8000218:	08002f64 	.word	0x08002f64

0800021c <frame_dummy>:
 800021c:	b508      	push	{r3, lr}
 800021e:	4b03      	ldr	r3, [pc, #12]	; (800022c <frame_dummy+0x10>)
 8000220:	b11b      	cbz	r3, 800022a <frame_dummy+0xe>
 8000222:	4903      	ldr	r1, [pc, #12]	; (8000230 <frame_dummy+0x14>)
 8000224:	4803      	ldr	r0, [pc, #12]	; (8000234 <frame_dummy+0x18>)
 8000226:	f3af 8000 	nop.w
 800022a:	bd08      	pop	{r3, pc}
 800022c:	00000000 	.word	0x00000000
 8000230:	2000006c 	.word	0x2000006c
 8000234:	08002f64 	.word	0x08002f64

08000238 <__aeabi_uldivmod>:
 8000238:	b953      	cbnz	r3, 8000250 <__aeabi_uldivmod+0x18>
 800023a:	b94a      	cbnz	r2, 8000250 <__aeabi_uldivmod+0x18>
 800023c:	2900      	cmp	r1, #0
 800023e:	bf08      	it	eq
 8000240:	2800      	cmpeq	r0, #0
 8000242:	bf1c      	itt	ne
 8000244:	f04f 31ff 	movne.w	r1, #4294967295
 8000248:	f04f 30ff 	movne.w	r0, #4294967295
 800024c:	f000 b970 	b.w	8000530 <__aeabi_idiv0>
 8000250:	f1ad 0c08 	sub.w	ip, sp, #8
 8000254:	e96d ce04 	strd	ip, lr, [sp, #-16]!
 8000258:	f000 f806 	bl	8000268 <__udivmoddi4>
 800025c:	f8dd e004 	ldr.w	lr, [sp, #4]
 8000260:	e9dd 2302 	ldrd	r2, r3, [sp, #8]
 8000264:	b004      	add	sp, #16
 8000266:	4770      	bx	lr

08000268 <__udivmoddi4>:
 8000268:	e92d 47f0 	stmdb	sp!, {r4, r5, r6, r7, r8, r9, sl, lr}
 800026c:	9e08      	ldr	r6, [sp, #32]
 800026e:	460d      	mov	r5, r1
 8000270:	4604      	mov	r4, r0
 8000272:	460f      	mov	r7, r1
 8000274:	2b00      	cmp	r3, #0
 8000276:	d14a      	bne.n	800030e <__udivmoddi4+0xa6>
 8000278:	428a      	cmp	r2, r1
 800027a:	4694      	mov	ip, r2
 800027c:	d965      	bls.n	800034a <__udivmoddi4+0xe2>
 800027e:	fab2 f382 	clz	r3, r2
 8000282:	b143      	cbz	r3, 8000296 <__udivmoddi4+0x2e>
 8000284:	fa02 fc03 	lsl.w	ip, r2, r3
 8000288:	f1c3 0220 	rsb	r2, r3, #32
 800028c:	409f      	lsls	r7, r3
 800028e:	fa20 f202 	lsr.w	r2, r0, r2
 8000292:	4317      	orrs	r7, r2
 8000294:	409c      	lsls	r4, r3
 8000296:	ea4f 4e1c 	mov.w	lr, ip, lsr #16
 800029a:	fa1f f58c 	uxth.w	r5, ip
 800029e:	fbb7 f1fe 	udiv	r1, r7, lr
 80002a2:	0c22      	lsrs	r2, r4, #16
 80002a4:	fb0e 7711 	mls	r7, lr, r1, r7
 80002a8:	ea42 4207 	orr.w	r2, r2, r7, lsl #16
 80002ac:	fb01 f005 	mul.w	r0, r1, r5
 80002b0:	4290      	cmp	r0, r2
 80002b2:	d90a      	bls.n	80002ca <__udivmoddi4+0x62>
 80002b4:	eb1c 0202 	adds.w	r2, ip, r2
 80002b8:	f101 37ff 	add.w	r7, r1, #4294967295
 80002bc:	f080 811c 	bcs.w	80004f8 <__udivmoddi4+0x290>
 80002c0:	4290      	cmp	r0, r2
 80002c2:	f240 8119 	bls.w	80004f8 <__udivmoddi4+0x290>
 80002c6:	3902      	subs	r1, #2
 80002c8:	4462      	add	r2, ip
 80002ca:	1a12      	subs	r2, r2, r0
 80002cc:	b2a4      	uxth	r4, r4
 80002ce:	fbb2 f0fe 	udiv	r0, r2, lr
 80002d2:	fb0e 2210 	mls	r2, lr, r0, r2
 80002d6:	ea44 4402 	orr.w	r4, r4, r2, lsl #16
 80002da:	fb00 f505 	mul.w	r5, r0, r5
 80002de:	42a5      	cmp	r5, r4
 80002e0:	d90a      	bls.n	80002f8 <__udivmoddi4+0x90>
 80002e2:	eb1c 0404 	adds.w	r4, ip, r4
 80002e6:	f100 32ff 	add.w	r2, r0, #4294967295
 80002ea:	f080 8107 	bcs.w	80004fc <__udivmoddi4+0x294>
 80002ee:	42a5      	cmp	r5, r4
 80002f0:	f240 8104 	bls.w	80004fc <__udivmoddi4+0x294>
 80002f4:	4464      	add	r4, ip
 80002f6:	3802      	subs	r0, #2
 80002f8:	ea40 4001 	orr.w	r0, r0, r1, lsl #16
 80002fc:	1b64      	subs	r4, r4, r5
 80002fe:	2100      	movs	r1, #0
 8000300:	b11e      	cbz	r6, 800030a <__udivmoddi4+0xa2>
 8000302:	40dc      	lsrs	r4, r3
 8000304:	2300      	movs	r3, #0
 8000306:	e9c6 4300 	strd	r4, r3, [r6]
 800030a:	e8bd 87f0 	ldmia.w	sp!, {r4, r5, r6, r7, r8, r9, sl, pc}
 800030e:	428b      	cmp	r3, r1
 8000310:	d908      	bls.n	8000324 <__udivmoddi4+0xbc>
 8000312:	2e00      	cmp	r6, #0
 8000314:	f000 80ed 	beq.w	80004f2 <__udivmoddi4+0x28a>
 8000318:	2100      	movs	r1, #0
 800031a:	e9c6 0500 	strd	r0, r5, [r6]
 800031e:	4608      	mov	r0, r1
 8000320:	e8bd 87f0 	ldmia.w	sp!, {r4, r5, r6, r7, r8, r9, sl, pc}
 8000324:	fab3 f183 	clz	r1, r3
 8000328:	2900      	cmp	r1, #0
 800032a:	d149      	bne.n	80003c0 <__udivmoddi4+0x158>
 800032c:	42ab      	cmp	r3, r5
 800032e:	d302      	bcc.n	8000336 <__udivmoddi4+0xce>
 8000330:	4282      	cmp	r2, r0
 8000332:	f200 80f8 	bhi.w	8000526 <__udivmoddi4+0x2be>
 8000336:	1a84      	subs	r4, r0, r2
 8000338:	eb65 0203 	sbc.w	r2, r5, r3
 800033c:	2001      	movs	r0, #1
 800033e:	4617      	mov	r7, r2
 8000340:	2e00      	cmp	r6, #0
 8000342:	d0e2      	beq.n	800030a <__udivmoddi4+0xa2>
 8000344:	e9c6 4700 	strd	r4, r7, [r6]
 8000348:	e7df      	b.n	800030a <__udivmoddi4+0xa2>
 800034a:	b902      	cbnz	r2, 800034e <__udivmoddi4+0xe6>
 800034c:	deff      	udf	#255	; 0xff
 800034e:	fab2 f382 	clz	r3, r2
 8000352:	2b00      	cmp	r3, #0
 8000354:	f040 8090 	bne.w	8000478 <__udivmoddi4+0x210>
 8000358:	1a8a      	subs	r2, r1, r2
 800035a:	ea4f 471c 	mov.w	r7, ip, lsr #16
 800035e:	fa1f fe8c 	uxth.w	lr, ip
 8000362:	2101      	movs	r1, #1
 8000364:	fbb2 f5f7 	udiv	r5, r2, r7
 8000368:	fb07 2015 	mls	r0, r7, r5, r2
 800036c:	0c22      	lsrs	r2, r4, #16
 800036e:	ea42 4200 	orr.w	r2, r2, r0, lsl #16
 8000372:	fb0e f005 	mul.w	r0, lr, r5
 8000376:	4290      	cmp	r0, r2
 8000378:	d908      	bls.n	800038c <__udivmoddi4+0x124>
 800037a:	eb1c 0202 	adds.w	r2, ip, r2
 800037e:	f105 38ff 	add.w	r8, r5, #4294967295
 8000382:	d202      	bcs.n	800038a <__udivmoddi4+0x122>
 8000384:	4290      	cmp	r0, r2
 8000386:	f200 80cb 	bhi.w	8000520 <__udivmoddi4+0x2b8>
 800038a:	4645      	mov	r5, r8
 800038c:	1a12      	subs	r2, r2, r0
 800038e:	b2a4      	uxth	r4, r4
 8000390:	fbb2 f0f7 	udiv	r0, r2, r7
 8000394:	fb07 2210 	mls	r2, r7, r0, r2
 8000398:	ea44 4402 	orr.w	r4, r4, r2, lsl #16
 800039c:	fb0e fe00 	mul.w	lr, lr, r0
 80003a0:	45a6      	cmp	lr, r4
 80003a2:	d908      	bls.n	80003b6 <__udivmoddi4+0x14e>
 80003a4:	eb1c 0404 	adds.w	r4, ip, r4
 80003a8:	f100 32ff 	add.w	r2, r0, #4294967295
 80003ac:	d202      	bcs.n	80003b4 <__udivmoddi4+0x14c>
 80003ae:	45a6      	cmp	lr, r4
 80003b0:	f200 80bb 	bhi.w	800052a <__udivmoddi4+0x2c2>
 80003b4:	4610      	mov	r0, r2
 80003b6:	eba4 040e 	sub.w	r4, r4, lr
 80003ba:	ea40 4005 	orr.w	r0, r0, r5, lsl #16
 80003be:	e79f      	b.n	8000300 <__udivmoddi4+0x98>
 80003c0:	f1c1 0720 	rsb	r7, r1, #32
 80003c4:	408b      	lsls	r3, r1
 80003c6:	fa22 fc07 	lsr.w	ip, r2, r7
 80003ca:	ea4c 0c03 	orr.w	ip, ip, r3
 80003ce:	fa05 f401 	lsl.w	r4, r5, r1
 80003d2:	fa20 f307 	lsr.w	r3, r0, r7
 80003d6:	40fd      	lsrs	r5, r7
 80003d8:	ea4f 491c 	mov.w	r9, ip, lsr #16
 80003dc:	4323      	orrs	r3, r4
 80003de:	fbb5 f8f9 	udiv	r8, r5, r9
 80003e2:	fa1f fe8c 	uxth.w	lr, ip
 80003e6:	fb09 5518 	mls	r5, r9, r8, r5
 80003ea:	0c1c      	lsrs	r4, r3, #16
 80003ec:	ea44 4405 	orr.w	r4, r4, r5, lsl #16
 80003f0:	fb08 f50e 	mul.w	r5, r8, lr
 80003f4:	42a5      	cmp	r5, r4
 80003f6:	fa02 f201 	lsl.w	r2, r2, r1
 80003fa:	fa00 f001 	lsl.w	r0, r0, r1
 80003fe:	d90b      	bls.n	8000418 <__udivmoddi4+0x1b0>
 8000400:	eb1c 0404 	adds.w	r4, ip, r4
 8000404:	f108 3aff 	add.w	sl, r8, #4294967295
 8000408:	f080 8088 	bcs.w	800051c <__udivmoddi4+0x2b4>
 800040c:	42a5      	cmp	r5, r4
 800040e:	f240 8085 	bls.w	800051c <__udivmoddi4+0x2b4>
 8000412:	f1a8 0802 	sub.w	r8, r8, #2
 8000416:	4464      	add	r4, ip
 8000418:	1b64      	subs	r4, r4, r5
 800041a:	b29d      	uxth	r5, r3
 800041c:	fbb4 f3f9 	udiv	r3, r4, r9
 8000420:	fb09 4413 	mls	r4, r9, r3, r4
 8000424:	ea45 4404 	orr.w	r4, r5, r4, lsl #16
 8000428:	fb03 fe0e 	mul.w	lr, r3, lr
 800042c:	45a6      	cmp	lr, r4
 800042e:	d908      	bls.n	8000442 <__udivmoddi4+0x1da>
 8000430:	eb1c 0404 	adds.w	r4, ip, r4
 8000434:	f103 35ff 	add.w	r5, r3, #4294967295
 8000438:	d26c      	bcs.n	8000514 <__udivmoddi4+0x2ac>
 800043a:	45a6      	cmp	lr, r4
 800043c:	d96a      	bls.n	8000514 <__udivmoddi4+0x2ac>
 800043e:	3b02      	subs	r3, #2
 8000440:	4464      	add	r4, ip
 8000442:	ea43 4308 	orr.w	r3, r3, r8, lsl #16
 8000446:	fba3 9502 	umull	r9, r5, r3, r2
 800044a:	eba4 040e 	sub.w	r4, r4, lr
 800044e:	42ac      	cmp	r4, r5
 8000450:	46c8      	mov	r8, r9
 8000452:	46ae      	mov	lr, r5
 8000454:	d356      	bcc.n	8000504 <__udivmoddi4+0x29c>
 8000456:	d053      	beq.n	8000500 <__udivmoddi4+0x298>
 8000458:	b156      	cbz	r6, 8000470 <__udivmoddi4+0x208>
 800045a:	ebb0 0208 	subs.w	r2, r0, r8
 800045e:	eb64 040e 	sbc.w	r4, r4, lr
 8000462:	fa04 f707 	lsl.w	r7, r4, r7
 8000466:	40ca      	lsrs	r2, r1
 8000468:	40cc      	lsrs	r4, r1
 800046a:	4317      	orrs	r7, r2
 800046c:	e9c6 7400 	strd	r7, r4, [r6]
 8000470:	4618      	mov	r0, r3
 8000472:	2100      	movs	r1, #0
 8000474:	e8bd 87f0 	ldmia.w	sp!, {r4, r5, r6, r7, r8, r9, sl, pc}
 8000478:	f1c3 0120 	rsb	r1, r3, #32
 800047c:	fa02 fc03 	lsl.w	ip, r2, r3
 8000480:	fa20 f201 	lsr.w	r2, r0, r1
 8000484:	fa25 f101 	lsr.w	r1, r5, r1
 8000488:	409d      	lsls	r5, r3
 800048a:	432a      	orrs	r2, r5
 800048c:	ea4f 471c 	mov.w	r7, ip, lsr #16
 8000490:	fa1f fe8c 	uxth.w	lr, ip
 8000494:	fbb1 f0f7 	udiv	r0, r1, r7
 8000498:	fb07 1510 	mls	r5, r7, r0, r1
 800049c:	0c11      	lsrs	r1, r2, #16
 800049e:	ea41 4105 	orr.w	r1, r1, r5, lsl #16
 80004a2:	fb00 f50e 	mul.w	r5, r0, lr
 80004a6:	428d      	cmp	r5, r1
 80004a8:	fa04 f403 	lsl.w	r4, r4, r3
 80004ac:	d908      	bls.n	80004c0 <__udivmoddi4+0x258>
 80004ae:	eb1c 0101 	adds.w	r1, ip, r1
 80004b2:	f100 38ff 	add.w	r8, r0, #4294967295
 80004b6:	d22f      	bcs.n	8000518 <__udivmoddi4+0x2b0>
 80004b8:	428d      	cmp	r5, r1
 80004ba:	d92d      	bls.n	8000518 <__udivmoddi4+0x2b0>
 80004bc:	3802      	subs	r0, #2
 80004be:	4461      	add	r1, ip
 80004c0:	1b49      	subs	r1, r1, r5
 80004c2:	b292      	uxth	r2, r2
 80004c4:	fbb1 f5f7 	udiv	r5, r1, r7
 80004c8:	fb07 1115 	mls	r1, r7, r5, r1
 80004cc:	ea42 4201 	orr.w	r2, r2, r1, lsl #16
 80004d0:	fb05 f10e 	mul.w	r1, r5, lr
 80004d4:	4291      	cmp	r1, r2
 80004d6:	d908      	bls.n	80004ea <__udivmoddi4+0x282>
 80004d8:	eb1c 0202 	adds.w	r2, ip, r2
 80004dc:	f105 38ff 	add.w	r8, r5, #4294967295
 80004e0:	d216      	bcs.n	8000510 <__udivmoddi4+0x2a8>
 80004e2:	4291      	cmp	r1, r2
 80004e4:	d914      	bls.n	8000510 <__udivmoddi4+0x2a8>
 80004e6:	3d02      	subs	r5, #2
 80004e8:	4462      	add	r2, ip
 80004ea:	1a52      	subs	r2, r2, r1
 80004ec:	ea45 4100 	orr.w	r1, r5, r0, lsl #16
 80004f0:	e738      	b.n	8000364 <__udivmoddi4+0xfc>
 80004f2:	4631      	mov	r1, r6
 80004f4:	4630      	mov	r0, r6
 80004f6:	e708      	b.n	800030a <__udivmoddi4+0xa2>
 80004f8:	4639      	mov	r1, r7
 80004fa:	e6e6      	b.n	80002ca <__udivmoddi4+0x62>
 80004fc:	4610      	mov	r0, r2
 80004fe:	e6fb      	b.n	80002f8 <__udivmoddi4+0x90>
 8000500:	4548      	cmp	r0, r9
 8000502:	d2a9      	bcs.n	8000458 <__udivmoddi4+0x1f0>
 8000504:	ebb9 0802 	subs.w	r8, r9, r2
 8000508:	eb65 0e0c 	sbc.w	lr, r5, ip
 800050c:	3b01      	subs	r3, #1
 800050e:	e7a3      	b.n	8000458 <__udivmoddi4+0x1f0>
 8000510:	4645      	mov	r5, r8
 8000512:	e7ea      	b.n	80004ea <__udivmoddi4+0x282>
 8000514:	462b      	mov	r3, r5
 8000516:	e794      	b.n	8000442 <__udivmoddi4+0x1da>
 8000518:	4640      	mov	r0, r8
 800051a:	e7d1      	b.n	80004c0 <__udivmoddi4+0x258>
 800051c:	46d0      	mov	r8, sl
 800051e:	e77b      	b.n	8000418 <__udivmoddi4+0x1b0>
 8000520:	3d02      	subs	r5, #2
 8000522:	4462      	add	r2, ip
 8000524:	e732      	b.n	800038c <__udivmoddi4+0x124>
 8000526:	4608      	mov	r0, r1
 8000528:	e70a      	b.n	8000340 <__udivmoddi4+0xd8>
 800052a:	4464      	add	r4, ip
 800052c:	3802      	subs	r0, #2
 800052e:	e742      	b.n	80003b6 <__udivmoddi4+0x14e>

08000530 <__aeabi_idiv0>:
 8000530:	4770      	bx	lr
 8000532:	bf00      	nop

08000534 <MX_CAN1_Init>:

CAN_HandleTypeDef hcan1;

/* CAN1 init function */
void MX_CAN1_Init(void)
{
 8000534:	b580      	push	{r7, lr}
 8000536:	af00      	add	r7, sp, #0
  /* USER CODE END CAN1_Init 0 */

  /* USER CODE BEGIN CAN1_Init 1 */

  /* USER CODE END CAN1_Init 1 */
  hcan1.Instance = CAN1;
 8000538:	4b17      	ldr	r3, [pc, #92]	; (8000598 <MX_CAN1_Init+0x64>)
 800053a:	4a18      	ldr	r2, [pc, #96]	; (800059c <MX_CAN1_Init+0x68>)
 800053c:	601a      	str	r2, [r3, #0]
  hcan1.Init.Prescaler = 6;
 800053e:	4b16      	ldr	r3, [pc, #88]	; (8000598 <MX_CAN1_Init+0x64>)
 8000540:	2206      	movs	r2, #6
 8000542:	605a      	str	r2, [r3, #4]
  hcan1.Init.Mode = CAN_MODE_NORMAL;
 8000544:	4b14      	ldr	r3, [pc, #80]	; (8000598 <MX_CAN1_Init+0x64>)
 8000546:	2200      	movs	r2, #0
 8000548:	609a      	str	r2, [r3, #8]
  hcan1.Init.SyncJumpWidth = CAN_SJW_1TQ;
 800054a:	4b13      	ldr	r3, [pc, #76]	; (8000598 <MX_CAN1_Init+0x64>)
 800054c:	2200      	movs	r2, #0
 800054e:	60da      	str	r2, [r3, #12]
  hcan1.Init.TimeSeg1 = CAN_BS1_6TQ;
 8000550:	4b11      	ldr	r3, [pc, #68]	; (8000598 <MX_CAN1_Init+0x64>)
 8000552:	f44f 22a0 	mov.w	r2, #327680	; 0x50000
 8000556:	611a      	str	r2, [r3, #16]
  hcan1.Init.TimeSeg2 = CAN_BS2_1TQ;
 8000558:	4b0f      	ldr	r3, [pc, #60]	; (8000598 <MX_CAN1_Init+0x64>)
 800055a:	2200      	movs	r2, #0
 800055c:	615a      	str	r2, [r3, #20]
  hcan1.Init.TimeTriggeredMode = DISABLE;
 800055e:	4b0e      	ldr	r3, [pc, #56]	; (8000598 <MX_CAN1_Init+0x64>)
 8000560:	2200      	movs	r2, #0
 8000562:	761a      	strb	r2, [r3, #24]
  hcan1.Init.AutoBusOff = DISABLE;
 8000564:	4b0c      	ldr	r3, [pc, #48]	; (8000598 <MX_CAN1_Init+0x64>)
 8000566:	2200      	movs	r2, #0
 8000568:	765a      	strb	r2, [r3, #25]
  hcan1.Init.AutoWakeUp = DISABLE;
 800056a:	4b0b      	ldr	r3, [pc, #44]	; (8000598 <MX_CAN1_Init+0x64>)
 800056c:	2200      	movs	r2, #0
 800056e:	769a      	strb	r2, [r3, #26]
  hcan1.Init.AutoRetransmission = DISABLE;
 8000570:	4b09      	ldr	r3, [pc, #36]	; (8000598 <MX_CAN1_Init+0x64>)
 8000572:	2200      	movs	r2, #0
 8000574:	76da      	strb	r2, [r3, #27]
  hcan1.Init.ReceiveFifoLocked = DISABLE;
 8000576:	4b08      	ldr	r3, [pc, #32]	; (8000598 <MX_CAN1_Init+0x64>)
 8000578:	2200      	movs	r2, #0
 800057a:	771a      	strb	r2, [r3, #28]
  hcan1.Init.TransmitFifoPriority = DISABLE;
 800057c:	4b06      	ldr	r3, [pc, #24]	; (8000598 <MX_CAN1_Init+0x64>)
 800057e:	2200      	movs	r2, #0
 8000580:	775a      	strb	r2, [r3, #29]
  if (HAL_CAN_Init(&hcan1) != HAL_OK)
 8000582:	4805      	ldr	r0, [pc, #20]	; (8000598 <MX_CAN1_Init+0x64>)
 8000584:	f000 fba8 	bl	8000cd8 <HAL_CAN_Init>
 8000588:	4603      	mov	r3, r0
 800058a:	2b00      	cmp	r3, #0
 800058c:	d001      	beq.n	8000592 <MX_CAN1_Init+0x5e>
  {
    Error_Handler();
 800058e:	f000 f9b5 	bl	80008fc <Error_Handler>
  }
  /* USER CODE BEGIN CAN1_Init 2 */

  /* USER CODE END CAN1_Init 2 */

}
 8000592:	bf00      	nop
 8000594:	bd80      	pop	{r7, pc}
 8000596:	bf00      	nop
 8000598:	20000084 	.word	0x20000084
 800059c:	40006400 	.word	0x40006400

080005a0 <HAL_CAN_MspInit>:

void HAL_CAN_MspInit(CAN_HandleTypeDef* canHandle)
{
 80005a0:	b580      	push	{r7, lr}
 80005a2:	b08a      	sub	sp, #40	; 0x28
 80005a4:	af00      	add	r7, sp, #0
 80005a6:	6078      	str	r0, [r7, #4]

  GPIO_InitTypeDef GPIO_InitStruct = {0};
 80005a8:	f107 0314 	add.w	r3, r7, #20
 80005ac:	2200      	movs	r2, #0
 80005ae:	601a      	str	r2, [r3, #0]
 80005b0:	605a      	str	r2, [r3, #4]
 80005b2:	609a      	str	r2, [r3, #8]
 80005b4:	60da      	str	r2, [r3, #12]
 80005b6:	611a      	str	r2, [r3, #16]
  if(canHandle->Instance==CAN1)
 80005b8:	687b      	ldr	r3, [r7, #4]
 80005ba:	681b      	ldr	r3, [r3, #0]
 80005bc:	4a17      	ldr	r2, [pc, #92]	; (800061c <HAL_CAN_MspInit+0x7c>)
 80005be:	4293      	cmp	r3, r2
 80005c0:	d127      	bne.n	8000612 <HAL_CAN_MspInit+0x72>
  {
  /* USER CODE BEGIN CAN1_MspInit 0 */

  /* USER CODE END CAN1_MspInit 0 */
    /* CAN1 clock enable */
    __HAL_RCC_CAN1_CLK_ENABLE();
 80005c2:	4b17      	ldr	r3, [pc, #92]	; (8000620 <HAL_CAN_MspInit+0x80>)
 80005c4:	6c1b      	ldr	r3, [r3, #64]	; 0x40
 80005c6:	4a16      	ldr	r2, [pc, #88]	; (8000620 <HAL_CAN_MspInit+0x80>)
 80005c8:	f043 7300 	orr.w	r3, r3, #33554432	; 0x2000000
 80005cc:	6413      	str	r3, [r2, #64]	; 0x40
 80005ce:	4b14      	ldr	r3, [pc, #80]	; (8000620 <HAL_CAN_MspInit+0x80>)
 80005d0:	6c1b      	ldr	r3, [r3, #64]	; 0x40
 80005d2:	f003 7300 	and.w	r3, r3, #33554432	; 0x2000000
 80005d6:	613b      	str	r3, [r7, #16]
 80005d8:	693b      	ldr	r3, [r7, #16]

    __HAL_RCC_GPIOD_CLK_ENABLE();
 80005da:	4b11      	ldr	r3, [pc, #68]	; (8000620 <HAL_CAN_MspInit+0x80>)
 80005dc:	6b1b      	ldr	r3, [r3, #48]	; 0x30
 80005de:	4a10      	ldr	r2, [pc, #64]	; (8000620 <HAL_CAN_MspInit+0x80>)
 80005e0:	f043 0308 	orr.w	r3, r3, #8
 80005e4:	6313      	str	r3, [r2, #48]	; 0x30
 80005e6:	4b0e      	ldr	r3, [pc, #56]	; (8000620 <HAL_CAN_MspInit+0x80>)
 80005e8:	6b1b      	ldr	r3, [r3, #48]	; 0x30
 80005ea:	f003 0308 	and.w	r3, r3, #8
 80005ee:	60fb      	str	r3, [r7, #12]
 80005f0:	68fb      	ldr	r3, [r7, #12]
    /**CAN1 GPIO Configuration
    PD0     ------> CAN1_RX
    PD1     ------> CAN1_TX
    */
    GPIO_InitStruct.Pin = GPIO_PIN_0|GPIO_PIN_1;
 80005f2:	2303      	movs	r3, #3
 80005f4:	617b      	str	r3, [r7, #20]
    GPIO_InitStruct.Mode = GPIO_MODE_AF_PP;
 80005f6:	2302      	movs	r3, #2
 80005f8:	61bb      	str	r3, [r7, #24]
    GPIO_InitStruct.Pull = GPIO_NOPULL;
 80005fa:	2300      	movs	r3, #0
 80005fc:	61fb      	str	r3, [r7, #28]
    GPIO_InitStruct.Speed = GPIO_SPEED_FREQ_VERY_HIGH;
 80005fe:	2303      	movs	r3, #3
 8000600:	623b      	str	r3, [r7, #32]
    GPIO_InitStruct.Alternate = GPIO_AF9_CAN1;
 8000602:	2309      	movs	r3, #9
 8000604:	627b      	str	r3, [r7, #36]	; 0x24
    HAL_GPIO_Init(GPIOD, &GPIO_InitStruct);
 8000606:	f107 0314 	add.w	r3, r7, #20
 800060a:	4619      	mov	r1, r3
 800060c:	4805      	ldr	r0, [pc, #20]	; (8000624 <HAL_CAN_MspInit+0x84>)
 800060e:	f000 fe55 	bl	80012bc <HAL_GPIO_Init>

  /* USER CODE BEGIN CAN1_MspInit 1 */

  /* USER CODE END CAN1_MspInit 1 */
  }
}
 8000612:	bf00      	nop
 8000614:	3728      	adds	r7, #40	; 0x28
 8000616:	46bd      	mov	sp, r7
 8000618:	bd80      	pop	{r7, pc}
 800061a:	bf00      	nop
 800061c:	40006400 	.word	0x40006400
 8000620:	40023800 	.word	0x40023800
 8000624:	40020c00 	.word	0x40020c00

08000628 <MX_GPIO_Init>:
        * Output
        * EVENT_OUT
        * EXTI
*/
void MX_GPIO_Init(void)
{
 8000628:	b580      	push	{r7, lr}
 800062a:	b08a      	sub	sp, #40	; 0x28
 800062c:	af00      	add	r7, sp, #0

  GPIO_InitTypeDef GPIO_InitStruct = {0};
 800062e:	f107 0314 	add.w	r3, r7, #20
 8000632:	2200      	movs	r2, #0
 8000634:	601a      	str	r2, [r3, #0]
 8000636:	605a      	str	r2, [r3, #4]
 8000638:	609a      	str	r2, [r3, #8]
 800063a:	60da      	str	r2, [r3, #12]
 800063c:	611a      	str	r2, [r3, #16]

  /* GPIO Ports Clock Enable */
  __HAL_RCC_GPIOC_CLK_ENABLE();
 800063e:	4b29      	ldr	r3, [pc, #164]	; (80006e4 <MX_GPIO_Init+0xbc>)
 8000640:	6b1b      	ldr	r3, [r3, #48]	; 0x30
 8000642:	4a28      	ldr	r2, [pc, #160]	; (80006e4 <MX_GPIO_Init+0xbc>)
 8000644:	f043 0304 	orr.w	r3, r3, #4
 8000648:	6313      	str	r3, [r2, #48]	; 0x30
 800064a:	4b26      	ldr	r3, [pc, #152]	; (80006e4 <MX_GPIO_Init+0xbc>)
 800064c:	6b1b      	ldr	r3, [r3, #48]	; 0x30
 800064e:	f003 0304 	and.w	r3, r3, #4
 8000652:	613b      	str	r3, [r7, #16]
 8000654:	693b      	ldr	r3, [r7, #16]
  __HAL_RCC_GPIOH_CLK_ENABLE();
 8000656:	4b23      	ldr	r3, [pc, #140]	; (80006e4 <MX_GPIO_Init+0xbc>)
 8000658:	6b1b      	ldr	r3, [r3, #48]	; 0x30
 800065a:	4a22      	ldr	r2, [pc, #136]	; (80006e4 <MX_GPIO_Init+0xbc>)
 800065c:	f043 0380 	orr.w	r3, r3, #128	; 0x80
 8000660:	6313      	str	r3, [r2, #48]	; 0x30
 8000662:	4b20      	ldr	r3, [pc, #128]	; (80006e4 <MX_GPIO_Init+0xbc>)
 8000664:	6b1b      	ldr	r3, [r3, #48]	; 0x30
 8000666:	f003 0380 	and.w	r3, r3, #128	; 0x80
 800066a:	60fb      	str	r3, [r7, #12]
 800066c:	68fb      	ldr	r3, [r7, #12]
  __HAL_RCC_GPIOA_CLK_ENABLE();
 800066e:	4b1d      	ldr	r3, [pc, #116]	; (80006e4 <MX_GPIO_Init+0xbc>)
 8000670:	6b1b      	ldr	r3, [r3, #48]	; 0x30
 8000672:	4a1c      	ldr	r2, [pc, #112]	; (80006e4 <MX_GPIO_Init+0xbc>)
 8000674:	f043 0301 	orr.w	r3, r3, #1
 8000678:	6313      	str	r3, [r2, #48]	; 0x30
 800067a:	4b1a      	ldr	r3, [pc, #104]	; (80006e4 <MX_GPIO_Init+0xbc>)
 800067c:	6b1b      	ldr	r3, [r3, #48]	; 0x30
 800067e:	f003 0301 	and.w	r3, r3, #1
 8000682:	60bb      	str	r3, [r7, #8]
 8000684:	68bb      	ldr	r3, [r7, #8]
  __HAL_RCC_GPIOD_CLK_ENABLE();
 8000686:	4b17      	ldr	r3, [pc, #92]	; (80006e4 <MX_GPIO_Init+0xbc>)
 8000688:	6b1b      	ldr	r3, [r3, #48]	; 0x30
 800068a:	4a16      	ldr	r2, [pc, #88]	; (80006e4 <MX_GPIO_Init+0xbc>)
 800068c:	f043 0308 	orr.w	r3, r3, #8
 8000690:	6313      	str	r3, [r2, #48]	; 0x30
 8000692:	4b14      	ldr	r3, [pc, #80]	; (80006e4 <MX_GPIO_Init+0xbc>)
 8000694:	6b1b      	ldr	r3, [r3, #48]	; 0x30
 8000696:	f003 0308 	and.w	r3, r3, #8
 800069a:	607b      	str	r3, [r7, #4]
 800069c:	687b      	ldr	r3, [r7, #4]
  __HAL_RCC_GPIOB_CLK_ENABLE();
 800069e:	4b11      	ldr	r3, [pc, #68]	; (80006e4 <MX_GPIO_Init+0xbc>)
 80006a0:	6b1b      	ldr	r3, [r3, #48]	; 0x30
 80006a2:	4a10      	ldr	r2, [pc, #64]	; (80006e4 <MX_GPIO_Init+0xbc>)
 80006a4:	f043 0302 	orr.w	r3, r3, #2
 80006a8:	6313      	str	r3, [r2, #48]	; 0x30
 80006aa:	4b0e      	ldr	r3, [pc, #56]	; (80006e4 <MX_GPIO_Init+0xbc>)
 80006ac:	6b1b      	ldr	r3, [r3, #48]	; 0x30
 80006ae:	f003 0302 	and.w	r3, r3, #2
 80006b2:	603b      	str	r3, [r7, #0]
 80006b4:	683b      	ldr	r3, [r7, #0]

  /*Configure GPIO pin Output Level */
  HAL_GPIO_WritePin(PWR_ON_GPIO_Port, PWR_ON_Pin, GPIO_PIN_RESET);
 80006b6:	2200      	movs	r2, #0
 80006b8:	2140      	movs	r1, #64	; 0x40
 80006ba:	480b      	ldr	r0, [pc, #44]	; (80006e8 <MX_GPIO_Init+0xc0>)
 80006bc:	f000 ffaa 	bl	8001614 <HAL_GPIO_WritePin>

  /*Configure GPIO pin : PtPin */
  GPIO_InitStruct.Pin = PWR_ON_Pin;
 80006c0:	2340      	movs	r3, #64	; 0x40
 80006c2:	617b      	str	r3, [r7, #20]
  GPIO_InitStruct.Mode = GPIO_MODE_OUTPUT_PP;
 80006c4:	2301      	movs	r3, #1
 80006c6:	61bb      	str	r3, [r7, #24]
  GPIO_InitStruct.Pull = GPIO_NOPULL;
 80006c8:	2300      	movs	r3, #0
 80006ca:	61fb      	str	r3, [r7, #28]
  GPIO_InitStruct.Speed = GPIO_SPEED_FREQ_LOW;
 80006cc:	2300      	movs	r3, #0
 80006ce:	623b      	str	r3, [r7, #32]
  HAL_GPIO_Init(PWR_ON_GPIO_Port, &GPIO_InitStruct);
 80006d0:	f107 0314 	add.w	r3, r7, #20
 80006d4:	4619      	mov	r1, r3
 80006d6:	4804      	ldr	r0, [pc, #16]	; (80006e8 <MX_GPIO_Init+0xc0>)
 80006d8:	f000 fdf0 	bl	80012bc <HAL_GPIO_Init>

}
 80006dc:	bf00      	nop
 80006de:	3728      	adds	r7, #40	; 0x28
 80006e0:	46bd      	mov	sp, r7
 80006e2:	bd80      	pop	{r7, pc}
 80006e4:	40023800 	.word	0x40023800
 80006e8:	40020000 	.word	0x40020000

080006ec <ITM_SendChar>:
           \li Is blocking when a debugger is connected, but the previous character sent has not been transmitted.
  \param [in]     ch  Character to transmit.
  \returns            Character to transmit.
 */
__STATIC_INLINE uint32_t ITM_SendChar (uint32_t ch)
{
 80006ec:	b480      	push	{r7}
 80006ee:	b083      	sub	sp, #12
 80006f0:	af00      	add	r7, sp, #0
 80006f2:	6078      	str	r0, [r7, #4]
  if (((ITM->TCR & ITM_TCR_ITMENA_Msk) != 0UL) &&      /* ITM enabled */
 80006f4:	f04f 4360 	mov.w	r3, #3758096384	; 0xe0000000
 80006f8:	f8d3 3e80 	ldr.w	r3, [r3, #3712]	; 0xe80
 80006fc:	f003 0301 	and.w	r3, r3, #1
 8000700:	2b00      	cmp	r3, #0
 8000702:	d013      	beq.n	800072c <ITM_SendChar+0x40>
      ((ITM->TER & 1UL               ) != 0UL)   )     /* ITM Port #0 enabled */
 8000704:	f04f 4360 	mov.w	r3, #3758096384	; 0xe0000000
 8000708:	f8d3 3e00 	ldr.w	r3, [r3, #3584]	; 0xe00
 800070c:	f003 0301 	and.w	r3, r3, #1
  if (((ITM->TCR & ITM_TCR_ITMENA_Msk) != 0UL) &&      /* ITM enabled */
 8000710:	2b00      	cmp	r3, #0
 8000712:	d00b      	beq.n	800072c <ITM_SendChar+0x40>
  {
    while (ITM->PORT[0U].u32 == 0UL)
 8000714:	e000      	b.n	8000718 <ITM_SendChar+0x2c>
    {
      __NOP();
 8000716:	bf00      	nop
    while (ITM->PORT[0U].u32 == 0UL)
 8000718:	f04f 4360 	mov.w	r3, #3758096384	; 0xe0000000
 800071c:	681b      	ldr	r3, [r3, #0]
 800071e:	2b00      	cmp	r3, #0
 8000720:	d0f9      	beq.n	8000716 <ITM_SendChar+0x2a>
    }
    ITM->PORT[0U].u8 = (uint8_t)ch;
 8000722:	f04f 4360 	mov.w	r3, #3758096384	; 0xe0000000
 8000726:	687a      	ldr	r2, [r7, #4]
 8000728:	b2d2      	uxtb	r2, r2
 800072a:	701a      	strb	r2, [r3, #0]
  }
  return (ch);
 800072c:	687b      	ldr	r3, [r7, #4]
}
 800072e:	4618      	mov	r0, r3
 8000730:	370c      	adds	r7, #12
 8000732:	46bd      	mov	sp, r7
 8000734:	f85d 7b04 	ldr.w	r7, [sp], #4
 8000738:	4770      	bx	lr

0800073a <_write>:
#define PACKET_SIZE 8

/**
 * Masking used for SWV printing via SWO pin
 * */
int _write(int32_t file, uint8_t *ptr, int32_t len) {
 800073a:	b580      	push	{r7, lr}
 800073c:	b086      	sub	sp, #24
 800073e:	af00      	add	r7, sp, #0
 8000740:	60f8      	str	r0, [r7, #12]
 8000742:	60b9      	str	r1, [r7, #8]
 8000744:	607a      	str	r2, [r7, #4]
	for (int i = 0; i < len; i++) {
 8000746:	2300      	movs	r3, #0
 8000748:	617b      	str	r3, [r7, #20]
 800074a:	e009      	b.n	8000760 <_write+0x26>
		ITM_SendChar(*ptr++);
 800074c:	68bb      	ldr	r3, [r7, #8]
 800074e:	1c5a      	adds	r2, r3, #1
 8000750:	60ba      	str	r2, [r7, #8]
 8000752:	781b      	ldrb	r3, [r3, #0]
 8000754:	4618      	mov	r0, r3
 8000756:	f7ff ffc9 	bl	80006ec <ITM_SendChar>
	for (int i = 0; i < len; i++) {
 800075a:	697b      	ldr	r3, [r7, #20]
 800075c:	3301      	adds	r3, #1
 800075e:	617b      	str	r3, [r7, #20]
 8000760:	697a      	ldr	r2, [r7, #20]
 8000762:	687b      	ldr	r3, [r7, #4]
 8000764:	429a      	cmp	r2, r3
 8000766:	dbf1      	blt.n	800074c <_write+0x12>
	}
	return len;
 8000768:	687b      	ldr	r3, [r7, #4]
}
 800076a:	4618      	mov	r0, r3
 800076c:	3718      	adds	r7, #24
 800076e:	46bd      	mov	sp, r7
 8000770:	bd80      	pop	{r7, pc}
	...

08000774 <main>:

/**
 * @brief  The application entry point.
 * @retval int
 */
int main(void) {
 8000774:	b580      	push	{r7, lr}
 8000776:	b08a      	sub	sp, #40	; 0x28
 8000778:	af00      	add	r7, sp, #0
	/* USER CODE END 1 */

	/* MCU Configuration--------------------------------------------------------*/

	/* Reset of all peripherals, Initializes the Flash interface and the Systick. */
	HAL_Init();
 800077a:	f000 fa5c 	bl	8000c36 <HAL_Init>
	/* USER CODE BEGIN Init */

	/* USER CODE END Init */

	/* Configure the system clock */
	SystemClock_Config();
 800077e:	f000 f83b 	bl	80007f8 <SystemClock_Config>
	/* USER CODE BEGIN SysInit */

	/* USER CODE END SysInit */

	/* Initialize all configured peripherals */
	MX_GPIO_Init();
 8000782:	f7ff ff51 	bl	8000628 <MX_GPIO_Init>
	MX_CAN1_Init();
 8000786:	f7ff fed5 	bl	8000534 <MX_CAN1_Init>
	/* USER CODE BEGIN 2 */
	HAL_CAN_Start(&hcan1);
 800078a:	4818      	ldr	r0, [pc, #96]	; (80007ec <main+0x78>)
 800078c:	f000 fb9f 	bl	8000ece <HAL_CAN_Start>

	HAL_GPIO_WritePin(PWR_ON_GPIO_Port, PWR_ON_Pin, GPIO_PIN_SET);
 8000790:	2201      	movs	r2, #1
 8000792:	2140      	movs	r1, #64	; 0x40
 8000794:	4816      	ldr	r0, [pc, #88]	; (80007f0 <main+0x7c>)
 8000796:	f000 ff3d 	bl	8001614 <HAL_GPIO_WritePin>
	union {
		uint8_t raw[8];
		uint32_t as_u32[2];
	} buffer;

	buffer.as_u32[0] = 1;
 800079a:	2301      	movs	r3, #1
 800079c:	623b      	str	r3, [r7, #32]
	buffer.as_u32[1] = 0;
 800079e:	2300      	movs	r3, #0
 80007a0:	627b      	str	r3, [r7, #36]	; 0x24
	while (1) {
		/* USER CODE END WHILE */

		/* USER CODE BEGIN 3 */
		CAN_TxHeaderTypeDef msg;
		msg.StdId = 0xA5;
 80007a2:	23a5      	movs	r3, #165	; 0xa5
 80007a4:	60bb      	str	r3, [r7, #8]
		msg.IDE = CAN_ID_STD;
 80007a6:	2300      	movs	r3, #0
 80007a8:	613b      	str	r3, [r7, #16]
		msg.RTR = CAN_RTR_DATA;
 80007aa:	2300      	movs	r3, #0
 80007ac:	617b      	str	r3, [r7, #20]
		msg.DLC = PACKET_SIZE;
 80007ae:	2308      	movs	r3, #8
 80007b0:	61bb      	str	r3, [r7, #24]
		uint32_t mailbox = CAN_TX_MAILBOX0;
 80007b2:	2301      	movs	r3, #1
 80007b4:	607b      	str	r3, [r7, #4]

		printf("Sending Message\n");
 80007b6:	480f      	ldr	r0, [pc, #60]	; (80007f4 <main+0x80>)
 80007b8:	f002 f83e 	bl	8002838 <puts>
		HAL_CAN_AddTxMessage(&hcan1, &msg, buffer.raw, &mailbox);
 80007bc:	1d3b      	adds	r3, r7, #4
 80007be:	f107 0220 	add.w	r2, r7, #32
 80007c2:	f107 0108 	add.w	r1, r7, #8
 80007c6:	4809      	ldr	r0, [pc, #36]	; (80007ec <main+0x78>)
 80007c8:	f000 fbc5 	bl	8000f56 <HAL_CAN_AddTxMessage>

		// Generating patters
		buffer.as_u32[1]++;
 80007cc:	6a7b      	ldr	r3, [r7, #36]	; 0x24
 80007ce:	3301      	adds	r3, #1
 80007d0:	627b      	str	r3, [r7, #36]	; 0x24

		buffer.as_u32[0] = buffer.as_u32[0] << 1;
 80007d2:	6a3b      	ldr	r3, [r7, #32]
 80007d4:	005b      	lsls	r3, r3, #1
 80007d6:	623b      	str	r3, [r7, #32]

		if (buffer.as_u32[0] == 0)
 80007d8:	6a3b      	ldr	r3, [r7, #32]
 80007da:	2b00      	cmp	r3, #0
 80007dc:	d101      	bne.n	80007e2 <main+0x6e>
			buffer.as_u32[0] = 1;
 80007de:	2301      	movs	r3, #1
 80007e0:	623b      	str	r3, [r7, #32]

		HAL_Delay(10);
 80007e2:	200a      	movs	r0, #10
 80007e4:	f000 fa54 	bl	8000c90 <HAL_Delay>
	while (1) {
 80007e8:	e7db      	b.n	80007a2 <main+0x2e>
 80007ea:	bf00      	nop
 80007ec:	20000084 	.word	0x20000084
 80007f0:	40020000 	.word	0x40020000
 80007f4:	08002f7c 	.word	0x08002f7c

080007f8 <SystemClock_Config>:

/**
 * @brief System Clock Configuration
 * @retval None
 */
void SystemClock_Config(void) {
 80007f8:	b580      	push	{r7, lr}
 80007fa:	b094      	sub	sp, #80	; 0x50
 80007fc:	af00      	add	r7, sp, #0
	RCC_OscInitTypeDef RCC_OscInitStruct = { 0 };
 80007fe:	f107 031c 	add.w	r3, r7, #28
 8000802:	2234      	movs	r2, #52	; 0x34
 8000804:	2100      	movs	r1, #0
 8000806:	4618      	mov	r0, r3
 8000808:	f002 f8f6 	bl	80029f8 <memset>
	RCC_ClkInitTypeDef RCC_ClkInitStruct = { 0 };
 800080c:	f107 0308 	add.w	r3, r7, #8
 8000810:	2200      	movs	r2, #0
 8000812:	601a      	str	r2, [r3, #0]
 8000814:	605a      	str	r2, [r3, #4]
 8000816:	609a      	str	r2, [r3, #8]
 8000818:	60da      	str	r2, [r3, #12]
 800081a:	611a      	str	r2, [r3, #16]

	/** Configure the main internal regulator output voltage
	 */
	__HAL_RCC_PWR_CLK_ENABLE();
 800081c:	4b2c      	ldr	r3, [pc, #176]	; (80008d0 <SystemClock_Config+0xd8>)
 800081e:	6c1b      	ldr	r3, [r3, #64]	; 0x40
 8000820:	4a2b      	ldr	r2, [pc, #172]	; (80008d0 <SystemClock_Config+0xd8>)
 8000822:	f043 5380 	orr.w	r3, r3, #268435456	; 0x10000000
 8000826:	6413      	str	r3, [r2, #64]	; 0x40
 8000828:	4b29      	ldr	r3, [pc, #164]	; (80008d0 <SystemClock_Config+0xd8>)
 800082a:	6c1b      	ldr	r3, [r3, #64]	; 0x40
 800082c:	f003 5380 	and.w	r3, r3, #268435456	; 0x10000000
 8000830:	607b      	str	r3, [r7, #4]
 8000832:	687b      	ldr	r3, [r7, #4]
	__HAL_PWR_VOLTAGESCALING_CONFIG(PWR_REGULATOR_VOLTAGE_SCALE3);
 8000834:	4b27      	ldr	r3, [pc, #156]	; (80008d4 <SystemClock_Config+0xdc>)
 8000836:	681b      	ldr	r3, [r3, #0]
 8000838:	f423 4340 	bic.w	r3, r3, #49152	; 0xc000
 800083c:	4a25      	ldr	r2, [pc, #148]	; (80008d4 <SystemClock_Config+0xdc>)
 800083e:	f443 4380 	orr.w	r3, r3, #16384	; 0x4000
 8000842:	6013      	str	r3, [r2, #0]
 8000844:	4b23      	ldr	r3, [pc, #140]	; (80008d4 <SystemClock_Config+0xdc>)
 8000846:	681b      	ldr	r3, [r3, #0]
 8000848:	f403 4340 	and.w	r3, r3, #49152	; 0xc000
 800084c:	603b      	str	r3, [r7, #0]
 800084e:	683b      	ldr	r3, [r7, #0]

	/** Initializes the RCC Oscillators according to the specified parameters
	 * in the RCC_OscInitTypeDef structure.
	 */
	RCC_OscInitStruct.OscillatorType = RCC_OSCILLATORTYPE_HSE;
 8000850:	2301      	movs	r3, #1
 8000852:	61fb      	str	r3, [r7, #28]
	RCC_OscInitStruct.HSEState = RCC_HSE_ON;
 8000854:	f44f 3380 	mov.w	r3, #65536	; 0x10000
 8000858:	623b      	str	r3, [r7, #32]
	RCC_OscInitStruct.PLL.PLLState = RCC_PLL_ON;
 800085a:	2302      	movs	r3, #2
 800085c:	637b      	str	r3, [r7, #52]	; 0x34
	RCC_OscInitStruct.PLL.PLLSource = RCC_PLLSOURCE_HSE;
 800085e:	f44f 0380 	mov.w	r3, #4194304	; 0x400000
 8000862:	63bb      	str	r3, [r7, #56]	; 0x38
	RCC_OscInitStruct.PLL.PLLM = 12;
 8000864:	230c      	movs	r3, #12
 8000866:	63fb      	str	r3, [r7, #60]	; 0x3c
	RCC_OscInitStruct.PLL.PLLN = 96;
 8000868:	2360      	movs	r3, #96	; 0x60
 800086a:	643b      	str	r3, [r7, #64]	; 0x40
	RCC_OscInitStruct.PLL.PLLP = RCC_PLLP_DIV2;
 800086c:	2302      	movs	r3, #2
 800086e:	647b      	str	r3, [r7, #68]	; 0x44
	RCC_OscInitStruct.PLL.PLLQ = 2;
 8000870:	2302      	movs	r3, #2
 8000872:	64bb      	str	r3, [r7, #72]	; 0x48
	RCC_OscInitStruct.PLL.PLLR = 2;
 8000874:	2302      	movs	r3, #2
 8000876:	64fb      	str	r3, [r7, #76]	; 0x4c
	if (HAL_RCC_OscConfig(&RCC_OscInitStruct) != HAL_OK) {
 8000878:	f107 031c 	add.w	r3, r7, #28
 800087c:	4618      	mov	r0, r3
 800087e:	f000 ff33 	bl	80016e8 <HAL_RCC_OscConfig>
 8000882:	4603      	mov	r3, r0
 8000884:	2b00      	cmp	r3, #0
 8000886:	d001      	beq.n	800088c <SystemClock_Config+0x94>
		Error_Handler();
 8000888:	f000 f838 	bl	80008fc <Error_Handler>
	}

	/** Activate the Over-Drive mode
	 */
	if (HAL_PWREx_EnableOverDrive() != HAL_OK) {
 800088c:	f000 fedc 	bl	8001648 <HAL_PWREx_EnableOverDrive>
 8000890:	4603      	mov	r3, r0
 8000892:	2b00      	cmp	r3, #0
 8000894:	d001      	beq.n	800089a <SystemClock_Config+0xa2>
		Error_Handler();
 8000896:	f000 f831 	bl	80008fc <Error_Handler>
	}

	/** Initializes the CPU, AHB and APB buses clocks
	 */
	RCC_ClkInitStruct.ClockType = RCC_CLOCKTYPE_HCLK | RCC_CLOCKTYPE_SYSCLK
 800089a:	230f      	movs	r3, #15
 800089c:	60bb      	str	r3, [r7, #8]
			| RCC_CLOCKTYPE_PCLK1 | RCC_CLOCKTYPE_PCLK2;
	RCC_ClkInitStruct.SYSCLKSource = RCC_SYSCLKSOURCE_PLLCLK;
 800089e:	2302      	movs	r3, #2
 80008a0:	60fb      	str	r3, [r7, #12]
	RCC_ClkInitStruct.AHBCLKDivider = RCC_SYSCLK_DIV1;
 80008a2:	2300      	movs	r3, #0
 80008a4:	613b      	str	r3, [r7, #16]
	RCC_ClkInitStruct.APB1CLKDivider = RCC_HCLK_DIV2;
 80008a6:	f44f 5380 	mov.w	r3, #4096	; 0x1000
 80008aa:	617b      	str	r3, [r7, #20]
	RCC_ClkInitStruct.APB2CLKDivider = RCC_HCLK_DIV1;
 80008ac:	2300      	movs	r3, #0
 80008ae:	61bb      	str	r3, [r7, #24]

	if (HAL_RCC_ClockConfig(&RCC_ClkInitStruct, FLASH_LATENCY_3) != HAL_OK) {
 80008b0:	f107 0308 	add.w	r3, r7, #8
 80008b4:	2103      	movs	r1, #3
 80008b6:	4618      	mov	r0, r3
 80008b8:	f001 f9c4 	bl	8001c44 <HAL_RCC_ClockConfig>
 80008bc:	4603      	mov	r3, r0
 80008be:	2b00      	cmp	r3, #0
 80008c0:	d001      	beq.n	80008c6 <SystemClock_Config+0xce>
		Error_Handler();
 80008c2:	f000 f81b 	bl	80008fc <Error_Handler>
	}
}
 80008c6:	bf00      	nop
 80008c8:	3750      	adds	r7, #80	; 0x50
 80008ca:	46bd      	mov	sp, r7
 80008cc:	bd80      	pop	{r7, pc}
 80008ce:	bf00      	nop
 80008d0:	40023800 	.word	0x40023800
 80008d4:	40007000 	.word	0x40007000

080008d8 <HAL_TIM_PeriodElapsedCallback>:
 * HAL_TIM_IRQHandler(). It makes a direct call to HAL_IncTick() to increment
 * a global variable "uwTick" used as application time base.
 * @param  htim : TIM handle
 * @retval None
 */
void HAL_TIM_PeriodElapsedCallback(TIM_HandleTypeDef *htim) {
 80008d8:	b580      	push	{r7, lr}
 80008da:	b082      	sub	sp, #8
 80008dc:	af00      	add	r7, sp, #0
 80008de:	6078      	str	r0, [r7, #4]
	/* USER CODE BEGIN Callback 0 */

	/* USER CODE END Callback 0 */
	if (htim->Instance == TIM6) {
 80008e0:	687b      	ldr	r3, [r7, #4]
 80008e2:	681b      	ldr	r3, [r3, #0]
 80008e4:	4a04      	ldr	r2, [pc, #16]	; (80008f8 <HAL_TIM_PeriodElapsedCallback+0x20>)
 80008e6:	4293      	cmp	r3, r2
 80008e8:	d101      	bne.n	80008ee <HAL_TIM_PeriodElapsedCallback+0x16>
		HAL_IncTick();
 80008ea:	f000 f9b1 	bl	8000c50 <HAL_IncTick>
	}
	/* USER CODE BEGIN Callback 1 */

	/* USER CODE END Callback 1 */
}
 80008ee:	bf00      	nop
 80008f0:	3708      	adds	r7, #8
 80008f2:	46bd      	mov	sp, r7
 80008f4:	bd80      	pop	{r7, pc}
 80008f6:	bf00      	nop
 80008f8:	40001000 	.word	0x40001000

080008fc <Error_Handler>:

/**
 * @brief  This function is executed in case of error occurrence.
 * @retval None
 */
void Error_Handler(void) {
 80008fc:	b480      	push	{r7}
 80008fe:	af00      	add	r7, sp, #0
  \details Disables IRQ interrupts by setting the I-bit in the CPSR.
           Can only be executed in Privileged modes.
 */
__STATIC_FORCEINLINE void __disable_irq(void)
{
  __ASM volatile ("cpsid i" : : : "memory");
 8000900:	b672      	cpsid	i
}
 8000902:	bf00      	nop
	/* USER CODE BEGIN Error_Handler_Debug */
	/* User can add his own implementation to report the HAL error return state */
	__disable_irq();
	while (1) {
 8000904:	e7fe      	b.n	8000904 <Error_Handler+0x8>
	...

08000908 <HAL_MspInit>:
/* USER CODE END 0 */
/**
  * Initializes the Global MSP.
  */
void HAL_MspInit(void)
{
 8000908:	b480      	push	{r7}
 800090a:	b083      	sub	sp, #12
 800090c:	af00      	add	r7, sp, #0
  /* USER CODE BEGIN MspInit 0 */

  /* USER CODE END MspInit 0 */

  __HAL_RCC_PWR_CLK_ENABLE();
 800090e:	4b0f      	ldr	r3, [pc, #60]	; (800094c <HAL_MspInit+0x44>)
 8000910:	6c1b      	ldr	r3, [r3, #64]	; 0x40
 8000912:	4a0e      	ldr	r2, [pc, #56]	; (800094c <HAL_MspInit+0x44>)
 8000914:	f043 5380 	orr.w	r3, r3, #268435456	; 0x10000000
 8000918:	6413      	str	r3, [r2, #64]	; 0x40
 800091a:	4b0c      	ldr	r3, [pc, #48]	; (800094c <HAL_MspInit+0x44>)
 800091c:	6c1b      	ldr	r3, [r3, #64]	; 0x40
 800091e:	f003 5380 	and.w	r3, r3, #268435456	; 0x10000000
 8000922:	607b      	str	r3, [r7, #4]
 8000924:	687b      	ldr	r3, [r7, #4]
  __HAL_RCC_SYSCFG_CLK_ENABLE();
 8000926:	4b09      	ldr	r3, [pc, #36]	; (800094c <HAL_MspInit+0x44>)
 8000928:	6c5b      	ldr	r3, [r3, #68]	; 0x44
 800092a:	4a08      	ldr	r2, [pc, #32]	; (800094c <HAL_MspInit+0x44>)
 800092c:	f443 4380 	orr.w	r3, r3, #16384	; 0x4000
 8000930:	6453      	str	r3, [r2, #68]	; 0x44
 8000932:	4b06      	ldr	r3, [pc, #24]	; (800094c <HAL_MspInit+0x44>)
 8000934:	6c5b      	ldr	r3, [r3, #68]	; 0x44
 8000936:	f403 4380 	and.w	r3, r3, #16384	; 0x4000
 800093a:	603b      	str	r3, [r7, #0]
 800093c:	683b      	ldr	r3, [r7, #0]
  /* System interrupt init*/

  /* USER CODE BEGIN MspInit 1 */

  /* USER CODE END MspInit 1 */
}
 800093e:	bf00      	nop
 8000940:	370c      	adds	r7, #12
 8000942:	46bd      	mov	sp, r7
 8000944:	f85d 7b04 	ldr.w	r7, [sp], #4
 8000948:	4770      	bx	lr
 800094a:	bf00      	nop
 800094c:	40023800 	.word	0x40023800

08000950 <HAL_InitTick>:
  *         reset by HAL_Init() or at any time when clock is configured, by HAL_RCC_ClockConfig().
  * @param  TickPriority: Tick interrupt priority.
  * @retval HAL status
  */
HAL_StatusTypeDef HAL_InitTick(uint32_t TickPriority)
{
 8000950:	b580      	push	{r7, lr}
 8000952:	b08e      	sub	sp, #56	; 0x38
 8000954:	af00      	add	r7, sp, #0
 8000956:	6078      	str	r0, [r7, #4]
  RCC_ClkInitTypeDef    clkconfig;
  uint32_t              uwTimclock, uwAPB1Prescaler = 0U;
 8000958:	2300      	movs	r3, #0
 800095a:	62fb      	str	r3, [r7, #44]	; 0x2c

  uint32_t              uwPrescalerValue = 0U;
 800095c:	2300      	movs	r3, #0
 800095e:	62bb      	str	r3, [r7, #40]	; 0x28
  uint32_t              pFLatency;
  HAL_StatusTypeDef     status;

  /* Enable TIM6 clock */
  __HAL_RCC_TIM6_CLK_ENABLE();
 8000960:	4b33      	ldr	r3, [pc, #204]	; (8000a30 <HAL_InitTick+0xe0>)
 8000962:	6c1b      	ldr	r3, [r3, #64]	; 0x40
 8000964:	4a32      	ldr	r2, [pc, #200]	; (8000a30 <HAL_InitTick+0xe0>)
 8000966:	f043 0310 	orr.w	r3, r3, #16
 800096a:	6413      	str	r3, [r2, #64]	; 0x40
 800096c:	4b30      	ldr	r3, [pc, #192]	; (8000a30 <HAL_InitTick+0xe0>)
 800096e:	6c1b      	ldr	r3, [r3, #64]	; 0x40
 8000970:	f003 0310 	and.w	r3, r3, #16
 8000974:	60fb      	str	r3, [r7, #12]
 8000976:	68fb      	ldr	r3, [r7, #12]

  /* Get clock configuration */
  HAL_RCC_GetClockConfig(&clkconfig, &pFLatency);
 8000978:	f107 0210 	add.w	r2, r7, #16
 800097c:	f107 0314 	add.w	r3, r7, #20
 8000980:	4611      	mov	r1, r2
 8000982:	4618      	mov	r0, r3
 8000984:	f001 fb30 	bl	8001fe8 <HAL_RCC_GetClockConfig>

  /* Get APB1 prescaler */
  uwAPB1Prescaler = clkconfig.APB1CLKDivider;
 8000988:	6a3b      	ldr	r3, [r7, #32]
 800098a:	62fb      	str	r3, [r7, #44]	; 0x2c
  /* Compute TIM6 clock */
  if (uwAPB1Prescaler == RCC_HCLK_DIV1)
 800098c:	6afb      	ldr	r3, [r7, #44]	; 0x2c
 800098e:	2b00      	cmp	r3, #0
 8000990:	d103      	bne.n	800099a <HAL_InitTick+0x4a>
  {
    uwTimclock = HAL_RCC_GetPCLK1Freq();
 8000992:	f001 fb15 	bl	8001fc0 <HAL_RCC_GetPCLK1Freq>
 8000996:	6378      	str	r0, [r7, #52]	; 0x34
 8000998:	e004      	b.n	80009a4 <HAL_InitTick+0x54>
  }
  else
  {
    uwTimclock = 2UL * HAL_RCC_GetPCLK1Freq();
 800099a:	f001 fb11 	bl	8001fc0 <HAL_RCC_GetPCLK1Freq>
 800099e:	4603      	mov	r3, r0
 80009a0:	005b      	lsls	r3, r3, #1
 80009a2:	637b      	str	r3, [r7, #52]	; 0x34
  }

  /* Compute the prescaler value to have TIM6 counter clock equal to 1MHz */
  uwPrescalerValue = (uint32_t) ((uwTimclock / 1000000U) - 1U);
 80009a4:	6b7b      	ldr	r3, [r7, #52]	; 0x34
 80009a6:	4a23      	ldr	r2, [pc, #140]	; (8000a34 <HAL_InitTick+0xe4>)
 80009a8:	fba2 2303 	umull	r2, r3, r2, r3
 80009ac:	0c9b      	lsrs	r3, r3, #18
 80009ae:	3b01      	subs	r3, #1
 80009b0:	62bb      	str	r3, [r7, #40]	; 0x28

  /* Initialize TIM6 */
  htim6.Instance = TIM6;
 80009b2:	4b21      	ldr	r3, [pc, #132]	; (8000a38 <HAL_InitTick+0xe8>)
 80009b4:	4a21      	ldr	r2, [pc, #132]	; (8000a3c <HAL_InitTick+0xec>)
 80009b6:	601a      	str	r2, [r3, #0]
  + Period = [(TIM6CLK/1000) - 1]. to have a (1/1000) s time base.
  + Prescaler = (uwTimclock/1000000 - 1) to have a 1MHz counter clock.
  + ClockDivision = 0
  + Counter direction = Up
  */
  htim6.Init.Period = (1000000U / 1000U) - 1U;
 80009b8:	4b1f      	ldr	r3, [pc, #124]	; (8000a38 <HAL_InitTick+0xe8>)
 80009ba:	f240 32e7 	movw	r2, #999	; 0x3e7
 80009be:	60da      	str	r2, [r3, #12]
  htim6.Init.Prescaler = uwPrescalerValue;
 80009c0:	4a1d      	ldr	r2, [pc, #116]	; (8000a38 <HAL_InitTick+0xe8>)
 80009c2:	6abb      	ldr	r3, [r7, #40]	; 0x28
 80009c4:	6053      	str	r3, [r2, #4]
  htim6.Init.ClockDivision = 0;
 80009c6:	4b1c      	ldr	r3, [pc, #112]	; (8000a38 <HAL_InitTick+0xe8>)
 80009c8:	2200      	movs	r2, #0
 80009ca:	611a      	str	r2, [r3, #16]
  htim6.Init.CounterMode = TIM_COUNTERMODE_UP;
 80009cc:	4b1a      	ldr	r3, [pc, #104]	; (8000a38 <HAL_InitTick+0xe8>)
 80009ce:	2200      	movs	r2, #0
 80009d0:	609a      	str	r2, [r3, #8]
  htim6.Init.AutoReloadPreload = TIM_AUTORELOAD_PRELOAD_DISABLE;
 80009d2:	4b19      	ldr	r3, [pc, #100]	; (8000a38 <HAL_InitTick+0xe8>)
 80009d4:	2200      	movs	r2, #0
 80009d6:	619a      	str	r2, [r3, #24]

  status = HAL_TIM_Base_Init(&htim6);
 80009d8:	4817      	ldr	r0, [pc, #92]	; (8000a38 <HAL_InitTick+0xe8>)
 80009da:	f001 fb37 	bl	800204c <HAL_TIM_Base_Init>
 80009de:	4603      	mov	r3, r0
 80009e0:	f887 3033 	strb.w	r3, [r7, #51]	; 0x33
  if (status == HAL_OK)
 80009e4:	f897 3033 	ldrb.w	r3, [r7, #51]	; 0x33
 80009e8:	2b00      	cmp	r3, #0
 80009ea:	d11b      	bne.n	8000a24 <HAL_InitTick+0xd4>
  {
    /* Start the TIM time Base generation in interrupt mode */
    status = HAL_TIM_Base_Start_IT(&htim6);
 80009ec:	4812      	ldr	r0, [pc, #72]	; (8000a38 <HAL_InitTick+0xe8>)
 80009ee:	f001 fb8f 	bl	8002110 <HAL_TIM_Base_Start_IT>
 80009f2:	4603      	mov	r3, r0
 80009f4:	f887 3033 	strb.w	r3, [r7, #51]	; 0x33
    if (status == HAL_OK)
 80009f8:	f897 3033 	ldrb.w	r3, [r7, #51]	; 0x33
 80009fc:	2b00      	cmp	r3, #0
 80009fe:	d111      	bne.n	8000a24 <HAL_InitTick+0xd4>
    {
    /* Enable the TIM6 global Interrupt */
        HAL_NVIC_EnableIRQ(TIM6_DAC_IRQn);
 8000a00:	2036      	movs	r0, #54	; 0x36
 8000a02:	f000 fc4d 	bl	80012a0 <HAL_NVIC_EnableIRQ>
      /* Configure the SysTick IRQ priority */
      if (TickPriority < (1UL << __NVIC_PRIO_BITS))
 8000a06:	687b      	ldr	r3, [r7, #4]
 8000a08:	2b0f      	cmp	r3, #15
 8000a0a:	d808      	bhi.n	8000a1e <HAL_InitTick+0xce>
      {
        /* Configure the TIM IRQ priority */
        HAL_NVIC_SetPriority(TIM6_DAC_IRQn, TickPriority, 0U);
 8000a0c:	2200      	movs	r2, #0
 8000a0e:	6879      	ldr	r1, [r7, #4]
 8000a10:	2036      	movs	r0, #54	; 0x36
 8000a12:	f000 fc29 	bl	8001268 <HAL_NVIC_SetPriority>
        uwTickPrio = TickPriority;
 8000a16:	4a0a      	ldr	r2, [pc, #40]	; (8000a40 <HAL_InitTick+0xf0>)
 8000a18:	687b      	ldr	r3, [r7, #4]
 8000a1a:	6013      	str	r3, [r2, #0]
 8000a1c:	e002      	b.n	8000a24 <HAL_InitTick+0xd4>
      }
      else
      {
        status = HAL_ERROR;
 8000a1e:	2301      	movs	r3, #1
 8000a20:	f887 3033 	strb.w	r3, [r7, #51]	; 0x33
      }
    }
  }

 /* Return function status */
  return status;
 8000a24:	f897 3033 	ldrb.w	r3, [r7, #51]	; 0x33
}
 8000a28:	4618      	mov	r0, r3
 8000a2a:	3738      	adds	r7, #56	; 0x38
 8000a2c:	46bd      	mov	sp, r7
 8000a2e:	bd80      	pop	{r7, pc}
 8000a30:	40023800 	.word	0x40023800
 8000a34:	431bde83 	.word	0x431bde83
 8000a38:	200000ac 	.word	0x200000ac
 8000a3c:	40001000 	.word	0x40001000
 8000a40:	20000004 	.word	0x20000004

08000a44 <NMI_Handler>:
/******************************************************************************/
/**
  * @brief This function handles Non maskable interrupt.
  */
void NMI_Handler(void)
{
 8000a44:	b480      	push	{r7}
 8000a46:	af00      	add	r7, sp, #0
  /* USER CODE BEGIN NonMaskableInt_IRQn 0 */

  /* USER CODE END NonMaskableInt_IRQn 0 */
  /* USER CODE BEGIN NonMaskableInt_IRQn 1 */
   while (1)
 8000a48:	e7fe      	b.n	8000a48 <NMI_Handler+0x4>

08000a4a <HardFault_Handler>:

/**
  * @brief This function handles Hard fault interrupt.
  */
void HardFault_Handler(void)
{
 8000a4a:	b480      	push	{r7}
 8000a4c:	af00      	add	r7, sp, #0
  /* USER CODE BEGIN HardFault_IRQn 0 */

  /* USER CODE END HardFault_IRQn 0 */
  while (1)
 8000a4e:	e7fe      	b.n	8000a4e <HardFault_Handler+0x4>

08000a50 <MemManage_Handler>:

/**
  * @brief This function handles Memory management fault.
  */
void MemManage_Handler(void)
{
 8000a50:	b480      	push	{r7}
 8000a52:	af00      	add	r7, sp, #0
  /* USER CODE BEGIN MemoryManagement_IRQn 0 */

  /* USER CODE END MemoryManagement_IRQn 0 */
  while (1)
 8000a54:	e7fe      	b.n	8000a54 <MemManage_Handler+0x4>

08000a56 <BusFault_Handler>:

/**
  * @brief This function handles Pre-fetch fault, memory access fault.
  */
void BusFault_Handler(void)
{
 8000a56:	b480      	push	{r7}
 8000a58:	af00      	add	r7, sp, #0
  /* USER CODE BEGIN BusFault_IRQn 0 */

  /* USER CODE END BusFault_IRQn 0 */
  while (1)
 8000a5a:	e7fe      	b.n	8000a5a <BusFault_Handler+0x4>

08000a5c <UsageFault_Handler>:

/**
  * @brief This function handles Undefined instruction or illegal state.
  */
void UsageFault_Handler(void)
{
 8000a5c:	b480      	push	{r7}
 8000a5e:	af00      	add	r7, sp, #0
  /* USER CODE BEGIN UsageFault_IRQn 0 */

  /* USER CODE END UsageFault_IRQn 0 */
  while (1)
 8000a60:	e7fe      	b.n	8000a60 <UsageFault_Handler+0x4>

08000a62 <SVC_Handler>:

/**
  * @brief This function handles System service call via SWI instruction.
  */
void SVC_Handler(void)
{
 8000a62:	b480      	push	{r7}
 8000a64:	af00      	add	r7, sp, #0

  /* USER CODE END SVCall_IRQn 0 */
  /* USER CODE BEGIN SVCall_IRQn 1 */

  /* USER CODE END SVCall_IRQn 1 */
}
 8000a66:	bf00      	nop
 8000a68:	46bd      	mov	sp, r7
 8000a6a:	f85d 7b04 	ldr.w	r7, [sp], #4
 8000a6e:	4770      	bx	lr

08000a70 <DebugMon_Handler>:

/**
  * @brief This function handles Debug monitor.
  */
void DebugMon_Handler(void)
{
 8000a70:	b480      	push	{r7}
 8000a72:	af00      	add	r7, sp, #0

  /* USER CODE END DebugMonitor_IRQn 0 */
  /* USER CODE BEGIN DebugMonitor_IRQn 1 */

  /* USER CODE END DebugMonitor_IRQn 1 */
}
 8000a74:	bf00      	nop
 8000a76:	46bd      	mov	sp, r7
 8000a78:	f85d 7b04 	ldr.w	r7, [sp], #4
 8000a7c:	4770      	bx	lr

08000a7e <PendSV_Handler>:

/**
  * @brief This function handles Pendable request for system service.
  */
void PendSV_Handler(void)
{
 8000a7e:	b480      	push	{r7}
 8000a80:	af00      	add	r7, sp, #0

  /* USER CODE END PendSV_IRQn 0 */
  /* USER CODE BEGIN PendSV_IRQn 1 */

  /* USER CODE END PendSV_IRQn 1 */
}
 8000a82:	bf00      	nop
 8000a84:	46bd      	mov	sp, r7
 8000a86:	f85d 7b04 	ldr.w	r7, [sp], #4
 8000a8a:	4770      	bx	lr

08000a8c <SysTick_Handler>:

/**
  * @brief This function handles System tick timer.
  */
void SysTick_Handler(void)
{
 8000a8c:	b480      	push	{r7}
 8000a8e:	af00      	add	r7, sp, #0
  /* USER CODE END SysTick_IRQn 0 */

  /* USER CODE BEGIN SysTick_IRQn 1 */

  /* USER CODE END SysTick_IRQn 1 */
}
 8000a90:	bf00      	nop
 8000a92:	46bd      	mov	sp, r7
 8000a94:	f85d 7b04 	ldr.w	r7, [sp], #4
 8000a98:	4770      	bx	lr
	...

08000a9c <TIM6_DAC_IRQHandler>:

/**
  * @brief This function handles TIM6 global interrupt, DAC1 and DAC2 underrun error interrupts.
  */
void TIM6_DAC_IRQHandler(void)
{
 8000a9c:	b580      	push	{r7, lr}
 8000a9e:	af00      	add	r7, sp, #0
  /* USER CODE BEGIN TIM6_DAC_IRQn 0 */

  /* USER CODE END TIM6_DAC_IRQn 0 */
  HAL_TIM_IRQHandler(&htim6);
 8000aa0:	4802      	ldr	r0, [pc, #8]	; (8000aac <TIM6_DAC_IRQHandler+0x10>)
 8000aa2:	f001 fbad 	bl	8002200 <HAL_TIM_IRQHandler>
  /* USER CODE BEGIN TIM6_DAC_IRQn 1 */

  /* USER CODE END TIM6_DAC_IRQn 1 */
}
 8000aa6:	bf00      	nop
 8000aa8:	bd80      	pop	{r7, pc}
 8000aaa:	bf00      	nop
 8000aac:	200000ac 	.word	0x200000ac

08000ab0 <_read>:
  _kill(status, -1);
  while (1) {}    /* Make sure we hang here */
}

__attribute__((weak)) int _read(int file, char *ptr, int len)
{
 8000ab0:	b580      	push	{r7, lr}
 8000ab2:	b086      	sub	sp, #24
 8000ab4:	af00      	add	r7, sp, #0
 8000ab6:	60f8      	str	r0, [r7, #12]
 8000ab8:	60b9      	str	r1, [r7, #8]
 8000aba:	607a      	str	r2, [r7, #4]
  (void)file;
  int DataIdx;

  for (DataIdx = 0; DataIdx < len; DataIdx++)
 8000abc:	2300      	movs	r3, #0
 8000abe:	617b      	str	r3, [r7, #20]
 8000ac0:	e00a      	b.n	8000ad8 <_read+0x28>
  {
    *ptr++ = __io_getchar();
 8000ac2:	f3af 8000 	nop.w
 8000ac6:	4601      	mov	r1, r0
 8000ac8:	68bb      	ldr	r3, [r7, #8]
 8000aca:	1c5a      	adds	r2, r3, #1
 8000acc:	60ba      	str	r2, [r7, #8]
 8000ace:	b2ca      	uxtb	r2, r1
 8000ad0:	701a      	strb	r2, [r3, #0]
  for (DataIdx = 0; DataIdx < len; DataIdx++)
 8000ad2:	697b      	ldr	r3, [r7, #20]
 8000ad4:	3301      	adds	r3, #1
 8000ad6:	617b      	str	r3, [r7, #20]
 8000ad8:	697a      	ldr	r2, [r7, #20]
 8000ada:	687b      	ldr	r3, [r7, #4]
 8000adc:	429a      	cmp	r2, r3
 8000ade:	dbf0      	blt.n	8000ac2 <_read+0x12>
  }

  return len;
 8000ae0:	687b      	ldr	r3, [r7, #4]
}
 8000ae2:	4618      	mov	r0, r3
 8000ae4:	3718      	adds	r7, #24
 8000ae6:	46bd      	mov	sp, r7
 8000ae8:	bd80      	pop	{r7, pc}

08000aea <_close>:
  }
  return len;
}

int _close(int file)
{
 8000aea:	b480      	push	{r7}
 8000aec:	b083      	sub	sp, #12
 8000aee:	af00      	add	r7, sp, #0
 8000af0:	6078      	str	r0, [r7, #4]
  (void)file;
  return -1;
 8000af2:	f04f 33ff 	mov.w	r3, #4294967295
}
 8000af6:	4618      	mov	r0, r3
 8000af8:	370c      	adds	r7, #12
 8000afa:	46bd      	mov	sp, r7
 8000afc:	f85d 7b04 	ldr.w	r7, [sp], #4
 8000b00:	4770      	bx	lr

08000b02 <_fstat>:


int _fstat(int file, struct stat *st)
{
 8000b02:	b480      	push	{r7}
 8000b04:	b083      	sub	sp, #12
 8000b06:	af00      	add	r7, sp, #0
 8000b08:	6078      	str	r0, [r7, #4]
 8000b0a:	6039      	str	r1, [r7, #0]
  (void)file;
  st->st_mode = S_IFCHR;
 8000b0c:	683b      	ldr	r3, [r7, #0]
 8000b0e:	f44f 5200 	mov.w	r2, #8192	; 0x2000
 8000b12:	605a      	str	r2, [r3, #4]
  return 0;
 8000b14:	2300      	movs	r3, #0
}
 8000b16:	4618      	mov	r0, r3
 8000b18:	370c      	adds	r7, #12
 8000b1a:	46bd      	mov	sp, r7
 8000b1c:	f85d 7b04 	ldr.w	r7, [sp], #4
 8000b20:	4770      	bx	lr

08000b22 <_isatty>:

int _isatty(int file)
{
 8000b22:	b480      	push	{r7}
 8000b24:	b083      	sub	sp, #12
 8000b26:	af00      	add	r7, sp, #0
 8000b28:	6078      	str	r0, [r7, #4]
  (void)file;
  return 1;
 8000b2a:	2301      	movs	r3, #1
}
 8000b2c:	4618      	mov	r0, r3
 8000b2e:	370c      	adds	r7, #12
 8000b30:	46bd      	mov	sp, r7
 8000b32:	f85d 7b04 	ldr.w	r7, [sp], #4
 8000b36:	4770      	bx	lr

08000b38 <_lseek>:

int _lseek(int file, int ptr, int dir)
{
 8000b38:	b480      	push	{r7}
 8000b3a:	b085      	sub	sp, #20
 8000b3c:	af00      	add	r7, sp, #0
 8000b3e:	60f8      	str	r0, [r7, #12]
 8000b40:	60b9      	str	r1, [r7, #8]
 8000b42:	607a      	str	r2, [r7, #4]
  (void)file;
  (void)ptr;
  (void)dir;
  return 0;
 8000b44:	2300      	movs	r3, #0
}
 8000b46:	4618      	mov	r0, r3
 8000b48:	3714      	adds	r7, #20
 8000b4a:	46bd      	mov	sp, r7
 8000b4c:	f85d 7b04 	ldr.w	r7, [sp], #4
 8000b50:	4770      	bx	lr
	...

08000b54 <_sbrk>:
 *
 * @param incr Memory size
 * @return Pointer to allocated memory
 */
void *_sbrk(ptrdiff_t incr)
{
 8000b54:	b580      	push	{r7, lr}
 8000b56:	b086      	sub	sp, #24
 8000b58:	af00      	add	r7, sp, #0
 8000b5a:	6078      	str	r0, [r7, #4]
  extern uint8_t _end; /* Symbol defined in the linker script */
  extern uint8_t _estack; /* Symbol defined in the linker script */
  extern uint32_t _Min_Stack_Size; /* Symbol defined in the linker script */
  const uint32_t stack_limit = (uint32_t)&_estack - (uint32_t)&_Min_Stack_Size;
 8000b5c:	4a14      	ldr	r2, [pc, #80]	; (8000bb0 <_sbrk+0x5c>)
 8000b5e:	4b15      	ldr	r3, [pc, #84]	; (8000bb4 <_sbrk+0x60>)
 8000b60:	1ad3      	subs	r3, r2, r3
 8000b62:	617b      	str	r3, [r7, #20]
  const uint8_t *max_heap = (uint8_t *)stack_limit;
 8000b64:	697b      	ldr	r3, [r7, #20]
 8000b66:	613b      	str	r3, [r7, #16]
  uint8_t *prev_heap_end;

  /* Initialize heap end at first call */
  if (NULL == __sbrk_heap_end)
 8000b68:	4b13      	ldr	r3, [pc, #76]	; (8000bb8 <_sbrk+0x64>)
 8000b6a:	681b      	ldr	r3, [r3, #0]
 8000b6c:	2b00      	cmp	r3, #0
 8000b6e:	d102      	bne.n	8000b76 <_sbrk+0x22>
  {
    __sbrk_heap_end = &_end;
 8000b70:	4b11      	ldr	r3, [pc, #68]	; (8000bb8 <_sbrk+0x64>)
 8000b72:	4a12      	ldr	r2, [pc, #72]	; (8000bbc <_sbrk+0x68>)
 8000b74:	601a      	str	r2, [r3, #0]
  }

  /* Protect heap from growing into the reserved MSP stack */
  if (__sbrk_heap_end + incr > max_heap)
 8000b76:	4b10      	ldr	r3, [pc, #64]	; (8000bb8 <_sbrk+0x64>)
 8000b78:	681a      	ldr	r2, [r3, #0]
 8000b7a:	687b      	ldr	r3, [r7, #4]
 8000b7c:	4413      	add	r3, r2
 8000b7e:	693a      	ldr	r2, [r7, #16]
 8000b80:	429a      	cmp	r2, r3
 8000b82:	d207      	bcs.n	8000b94 <_sbrk+0x40>
  {
    errno = ENOMEM;
 8000b84:	f001 ff86 	bl	8002a94 <__errno>
 8000b88:	4603      	mov	r3, r0
 8000b8a:	220c      	movs	r2, #12
 8000b8c:	601a      	str	r2, [r3, #0]
    return (void *)-1;
 8000b8e:	f04f 33ff 	mov.w	r3, #4294967295
 8000b92:	e009      	b.n	8000ba8 <_sbrk+0x54>
  }

  prev_heap_end = __sbrk_heap_end;
 8000b94:	4b08      	ldr	r3, [pc, #32]	; (8000bb8 <_sbrk+0x64>)
 8000b96:	681b      	ldr	r3, [r3, #0]
 8000b98:	60fb      	str	r3, [r7, #12]
  __sbrk_heap_end += incr;
 8000b9a:	4b07      	ldr	r3, [pc, #28]	; (8000bb8 <_sbrk+0x64>)
 8000b9c:	681a      	ldr	r2, [r3, #0]
 8000b9e:	687b      	ldr	r3, [r7, #4]
 8000ba0:	4413      	add	r3, r2
 8000ba2:	4a05      	ldr	r2, [pc, #20]	; (8000bb8 <_sbrk+0x64>)
 8000ba4:	6013      	str	r3, [r2, #0]

  return (void *)prev_heap_end;
 8000ba6:	68fb      	ldr	r3, [r7, #12]
}
 8000ba8:	4618      	mov	r0, r3
 8000baa:	3718      	adds	r7, #24
 8000bac:	46bd      	mov	sp, r7
 8000bae:	bd80      	pop	{r7, pc}
 8000bb0:	20080000 	.word	0x20080000
 8000bb4:	00000400 	.word	0x00000400
 8000bb8:	200000f8 	.word	0x200000f8
 8000bbc:	20000250 	.word	0x20000250

08000bc0 <SystemInit>:
  *         SystemFrequency variable.
  * @param  None
  * @retval None
  */
void SystemInit(void)
{
 8000bc0:	b480      	push	{r7}
 8000bc2:	af00      	add	r7, sp, #0
  /* FPU settings ------------------------------------------------------------*/
#if (__FPU_PRESENT == 1) && (__FPU_USED == 1)
  SCB->CPACR |= ((3UL << 10*2)|(3UL << 11*2));  /* set CP10 and CP11 Full Access */
 8000bc4:	4b06      	ldr	r3, [pc, #24]	; (8000be0 <SystemInit+0x20>)
 8000bc6:	f8d3 3088 	ldr.w	r3, [r3, #136]	; 0x88
 8000bca:	4a05      	ldr	r2, [pc, #20]	; (8000be0 <SystemInit+0x20>)
 8000bcc:	f443 0370 	orr.w	r3, r3, #15728640	; 0xf00000
 8000bd0:	f8c2 3088 	str.w	r3, [r2, #136]	; 0x88

  /* Configure the Vector Table location -------------------------------------*/
#if defined(USER_VECT_TAB_ADDRESS)
  SCB->VTOR = VECT_TAB_BASE_ADDRESS | VECT_TAB_OFFSET; /* Vector Table Relocation in Internal SRAM */
#endif /* USER_VECT_TAB_ADDRESS */
}
 8000bd4:	bf00      	nop
 8000bd6:	46bd      	mov	sp, r7
 8000bd8:	f85d 7b04 	ldr.w	r7, [sp], #4
 8000bdc:	4770      	bx	lr
 8000bde:	bf00      	nop
 8000be0:	e000ed00 	.word	0xe000ed00

08000be4 <Reset_Handler>:

    .section  .text.Reset_Handler
  .weak  Reset_Handler
  .type  Reset_Handler, %function
Reset_Handler:  
  ldr   sp, =_estack      /* set stack pointer */
 8000be4:	f8df d034 	ldr.w	sp, [pc, #52]	; 8000c1c <LoopFillZerobss+0x12>

/* Copy the data segment initializers from flash to SRAM */  
  ldr r0, =_sdata
 8000be8:	480d      	ldr	r0, [pc, #52]	; (8000c20 <LoopFillZerobss+0x16>)
  ldr r1, =_edata
 8000bea:	490e      	ldr	r1, [pc, #56]	; (8000c24 <LoopFillZerobss+0x1a>)
  ldr r2, =_sidata
 8000bec:	4a0e      	ldr	r2, [pc, #56]	; (8000c28 <LoopFillZerobss+0x1e>)
  movs r3, #0
 8000bee:	2300      	movs	r3, #0
  b LoopCopyDataInit
 8000bf0:	e002      	b.n	8000bf8 <LoopCopyDataInit>

08000bf2 <CopyDataInit>:

CopyDataInit:
  ldr r4, [r2, r3]
 8000bf2:	58d4      	ldr	r4, [r2, r3]
  str r4, [r0, r3]
 8000bf4:	50c4      	str	r4, [r0, r3]
  adds r3, r3, #4
 8000bf6:	3304      	adds	r3, #4

08000bf8 <LoopCopyDataInit>:

LoopCopyDataInit:
  adds r4, r0, r3
 8000bf8:	18c4      	adds	r4, r0, r3
  cmp r4, r1
 8000bfa:	428c      	cmp	r4, r1
  bcc CopyDataInit
 8000bfc:	d3f9      	bcc.n	8000bf2 <CopyDataInit>
  
/* Zero fill the bss segment. */
  ldr r2, =_sbss
 8000bfe:	4a0b      	ldr	r2, [pc, #44]	; (8000c2c <LoopFillZerobss+0x22>)
  ldr r4, =_ebss
 8000c00:	4c0b      	ldr	r4, [pc, #44]	; (8000c30 <LoopFillZerobss+0x26>)
  movs r3, #0
 8000c02:	2300      	movs	r3, #0
  b LoopFillZerobss
 8000c04:	e001      	b.n	8000c0a <LoopFillZerobss>

08000c06 <FillZerobss>:

FillZerobss:
  str  r3, [r2]
 8000c06:	6013      	str	r3, [r2, #0]
  adds r2, r2, #4
 8000c08:	3204      	adds	r2, #4

08000c0a <LoopFillZerobss>:

LoopFillZerobss:
  cmp r2, r4
 8000c0a:	42a2      	cmp	r2, r4
  bcc FillZerobss
 8000c0c:	d3fb      	bcc.n	8000c06 <FillZerobss>

/* Call the clock system initialization function.*/
  bl  SystemInit   
 8000c0e:	f7ff ffd7 	bl	8000bc0 <SystemInit>
/* Call static constructors */
    bl __libc_init_array
 8000c12:	f001 ff45 	bl	8002aa0 <__libc_init_array>
/* Call the application's entry point.*/
  bl  main
 8000c16:	f7ff fdad 	bl	8000774 <main>
  bx  lr    
 8000c1a:	4770      	bx	lr
  ldr   sp, =_estack      /* set stack pointer */
 8000c1c:	20080000 	.word	0x20080000
  ldr r0, =_sdata
 8000c20:	20000000 	.word	0x20000000
  ldr r1, =_edata
 8000c24:	20000068 	.word	0x20000068
  ldr r2, =_sidata
 8000c28:	08002fb4 	.word	0x08002fb4
  ldr r2, =_sbss
 8000c2c:	20000068 	.word	0x20000068
  ldr r4, =_ebss
 8000c30:	2000024c 	.word	0x2000024c

08000c34 <ADC_IRQHandler>:
 * @retval None       
*/
    .section  .text.Default_Handler,"ax",%progbits
Default_Handler:
Infinite_Loop:
  b  Infinite_Loop
 8000c34:	e7fe      	b.n	8000c34 <ADC_IRQHandler>

08000c36 <HAL_Init>:
  *         need to ensure that the SysTick time base is always set to 1 millisecond
  *         to have correct HAL operation.
  * @retval HAL status
  */
HAL_StatusTypeDef HAL_Init(void)
{
 8000c36:	b580      	push	{r7, lr}
 8000c38:	af00      	add	r7, sp, #0
#if (PREFETCH_ENABLE != 0U)
  __HAL_FLASH_PREFETCH_BUFFER_ENABLE();
#endif /* PREFETCH_ENABLE */

  /* Set Interrupt Group Priority */
  HAL_NVIC_SetPriorityGrouping(NVIC_PRIORITYGROUP_4);
 8000c3a:	2003      	movs	r0, #3
 8000c3c:	f000 fb09 	bl	8001252 <HAL_NVIC_SetPriorityGrouping>

  /* Use systick as time base source and configure 1ms tick (default clock after Reset is HSI) */
  HAL_InitTick(TICK_INT_PRIORITY);
 8000c40:	200f      	movs	r0, #15
 8000c42:	f7ff fe85 	bl	8000950 <HAL_InitTick>

  /* Init the low level hardware */
  HAL_MspInit();
 8000c46:	f7ff fe5f 	bl	8000908 <HAL_MspInit>

  /* Return function status */
  return HAL_OK;
 8000c4a:	2300      	movs	r3, #0
}
 8000c4c:	4618      	mov	r0, r3
 8000c4e:	bd80      	pop	{r7, pc}

08000c50 <HAL_IncTick>:
 * @note This function is declared as __weak to be overwritten in case of other 
  *      implementations in user file.
  * @retval None
  */
__weak void HAL_IncTick(void)
{
 8000c50:	b480      	push	{r7}
 8000c52:	af00      	add	r7, sp, #0
  uwTick += uwTickFreq;
 8000c54:	4b06      	ldr	r3, [pc, #24]	; (8000c70 <HAL_IncTick+0x20>)
 8000c56:	781b      	ldrb	r3, [r3, #0]
 8000c58:	461a      	mov	r2, r3
 8000c5a:	4b06      	ldr	r3, [pc, #24]	; (8000c74 <HAL_IncTick+0x24>)
 8000c5c:	681b      	ldr	r3, [r3, #0]
 8000c5e:	4413      	add	r3, r2
 8000c60:	4a04      	ldr	r2, [pc, #16]	; (8000c74 <HAL_IncTick+0x24>)
 8000c62:	6013      	str	r3, [r2, #0]
}
 8000c64:	bf00      	nop
 8000c66:	46bd      	mov	sp, r7
 8000c68:	f85d 7b04 	ldr.w	r7, [sp], #4
 8000c6c:	4770      	bx	lr
 8000c6e:	bf00      	nop
 8000c70:	20000008 	.word	0x20000008
 8000c74:	200000fc 	.word	0x200000fc

08000c78 <HAL_GetTick>:
  * @note This function is declared as __weak to be overwritten in case of other 
  *       implementations in user file.
  * @retval tick value
  */
__weak uint32_t HAL_GetTick(void)
{
 8000c78:	b480      	push	{r7}
 8000c7a:	af00      	add	r7, sp, #0
  return uwTick;
 8000c7c:	4b03      	ldr	r3, [pc, #12]	; (8000c8c <HAL_GetTick+0x14>)
 8000c7e:	681b      	ldr	r3, [r3, #0]
}
 8000c80:	4618      	mov	r0, r3
 8000c82:	46bd      	mov	sp, r7
 8000c84:	f85d 7b04 	ldr.w	r7, [sp], #4
 8000c88:	4770      	bx	lr
 8000c8a:	bf00      	nop
 8000c8c:	200000fc 	.word	0x200000fc

08000c90 <HAL_Delay>:
  *       implementations in user file.
  * @param Delay  specifies the delay time length, in milliseconds.
  * @retval None
  */
__weak void HAL_Delay(uint32_t Delay)
{
 8000c90:	b580      	push	{r7, lr}
 8000c92:	b084      	sub	sp, #16
 8000c94:	af00      	add	r7, sp, #0
 8000c96:	6078      	str	r0, [r7, #4]
  uint32_t tickstart = HAL_GetTick();
 8000c98:	f7ff ffee 	bl	8000c78 <HAL_GetTick>
 8000c9c:	60b8      	str	r0, [r7, #8]
  uint32_t wait = Delay;
 8000c9e:	687b      	ldr	r3, [r7, #4]
 8000ca0:	60fb      	str	r3, [r7, #12]

  /* Add a freq to guarantee minimum wait */
  if (wait < HAL_MAX_DELAY)
 8000ca2:	68fb      	ldr	r3, [r7, #12]
 8000ca4:	f1b3 3fff 	cmp.w	r3, #4294967295
 8000ca8:	d005      	beq.n	8000cb6 <HAL_Delay+0x26>
  {
    wait += (uint32_t)(uwTickFreq);
 8000caa:	4b0a      	ldr	r3, [pc, #40]	; (8000cd4 <HAL_Delay+0x44>)
 8000cac:	781b      	ldrb	r3, [r3, #0]
 8000cae:	461a      	mov	r2, r3
 8000cb0:	68fb      	ldr	r3, [r7, #12]
 8000cb2:	4413      	add	r3, r2
 8000cb4:	60fb      	str	r3, [r7, #12]
  }

  while ((HAL_GetTick() - tickstart) < wait)
 8000cb6:	bf00      	nop
 8000cb8:	f7ff ffde 	bl	8000c78 <HAL_GetTick>
 8000cbc:	4602      	mov	r2, r0
 8000cbe:	68bb      	ldr	r3, [r7, #8]
 8000cc0:	1ad3      	subs	r3, r2, r3
 8000cc2:	68fa      	ldr	r2, [r7, #12]
 8000cc4:	429a      	cmp	r2, r3
 8000cc6:	d8f7      	bhi.n	8000cb8 <HAL_Delay+0x28>
  {
  }
}
 8000cc8:	bf00      	nop
 8000cca:	bf00      	nop
 8000ccc:	3710      	adds	r7, #16
 8000cce:	46bd      	mov	sp, r7
 8000cd0:	bd80      	pop	{r7, pc}
 8000cd2:	bf00      	nop
 8000cd4:	20000008 	.word	0x20000008

08000cd8 <HAL_CAN_Init>:
  * @param  hcan pointer to a CAN_HandleTypeDef structure that contains
  *         the configuration information for the specified CAN.
  * @retval HAL status
  */
HAL_StatusTypeDef HAL_CAN_Init(CAN_HandleTypeDef *hcan)
{
 8000cd8:	b580      	push	{r7, lr}
 8000cda:	b084      	sub	sp, #16
 8000cdc:	af00      	add	r7, sp, #0
 8000cde:	6078      	str	r0, [r7, #4]
  uint32_t tickstart;

  /* Check CAN handle */
  if (hcan == NULL)
 8000ce0:	687b      	ldr	r3, [r7, #4]
 8000ce2:	2b00      	cmp	r3, #0
 8000ce4:	d101      	bne.n	8000cea <HAL_CAN_Init+0x12>
  {
    return HAL_ERROR;
 8000ce6:	2301      	movs	r3, #1
 8000ce8:	e0ed      	b.n	8000ec6 <HAL_CAN_Init+0x1ee>
    /* Init the low level hardware: CLOCK, NVIC */
    hcan->MspInitCallback(hcan);
  }

#else
  if (hcan->State == HAL_CAN_STATE_RESET)
 8000cea:	687b      	ldr	r3, [r7, #4]
 8000cec:	f893 3020 	ldrb.w	r3, [r3, #32]
 8000cf0:	b2db      	uxtb	r3, r3
 8000cf2:	2b00      	cmp	r3, #0
 8000cf4:	d102      	bne.n	8000cfc <HAL_CAN_Init+0x24>
  {
    /* Init the low level hardware: CLOCK, NVIC */
    HAL_CAN_MspInit(hcan);
 8000cf6:	6878      	ldr	r0, [r7, #4]
 8000cf8:	f7ff fc52 	bl	80005a0 <HAL_CAN_MspInit>
  }
#endif /* (USE_HAL_CAN_REGISTER_CALLBACKS) */

  /* Request initialisation */
  SET_BIT(hcan->Instance->MCR, CAN_MCR_INRQ);
 8000cfc:	687b      	ldr	r3, [r7, #4]
 8000cfe:	681b      	ldr	r3, [r3, #0]
 8000d00:	681a      	ldr	r2, [r3, #0]
 8000d02:	687b      	ldr	r3, [r7, #4]
 8000d04:	681b      	ldr	r3, [r3, #0]
 8000d06:	f042 0201 	orr.w	r2, r2, #1
 8000d0a:	601a      	str	r2, [r3, #0]

  /* Get tick */
  tickstart = HAL_GetTick();
 8000d0c:	f7ff ffb4 	bl	8000c78 <HAL_GetTick>
 8000d10:	60f8      	str	r0, [r7, #12]

  /* Wait initialisation acknowledge */
  while ((hcan->Instance->MSR & CAN_MSR_INAK) == 0U)
 8000d12:	e012      	b.n	8000d3a <HAL_CAN_Init+0x62>
  {
    if ((HAL_GetTick() - tickstart) > CAN_TIMEOUT_VALUE)
 8000d14:	f7ff ffb0 	bl	8000c78 <HAL_GetTick>
 8000d18:	4602      	mov	r2, r0
 8000d1a:	68fb      	ldr	r3, [r7, #12]
 8000d1c:	1ad3      	subs	r3, r2, r3
 8000d1e:	2b0a      	cmp	r3, #10
 8000d20:	d90b      	bls.n	8000d3a <HAL_CAN_Init+0x62>
    {
      /* Update error code */
      hcan->ErrorCode |= HAL_CAN_ERROR_TIMEOUT;
 8000d22:	687b      	ldr	r3, [r7, #4]
 8000d24:	6a5b      	ldr	r3, [r3, #36]	; 0x24
 8000d26:	f443 3200 	orr.w	r2, r3, #131072	; 0x20000
 8000d2a:	687b      	ldr	r3, [r7, #4]
 8000d2c:	625a      	str	r2, [r3, #36]	; 0x24

      /* Change CAN state */
      hcan->State = HAL_CAN_STATE_ERROR;
 8000d2e:	687b      	ldr	r3, [r7, #4]
 8000d30:	2205      	movs	r2, #5
 8000d32:	f883 2020 	strb.w	r2, [r3, #32]

      return HAL_ERROR;
 8000d36:	2301      	movs	r3, #1
 8000d38:	e0c5      	b.n	8000ec6 <HAL_CAN_Init+0x1ee>
  while ((hcan->Instance->MSR & CAN_MSR_INAK) == 0U)
 8000d3a:	687b      	ldr	r3, [r7, #4]
 8000d3c:	681b      	ldr	r3, [r3, #0]
 8000d3e:	685b      	ldr	r3, [r3, #4]
 8000d40:	f003 0301 	and.w	r3, r3, #1
 8000d44:	2b00      	cmp	r3, #0
 8000d46:	d0e5      	beq.n	8000d14 <HAL_CAN_Init+0x3c>
    }
  }

  /* Exit from sleep mode */
  CLEAR_BIT(hcan->Instance->MCR, CAN_MCR_SLEEP);
 8000d48:	687b      	ldr	r3, [r7, #4]
 8000d4a:	681b      	ldr	r3, [r3, #0]
 8000d4c:	681a      	ldr	r2, [r3, #0]
 8000d4e:	687b      	ldr	r3, [r7, #4]
 8000d50:	681b      	ldr	r3, [r3, #0]
 8000d52:	f022 0202 	bic.w	r2, r2, #2
 8000d56:	601a      	str	r2, [r3, #0]

  /* Get tick */
  tickstart = HAL_GetTick();
 8000d58:	f7ff ff8e 	bl	8000c78 <HAL_GetTick>
 8000d5c:	60f8      	str	r0, [r7, #12]

  /* Check Sleep mode leave acknowledge */
  while ((hcan->Instance->MSR & CAN_MSR_SLAK) != 0U)
 8000d5e:	e012      	b.n	8000d86 <HAL_CAN_Init+0xae>
  {
    if ((HAL_GetTick() - tickstart) > CAN_TIMEOUT_VALUE)
 8000d60:	f7ff ff8a 	bl	8000c78 <HAL_GetTick>
 8000d64:	4602      	mov	r2, r0
 8000d66:	68fb      	ldr	r3, [r7, #12]
 8000d68:	1ad3      	subs	r3, r2, r3
 8000d6a:	2b0a      	cmp	r3, #10
 8000d6c:	d90b      	bls.n	8000d86 <HAL_CAN_Init+0xae>
    {
      /* Update error code */
      hcan->ErrorCode |= HAL_CAN_ERROR_TIMEOUT;
 8000d6e:	687b      	ldr	r3, [r7, #4]
 8000d70:	6a5b      	ldr	r3, [r3, #36]	; 0x24
 8000d72:	f443 3200 	orr.w	r2, r3, #131072	; 0x20000
 8000d76:	687b      	ldr	r3, [r7, #4]
 8000d78:	625a      	str	r2, [r3, #36]	; 0x24

      /* Change CAN state */
      hcan->State = HAL_CAN_STATE_ERROR;
 8000d7a:	687b      	ldr	r3, [r7, #4]
 8000d7c:	2205      	movs	r2, #5
 8000d7e:	f883 2020 	strb.w	r2, [r3, #32]

      return HAL_ERROR;
 8000d82:	2301      	movs	r3, #1
 8000d84:	e09f      	b.n	8000ec6 <HAL_CAN_Init+0x1ee>
  while ((hcan->Instance->MSR & CAN_MSR_SLAK) != 0U)
 8000d86:	687b      	ldr	r3, [r7, #4]
 8000d88:	681b      	ldr	r3, [r3, #0]
 8000d8a:	685b      	ldr	r3, [r3, #4]
 8000d8c:	f003 0302 	and.w	r3, r3, #2
 8000d90:	2b00      	cmp	r3, #0
 8000d92:	d1e5      	bne.n	8000d60 <HAL_CAN_Init+0x88>
    }
  }

  /* Set the time triggered communication mode */
  if (hcan->Init.TimeTriggeredMode == ENABLE)
 8000d94:	687b      	ldr	r3, [r7, #4]
 8000d96:	7e1b      	ldrb	r3, [r3, #24]
 8000d98:	2b01      	cmp	r3, #1
 8000d9a:	d108      	bne.n	8000dae <HAL_CAN_Init+0xd6>
  {
    SET_BIT(hcan->Instance->MCR, CAN_MCR_TTCM);
 8000d9c:	687b      	ldr	r3, [r7, #4]
 8000d9e:	681b      	ldr	r3, [r3, #0]
 8000da0:	681a      	ldr	r2, [r3, #0]
 8000da2:	687b      	ldr	r3, [r7, #4]
 8000da4:	681b      	ldr	r3, [r3, #0]
 8000da6:	f042 0280 	orr.w	r2, r2, #128	; 0x80
 8000daa:	601a      	str	r2, [r3, #0]
 8000dac:	e007      	b.n	8000dbe <HAL_CAN_Init+0xe6>
  }
  else
  {
    CLEAR_BIT(hcan->Instance->MCR, CAN_MCR_TTCM);
 8000dae:	687b      	ldr	r3, [r7, #4]
 8000db0:	681b      	ldr	r3, [r3, #0]
 8000db2:	681a      	ldr	r2, [r3, #0]
 8000db4:	687b      	ldr	r3, [r7, #4]
 8000db6:	681b      	ldr	r3, [r3, #0]
 8000db8:	f022 0280 	bic.w	r2, r2, #128	; 0x80
 8000dbc:	601a      	str	r2, [r3, #0]
  }

  /* Set the automatic bus-off management */
  if (hcan->Init.AutoBusOff == ENABLE)
 8000dbe:	687b      	ldr	r3, [r7, #4]
 8000dc0:	7e5b      	ldrb	r3, [r3, #25]
 8000dc2:	2b01      	cmp	r3, #1
 8000dc4:	d108      	bne.n	8000dd8 <HAL_CAN_Init+0x100>
  {
    SET_BIT(hcan->Instance->MCR, CAN_MCR_ABOM);
 8000dc6:	687b      	ldr	r3, [r7, #4]
 8000dc8:	681b      	ldr	r3, [r3, #0]
 8000dca:	681a      	ldr	r2, [r3, #0]
 8000dcc:	687b      	ldr	r3, [r7, #4]
 8000dce:	681b      	ldr	r3, [r3, #0]
 8000dd0:	f042 0240 	orr.w	r2, r2, #64	; 0x40
 8000dd4:	601a      	str	r2, [r3, #0]
 8000dd6:	e007      	b.n	8000de8 <HAL_CAN_Init+0x110>
  }
  else
  {
    CLEAR_BIT(hcan->Instance->MCR, CAN_MCR_ABOM);
 8000dd8:	687b      	ldr	r3, [r7, #4]
 8000dda:	681b      	ldr	r3, [r3, #0]
 8000ddc:	681a      	ldr	r2, [r3, #0]
 8000dde:	687b      	ldr	r3, [r7, #4]
 8000de0:	681b      	ldr	r3, [r3, #0]
 8000de2:	f022 0240 	bic.w	r2, r2, #64	; 0x40
 8000de6:	601a      	str	r2, [r3, #0]
  }

  /* Set the automatic wake-up mode */
  if (hcan->Init.AutoWakeUp == ENABLE)
 8000de8:	687b      	ldr	r3, [r7, #4]
 8000dea:	7e9b      	ldrb	r3, [r3, #26]
 8000dec:	2b01      	cmp	r3, #1
 8000dee:	d108      	bne.n	8000e02 <HAL_CAN_Init+0x12a>
  {
    SET_BIT(hcan->Instance->MCR, CAN_MCR_AWUM);
 8000df0:	687b      	ldr	r3, [r7, #4]
 8000df2:	681b      	ldr	r3, [r3, #0]
 8000df4:	681a      	ldr	r2, [r3, #0]
 8000df6:	687b      	ldr	r3, [r7, #4]
 8000df8:	681b      	ldr	r3, [r3, #0]
 8000dfa:	f042 0220 	orr.w	r2, r2, #32
 8000dfe:	601a      	str	r2, [r3, #0]
 8000e00:	e007      	b.n	8000e12 <HAL_CAN_Init+0x13a>
  }
  else
  {
    CLEAR_BIT(hcan->Instance->MCR, CAN_MCR_AWUM);
 8000e02:	687b      	ldr	r3, [r7, #4]
 8000e04:	681b      	ldr	r3, [r3, #0]
 8000e06:	681a      	ldr	r2, [r3, #0]
 8000e08:	687b      	ldr	r3, [r7, #4]
 8000e0a:	681b      	ldr	r3, [r3, #0]
 8000e0c:	f022 0220 	bic.w	r2, r2, #32
 8000e10:	601a      	str	r2, [r3, #0]
  }

  /* Set the automatic retransmission */
  if (hcan->Init.AutoRetransmission == ENABLE)
 8000e12:	687b      	ldr	r3, [r7, #4]
 8000e14:	7edb      	ldrb	r3, [r3, #27]
 8000e16:	2b01      	cmp	r3, #1
 8000e18:	d108      	bne.n	8000e2c <HAL_CAN_Init+0x154>
  {
    CLEAR_BIT(hcan->Instance->MCR, CAN_MCR_NART);
 8000e1a:	687b      	ldr	r3, [r7, #4]
 8000e1c:	681b      	ldr	r3, [r3, #0]
 8000e1e:	681a      	ldr	r2, [r3, #0]
 8000e20:	687b      	ldr	r3, [r7, #4]
 8000e22:	681b      	ldr	r3, [r3, #0]
 8000e24:	f022 0210 	bic.w	r2, r2, #16
 8000e28:	601a      	str	r2, [r3, #0]
 8000e2a:	e007      	b.n	8000e3c <HAL_CAN_Init+0x164>
  }
  else
  {
    SET_BIT(hcan->Instance->MCR, CAN_MCR_NART);
 8000e2c:	687b      	ldr	r3, [r7, #4]
 8000e2e:	681b      	ldr	r3, [r3, #0]
 8000e30:	681a      	ldr	r2, [r3, #0]
 8000e32:	687b      	ldr	r3, [r7, #4]
 8000e34:	681b      	ldr	r3, [r3, #0]
 8000e36:	f042 0210 	orr.w	r2, r2, #16
 8000e3a:	601a      	str	r2, [r3, #0]
  }

  /* Set the receive FIFO locked mode */
  if (hcan->Init.ReceiveFifoLocked == ENABLE)
 8000e3c:	687b      	ldr	r3, [r7, #4]
 8000e3e:	7f1b      	ldrb	r3, [r3, #28]
 8000e40:	2b01      	cmp	r3, #1
 8000e42:	d108      	bne.n	8000e56 <HAL_CAN_Init+0x17e>
  {
    SET_BIT(hcan->Instance->MCR, CAN_MCR_RFLM);
 8000e44:	687b      	ldr	r3, [r7, #4]
 8000e46:	681b      	ldr	r3, [r3, #0]
 8000e48:	681a      	ldr	r2, [r3, #0]
 8000e4a:	687b      	ldr	r3, [r7, #4]
 8000e4c:	681b      	ldr	r3, [r3, #0]
 8000e4e:	f042 0208 	orr.w	r2, r2, #8
 8000e52:	601a      	str	r2, [r3, #0]
 8000e54:	e007      	b.n	8000e66 <HAL_CAN_Init+0x18e>
  }
  else
  {
    CLEAR_BIT(hcan->Instance->MCR, CAN_MCR_RFLM);
 8000e56:	687b      	ldr	r3, [r7, #4]
 8000e58:	681b      	ldr	r3, [r3, #0]
 8000e5a:	681a      	ldr	r2, [r3, #0]
 8000e5c:	687b      	ldr	r3, [r7, #4]
 8000e5e:	681b      	ldr	r3, [r3, #0]
 8000e60:	f022 0208 	bic.w	r2, r2, #8
 8000e64:	601a      	str	r2, [r3, #0]
  }

  /* Set the transmit FIFO priority */
  if (hcan->Init.TransmitFifoPriority == ENABLE)
 8000e66:	687b      	ldr	r3, [r7, #4]
 8000e68:	7f5b      	ldrb	r3, [r3, #29]
 8000e6a:	2b01      	cmp	r3, #1
 8000e6c:	d108      	bne.n	8000e80 <HAL_CAN_Init+0x1a8>
  {
    SET_BIT(hcan->Instance->MCR, CAN_MCR_TXFP);
 8000e6e:	687b      	ldr	r3, [r7, #4]
 8000e70:	681b      	ldr	r3, [r3, #0]
 8000e72:	681a      	ldr	r2, [r3, #0]
 8000e74:	687b      	ldr	r3, [r7, #4]
 8000e76:	681b      	ldr	r3, [r3, #0]
 8000e78:	f042 0204 	orr.w	r2, r2, #4
 8000e7c:	601a      	str	r2, [r3, #0]
 8000e7e:	e007      	b.n	8000e90 <HAL_CAN_Init+0x1b8>
  }
  else
  {
    CLEAR_BIT(hcan->Instance->MCR, CAN_MCR_TXFP);
 8000e80:	687b      	ldr	r3, [r7, #4]
 8000e82:	681b      	ldr	r3, [r3, #0]
 8000e84:	681a      	ldr	r2, [r3, #0]
 8000e86:	687b      	ldr	r3, [r7, #4]
 8000e88:	681b      	ldr	r3, [r3, #0]
 8000e8a:	f022 0204 	bic.w	r2, r2, #4
 8000e8e:	601a      	str	r2, [r3, #0]
  }

  /* Set the bit timing register */
  WRITE_REG(hcan->Instance->BTR, (uint32_t)(hcan->Init.Mode           |
 8000e90:	687b      	ldr	r3, [r7, #4]
 8000e92:	689a      	ldr	r2, [r3, #8]
 8000e94:	687b      	ldr	r3, [r7, #4]
 8000e96:	68db      	ldr	r3, [r3, #12]
 8000e98:	431a      	orrs	r2, r3
 8000e9a:	687b      	ldr	r3, [r7, #4]
 8000e9c:	691b      	ldr	r3, [r3, #16]
 8000e9e:	431a      	orrs	r2, r3
 8000ea0:	687b      	ldr	r3, [r7, #4]
 8000ea2:	695b      	ldr	r3, [r3, #20]
 8000ea4:	ea42 0103 	orr.w	r1, r2, r3
 8000ea8:	687b      	ldr	r3, [r7, #4]
 8000eaa:	685b      	ldr	r3, [r3, #4]
 8000eac:	1e5a      	subs	r2, r3, #1
 8000eae:	687b      	ldr	r3, [r7, #4]
 8000eb0:	681b      	ldr	r3, [r3, #0]
 8000eb2:	430a      	orrs	r2, r1
 8000eb4:	61da      	str	r2, [r3, #28]
                                            hcan->Init.TimeSeg1       |
                                            hcan->Init.TimeSeg2       |
                                            (hcan->Init.Prescaler - 1U)));

  /* Initialize the error code */
  hcan->ErrorCode = HAL_CAN_ERROR_NONE;
 8000eb6:	687b      	ldr	r3, [r7, #4]
 8000eb8:	2200      	movs	r2, #0
 8000eba:	625a      	str	r2, [r3, #36]	; 0x24

  /* Initialize the CAN state */
  hcan->State = HAL_CAN_STATE_READY;
 8000ebc:	687b      	ldr	r3, [r7, #4]
 8000ebe:	2201      	movs	r2, #1
 8000ec0:	f883 2020 	strb.w	r2, [r3, #32]

  /* Return function status */
  return HAL_OK;
 8000ec4:	2300      	movs	r3, #0
}
 8000ec6:	4618      	mov	r0, r3
 8000ec8:	3710      	adds	r7, #16
 8000eca:	46bd      	mov	sp, r7
 8000ecc:	bd80      	pop	{r7, pc}

08000ece <HAL_CAN_Start>:
  * @param  hcan pointer to an CAN_HandleTypeDef structure that contains
  *         the configuration information for the specified CAN.
  * @retval HAL status
  */
HAL_StatusTypeDef HAL_CAN_Start(CAN_HandleTypeDef *hcan)
{
 8000ece:	b580      	push	{r7, lr}
 8000ed0:	b084      	sub	sp, #16
 8000ed2:	af00      	add	r7, sp, #0
 8000ed4:	6078      	str	r0, [r7, #4]
  uint32_t tickstart;

  if (hcan->State == HAL_CAN_STATE_READY)
 8000ed6:	687b      	ldr	r3, [r7, #4]
 8000ed8:	f893 3020 	ldrb.w	r3, [r3, #32]
 8000edc:	b2db      	uxtb	r3, r3
 8000ede:	2b01      	cmp	r3, #1
 8000ee0:	d12e      	bne.n	8000f40 <HAL_CAN_Start+0x72>
  {
    /* Change CAN peripheral state */
    hcan->State = HAL_CAN_STATE_LISTENING;
 8000ee2:	687b      	ldr	r3, [r7, #4]
 8000ee4:	2202      	movs	r2, #2
 8000ee6:	f883 2020 	strb.w	r2, [r3, #32]

    /* Request leave initialisation */
    CLEAR_BIT(hcan->Instance->MCR, CAN_MCR_INRQ);
 8000eea:	687b      	ldr	r3, [r7, #4]
 8000eec:	681b      	ldr	r3, [r3, #0]
 8000eee:	681a      	ldr	r2, [r3, #0]
 8000ef0:	687b      	ldr	r3, [r7, #4]
 8000ef2:	681b      	ldr	r3, [r3, #0]
 8000ef4:	f022 0201 	bic.w	r2, r2, #1
 8000ef8:	601a      	str	r2, [r3, #0]

    /* Get tick */
    tickstart = HAL_GetTick();
 8000efa:	f7ff febd 	bl	8000c78 <HAL_GetTick>
 8000efe:	60f8      	str	r0, [r7, #12]

    /* Wait the acknowledge */
    while ((hcan->Instance->MSR & CAN_MSR_INAK) != 0U)
 8000f00:	e012      	b.n	8000f28 <HAL_CAN_Start+0x5a>
    {
      /* Check for the Timeout */
      if ((HAL_GetTick() - tickstart) > CAN_TIMEOUT_VALUE)
 8000f02:	f7ff feb9 	bl	8000c78 <HAL_GetTick>
 8000f06:	4602      	mov	r2, r0
 8000f08:	68fb      	ldr	r3, [r7, #12]
 8000f0a:	1ad3      	subs	r3, r2, r3
 8000f0c:	2b0a      	cmp	r3, #10
 8000f0e:	d90b      	bls.n	8000f28 <HAL_CAN_Start+0x5a>
      {
        /* Update error code */
        hcan->ErrorCode |= HAL_CAN_ERROR_TIMEOUT;
 8000f10:	687b      	ldr	r3, [r7, #4]
 8000f12:	6a5b      	ldr	r3, [r3, #36]	; 0x24
 8000f14:	f443 3200 	orr.w	r2, r3, #131072	; 0x20000
 8000f18:	687b      	ldr	r3, [r7, #4]
 8000f1a:	625a      	str	r2, [r3, #36]	; 0x24

        /* Change CAN state */
        hcan->State = HAL_CAN_STATE_ERROR;
 8000f1c:	687b      	ldr	r3, [r7, #4]
 8000f1e:	2205      	movs	r2, #5
 8000f20:	f883 2020 	strb.w	r2, [r3, #32]

        return HAL_ERROR;
 8000f24:	2301      	movs	r3, #1
 8000f26:	e012      	b.n	8000f4e <HAL_CAN_Start+0x80>
    while ((hcan->Instance->MSR & CAN_MSR_INAK) != 0U)
 8000f28:	687b      	ldr	r3, [r7, #4]
 8000f2a:	681b      	ldr	r3, [r3, #0]
 8000f2c:	685b      	ldr	r3, [r3, #4]
 8000f2e:	f003 0301 	and.w	r3, r3, #1
 8000f32:	2b00      	cmp	r3, #0
 8000f34:	d1e5      	bne.n	8000f02 <HAL_CAN_Start+0x34>
      }
    }

    /* Reset the CAN ErrorCode */
    hcan->ErrorCode = HAL_CAN_ERROR_NONE;
 8000f36:	687b      	ldr	r3, [r7, #4]
 8000f38:	2200      	movs	r2, #0
 8000f3a:	625a      	str	r2, [r3, #36]	; 0x24

    /* Return function status */
    return HAL_OK;
 8000f3c:	2300      	movs	r3, #0
 8000f3e:	e006      	b.n	8000f4e <HAL_CAN_Start+0x80>
  }
  else
  {
    /* Update error code */
    hcan->ErrorCode |= HAL_CAN_ERROR_NOT_READY;
 8000f40:	687b      	ldr	r3, [r7, #4]
 8000f42:	6a5b      	ldr	r3, [r3, #36]	; 0x24
 8000f44:	f443 2200 	orr.w	r2, r3, #524288	; 0x80000
 8000f48:	687b      	ldr	r3, [r7, #4]
 8000f4a:	625a      	str	r2, [r3, #36]	; 0x24

    return HAL_ERROR;
 8000f4c:	2301      	movs	r3, #1
  }
}
 8000f4e:	4618      	mov	r0, r3
 8000f50:	3710      	adds	r7, #16
 8000f52:	46bd      	mov	sp, r7
 8000f54:	bd80      	pop	{r7, pc}

08000f56 <HAL_CAN_AddTxMessage>:
  *         This parameter can be a value of @arg CAN_Tx_Mailboxes.
  * @retval HAL status
  */
HAL_StatusTypeDef HAL_CAN_AddTxMessage(CAN_HandleTypeDef *hcan, const CAN_TxHeaderTypeDef *pHeader,
                                       const uint8_t aData[], uint32_t *pTxMailbox)
{
 8000f56:	b480      	push	{r7}
 8000f58:	b089      	sub	sp, #36	; 0x24
 8000f5a:	af00      	add	r7, sp, #0
 8000f5c:	60f8      	str	r0, [r7, #12]
 8000f5e:	60b9      	str	r1, [r7, #8]
 8000f60:	607a      	str	r2, [r7, #4]
 8000f62:	603b      	str	r3, [r7, #0]
  uint32_t transmitmailbox;
  HAL_CAN_StateTypeDef state = hcan->State;
 8000f64:	68fb      	ldr	r3, [r7, #12]
 8000f66:	f893 3020 	ldrb.w	r3, [r3, #32]
 8000f6a:	77fb      	strb	r3, [r7, #31]
  uint32_t tsr = READ_REG(hcan->Instance->TSR);
 8000f6c:	68fb      	ldr	r3, [r7, #12]
 8000f6e:	681b      	ldr	r3, [r3, #0]
 8000f70:	689b      	ldr	r3, [r3, #8]
 8000f72:	61bb      	str	r3, [r7, #24]
  {
    assert_param(IS_CAN_EXTID(pHeader->ExtId));
  }
  assert_param(IS_FUNCTIONAL_STATE(pHeader->TransmitGlobalTime));

  if ((state == HAL_CAN_STATE_READY) ||
 8000f74:	7ffb      	ldrb	r3, [r7, #31]
 8000f76:	2b01      	cmp	r3, #1
 8000f78:	d003      	beq.n	8000f82 <HAL_CAN_AddTxMessage+0x2c>
 8000f7a:	7ffb      	ldrb	r3, [r7, #31]
 8000f7c:	2b02      	cmp	r3, #2
 8000f7e:	f040 80ad 	bne.w	80010dc <HAL_CAN_AddTxMessage+0x186>
      (state == HAL_CAN_STATE_LISTENING))
  {
    /* Check that all the Tx mailboxes are not full */
    if (((tsr & CAN_TSR_TME0) != 0U) ||
 8000f82:	69bb      	ldr	r3, [r7, #24]
 8000f84:	f003 6380 	and.w	r3, r3, #67108864	; 0x4000000
 8000f88:	2b00      	cmp	r3, #0
 8000f8a:	d10a      	bne.n	8000fa2 <HAL_CAN_AddTxMessage+0x4c>
        ((tsr & CAN_TSR_TME1) != 0U) ||
 8000f8c:	69bb      	ldr	r3, [r7, #24]
 8000f8e:	f003 6300 	and.w	r3, r3, #134217728	; 0x8000000
    if (((tsr & CAN_TSR_TME0) != 0U) ||
 8000f92:	2b00      	cmp	r3, #0
 8000f94:	d105      	bne.n	8000fa2 <HAL_CAN_AddTxMessage+0x4c>
        ((tsr & CAN_TSR_TME2) != 0U))
 8000f96:	69bb      	ldr	r3, [r7, #24]
 8000f98:	f003 5380 	and.w	r3, r3, #268435456	; 0x10000000
        ((tsr & CAN_TSR_TME1) != 0U) ||
 8000f9c:	2b00      	cmp	r3, #0
 8000f9e:	f000 8095 	beq.w	80010cc <HAL_CAN_AddTxMessage+0x176>
    {
      /* Select an empty transmit mailbox */
      transmitmailbox = (tsr & CAN_TSR_CODE) >> CAN_TSR_CODE_Pos;
 8000fa2:	69bb      	ldr	r3, [r7, #24]
 8000fa4:	0e1b      	lsrs	r3, r3, #24
 8000fa6:	f003 0303 	and.w	r3, r3, #3
 8000faa:	617b      	str	r3, [r7, #20]

      /* Store the Tx mailbox */
      *pTxMailbox = (uint32_t)1 << transmitmailbox;
 8000fac:	2201      	movs	r2, #1
 8000fae:	697b      	ldr	r3, [r7, #20]
 8000fb0:	409a      	lsls	r2, r3
 8000fb2:	683b      	ldr	r3, [r7, #0]
 8000fb4:	601a      	str	r2, [r3, #0]

      /* Set up the Id */
      if (pHeader->IDE == CAN_ID_STD)
 8000fb6:	68bb      	ldr	r3, [r7, #8]
 8000fb8:	689b      	ldr	r3, [r3, #8]
 8000fba:	2b00      	cmp	r3, #0
 8000fbc:	d10d      	bne.n	8000fda <HAL_CAN_AddTxMessage+0x84>
      {
        hcan->Instance->sTxMailBox[transmitmailbox].TIR = ((pHeader->StdId << CAN_TI0R_STID_Pos) |
 8000fbe:	68bb      	ldr	r3, [r7, #8]
 8000fc0:	681b      	ldr	r3, [r3, #0]
 8000fc2:	055a      	lsls	r2, r3, #21
                                                           pHeader->RTR);
 8000fc4:	68bb      	ldr	r3, [r7, #8]
 8000fc6:	68db      	ldr	r3, [r3, #12]
        hcan->Instance->sTxMailBox[transmitmailbox].TIR = ((pHeader->StdId << CAN_TI0R_STID_Pos) |
 8000fc8:	68f9      	ldr	r1, [r7, #12]
 8000fca:	6809      	ldr	r1, [r1, #0]
 8000fcc:	431a      	orrs	r2, r3
 8000fce:	697b      	ldr	r3, [r7, #20]
 8000fd0:	3318      	adds	r3, #24
 8000fd2:	011b      	lsls	r3, r3, #4
 8000fd4:	440b      	add	r3, r1
 8000fd6:	601a      	str	r2, [r3, #0]
 8000fd8:	e00f      	b.n	8000ffa <HAL_CAN_AddTxMessage+0xa4>
      }
      else
      {
        hcan->Instance->sTxMailBox[transmitmailbox].TIR = ((pHeader->ExtId << CAN_TI0R_EXID_Pos) |
 8000fda:	68bb      	ldr	r3, [r7, #8]
 8000fdc:	685b      	ldr	r3, [r3, #4]
 8000fde:	00da      	lsls	r2, r3, #3
                                                           pHeader->IDE |
 8000fe0:	68bb      	ldr	r3, [r7, #8]
 8000fe2:	689b      	ldr	r3, [r3, #8]
        hcan->Instance->sTxMailBox[transmitmailbox].TIR = ((pHeader->ExtId << CAN_TI0R_EXID_Pos) |
 8000fe4:	431a      	orrs	r2, r3
                                                           pHeader->RTR);
 8000fe6:	68bb      	ldr	r3, [r7, #8]
 8000fe8:	68db      	ldr	r3, [r3, #12]
        hcan->Instance->sTxMailBox[transmitmailbox].TIR = ((pHeader->ExtId << CAN_TI0R_EXID_Pos) |
 8000fea:	68f9      	ldr	r1, [r7, #12]
 8000fec:	6809      	ldr	r1, [r1, #0]
                                                           pHeader->IDE |
 8000fee:	431a      	orrs	r2, r3
        hcan->Instance->sTxMailBox[transmitmailbox].TIR = ((pHeader->ExtId << CAN_TI0R_EXID_Pos) |
 8000ff0:	697b      	ldr	r3, [r7, #20]
 8000ff2:	3318      	adds	r3, #24
 8000ff4:	011b      	lsls	r3, r3, #4
 8000ff6:	440b      	add	r3, r1
 8000ff8:	601a      	str	r2, [r3, #0]
      }

      /* Set up the DLC */
      hcan->Instance->sTxMailBox[transmitmailbox].TDTR = (pHeader->DLC);
 8000ffa:	68fb      	ldr	r3, [r7, #12]
 8000ffc:	6819      	ldr	r1, [r3, #0]
 8000ffe:	68bb      	ldr	r3, [r7, #8]
 8001000:	691a      	ldr	r2, [r3, #16]
 8001002:	697b      	ldr	r3, [r7, #20]
 8001004:	3318      	adds	r3, #24
 8001006:	011b      	lsls	r3, r3, #4
 8001008:	440b      	add	r3, r1
 800100a:	3304      	adds	r3, #4
 800100c:	601a      	str	r2, [r3, #0]

      /* Set up the Transmit Global Time mode */
      if (pHeader->TransmitGlobalTime == ENABLE)
 800100e:	68bb      	ldr	r3, [r7, #8]
 8001010:	7d1b      	ldrb	r3, [r3, #20]
 8001012:	2b01      	cmp	r3, #1
 8001014:	d111      	bne.n	800103a <HAL_CAN_AddTxMessage+0xe4>
      {
        SET_BIT(hcan->Instance->sTxMailBox[transmitmailbox].TDTR, CAN_TDT0R_TGT);
 8001016:	68fb      	ldr	r3, [r7, #12]
 8001018:	681a      	ldr	r2, [r3, #0]
 800101a:	697b      	ldr	r3, [r7, #20]
 800101c:	3318      	adds	r3, #24
 800101e:	011b      	lsls	r3, r3, #4
 8001020:	4413      	add	r3, r2
 8001022:	3304      	adds	r3, #4
 8001024:	681b      	ldr	r3, [r3, #0]
 8001026:	68fa      	ldr	r2, [r7, #12]
 8001028:	6811      	ldr	r1, [r2, #0]
 800102a:	f443 7280 	orr.w	r2, r3, #256	; 0x100
 800102e:	697b      	ldr	r3, [r7, #20]
 8001030:	3318      	adds	r3, #24
 8001032:	011b      	lsls	r3, r3, #4
 8001034:	440b      	add	r3, r1
 8001036:	3304      	adds	r3, #4
 8001038:	601a      	str	r2, [r3, #0]
      }

      /* Set up the data field */
      WRITE_REG(hcan->Instance->sTxMailBox[transmitmailbox].TDHR,
 800103a:	687b      	ldr	r3, [r7, #4]
 800103c:	3307      	adds	r3, #7
 800103e:	781b      	ldrb	r3, [r3, #0]
 8001040:	061a      	lsls	r2, r3, #24
 8001042:	687b      	ldr	r3, [r7, #4]
 8001044:	3306      	adds	r3, #6
 8001046:	781b      	ldrb	r3, [r3, #0]
 8001048:	041b      	lsls	r3, r3, #16
 800104a:	431a      	orrs	r2, r3
 800104c:	687b      	ldr	r3, [r7, #4]
 800104e:	3305      	adds	r3, #5
 8001050:	781b      	ldrb	r3, [r3, #0]
 8001052:	021b      	lsls	r3, r3, #8
 8001054:	4313      	orrs	r3, r2
 8001056:	687a      	ldr	r2, [r7, #4]
 8001058:	3204      	adds	r2, #4
 800105a:	7812      	ldrb	r2, [r2, #0]
 800105c:	4610      	mov	r0, r2
 800105e:	68fa      	ldr	r2, [r7, #12]
 8001060:	6811      	ldr	r1, [r2, #0]
 8001062:	ea43 0200 	orr.w	r2, r3, r0
 8001066:	697b      	ldr	r3, [r7, #20]
 8001068:	011b      	lsls	r3, r3, #4
 800106a:	440b      	add	r3, r1
 800106c:	f503 73c6 	add.w	r3, r3, #396	; 0x18c
 8001070:	601a      	str	r2, [r3, #0]
                ((uint32_t)aData[7] << CAN_TDH0R_DATA7_Pos) |
                ((uint32_t)aData[6] << CAN_TDH0R_DATA6_Pos) |
                ((uint32_t)aData[5] << CAN_TDH0R_DATA5_Pos) |
                ((uint32_t)aData[4] << CAN_TDH0R_DATA4_Pos));
      WRITE_REG(hcan->Instance->sTxMailBox[transmitmailbox].TDLR,
 8001072:	687b      	ldr	r3, [r7, #4]
 8001074:	3303      	adds	r3, #3
 8001076:	781b      	ldrb	r3, [r3, #0]
 8001078:	061a      	lsls	r2, r3, #24
 800107a:	687b      	ldr	r3, [r7, #4]
 800107c:	3302      	adds	r3, #2
 800107e:	781b      	ldrb	r3, [r3, #0]
 8001080:	041b      	lsls	r3, r3, #16
 8001082:	431a      	orrs	r2, r3
 8001084:	687b      	ldr	r3, [r7, #4]
 8001086:	3301      	adds	r3, #1
 8001088:	781b      	ldrb	r3, [r3, #0]
 800108a:	021b      	lsls	r3, r3, #8
 800108c:	4313      	orrs	r3, r2
 800108e:	687a      	ldr	r2, [r7, #4]
 8001090:	7812      	ldrb	r2, [r2, #0]
 8001092:	4610      	mov	r0, r2
 8001094:	68fa      	ldr	r2, [r7, #12]
 8001096:	6811      	ldr	r1, [r2, #0]
 8001098:	ea43 0200 	orr.w	r2, r3, r0
 800109c:	697b      	ldr	r3, [r7, #20]
 800109e:	011b      	lsls	r3, r3, #4
 80010a0:	440b      	add	r3, r1
 80010a2:	f503 73c4 	add.w	r3, r3, #392	; 0x188
 80010a6:	601a      	str	r2, [r3, #0]
                ((uint32_t)aData[2] << CAN_TDL0R_DATA2_Pos) |
                ((uint32_t)aData[1] << CAN_TDL0R_DATA1_Pos) |
                ((uint32_t)aData[0] << CAN_TDL0R_DATA0_Pos));

      /* Request transmission */
      SET_BIT(hcan->Instance->sTxMailBox[transmitmailbox].TIR, CAN_TI0R_TXRQ);
 80010a8:	68fb      	ldr	r3, [r7, #12]
 80010aa:	681a      	ldr	r2, [r3, #0]
 80010ac:	697b      	ldr	r3, [r7, #20]
 80010ae:	3318      	adds	r3, #24
 80010b0:	011b      	lsls	r3, r3, #4
 80010b2:	4413      	add	r3, r2
 80010b4:	681b      	ldr	r3, [r3, #0]
 80010b6:	68fa      	ldr	r2, [r7, #12]
 80010b8:	6811      	ldr	r1, [r2, #0]
 80010ba:	f043 0201 	orr.w	r2, r3, #1
 80010be:	697b      	ldr	r3, [r7, #20]
 80010c0:	3318      	adds	r3, #24
 80010c2:	011b      	lsls	r3, r3, #4
 80010c4:	440b      	add	r3, r1
 80010c6:	601a      	str	r2, [r3, #0]

      /* Return function status */
      return HAL_OK;
 80010c8:	2300      	movs	r3, #0
 80010ca:	e00e      	b.n	80010ea <HAL_CAN_AddTxMessage+0x194>
    }
    else
    {
      /* Update error code */
      hcan->ErrorCode |= HAL_CAN_ERROR_PARAM;
 80010cc:	68fb      	ldr	r3, [r7, #12]
 80010ce:	6a5b      	ldr	r3, [r3, #36]	; 0x24
 80010d0:	f443 1200 	orr.w	r2, r3, #2097152	; 0x200000
 80010d4:	68fb      	ldr	r3, [r7, #12]
 80010d6:	625a      	str	r2, [r3, #36]	; 0x24

      return HAL_ERROR;
 80010d8:	2301      	movs	r3, #1
 80010da:	e006      	b.n	80010ea <HAL_CAN_AddTxMessage+0x194>
    }
  }
  else
  {
    /* Update error code */
    hcan->ErrorCode |= HAL_CAN_ERROR_NOT_INITIALIZED;
 80010dc:	68fb      	ldr	r3, [r7, #12]
 80010de:	6a5b      	ldr	r3, [r3, #36]	; 0x24
 80010e0:	f443 2280 	orr.w	r2, r3, #262144	; 0x40000
 80010e4:	68fb      	ldr	r3, [r7, #12]
 80010e6:	625a      	str	r2, [r3, #36]	; 0x24

    return HAL_ERROR;
 80010e8:	2301      	movs	r3, #1
  }
}
 80010ea:	4618      	mov	r0, r3
 80010ec:	3724      	adds	r7, #36	; 0x24
 80010ee:	46bd      	mov	sp, r7
 80010f0:	f85d 7b04 	ldr.w	r7, [sp], #4
 80010f4:	4770      	bx	lr
	...

080010f8 <__NVIC_SetPriorityGrouping>:
{
 80010f8:	b480      	push	{r7}
 80010fa:	b085      	sub	sp, #20
 80010fc:	af00      	add	r7, sp, #0
 80010fe:	6078      	str	r0, [r7, #4]
  uint32_t PriorityGroupTmp = (PriorityGroup & (uint32_t)0x07UL);             /* only values 0..7 are used          */
 8001100:	687b      	ldr	r3, [r7, #4]
 8001102:	f003 0307 	and.w	r3, r3, #7
 8001106:	60fb      	str	r3, [r7, #12]
  reg_value  =  SCB->AIRCR;                                                   /* read old register configuration    */
 8001108:	4b0b      	ldr	r3, [pc, #44]	; (8001138 <__NVIC_SetPriorityGrouping+0x40>)
 800110a:	68db      	ldr	r3, [r3, #12]
 800110c:	60bb      	str	r3, [r7, #8]
  reg_value &= ~((uint32_t)(SCB_AIRCR_VECTKEY_Msk | SCB_AIRCR_PRIGROUP_Msk)); /* clear bits to change               */
 800110e:	68ba      	ldr	r2, [r7, #8]
 8001110:	f64f 03ff 	movw	r3, #63743	; 0xf8ff
 8001114:	4013      	ands	r3, r2
 8001116:	60bb      	str	r3, [r7, #8]
                (PriorityGroupTmp << SCB_AIRCR_PRIGROUP_Pos)  );              /* Insert write key and priority group */
 8001118:	68fb      	ldr	r3, [r7, #12]
 800111a:	021a      	lsls	r2, r3, #8
                ((uint32_t)0x5FAUL << SCB_AIRCR_VECTKEY_Pos) |
 800111c:	68bb      	ldr	r3, [r7, #8]
 800111e:	431a      	orrs	r2, r3
  reg_value  =  (reg_value                                   |
 8001120:	4b06      	ldr	r3, [pc, #24]	; (800113c <__NVIC_SetPriorityGrouping+0x44>)
 8001122:	4313      	orrs	r3, r2
 8001124:	60bb      	str	r3, [r7, #8]
  SCB->AIRCR =  reg_value;
 8001126:	4a04      	ldr	r2, [pc, #16]	; (8001138 <__NVIC_SetPriorityGrouping+0x40>)
 8001128:	68bb      	ldr	r3, [r7, #8]
 800112a:	60d3      	str	r3, [r2, #12]
}
 800112c:	bf00      	nop
 800112e:	3714      	adds	r7, #20
 8001130:	46bd      	mov	sp, r7
 8001132:	f85d 7b04 	ldr.w	r7, [sp], #4
 8001136:	4770      	bx	lr
 8001138:	e000ed00 	.word	0xe000ed00
 800113c:	05fa0000 	.word	0x05fa0000

08001140 <__NVIC_GetPriorityGrouping>:
{
 8001140:	b480      	push	{r7}
 8001142:	af00      	add	r7, sp, #0
  return ((uint32_t)((SCB->AIRCR & SCB_AIRCR_PRIGROUP_Msk) >> SCB_AIRCR_PRIGROUP_Pos));
 8001144:	4b04      	ldr	r3, [pc, #16]	; (8001158 <__NVIC_GetPriorityGrouping+0x18>)
 8001146:	68db      	ldr	r3, [r3, #12]
 8001148:	0a1b      	lsrs	r3, r3, #8
 800114a:	f003 0307 	and.w	r3, r3, #7
}
 800114e:	4618      	mov	r0, r3
 8001150:	46bd      	mov	sp, r7
 8001152:	f85d 7b04 	ldr.w	r7, [sp], #4
 8001156:	4770      	bx	lr
 8001158:	e000ed00 	.word	0xe000ed00

0800115c <__NVIC_EnableIRQ>:
{
 800115c:	b480      	push	{r7}
 800115e:	b083      	sub	sp, #12
 8001160:	af00      	add	r7, sp, #0
 8001162:	4603      	mov	r3, r0
 8001164:	71fb      	strb	r3, [r7, #7]
  if ((int32_t)(IRQn) >= 0)
 8001166:	f997 3007 	ldrsb.w	r3, [r7, #7]
 800116a:	2b00      	cmp	r3, #0
 800116c:	db0b      	blt.n	8001186 <__NVIC_EnableIRQ+0x2a>
    NVIC->ISER[(((uint32_t)IRQn) >> 5UL)] = (uint32_t)(1UL << (((uint32_t)IRQn) & 0x1FUL));
 800116e:	79fb      	ldrb	r3, [r7, #7]
 8001170:	f003 021f 	and.w	r2, r3, #31
 8001174:	4907      	ldr	r1, [pc, #28]	; (8001194 <__NVIC_EnableIRQ+0x38>)
 8001176:	f997 3007 	ldrsb.w	r3, [r7, #7]
 800117a:	095b      	lsrs	r3, r3, #5
 800117c:	2001      	movs	r0, #1
 800117e:	fa00 f202 	lsl.w	r2, r0, r2
 8001182:	f841 2023 	str.w	r2, [r1, r3, lsl #2]
}
 8001186:	bf00      	nop
 8001188:	370c      	adds	r7, #12
 800118a:	46bd      	mov	sp, r7
 800118c:	f85d 7b04 	ldr.w	r7, [sp], #4
 8001190:	4770      	bx	lr
 8001192:	bf00      	nop
 8001194:	e000e100 	.word	0xe000e100

08001198 <__NVIC_SetPriority>:
{
 8001198:	b480      	push	{r7}
 800119a:	b083      	sub	sp, #12
 800119c:	af00      	add	r7, sp, #0
 800119e:	4603      	mov	r3, r0
 80011a0:	6039      	str	r1, [r7, #0]
 80011a2:	71fb      	strb	r3, [r7, #7]
  if ((int32_t)(IRQn) >= 0)
 80011a4:	f997 3007 	ldrsb.w	r3, [r7, #7]
 80011a8:	2b00      	cmp	r3, #0
 80011aa:	db0a      	blt.n	80011c2 <__NVIC_SetPriority+0x2a>
    NVIC->IP[((uint32_t)IRQn)]                = (uint8_t)((priority << (8U - __NVIC_PRIO_BITS)) & (uint32_t)0xFFUL);
 80011ac:	683b      	ldr	r3, [r7, #0]
 80011ae:	b2da      	uxtb	r2, r3
 80011b0:	490c      	ldr	r1, [pc, #48]	; (80011e4 <__NVIC_SetPriority+0x4c>)
 80011b2:	f997 3007 	ldrsb.w	r3, [r7, #7]
 80011b6:	0112      	lsls	r2, r2, #4
 80011b8:	b2d2      	uxtb	r2, r2
 80011ba:	440b      	add	r3, r1
 80011bc:	f883 2300 	strb.w	r2, [r3, #768]	; 0x300
}
 80011c0:	e00a      	b.n	80011d8 <__NVIC_SetPriority+0x40>
    SCB->SHPR[(((uint32_t)IRQn) & 0xFUL)-4UL] = (uint8_t)((priority << (8U - __NVIC_PRIO_BITS)) & (uint32_t)0xFFUL);
 80011c2:	683b      	ldr	r3, [r7, #0]
 80011c4:	b2da      	uxtb	r2, r3
 80011c6:	4908      	ldr	r1, [pc, #32]	; (80011e8 <__NVIC_SetPriority+0x50>)
 80011c8:	79fb      	ldrb	r3, [r7, #7]
 80011ca:	f003 030f 	and.w	r3, r3, #15
 80011ce:	3b04      	subs	r3, #4
 80011d0:	0112      	lsls	r2, r2, #4
 80011d2:	b2d2      	uxtb	r2, r2
 80011d4:	440b      	add	r3, r1
 80011d6:	761a      	strb	r2, [r3, #24]
}
 80011d8:	bf00      	nop
 80011da:	370c      	adds	r7, #12
 80011dc:	46bd      	mov	sp, r7
 80011de:	f85d 7b04 	ldr.w	r7, [sp], #4
 80011e2:	4770      	bx	lr
 80011e4:	e000e100 	.word	0xe000e100
 80011e8:	e000ed00 	.word	0xe000ed00

080011ec <NVIC_EncodePriority>:
{
 80011ec:	b480      	push	{r7}
 80011ee:	b089      	sub	sp, #36	; 0x24
 80011f0:	af00      	add	r7, sp, #0
 80011f2:	60f8      	str	r0, [r7, #12]
 80011f4:	60b9      	str	r1, [r7, #8]
 80011f6:	607a      	str	r2, [r7, #4]
  uint32_t PriorityGroupTmp = (PriorityGroup & (uint32_t)0x07UL);   /* only values 0..7 are used          */
 80011f8:	68fb      	ldr	r3, [r7, #12]
 80011fa:	f003 0307 	and.w	r3, r3, #7
 80011fe:	61fb      	str	r3, [r7, #28]
  PreemptPriorityBits = ((7UL - PriorityGroupTmp) > (uint32_t)(__NVIC_PRIO_BITS)) ? (uint32_t)(__NVIC_PRIO_BITS) : (uint32_t)(7UL - PriorityGroupTmp);
 8001200:	69fb      	ldr	r3, [r7, #28]
 8001202:	f1c3 0307 	rsb	r3, r3, #7
 8001206:	2b04      	cmp	r3, #4
 8001208:	bf28      	it	cs
 800120a:	2304      	movcs	r3, #4
 800120c:	61bb      	str	r3, [r7, #24]
  SubPriorityBits     = ((PriorityGroupTmp + (uint32_t)(__NVIC_PRIO_BITS)) < (uint32_t)7UL) ? (uint32_t)0UL : (uint32_t)((PriorityGroupTmp - 7UL) + (uint32_t)(__NVIC_PRIO_BITS));
 800120e:	69fb      	ldr	r3, [r7, #28]
 8001210:	3304      	adds	r3, #4
 8001212:	2b06      	cmp	r3, #6
 8001214:	d902      	bls.n	800121c <NVIC_EncodePriority+0x30>
 8001216:	69fb      	ldr	r3, [r7, #28]
 8001218:	3b03      	subs	r3, #3
 800121a:	e000      	b.n	800121e <NVIC_EncodePriority+0x32>
 800121c:	2300      	movs	r3, #0
 800121e:	617b      	str	r3, [r7, #20]
           ((PreemptPriority & (uint32_t)((1UL << (PreemptPriorityBits)) - 1UL)) << SubPriorityBits) |
 8001220:	f04f 32ff 	mov.w	r2, #4294967295
 8001224:	69bb      	ldr	r3, [r7, #24]
 8001226:	fa02 f303 	lsl.w	r3, r2, r3
 800122a:	43da      	mvns	r2, r3
 800122c:	68bb      	ldr	r3, [r7, #8]
 800122e:	401a      	ands	r2, r3
 8001230:	697b      	ldr	r3, [r7, #20]
 8001232:	409a      	lsls	r2, r3
           ((SubPriority     & (uint32_t)((1UL << (SubPriorityBits    )) - 1UL)))
 8001234:	f04f 31ff 	mov.w	r1, #4294967295
 8001238:	697b      	ldr	r3, [r7, #20]
 800123a:	fa01 f303 	lsl.w	r3, r1, r3
 800123e:	43d9      	mvns	r1, r3
 8001240:	687b      	ldr	r3, [r7, #4]
 8001242:	400b      	ands	r3, r1
           ((PreemptPriority & (uint32_t)((1UL << (PreemptPriorityBits)) - 1UL)) << SubPriorityBits) |
 8001244:	4313      	orrs	r3, r2
}
 8001246:	4618      	mov	r0, r3
 8001248:	3724      	adds	r7, #36	; 0x24
 800124a:	46bd      	mov	sp, r7
 800124c:	f85d 7b04 	ldr.w	r7, [sp], #4
 8001250:	4770      	bx	lr

08001252 <HAL_NVIC_SetPriorityGrouping>:
  * @note   When the NVIC_PriorityGroup_0 is selected, IRQ preemption is no more possible. 
  *         The pending IRQ priority will be managed only by the subpriority. 
  * @retval None
  */
void HAL_NVIC_SetPriorityGrouping(uint32_t PriorityGroup)
{
 8001252:	b580      	push	{r7, lr}
 8001254:	b082      	sub	sp, #8
 8001256:	af00      	add	r7, sp, #0
 8001258:	6078      	str	r0, [r7, #4]
  /* Check the parameters */
  assert_param(IS_NVIC_PRIORITY_GROUP(PriorityGroup));
  
  /* Set the PRIGROUP[10:8] bits according to the PriorityGroup parameter value */
  NVIC_SetPriorityGrouping(PriorityGroup);
 800125a:	6878      	ldr	r0, [r7, #4]
 800125c:	f7ff ff4c 	bl	80010f8 <__NVIC_SetPriorityGrouping>
}
 8001260:	bf00      	nop
 8001262:	3708      	adds	r7, #8
 8001264:	46bd      	mov	sp, r7
 8001266:	bd80      	pop	{r7, pc}

08001268 <HAL_NVIC_SetPriority>:
  *         This parameter can be a value between 0 and 15
  *         A lower priority value indicates a higher priority.          
  * @retval None
  */
void HAL_NVIC_SetPriority(IRQn_Type IRQn, uint32_t PreemptPriority, uint32_t SubPriority)
{ 
 8001268:	b580      	push	{r7, lr}
 800126a:	b086      	sub	sp, #24
 800126c:	af00      	add	r7, sp, #0
 800126e:	4603      	mov	r3, r0
 8001270:	60b9      	str	r1, [r7, #8]
 8001272:	607a      	str	r2, [r7, #4]
 8001274:	73fb      	strb	r3, [r7, #15]
  uint32_t prioritygroup = 0x00;
 8001276:	2300      	movs	r3, #0
 8001278:	617b      	str	r3, [r7, #20]
  
  /* Check the parameters */
  assert_param(IS_NVIC_SUB_PRIORITY(SubPriority));
  assert_param(IS_NVIC_PREEMPTION_PRIORITY(PreemptPriority));
  
  prioritygroup = NVIC_GetPriorityGrouping();
 800127a:	f7ff ff61 	bl	8001140 <__NVIC_GetPriorityGrouping>
 800127e:	6178      	str	r0, [r7, #20]
  
  NVIC_SetPriority(IRQn, NVIC_EncodePriority(prioritygroup, PreemptPriority, SubPriority));
 8001280:	687a      	ldr	r2, [r7, #4]
 8001282:	68b9      	ldr	r1, [r7, #8]
 8001284:	6978      	ldr	r0, [r7, #20]
 8001286:	f7ff ffb1 	bl	80011ec <NVIC_EncodePriority>
 800128a:	4602      	mov	r2, r0
 800128c:	f997 300f 	ldrsb.w	r3, [r7, #15]
 8001290:	4611      	mov	r1, r2
 8001292:	4618      	mov	r0, r3
 8001294:	f7ff ff80 	bl	8001198 <__NVIC_SetPriority>
}
 8001298:	bf00      	nop
 800129a:	3718      	adds	r7, #24
 800129c:	46bd      	mov	sp, r7
 800129e:	bd80      	pop	{r7, pc}

080012a0 <HAL_NVIC_EnableIRQ>:
  *         This parameter can be an enumerator of IRQn_Type enumeration
  *         (For the complete STM32 Devices IRQ Channels list, please refer to the appropriate CMSIS device file (stm32f7xxxx.h))
  * @retval None
  */
void HAL_NVIC_EnableIRQ(IRQn_Type IRQn)
{
 80012a0:	b580      	push	{r7, lr}
 80012a2:	b082      	sub	sp, #8
 80012a4:	af00      	add	r7, sp, #0
 80012a6:	4603      	mov	r3, r0
 80012a8:	71fb      	strb	r3, [r7, #7]
  /* Check the parameters */
  assert_param(IS_NVIC_DEVICE_IRQ(IRQn));
  
  /* Enable interrupt */
  NVIC_EnableIRQ(IRQn);
 80012aa:	f997 3007 	ldrsb.w	r3, [r7, #7]
 80012ae:	4618      	mov	r0, r3
 80012b0:	f7ff ff54 	bl	800115c <__NVIC_EnableIRQ>
}
 80012b4:	bf00      	nop
 80012b6:	3708      	adds	r7, #8
 80012b8:	46bd      	mov	sp, r7
 80012ba:	bd80      	pop	{r7, pc}

080012bc <HAL_GPIO_Init>:
  * @param  GPIO_Init pointer to a GPIO_InitTypeDef structure that contains
  *         the configuration information for the specified GPIO peripheral.
  * @retval None
  */
void HAL_GPIO_Init(GPIO_TypeDef  *GPIOx, GPIO_InitTypeDef *GPIO_Init)
{
 80012bc:	b480      	push	{r7}
 80012be:	b089      	sub	sp, #36	; 0x24
 80012c0:	af00      	add	r7, sp, #0
 80012c2:	6078      	str	r0, [r7, #4]
 80012c4:	6039      	str	r1, [r7, #0]
  uint32_t position = 0x00;
 80012c6:	2300      	movs	r3, #0
 80012c8:	61fb      	str	r3, [r7, #28]
  uint32_t ioposition = 0x00;
 80012ca:	2300      	movs	r3, #0
 80012cc:	617b      	str	r3, [r7, #20]
  uint32_t iocurrent = 0x00;
 80012ce:	2300      	movs	r3, #0
 80012d0:	613b      	str	r3, [r7, #16]
  uint32_t temp = 0x00;
 80012d2:	2300      	movs	r3, #0
 80012d4:	61bb      	str	r3, [r7, #24]
  assert_param(IS_GPIO_ALL_INSTANCE(GPIOx));
  assert_param(IS_GPIO_PIN(GPIO_Init->Pin));
  assert_param(IS_GPIO_MODE(GPIO_Init->Mode));

  /* Configure the port pins */
  for(position = 0; position < GPIO_NUMBER; position++)
 80012d6:	2300      	movs	r3, #0
 80012d8:	61fb      	str	r3, [r7, #28]
 80012da:	e175      	b.n	80015c8 <HAL_GPIO_Init+0x30c>
  {
    /* Get the IO position */
    ioposition = ((uint32_t)0x01) << position;
 80012dc:	2201      	movs	r2, #1
 80012de:	69fb      	ldr	r3, [r7, #28]
 80012e0:	fa02 f303 	lsl.w	r3, r2, r3
 80012e4:	617b      	str	r3, [r7, #20]
    /* Get the current IO position */
    iocurrent = (uint32_t)(GPIO_Init->Pin) & ioposition;
 80012e6:	683b      	ldr	r3, [r7, #0]
 80012e8:	681b      	ldr	r3, [r3, #0]
 80012ea:	697a      	ldr	r2, [r7, #20]
 80012ec:	4013      	ands	r3, r2
 80012ee:	613b      	str	r3, [r7, #16]

    if(iocurrent == ioposition)
 80012f0:	693a      	ldr	r2, [r7, #16]
 80012f2:	697b      	ldr	r3, [r7, #20]
 80012f4:	429a      	cmp	r2, r3
 80012f6:	f040 8164 	bne.w	80015c2 <HAL_GPIO_Init+0x306>
    {
      /*--------------------- GPIO Mode Configuration ------------------------*/
      /* In case of Output or Alternate function mode selection */
      if(((GPIO_Init->Mode & GPIO_MODE) == MODE_OUTPUT) || ((GPIO_Init->Mode & GPIO_MODE) == MODE_AF))
 80012fa:	683b      	ldr	r3, [r7, #0]
 80012fc:	685b      	ldr	r3, [r3, #4]
 80012fe:	f003 0303 	and.w	r3, r3, #3
 8001302:	2b01      	cmp	r3, #1
 8001304:	d005      	beq.n	8001312 <HAL_GPIO_Init+0x56>
 8001306:	683b      	ldr	r3, [r7, #0]
 8001308:	685b      	ldr	r3, [r3, #4]
 800130a:	f003 0303 	and.w	r3, r3, #3
 800130e:	2b02      	cmp	r3, #2
 8001310:	d130      	bne.n	8001374 <HAL_GPIO_Init+0xb8>
      {
        /* Check the Speed parameter */
        assert_param(IS_GPIO_SPEED(GPIO_Init->Speed));
        /* Configure the IO Speed */
        temp = GPIOx->OSPEEDR; 
 8001312:	687b      	ldr	r3, [r7, #4]
 8001314:	689b      	ldr	r3, [r3, #8]
 8001316:	61bb      	str	r3, [r7, #24]
        temp &= ~(GPIO_OSPEEDER_OSPEEDR0 << (position * 2));
 8001318:	69fb      	ldr	r3, [r7, #28]
 800131a:	005b      	lsls	r3, r3, #1
 800131c:	2203      	movs	r2, #3
 800131e:	fa02 f303 	lsl.w	r3, r2, r3
 8001322:	43db      	mvns	r3, r3
 8001324:	69ba      	ldr	r2, [r7, #24]
 8001326:	4013      	ands	r3, r2
 8001328:	61bb      	str	r3, [r7, #24]
        temp |= (GPIO_Init->Speed << (position * 2));
 800132a:	683b      	ldr	r3, [r7, #0]
 800132c:	68da      	ldr	r2, [r3, #12]
 800132e:	69fb      	ldr	r3, [r7, #28]
 8001330:	005b      	lsls	r3, r3, #1
 8001332:	fa02 f303 	lsl.w	r3, r2, r3
 8001336:	69ba      	ldr	r2, [r7, #24]
 8001338:	4313      	orrs	r3, r2
 800133a:	61bb      	str	r3, [r7, #24]
        GPIOx->OSPEEDR = temp;
 800133c:	687b      	ldr	r3, [r7, #4]
 800133e:	69ba      	ldr	r2, [r7, #24]
 8001340:	609a      	str	r2, [r3, #8]

        /* Configure the IO Output Type */
        temp = GPIOx->OTYPER;
 8001342:	687b      	ldr	r3, [r7, #4]
 8001344:	685b      	ldr	r3, [r3, #4]
 8001346:	61bb      	str	r3, [r7, #24]
        temp &= ~(GPIO_OTYPER_OT_0 << position) ;
 8001348:	2201      	movs	r2, #1
 800134a:	69fb      	ldr	r3, [r7, #28]
 800134c:	fa02 f303 	lsl.w	r3, r2, r3
 8001350:	43db      	mvns	r3, r3
 8001352:	69ba      	ldr	r2, [r7, #24]
 8001354:	4013      	ands	r3, r2
 8001356:	61bb      	str	r3, [r7, #24]
        temp |= (((GPIO_Init->Mode & OUTPUT_TYPE) >> OUTPUT_TYPE_Pos) << position);
 8001358:	683b      	ldr	r3, [r7, #0]
 800135a:	685b      	ldr	r3, [r3, #4]
 800135c:	091b      	lsrs	r3, r3, #4
 800135e:	f003 0201 	and.w	r2, r3, #1
 8001362:	69fb      	ldr	r3, [r7, #28]
 8001364:	fa02 f303 	lsl.w	r3, r2, r3
 8001368:	69ba      	ldr	r2, [r7, #24]
 800136a:	4313      	orrs	r3, r2
 800136c:	61bb      	str	r3, [r7, #24]
        GPIOx->OTYPER = temp;
 800136e:	687b      	ldr	r3, [r7, #4]
 8001370:	69ba      	ldr	r2, [r7, #24]
 8001372:	605a      	str	r2, [r3, #4]
      }
      
      if((GPIO_Init->Mode & GPIO_MODE) != MODE_ANALOG)
 8001374:	683b      	ldr	r3, [r7, #0]
 8001376:	685b      	ldr	r3, [r3, #4]
 8001378:	f003 0303 	and.w	r3, r3, #3
 800137c:	2b03      	cmp	r3, #3
 800137e:	d017      	beq.n	80013b0 <HAL_GPIO_Init+0xf4>
      {
        /* Check the Pull parameter */
        assert_param(IS_GPIO_PULL(GPIO_Init->Pull));

        /* Activate the Pull-up or Pull down resistor for the current IO */
        temp = GPIOx->PUPDR;
 8001380:	687b      	ldr	r3, [r7, #4]
 8001382:	68db      	ldr	r3, [r3, #12]
 8001384:	61bb      	str	r3, [r7, #24]
        temp &= ~(GPIO_PUPDR_PUPDR0 << (position * 2));
 8001386:	69fb      	ldr	r3, [r7, #28]
 8001388:	005b      	lsls	r3, r3, #1
 800138a:	2203      	movs	r2, #3
 800138c:	fa02 f303 	lsl.w	r3, r2, r3
 8001390:	43db      	mvns	r3, r3
 8001392:	69ba      	ldr	r2, [r7, #24]
 8001394:	4013      	ands	r3, r2
 8001396:	61bb      	str	r3, [r7, #24]
        temp |= ((GPIO_Init->Pull) << (position * 2));
 8001398:	683b      	ldr	r3, [r7, #0]
 800139a:	689a      	ldr	r2, [r3, #8]
 800139c:	69fb      	ldr	r3, [r7, #28]
 800139e:	005b      	lsls	r3, r3, #1
 80013a0:	fa02 f303 	lsl.w	r3, r2, r3
 80013a4:	69ba      	ldr	r2, [r7, #24]
 80013a6:	4313      	orrs	r3, r2
 80013a8:	61bb      	str	r3, [r7, #24]
        GPIOx->PUPDR = temp;
 80013aa:	687b      	ldr	r3, [r7, #4]
 80013ac:	69ba      	ldr	r2, [r7, #24]
 80013ae:	60da      	str	r2, [r3, #12]
      }

      /* In case of Alternate function mode selection */
      if((GPIO_Init->Mode & GPIO_MODE) == MODE_AF)
 80013b0:	683b      	ldr	r3, [r7, #0]
 80013b2:	685b      	ldr	r3, [r3, #4]
 80013b4:	f003 0303 	and.w	r3, r3, #3
 80013b8:	2b02      	cmp	r3, #2
 80013ba:	d123      	bne.n	8001404 <HAL_GPIO_Init+0x148>
      {
        /* Check the Alternate function parameter */
        assert_param(IS_GPIO_AF(GPIO_Init->Alternate));

        /* Configure Alternate function mapped with the current IO */
        temp = GPIOx->AFR[position >> 3];
 80013bc:	69fb      	ldr	r3, [r7, #28]
 80013be:	08da      	lsrs	r2, r3, #3
 80013c0:	687b      	ldr	r3, [r7, #4]
 80013c2:	3208      	adds	r2, #8
 80013c4:	f853 3022 	ldr.w	r3, [r3, r2, lsl #2]
 80013c8:	61bb      	str	r3, [r7, #24]
        temp &= ~((uint32_t)0xF << ((uint32_t)(position & (uint32_t)0x07) * 4)) ;
 80013ca:	69fb      	ldr	r3, [r7, #28]
 80013cc:	f003 0307 	and.w	r3, r3, #7
 80013d0:	009b      	lsls	r3, r3, #2
 80013d2:	220f      	movs	r2, #15
 80013d4:	fa02 f303 	lsl.w	r3, r2, r3
 80013d8:	43db      	mvns	r3, r3
 80013da:	69ba      	ldr	r2, [r7, #24]
 80013dc:	4013      	ands	r3, r2
 80013de:	61bb      	str	r3, [r7, #24]
        temp |= ((uint32_t)(GPIO_Init->Alternate) << (((uint32_t)position & (uint32_t)0x07) * 4));
 80013e0:	683b      	ldr	r3, [r7, #0]
 80013e2:	691a      	ldr	r2, [r3, #16]
 80013e4:	69fb      	ldr	r3, [r7, #28]
 80013e6:	f003 0307 	and.w	r3, r3, #7
 80013ea:	009b      	lsls	r3, r3, #2
 80013ec:	fa02 f303 	lsl.w	r3, r2, r3
 80013f0:	69ba      	ldr	r2, [r7, #24]
 80013f2:	4313      	orrs	r3, r2
 80013f4:	61bb      	str	r3, [r7, #24]
        GPIOx->AFR[position >> 3] = temp;
 80013f6:	69fb      	ldr	r3, [r7, #28]
 80013f8:	08da      	lsrs	r2, r3, #3
 80013fa:	687b      	ldr	r3, [r7, #4]
 80013fc:	3208      	adds	r2, #8
 80013fe:	69b9      	ldr	r1, [r7, #24]
 8001400:	f843 1022 	str.w	r1, [r3, r2, lsl #2]
      }
      
      /* Configure IO Direction mode (Input, Output, Alternate or Analog) */
      temp = GPIOx->MODER;
 8001404:	687b      	ldr	r3, [r7, #4]
 8001406:	681b      	ldr	r3, [r3, #0]
 8001408:	61bb      	str	r3, [r7, #24]
      temp &= ~(GPIO_MODER_MODER0 << (position * 2));
 800140a:	69fb      	ldr	r3, [r7, #28]
 800140c:	005b      	lsls	r3, r3, #1
 800140e:	2203      	movs	r2, #3
 8001410:	fa02 f303 	lsl.w	r3, r2, r3
 8001414:	43db      	mvns	r3, r3
 8001416:	69ba      	ldr	r2, [r7, #24]
 8001418:	4013      	ands	r3, r2
 800141a:	61bb      	str	r3, [r7, #24]
      temp |= ((GPIO_Init->Mode & GPIO_MODE) << (position * 2));
 800141c:	683b      	ldr	r3, [r7, #0]
 800141e:	685b      	ldr	r3, [r3, #4]
 8001420:	f003 0203 	and.w	r2, r3, #3
 8001424:	69fb      	ldr	r3, [r7, #28]
 8001426:	005b      	lsls	r3, r3, #1
 8001428:	fa02 f303 	lsl.w	r3, r2, r3
 800142c:	69ba      	ldr	r2, [r7, #24]
 800142e:	4313      	orrs	r3, r2
 8001430:	61bb      	str	r3, [r7, #24]
      GPIOx->MODER = temp;
 8001432:	687b      	ldr	r3, [r7, #4]
 8001434:	69ba      	ldr	r2, [r7, #24]
 8001436:	601a      	str	r2, [r3, #0]

      /*--------------------- EXTI Mode Configuration ------------------------*/
      /* Configure the External Interrupt or event for the current IO */
      if((GPIO_Init->Mode & EXTI_MODE) != 0x00u)
 8001438:	683b      	ldr	r3, [r7, #0]
 800143a:	685b      	ldr	r3, [r3, #4]
 800143c:	f403 3340 	and.w	r3, r3, #196608	; 0x30000
 8001440:	2b00      	cmp	r3, #0
 8001442:	f000 80be 	beq.w	80015c2 <HAL_GPIO_Init+0x306>
      {
        /* Enable SYSCFG Clock */
        __HAL_RCC_SYSCFG_CLK_ENABLE();
 8001446:	4b66      	ldr	r3, [pc, #408]	; (80015e0 <HAL_GPIO_Init+0x324>)
 8001448:	6c5b      	ldr	r3, [r3, #68]	; 0x44
 800144a:	4a65      	ldr	r2, [pc, #404]	; (80015e0 <HAL_GPIO_Init+0x324>)
 800144c:	f443 4380 	orr.w	r3, r3, #16384	; 0x4000
 8001450:	6453      	str	r3, [r2, #68]	; 0x44
 8001452:	4b63      	ldr	r3, [pc, #396]	; (80015e0 <HAL_GPIO_Init+0x324>)
 8001454:	6c5b      	ldr	r3, [r3, #68]	; 0x44
 8001456:	f403 4380 	and.w	r3, r3, #16384	; 0x4000
 800145a:	60fb      	str	r3, [r7, #12]
 800145c:	68fb      	ldr	r3, [r7, #12]

        temp = SYSCFG->EXTICR[position >> 2];
 800145e:	4a61      	ldr	r2, [pc, #388]	; (80015e4 <HAL_GPIO_Init+0x328>)
 8001460:	69fb      	ldr	r3, [r7, #28]
 8001462:	089b      	lsrs	r3, r3, #2
 8001464:	3302      	adds	r3, #2
 8001466:	f852 3023 	ldr.w	r3, [r2, r3, lsl #2]
 800146a:	61bb      	str	r3, [r7, #24]
        temp &= ~(((uint32_t)0x0F) << (4 * (position & 0x03)));
 800146c:	69fb      	ldr	r3, [r7, #28]
 800146e:	f003 0303 	and.w	r3, r3, #3
 8001472:	009b      	lsls	r3, r3, #2
 8001474:	220f      	movs	r2, #15
 8001476:	fa02 f303 	lsl.w	r3, r2, r3
 800147a:	43db      	mvns	r3, r3
 800147c:	69ba      	ldr	r2, [r7, #24]
 800147e:	4013      	ands	r3, r2
 8001480:	61bb      	str	r3, [r7, #24]
        temp |= ((uint32_t)(GPIO_GET_INDEX(GPIOx)) << (4 * (position & 0x03)));
 8001482:	687b      	ldr	r3, [r7, #4]
 8001484:	4a58      	ldr	r2, [pc, #352]	; (80015e8 <HAL_GPIO_Init+0x32c>)
 8001486:	4293      	cmp	r3, r2
 8001488:	d037      	beq.n	80014fa <HAL_GPIO_Init+0x23e>
 800148a:	687b      	ldr	r3, [r7, #4]
 800148c:	4a57      	ldr	r2, [pc, #348]	; (80015ec <HAL_GPIO_Init+0x330>)
 800148e:	4293      	cmp	r3, r2
 8001490:	d031      	beq.n	80014f6 <HAL_GPIO_Init+0x23a>
 8001492:	687b      	ldr	r3, [r7, #4]
 8001494:	4a56      	ldr	r2, [pc, #344]	; (80015f0 <HAL_GPIO_Init+0x334>)
 8001496:	4293      	cmp	r3, r2
 8001498:	d02b      	beq.n	80014f2 <HAL_GPIO_Init+0x236>
 800149a:	687b      	ldr	r3, [r7, #4]
 800149c:	4a55      	ldr	r2, [pc, #340]	; (80015f4 <HAL_GPIO_Init+0x338>)
 800149e:	4293      	cmp	r3, r2
 80014a0:	d025      	beq.n	80014ee <HAL_GPIO_Init+0x232>
 80014a2:	687b      	ldr	r3, [r7, #4]
 80014a4:	4a54      	ldr	r2, [pc, #336]	; (80015f8 <HAL_GPIO_Init+0x33c>)
 80014a6:	4293      	cmp	r3, r2
 80014a8:	d01f      	beq.n	80014ea <HAL_GPIO_Init+0x22e>
 80014aa:	687b      	ldr	r3, [r7, #4]
 80014ac:	4a53      	ldr	r2, [pc, #332]	; (80015fc <HAL_GPIO_Init+0x340>)
 80014ae:	4293      	cmp	r3, r2
 80014b0:	d019      	beq.n	80014e6 <HAL_GPIO_Init+0x22a>
 80014b2:	687b      	ldr	r3, [r7, #4]
 80014b4:	4a52      	ldr	r2, [pc, #328]	; (8001600 <HAL_GPIO_Init+0x344>)
 80014b6:	4293      	cmp	r3, r2
 80014b8:	d013      	beq.n	80014e2 <HAL_GPIO_Init+0x226>
 80014ba:	687b      	ldr	r3, [r7, #4]
 80014bc:	4a51      	ldr	r2, [pc, #324]	; (8001604 <HAL_GPIO_Init+0x348>)
 80014be:	4293      	cmp	r3, r2
 80014c0:	d00d      	beq.n	80014de <HAL_GPIO_Init+0x222>
 80014c2:	687b      	ldr	r3, [r7, #4]
 80014c4:	4a50      	ldr	r2, [pc, #320]	; (8001608 <HAL_GPIO_Init+0x34c>)
 80014c6:	4293      	cmp	r3, r2
 80014c8:	d007      	beq.n	80014da <HAL_GPIO_Init+0x21e>
 80014ca:	687b      	ldr	r3, [r7, #4]
 80014cc:	4a4f      	ldr	r2, [pc, #316]	; (800160c <HAL_GPIO_Init+0x350>)
 80014ce:	4293      	cmp	r3, r2
 80014d0:	d101      	bne.n	80014d6 <HAL_GPIO_Init+0x21a>
 80014d2:	2309      	movs	r3, #9
 80014d4:	e012      	b.n	80014fc <HAL_GPIO_Init+0x240>
 80014d6:	230a      	movs	r3, #10
 80014d8:	e010      	b.n	80014fc <HAL_GPIO_Init+0x240>
 80014da:	2308      	movs	r3, #8
 80014dc:	e00e      	b.n	80014fc <HAL_GPIO_Init+0x240>
 80014de:	2307      	movs	r3, #7
 80014e0:	e00c      	b.n	80014fc <HAL_GPIO_Init+0x240>
 80014e2:	2306      	movs	r3, #6
 80014e4:	e00a      	b.n	80014fc <HAL_GPIO_Init+0x240>
 80014e6:	2305      	movs	r3, #5
 80014e8:	e008      	b.n	80014fc <HAL_GPIO_Init+0x240>
 80014ea:	2304      	movs	r3, #4
 80014ec:	e006      	b.n	80014fc <HAL_GPIO_Init+0x240>
 80014ee:	2303      	movs	r3, #3
 80014f0:	e004      	b.n	80014fc <HAL_GPIO_Init+0x240>
 80014f2:	2302      	movs	r3, #2
 80014f4:	e002      	b.n	80014fc <HAL_GPIO_Init+0x240>
 80014f6:	2301      	movs	r3, #1
 80014f8:	e000      	b.n	80014fc <HAL_GPIO_Init+0x240>
 80014fa:	2300      	movs	r3, #0
 80014fc:	69fa      	ldr	r2, [r7, #28]
 80014fe:	f002 0203 	and.w	r2, r2, #3
 8001502:	0092      	lsls	r2, r2, #2
 8001504:	4093      	lsls	r3, r2
 8001506:	69ba      	ldr	r2, [r7, #24]
 8001508:	4313      	orrs	r3, r2
 800150a:	61bb      	str	r3, [r7, #24]
        SYSCFG->EXTICR[position >> 2] = temp;
 800150c:	4935      	ldr	r1, [pc, #212]	; (80015e4 <HAL_GPIO_Init+0x328>)
 800150e:	69fb      	ldr	r3, [r7, #28]
 8001510:	089b      	lsrs	r3, r3, #2
 8001512:	3302      	adds	r3, #2
 8001514:	69ba      	ldr	r2, [r7, #24]
 8001516:	f841 2023 	str.w	r2, [r1, r3, lsl #2]

        /* Clear Rising Falling edge configuration */
        temp = EXTI->RTSR;
 800151a:	4b3d      	ldr	r3, [pc, #244]	; (8001610 <HAL_GPIO_Init+0x354>)
 800151c:	689b      	ldr	r3, [r3, #8]
 800151e:	61bb      	str	r3, [r7, #24]
        temp &= ~((uint32_t)iocurrent);
 8001520:	693b      	ldr	r3, [r7, #16]
 8001522:	43db      	mvns	r3, r3
 8001524:	69ba      	ldr	r2, [r7, #24]
 8001526:	4013      	ands	r3, r2
 8001528:	61bb      	str	r3, [r7, #24]
        if((GPIO_Init->Mode & TRIGGER_RISING) != 0x00u)
 800152a:	683b      	ldr	r3, [r7, #0]
 800152c:	685b      	ldr	r3, [r3, #4]
 800152e:	f403 1380 	and.w	r3, r3, #1048576	; 0x100000
 8001532:	2b00      	cmp	r3, #0
 8001534:	d003      	beq.n	800153e <HAL_GPIO_Init+0x282>
        {
          temp |= iocurrent;
 8001536:	69ba      	ldr	r2, [r7, #24]
 8001538:	693b      	ldr	r3, [r7, #16]
 800153a:	4313      	orrs	r3, r2
 800153c:	61bb      	str	r3, [r7, #24]
        }
        EXTI->RTSR = temp;
 800153e:	4a34      	ldr	r2, [pc, #208]	; (8001610 <HAL_GPIO_Init+0x354>)
 8001540:	69bb      	ldr	r3, [r7, #24]
 8001542:	6093      	str	r3, [r2, #8]

        temp = EXTI->FTSR;
 8001544:	4b32      	ldr	r3, [pc, #200]	; (8001610 <HAL_GPIO_Init+0x354>)
 8001546:	68db      	ldr	r3, [r3, #12]
 8001548:	61bb      	str	r3, [r7, #24]
        temp &= ~((uint32_t)iocurrent);
 800154a:	693b      	ldr	r3, [r7, #16]
 800154c:	43db      	mvns	r3, r3
 800154e:	69ba      	ldr	r2, [r7, #24]
 8001550:	4013      	ands	r3, r2
 8001552:	61bb      	str	r3, [r7, #24]
        if((GPIO_Init->Mode & TRIGGER_FALLING) != 0x00u)
 8001554:	683b      	ldr	r3, [r7, #0]
 8001556:	685b      	ldr	r3, [r3, #4]
 8001558:	f403 1300 	and.w	r3, r3, #2097152	; 0x200000
 800155c:	2b00      	cmp	r3, #0
 800155e:	d003      	beq.n	8001568 <HAL_GPIO_Init+0x2ac>
        {
          temp |= iocurrent;
 8001560:	69ba      	ldr	r2, [r7, #24]
 8001562:	693b      	ldr	r3, [r7, #16]
 8001564:	4313      	orrs	r3, r2
 8001566:	61bb      	str	r3, [r7, #24]
        }
        EXTI->FTSR = temp;
 8001568:	4a29      	ldr	r2, [pc, #164]	; (8001610 <HAL_GPIO_Init+0x354>)
 800156a:	69bb      	ldr	r3, [r7, #24]
 800156c:	60d3      	str	r3, [r2, #12]

        temp = EXTI->EMR;
 800156e:	4b28      	ldr	r3, [pc, #160]	; (8001610 <HAL_GPIO_Init+0x354>)
 8001570:	685b      	ldr	r3, [r3, #4]
 8001572:	61bb      	str	r3, [r7, #24]
        temp &= ~((uint32_t)iocurrent);
 8001574:	693b      	ldr	r3, [r7, #16]
 8001576:	43db      	mvns	r3, r3
 8001578:	69ba      	ldr	r2, [r7, #24]
 800157a:	4013      	ands	r3, r2
 800157c:	61bb      	str	r3, [r7, #24]
        if((GPIO_Init->Mode & EXTI_EVT) != 0x00u)
 800157e:	683b      	ldr	r3, [r7, #0]
 8001580:	685b      	ldr	r3, [r3, #4]
 8001582:	f403 3300 	and.w	r3, r3, #131072	; 0x20000
 8001586:	2b00      	cmp	r3, #0
 8001588:	d003      	beq.n	8001592 <HAL_GPIO_Init+0x2d6>
        {
          temp |= iocurrent;
 800158a:	69ba      	ldr	r2, [r7, #24]
 800158c:	693b      	ldr	r3, [r7, #16]
 800158e:	4313      	orrs	r3, r2
 8001590:	61bb      	str	r3, [r7, #24]
        }
        EXTI->EMR = temp;
 8001592:	4a1f      	ldr	r2, [pc, #124]	; (8001610 <HAL_GPIO_Init+0x354>)
 8001594:	69bb      	ldr	r3, [r7, #24]
 8001596:	6053      	str	r3, [r2, #4]

        /* Clear EXTI line configuration */
        temp = EXTI->IMR;
 8001598:	4b1d      	ldr	r3, [pc, #116]	; (8001610 <HAL_GPIO_Init+0x354>)
 800159a:	681b      	ldr	r3, [r3, #0]
 800159c:	61bb      	str	r3, [r7, #24]
        temp &= ~((uint32_t)iocurrent);
 800159e:	693b      	ldr	r3, [r7, #16]
 80015a0:	43db      	mvns	r3, r3
 80015a2:	69ba      	ldr	r2, [r7, #24]
 80015a4:	4013      	ands	r3, r2
 80015a6:	61bb      	str	r3, [r7, #24]
        if((GPIO_Init->Mode & EXTI_IT) != 0x00u)
 80015a8:	683b      	ldr	r3, [r7, #0]
 80015aa:	685b      	ldr	r3, [r3, #4]
 80015ac:	f403 3380 	and.w	r3, r3, #65536	; 0x10000
 80015b0:	2b00      	cmp	r3, #0
 80015b2:	d003      	beq.n	80015bc <HAL_GPIO_Init+0x300>
        {
          temp |= iocurrent;
 80015b4:	69ba      	ldr	r2, [r7, #24]
 80015b6:	693b      	ldr	r3, [r7, #16]
 80015b8:	4313      	orrs	r3, r2
 80015ba:	61bb      	str	r3, [r7, #24]
        }
        EXTI->IMR = temp;
 80015bc:	4a14      	ldr	r2, [pc, #80]	; (8001610 <HAL_GPIO_Init+0x354>)
 80015be:	69bb      	ldr	r3, [r7, #24]
 80015c0:	6013      	str	r3, [r2, #0]
  for(position = 0; position < GPIO_NUMBER; position++)
 80015c2:	69fb      	ldr	r3, [r7, #28]
 80015c4:	3301      	adds	r3, #1
 80015c6:	61fb      	str	r3, [r7, #28]
 80015c8:	69fb      	ldr	r3, [r7, #28]
 80015ca:	2b0f      	cmp	r3, #15
 80015cc:	f67f ae86 	bls.w	80012dc <HAL_GPIO_Init+0x20>
      }
    }
  }
}
 80015d0:	bf00      	nop
 80015d2:	bf00      	nop
 80015d4:	3724      	adds	r7, #36	; 0x24
 80015d6:	46bd      	mov	sp, r7
 80015d8:	f85d 7b04 	ldr.w	r7, [sp], #4
 80015dc:	4770      	bx	lr
 80015de:	bf00      	nop
 80015e0:	40023800 	.word	0x40023800
 80015e4:	40013800 	.word	0x40013800
 80015e8:	40020000 	.word	0x40020000
 80015ec:	40020400 	.word	0x40020400
 80015f0:	40020800 	.word	0x40020800
 80015f4:	40020c00 	.word	0x40020c00
 80015f8:	40021000 	.word	0x40021000
 80015fc:	40021400 	.word	0x40021400
 8001600:	40021800 	.word	0x40021800
 8001604:	40021c00 	.word	0x40021c00
 8001608:	40022000 	.word	0x40022000
 800160c:	40022400 	.word	0x40022400
 8001610:	40013c00 	.word	0x40013c00

08001614 <HAL_GPIO_WritePin>:
  *            @arg GPIO_PIN_RESET: to clear the port pin
  *            @arg GPIO_PIN_SET: to set the port pin
  * @retval None
  */
void HAL_GPIO_WritePin(GPIO_TypeDef* GPIOx, uint16_t GPIO_Pin, GPIO_PinState PinState)
{
 8001614:	b480      	push	{r7}
 8001616:	b083      	sub	sp, #12
 8001618:	af00      	add	r7, sp, #0
 800161a:	6078      	str	r0, [r7, #4]
 800161c:	460b      	mov	r3, r1
 800161e:	807b      	strh	r3, [r7, #2]
 8001620:	4613      	mov	r3, r2
 8001622:	707b      	strb	r3, [r7, #1]
  /* Check the parameters */
  assert_param(IS_GPIO_PIN(GPIO_Pin));
  assert_param(IS_GPIO_PIN_ACTION(PinState));

  if(PinState != GPIO_PIN_RESET)
 8001624:	787b      	ldrb	r3, [r7, #1]
 8001626:	2b00      	cmp	r3, #0
 8001628:	d003      	beq.n	8001632 <HAL_GPIO_WritePin+0x1e>
  {
    GPIOx->BSRR = GPIO_Pin;
 800162a:	887a      	ldrh	r2, [r7, #2]
 800162c:	687b      	ldr	r3, [r7, #4]
 800162e:	619a      	str	r2, [r3, #24]
  }
  else
  {
    GPIOx->BSRR = (uint32_t)GPIO_Pin << 16;
  }
}
 8001630:	e003      	b.n	800163a <HAL_GPIO_WritePin+0x26>
    GPIOx->BSRR = (uint32_t)GPIO_Pin << 16;
 8001632:	887b      	ldrh	r3, [r7, #2]
 8001634:	041a      	lsls	r2, r3, #16
 8001636:	687b      	ldr	r3, [r7, #4]
 8001638:	619a      	str	r2, [r3, #24]
}
 800163a:	bf00      	nop
 800163c:	370c      	adds	r7, #12
 800163e:	46bd      	mov	sp, r7
 8001640:	f85d 7b04 	ldr.w	r7, [sp], #4
 8001644:	4770      	bx	lr
	...

08001648 <HAL_PWREx_EnableOverDrive>:
  *         During the Over-drive switch activation, no peripheral clocks should be enabled.   
  *         The peripheral clocks must be enabled once the Over-drive mode is activated.   
  * @retval HAL status
  */
HAL_StatusTypeDef HAL_PWREx_EnableOverDrive(void)
{
 8001648:	b580      	push	{r7, lr}
 800164a:	b082      	sub	sp, #8
 800164c:	af00      	add	r7, sp, #0
  uint32_t tickstart = 0;
 800164e:	2300      	movs	r3, #0
 8001650:	607b      	str	r3, [r7, #4]

  __HAL_RCC_PWR_CLK_ENABLE();
 8001652:	4b23      	ldr	r3, [pc, #140]	; (80016e0 <HAL_PWREx_EnableOverDrive+0x98>)
 8001654:	6c1b      	ldr	r3, [r3, #64]	; 0x40
 8001656:	4a22      	ldr	r2, [pc, #136]	; (80016e0 <HAL_PWREx_EnableOverDrive+0x98>)
 8001658:	f043 5380 	orr.w	r3, r3, #268435456	; 0x10000000
 800165c:	6413      	str	r3, [r2, #64]	; 0x40
 800165e:	4b20      	ldr	r3, [pc, #128]	; (80016e0 <HAL_PWREx_EnableOverDrive+0x98>)
 8001660:	6c1b      	ldr	r3, [r3, #64]	; 0x40
 8001662:	f003 5380 	and.w	r3, r3, #268435456	; 0x10000000
 8001666:	603b      	str	r3, [r7, #0]
 8001668:	683b      	ldr	r3, [r7, #0]
  
  /* Enable the Over-drive to extend the clock frequency to 216 MHz */
  __HAL_PWR_OVERDRIVE_ENABLE();
 800166a:	4b1e      	ldr	r3, [pc, #120]	; (80016e4 <HAL_PWREx_EnableOverDrive+0x9c>)
 800166c:	681b      	ldr	r3, [r3, #0]
 800166e:	4a1d      	ldr	r2, [pc, #116]	; (80016e4 <HAL_PWREx_EnableOverDrive+0x9c>)
 8001670:	f443 3380 	orr.w	r3, r3, #65536	; 0x10000
 8001674:	6013      	str	r3, [r2, #0]

  /* Get tick */
  tickstart = HAL_GetTick();
 8001676:	f7ff faff 	bl	8000c78 <HAL_GetTick>
 800167a:	6078      	str	r0, [r7, #4]

  while(!__HAL_PWR_GET_FLAG(PWR_FLAG_ODRDY))
 800167c:	e009      	b.n	8001692 <HAL_PWREx_EnableOverDrive+0x4a>
  {
    if((HAL_GetTick() - tickstart ) > PWR_OVERDRIVE_TIMEOUT_VALUE)
 800167e:	f7ff fafb 	bl	8000c78 <HAL_GetTick>
 8001682:	4602      	mov	r2, r0
 8001684:	687b      	ldr	r3, [r7, #4]
 8001686:	1ad3      	subs	r3, r2, r3
 8001688:	f5b3 7f7a 	cmp.w	r3, #1000	; 0x3e8
 800168c:	d901      	bls.n	8001692 <HAL_PWREx_EnableOverDrive+0x4a>
    {
      return HAL_TIMEOUT;
 800168e:	2303      	movs	r3, #3
 8001690:	e022      	b.n	80016d8 <HAL_PWREx_EnableOverDrive+0x90>
  while(!__HAL_PWR_GET_FLAG(PWR_FLAG_ODRDY))
 8001692:	4b14      	ldr	r3, [pc, #80]	; (80016e4 <HAL_PWREx_EnableOverDrive+0x9c>)
 8001694:	685b      	ldr	r3, [r3, #4]
 8001696:	f403 3380 	and.w	r3, r3, #65536	; 0x10000
 800169a:	f5b3 3f80 	cmp.w	r3, #65536	; 0x10000
 800169e:	d1ee      	bne.n	800167e <HAL_PWREx_EnableOverDrive+0x36>
    }
  }
  
  /* Enable the Over-drive switch */
  __HAL_PWR_OVERDRIVESWITCHING_ENABLE();
 80016a0:	4b10      	ldr	r3, [pc, #64]	; (80016e4 <HAL_PWREx_EnableOverDrive+0x9c>)
 80016a2:	681b      	ldr	r3, [r3, #0]
 80016a4:	4a0f      	ldr	r2, [pc, #60]	; (80016e4 <HAL_PWREx_EnableOverDrive+0x9c>)
 80016a6:	f443 3300 	orr.w	r3, r3, #131072	; 0x20000
 80016aa:	6013      	str	r3, [r2, #0]

  /* Get tick */
  tickstart = HAL_GetTick();
 80016ac:	f7ff fae4 	bl	8000c78 <HAL_GetTick>
 80016b0:	6078      	str	r0, [r7, #4]

  while(!__HAL_PWR_GET_FLAG(PWR_FLAG_ODSWRDY))
 80016b2:	e009      	b.n	80016c8 <HAL_PWREx_EnableOverDrive+0x80>
  {
    if((HAL_GetTick() - tickstart ) > PWR_OVERDRIVE_TIMEOUT_VALUE)
 80016b4:	f7ff fae0 	bl	8000c78 <HAL_GetTick>
 80016b8:	4602      	mov	r2, r0
 80016ba:	687b      	ldr	r3, [r7, #4]
 80016bc:	1ad3      	subs	r3, r2, r3
 80016be:	f5b3 7f7a 	cmp.w	r3, #1000	; 0x3e8
 80016c2:	d901      	bls.n	80016c8 <HAL_PWREx_EnableOverDrive+0x80>
    {
      return HAL_TIMEOUT;
 80016c4:	2303      	movs	r3, #3
 80016c6:	e007      	b.n	80016d8 <HAL_PWREx_EnableOverDrive+0x90>
  while(!__HAL_PWR_GET_FLAG(PWR_FLAG_ODSWRDY))
 80016c8:	4b06      	ldr	r3, [pc, #24]	; (80016e4 <HAL_PWREx_EnableOverDrive+0x9c>)
 80016ca:	685b      	ldr	r3, [r3, #4]
 80016cc:	f403 3300 	and.w	r3, r3, #131072	; 0x20000
 80016d0:	f5b3 3f00 	cmp.w	r3, #131072	; 0x20000
 80016d4:	d1ee      	bne.n	80016b4 <HAL_PWREx_EnableOverDrive+0x6c>
    }
  } 
  return HAL_OK;
 80016d6:	2300      	movs	r3, #0
}
 80016d8:	4618      	mov	r0, r3
 80016da:	3708      	adds	r7, #8
 80016dc:	46bd      	mov	sp, r7
 80016de:	bd80      	pop	{r7, pc}
 80016e0:	40023800 	.word	0x40023800
 80016e4:	40007000 	.word	0x40007000

080016e8 <HAL_RCC_OscConfig>:
  *         supported by this function. User should request a transition to HSE Off
  *         first and then HSE On or HSE Bypass.
  * @retval HAL status
  */
HAL_StatusTypeDef HAL_RCC_OscConfig(RCC_OscInitTypeDef  *RCC_OscInitStruct)
{
 80016e8:	b580      	push	{r7, lr}
 80016ea:	b086      	sub	sp, #24
 80016ec:	af00      	add	r7, sp, #0
 80016ee:	6078      	str	r0, [r7, #4]
  uint32_t tickstart;
  uint32_t pll_config;
  FlagStatus pwrclkchanged = RESET;
 80016f0:	2300      	movs	r3, #0
 80016f2:	75fb      	strb	r3, [r7, #23]

  /* Check Null pointer */
  if (RCC_OscInitStruct == NULL)
 80016f4:	687b      	ldr	r3, [r7, #4]
 80016f6:	2b00      	cmp	r3, #0
 80016f8:	d101      	bne.n	80016fe <HAL_RCC_OscConfig+0x16>
  {
    return HAL_ERROR;
 80016fa:	2301      	movs	r3, #1
 80016fc:	e29b      	b.n	8001c36 <HAL_RCC_OscConfig+0x54e>

  /* Check the parameters */
  assert_param(IS_RCC_OSCILLATORTYPE(RCC_OscInitStruct->OscillatorType));

  /*------------------------------- HSE Configuration ------------------------*/
  if (((RCC_OscInitStruct->OscillatorType) & RCC_OSCILLATORTYPE_HSE) == RCC_OSCILLATORTYPE_HSE)
 80016fe:	687b      	ldr	r3, [r7, #4]
 8001700:	681b      	ldr	r3, [r3, #0]
 8001702:	f003 0301 	and.w	r3, r3, #1
 8001706:	2b00      	cmp	r3, #0
 8001708:	f000 8087 	beq.w	800181a <HAL_RCC_OscConfig+0x132>
  {
    /* Check the parameters */
    assert_param(IS_RCC_HSE(RCC_OscInitStruct->HSEState));
    /* When the HSE is used as system clock or clock source for PLL, It can not be disabled */
    if ((__HAL_RCC_GET_SYSCLK_SOURCE() == RCC_SYSCLKSOURCE_STATUS_HSE)
 800170c:	4b96      	ldr	r3, [pc, #600]	; (8001968 <HAL_RCC_OscConfig+0x280>)
 800170e:	689b      	ldr	r3, [r3, #8]
 8001710:	f003 030c 	and.w	r3, r3, #12
 8001714:	2b04      	cmp	r3, #4
 8001716:	d00c      	beq.n	8001732 <HAL_RCC_OscConfig+0x4a>
        || ((__HAL_RCC_GET_SYSCLK_SOURCE() == RCC_SYSCLKSOURCE_STATUS_PLLCLK) && ((RCC->PLLCFGR & RCC_PLLCFGR_PLLSRC) == RCC_PLLCFGR_PLLSRC_HSE)))
 8001718:	4b93      	ldr	r3, [pc, #588]	; (8001968 <HAL_RCC_OscConfig+0x280>)
 800171a:	689b      	ldr	r3, [r3, #8]
 800171c:	f003 030c 	and.w	r3, r3, #12
 8001720:	2b08      	cmp	r3, #8
 8001722:	d112      	bne.n	800174a <HAL_RCC_OscConfig+0x62>
 8001724:	4b90      	ldr	r3, [pc, #576]	; (8001968 <HAL_RCC_OscConfig+0x280>)
 8001726:	685b      	ldr	r3, [r3, #4]
 8001728:	f403 0380 	and.w	r3, r3, #4194304	; 0x400000
 800172c:	f5b3 0f80 	cmp.w	r3, #4194304	; 0x400000
 8001730:	d10b      	bne.n	800174a <HAL_RCC_OscConfig+0x62>
    {
      if ((__HAL_RCC_GET_FLAG(RCC_FLAG_HSERDY) != RESET) && (RCC_OscInitStruct->HSEState == RCC_HSE_OFF))
 8001732:	4b8d      	ldr	r3, [pc, #564]	; (8001968 <HAL_RCC_OscConfig+0x280>)
 8001734:	681b      	ldr	r3, [r3, #0]
 8001736:	f403 3300 	and.w	r3, r3, #131072	; 0x20000
 800173a:	2b00      	cmp	r3, #0
 800173c:	d06c      	beq.n	8001818 <HAL_RCC_OscConfig+0x130>
 800173e:	687b      	ldr	r3, [r7, #4]
 8001740:	685b      	ldr	r3, [r3, #4]
 8001742:	2b00      	cmp	r3, #0
 8001744:	d168      	bne.n	8001818 <HAL_RCC_OscConfig+0x130>
      {
        return HAL_ERROR;
 8001746:	2301      	movs	r3, #1
 8001748:	e275      	b.n	8001c36 <HAL_RCC_OscConfig+0x54e>
      }
    }
    else
    {
      /* Set the new HSE configuration ---------------------------------------*/
      __HAL_RCC_HSE_CONFIG(RCC_OscInitStruct->HSEState);
 800174a:	687b      	ldr	r3, [r7, #4]
 800174c:	685b      	ldr	r3, [r3, #4]
 800174e:	f5b3 3f80 	cmp.w	r3, #65536	; 0x10000
 8001752:	d106      	bne.n	8001762 <HAL_RCC_OscConfig+0x7a>
 8001754:	4b84      	ldr	r3, [pc, #528]	; (8001968 <HAL_RCC_OscConfig+0x280>)
 8001756:	681b      	ldr	r3, [r3, #0]
 8001758:	4a83      	ldr	r2, [pc, #524]	; (8001968 <HAL_RCC_OscConfig+0x280>)
 800175a:	f443 3380 	orr.w	r3, r3, #65536	; 0x10000
 800175e:	6013      	str	r3, [r2, #0]
 8001760:	e02e      	b.n	80017c0 <HAL_RCC_OscConfig+0xd8>
 8001762:	687b      	ldr	r3, [r7, #4]
 8001764:	685b      	ldr	r3, [r3, #4]
 8001766:	2b00      	cmp	r3, #0
 8001768:	d10c      	bne.n	8001784 <HAL_RCC_OscConfig+0x9c>
 800176a:	4b7f      	ldr	r3, [pc, #508]	; (8001968 <HAL_RCC_OscConfig+0x280>)
 800176c:	681b      	ldr	r3, [r3, #0]
 800176e:	4a7e      	ldr	r2, [pc, #504]	; (8001968 <HAL_RCC_OscConfig+0x280>)
 8001770:	f423 3380 	bic.w	r3, r3, #65536	; 0x10000
 8001774:	6013      	str	r3, [r2, #0]
 8001776:	4b7c      	ldr	r3, [pc, #496]	; (8001968 <HAL_RCC_OscConfig+0x280>)
 8001778:	681b      	ldr	r3, [r3, #0]
 800177a:	4a7b      	ldr	r2, [pc, #492]	; (8001968 <HAL_RCC_OscConfig+0x280>)
 800177c:	f423 2380 	bic.w	r3, r3, #262144	; 0x40000
 8001780:	6013      	str	r3, [r2, #0]
 8001782:	e01d      	b.n	80017c0 <HAL_RCC_OscConfig+0xd8>
 8001784:	687b      	ldr	r3, [r7, #4]
 8001786:	685b      	ldr	r3, [r3, #4]
 8001788:	f5b3 2fa0 	cmp.w	r3, #327680	; 0x50000
 800178c:	d10c      	bne.n	80017a8 <HAL_RCC_OscConfig+0xc0>
 800178e:	4b76      	ldr	r3, [pc, #472]	; (8001968 <HAL_RCC_OscConfig+0x280>)
 8001790:	681b      	ldr	r3, [r3, #0]
 8001792:	4a75      	ldr	r2, [pc, #468]	; (8001968 <HAL_RCC_OscConfig+0x280>)
 8001794:	f443 2380 	orr.w	r3, r3, #262144	; 0x40000
 8001798:	6013      	str	r3, [r2, #0]
 800179a:	4b73      	ldr	r3, [pc, #460]	; (8001968 <HAL_RCC_OscConfig+0x280>)
 800179c:	681b      	ldr	r3, [r3, #0]
 800179e:	4a72      	ldr	r2, [pc, #456]	; (8001968 <HAL_RCC_OscConfig+0x280>)
 80017a0:	f443 3380 	orr.w	r3, r3, #65536	; 0x10000
 80017a4:	6013      	str	r3, [r2, #0]
 80017a6:	e00b      	b.n	80017c0 <HAL_RCC_OscConfig+0xd8>
 80017a8:	4b6f      	ldr	r3, [pc, #444]	; (8001968 <HAL_RCC_OscConfig+0x280>)
 80017aa:	681b      	ldr	r3, [r3, #0]
 80017ac:	4a6e      	ldr	r2, [pc, #440]	; (8001968 <HAL_RCC_OscConfig+0x280>)
 80017ae:	f423 3380 	bic.w	r3, r3, #65536	; 0x10000
 80017b2:	6013      	str	r3, [r2, #0]
 80017b4:	4b6c      	ldr	r3, [pc, #432]	; (8001968 <HAL_RCC_OscConfig+0x280>)
 80017b6:	681b      	ldr	r3, [r3, #0]
 80017b8:	4a6b      	ldr	r2, [pc, #428]	; (8001968 <HAL_RCC_OscConfig+0x280>)
 80017ba:	f423 2380 	bic.w	r3, r3, #262144	; 0x40000
 80017be:	6013      	str	r3, [r2, #0]

      /* Check the HSE State */
      if (RCC_OscInitStruct->HSEState != RCC_HSE_OFF)
 80017c0:	687b      	ldr	r3, [r7, #4]
 80017c2:	685b      	ldr	r3, [r3, #4]
 80017c4:	2b00      	cmp	r3, #0
 80017c6:	d013      	beq.n	80017f0 <HAL_RCC_OscConfig+0x108>
      {
        /* Get Start Tick*/
        tickstart = HAL_GetTick();
 80017c8:	f7ff fa56 	bl	8000c78 <HAL_GetTick>
 80017cc:	6138      	str	r0, [r7, #16]

        /* Wait till HSE is ready */
        while (__HAL_RCC_GET_FLAG(RCC_FLAG_HSERDY) == RESET)
 80017ce:	e008      	b.n	80017e2 <HAL_RCC_OscConfig+0xfa>
        {
          if ((HAL_GetTick() - tickstart) > HSE_TIMEOUT_VALUE)
 80017d0:	f7ff fa52 	bl	8000c78 <HAL_GetTick>
 80017d4:	4602      	mov	r2, r0
 80017d6:	693b      	ldr	r3, [r7, #16]
 80017d8:	1ad3      	subs	r3, r2, r3
 80017da:	2b64      	cmp	r3, #100	; 0x64
 80017dc:	d901      	bls.n	80017e2 <HAL_RCC_OscConfig+0xfa>
          {
            return HAL_TIMEOUT;
 80017de:	2303      	movs	r3, #3
 80017e0:	e229      	b.n	8001c36 <HAL_RCC_OscConfig+0x54e>
        while (__HAL_RCC_GET_FLAG(RCC_FLAG_HSERDY) == RESET)
 80017e2:	4b61      	ldr	r3, [pc, #388]	; (8001968 <HAL_RCC_OscConfig+0x280>)
 80017e4:	681b      	ldr	r3, [r3, #0]
 80017e6:	f403 3300 	and.w	r3, r3, #131072	; 0x20000
 80017ea:	2b00      	cmp	r3, #0
 80017ec:	d0f0      	beq.n	80017d0 <HAL_RCC_OscConfig+0xe8>
 80017ee:	e014      	b.n	800181a <HAL_RCC_OscConfig+0x132>
        }
      }
      else
      {
        /* Get Start Tick*/
        tickstart = HAL_GetTick();
 80017f0:	f7ff fa42 	bl	8000c78 <HAL_GetTick>
 80017f4:	6138      	str	r0, [r7, #16]

        /* Wait till HSE is bypassed or disabled */
        while (__HAL_RCC_GET_FLAG(RCC_FLAG_HSERDY) != RESET)
 80017f6:	e008      	b.n	800180a <HAL_RCC_OscConfig+0x122>
        {
          if ((HAL_GetTick() - tickstart) > HSE_TIMEOUT_VALUE)
 80017f8:	f7ff fa3e 	bl	8000c78 <HAL_GetTick>
 80017fc:	4602      	mov	r2, r0
 80017fe:	693b      	ldr	r3, [r7, #16]
 8001800:	1ad3      	subs	r3, r2, r3
 8001802:	2b64      	cmp	r3, #100	; 0x64
 8001804:	d901      	bls.n	800180a <HAL_RCC_OscConfig+0x122>
          {
            return HAL_TIMEOUT;
 8001806:	2303      	movs	r3, #3
 8001808:	e215      	b.n	8001c36 <HAL_RCC_OscConfig+0x54e>
        while (__HAL_RCC_GET_FLAG(RCC_FLAG_HSERDY) != RESET)
 800180a:	4b57      	ldr	r3, [pc, #348]	; (8001968 <HAL_RCC_OscConfig+0x280>)
 800180c:	681b      	ldr	r3, [r3, #0]
 800180e:	f403 3300 	and.w	r3, r3, #131072	; 0x20000
 8001812:	2b00      	cmp	r3, #0
 8001814:	d1f0      	bne.n	80017f8 <HAL_RCC_OscConfig+0x110>
 8001816:	e000      	b.n	800181a <HAL_RCC_OscConfig+0x132>
      if ((__HAL_RCC_GET_FLAG(RCC_FLAG_HSERDY) != RESET) && (RCC_OscInitStruct->HSEState == RCC_HSE_OFF))
 8001818:	bf00      	nop
        }
      }
    }
  }
  /*----------------------------- HSI Configuration --------------------------*/
  if (((RCC_OscInitStruct->OscillatorType) & RCC_OSCILLATORTYPE_HSI) == RCC_OSCILLATORTYPE_HSI)
 800181a:	687b      	ldr	r3, [r7, #4]
 800181c:	681b      	ldr	r3, [r3, #0]
 800181e:	f003 0302 	and.w	r3, r3, #2
 8001822:	2b00      	cmp	r3, #0
 8001824:	d069      	beq.n	80018fa <HAL_RCC_OscConfig+0x212>
    /* Check the parameters */
    assert_param(IS_RCC_HSI(RCC_OscInitStruct->HSIState));
    assert_param(IS_RCC_CALIBRATION_VALUE(RCC_OscInitStruct->HSICalibrationValue));

    /* Check if HSI is used as system clock or as PLL source when PLL is selected as system clock */
    if ((__HAL_RCC_GET_SYSCLK_SOURCE() == RCC_SYSCLKSOURCE_STATUS_HSI)
 8001826:	4b50      	ldr	r3, [pc, #320]	; (8001968 <HAL_RCC_OscConfig+0x280>)
 8001828:	689b      	ldr	r3, [r3, #8]
 800182a:	f003 030c 	and.w	r3, r3, #12
 800182e:	2b00      	cmp	r3, #0
 8001830:	d00b      	beq.n	800184a <HAL_RCC_OscConfig+0x162>
        || ((__HAL_RCC_GET_SYSCLK_SOURCE() == RCC_SYSCLKSOURCE_STATUS_PLLCLK) && ((RCC->PLLCFGR & RCC_PLLCFGR_PLLSRC) == RCC_PLLCFGR_PLLSRC_HSI)))
 8001832:	4b4d      	ldr	r3, [pc, #308]	; (8001968 <HAL_RCC_OscConfig+0x280>)
 8001834:	689b      	ldr	r3, [r3, #8]
 8001836:	f003 030c 	and.w	r3, r3, #12
 800183a:	2b08      	cmp	r3, #8
 800183c:	d11c      	bne.n	8001878 <HAL_RCC_OscConfig+0x190>
 800183e:	4b4a      	ldr	r3, [pc, #296]	; (8001968 <HAL_RCC_OscConfig+0x280>)
 8001840:	685b      	ldr	r3, [r3, #4]
 8001842:	f403 0380 	and.w	r3, r3, #4194304	; 0x400000
 8001846:	2b00      	cmp	r3, #0
 8001848:	d116      	bne.n	8001878 <HAL_RCC_OscConfig+0x190>
    {
      /* When HSI is used as system clock it will not disabled */
      if ((__HAL_RCC_GET_FLAG(RCC_FLAG_HSIRDY) != RESET) && (RCC_OscInitStruct->HSIState != RCC_HSI_ON))
 800184a:	4b47      	ldr	r3, [pc, #284]	; (8001968 <HAL_RCC_OscConfig+0x280>)
 800184c:	681b      	ldr	r3, [r3, #0]
 800184e:	f003 0302 	and.w	r3, r3, #2
 8001852:	2b00      	cmp	r3, #0
 8001854:	d005      	beq.n	8001862 <HAL_RCC_OscConfig+0x17a>
 8001856:	687b      	ldr	r3, [r7, #4]
 8001858:	68db      	ldr	r3, [r3, #12]
 800185a:	2b01      	cmp	r3, #1
 800185c:	d001      	beq.n	8001862 <HAL_RCC_OscConfig+0x17a>
      {
        return HAL_ERROR;
 800185e:	2301      	movs	r3, #1
 8001860:	e1e9      	b.n	8001c36 <HAL_RCC_OscConfig+0x54e>
      }
      /* Otherwise, just the calibration is allowed */
      else
      {
        /* Adjusts the Internal High Speed oscillator (HSI) calibration value.*/
        __HAL_RCC_HSI_CALIBRATIONVALUE_ADJUST(RCC_OscInitStruct->HSICalibrationValue);
 8001862:	4b41      	ldr	r3, [pc, #260]	; (8001968 <HAL_RCC_OscConfig+0x280>)
 8001864:	681b      	ldr	r3, [r3, #0]
 8001866:	f023 02f8 	bic.w	r2, r3, #248	; 0xf8
 800186a:	687b      	ldr	r3, [r7, #4]
 800186c:	691b      	ldr	r3, [r3, #16]
 800186e:	00db      	lsls	r3, r3, #3
 8001870:	493d      	ldr	r1, [pc, #244]	; (8001968 <HAL_RCC_OscConfig+0x280>)
 8001872:	4313      	orrs	r3, r2
 8001874:	600b      	str	r3, [r1, #0]
      if ((__HAL_RCC_GET_FLAG(RCC_FLAG_HSIRDY) != RESET) && (RCC_OscInitStruct->HSIState != RCC_HSI_ON))
 8001876:	e040      	b.n	80018fa <HAL_RCC_OscConfig+0x212>
      }
    }
    else
    {
      /* Check the HSI State */
      if ((RCC_OscInitStruct->HSIState) != RCC_HSI_OFF)
 8001878:	687b      	ldr	r3, [r7, #4]
 800187a:	68db      	ldr	r3, [r3, #12]
 800187c:	2b00      	cmp	r3, #0
 800187e:	d023      	beq.n	80018c8 <HAL_RCC_OscConfig+0x1e0>
      {
        /* Enable the Internal High Speed oscillator (HSI). */
        __HAL_RCC_HSI_ENABLE();
 8001880:	4b39      	ldr	r3, [pc, #228]	; (8001968 <HAL_RCC_OscConfig+0x280>)
 8001882:	681b      	ldr	r3, [r3, #0]
 8001884:	4a38      	ldr	r2, [pc, #224]	; (8001968 <HAL_RCC_OscConfig+0x280>)
 8001886:	f043 0301 	orr.w	r3, r3, #1
 800188a:	6013      	str	r3, [r2, #0]

        /* Get Start Tick*/
        tickstart = HAL_GetTick();
 800188c:	f7ff f9f4 	bl	8000c78 <HAL_GetTick>
 8001890:	6138      	str	r0, [r7, #16]

        /* Wait till HSI is ready */
        while (__HAL_RCC_GET_FLAG(RCC_FLAG_HSIRDY) == RESET)
 8001892:	e008      	b.n	80018a6 <HAL_RCC_OscConfig+0x1be>
        {
          if ((HAL_GetTick() - tickstart) > HSI_TIMEOUT_VALUE)
 8001894:	f7ff f9f0 	bl	8000c78 <HAL_GetTick>
 8001898:	4602      	mov	r2, r0
 800189a:	693b      	ldr	r3, [r7, #16]
 800189c:	1ad3      	subs	r3, r2, r3
 800189e:	2b02      	cmp	r3, #2
 80018a0:	d901      	bls.n	80018a6 <HAL_RCC_OscConfig+0x1be>
          {
            return HAL_TIMEOUT;
 80018a2:	2303      	movs	r3, #3
 80018a4:	e1c7      	b.n	8001c36 <HAL_RCC_OscConfig+0x54e>
        while (__HAL_RCC_GET_FLAG(RCC_FLAG_HSIRDY) == RESET)
 80018a6:	4b30      	ldr	r3, [pc, #192]	; (8001968 <HAL_RCC_OscConfig+0x280>)
 80018a8:	681b      	ldr	r3, [r3, #0]
 80018aa:	f003 0302 	and.w	r3, r3, #2
 80018ae:	2b00      	cmp	r3, #0
 80018b0:	d0f0      	beq.n	8001894 <HAL_RCC_OscConfig+0x1ac>
          }
        }

        /* Adjusts the Internal High Speed oscillator (HSI) calibration value.*/
        __HAL_RCC_HSI_CALIBRATIONVALUE_ADJUST(RCC_OscInitStruct->HSICalibrationValue);
 80018b2:	4b2d      	ldr	r3, [pc, #180]	; (8001968 <HAL_RCC_OscConfig+0x280>)
 80018b4:	681b      	ldr	r3, [r3, #0]
 80018b6:	f023 02f8 	bic.w	r2, r3, #248	; 0xf8
 80018ba:	687b      	ldr	r3, [r7, #4]
 80018bc:	691b      	ldr	r3, [r3, #16]
 80018be:	00db      	lsls	r3, r3, #3
 80018c0:	4929      	ldr	r1, [pc, #164]	; (8001968 <HAL_RCC_OscConfig+0x280>)
 80018c2:	4313      	orrs	r3, r2
 80018c4:	600b      	str	r3, [r1, #0]
 80018c6:	e018      	b.n	80018fa <HAL_RCC_OscConfig+0x212>
      }
      else
      {
        /* Disable the Internal High Speed oscillator (HSI). */
        __HAL_RCC_HSI_DISABLE();
 80018c8:	4b27      	ldr	r3, [pc, #156]	; (8001968 <HAL_RCC_OscConfig+0x280>)
 80018ca:	681b      	ldr	r3, [r3, #0]
 80018cc:	4a26      	ldr	r2, [pc, #152]	; (8001968 <HAL_RCC_OscConfig+0x280>)
 80018ce:	f023 0301 	bic.w	r3, r3, #1
 80018d2:	6013      	str	r3, [r2, #0]

        /* Get Start Tick*/
        tickstart = HAL_GetTick();
 80018d4:	f7ff f9d0 	bl	8000c78 <HAL_GetTick>
 80018d8:	6138      	str	r0, [r7, #16]

        /* Wait till HSI is ready */
        while (__HAL_RCC_GET_FLAG(RCC_FLAG_HSIRDY) != RESET)
 80018da:	e008      	b.n	80018ee <HAL_RCC_OscConfig+0x206>
        {
          if ((HAL_GetTick() - tickstart) > HSI_TIMEOUT_VALUE)
 80018dc:	f7ff f9cc 	bl	8000c78 <HAL_GetTick>
 80018e0:	4602      	mov	r2, r0
 80018e2:	693b      	ldr	r3, [r7, #16]
 80018e4:	1ad3      	subs	r3, r2, r3
 80018e6:	2b02      	cmp	r3, #2
 80018e8:	d901      	bls.n	80018ee <HAL_RCC_OscConfig+0x206>
          {
            return HAL_TIMEOUT;
 80018ea:	2303      	movs	r3, #3
 80018ec:	e1a3      	b.n	8001c36 <HAL_RCC_OscConfig+0x54e>
        while (__HAL_RCC_GET_FLAG(RCC_FLAG_HSIRDY) != RESET)
 80018ee:	4b1e      	ldr	r3, [pc, #120]	; (8001968 <HAL_RCC_OscConfig+0x280>)
 80018f0:	681b      	ldr	r3, [r3, #0]
 80018f2:	f003 0302 	and.w	r3, r3, #2
 80018f6:	2b00      	cmp	r3, #0
 80018f8:	d1f0      	bne.n	80018dc <HAL_RCC_OscConfig+0x1f4>
        }
      }
    }
  }
  /*------------------------------ LSI Configuration -------------------------*/
  if (((RCC_OscInitStruct->OscillatorType) & RCC_OSCILLATORTYPE_LSI) == RCC_OSCILLATORTYPE_LSI)
 80018fa:	687b      	ldr	r3, [r7, #4]
 80018fc:	681b      	ldr	r3, [r3, #0]
 80018fe:	f003 0308 	and.w	r3, r3, #8
 8001902:	2b00      	cmp	r3, #0
 8001904:	d038      	beq.n	8001978 <HAL_RCC_OscConfig+0x290>
  {
    /* Check the parameters */
    assert_param(IS_RCC_LSI(RCC_OscInitStruct->LSIState));

    /* Check the LSI State */
    if ((RCC_OscInitStruct->LSIState) != RCC_LSI_OFF)
 8001906:	687b      	ldr	r3, [r7, #4]
 8001908:	695b      	ldr	r3, [r3, #20]
 800190a:	2b00      	cmp	r3, #0
 800190c:	d019      	beq.n	8001942 <HAL_RCC_OscConfig+0x25a>
    {
      /* Enable the Internal Low Speed oscillator (LSI). */
      __HAL_RCC_LSI_ENABLE();
 800190e:	4b16      	ldr	r3, [pc, #88]	; (8001968 <HAL_RCC_OscConfig+0x280>)
 8001910:	6f5b      	ldr	r3, [r3, #116]	; 0x74
 8001912:	4a15      	ldr	r2, [pc, #84]	; (8001968 <HAL_RCC_OscConfig+0x280>)
 8001914:	f043 0301 	orr.w	r3, r3, #1
 8001918:	6753      	str	r3, [r2, #116]	; 0x74

      /* Get Start Tick*/
      tickstart = HAL_GetTick();
 800191a:	f7ff f9ad 	bl	8000c78 <HAL_GetTick>
 800191e:	6138      	str	r0, [r7, #16]

      /* Wait till LSI is ready */
      while (__HAL_RCC_GET_FLAG(RCC_FLAG_LSIRDY) == RESET)
 8001920:	e008      	b.n	8001934 <HAL_RCC_OscConfig+0x24c>
      {
        if ((HAL_GetTick() - tickstart) > LSI_TIMEOUT_VALUE)
 8001922:	f7ff f9a9 	bl	8000c78 <HAL_GetTick>
 8001926:	4602      	mov	r2, r0
 8001928:	693b      	ldr	r3, [r7, #16]
 800192a:	1ad3      	subs	r3, r2, r3
 800192c:	2b02      	cmp	r3, #2
 800192e:	d901      	bls.n	8001934 <HAL_RCC_OscConfig+0x24c>
        {
          return HAL_TIMEOUT;
 8001930:	2303      	movs	r3, #3
 8001932:	e180      	b.n	8001c36 <HAL_RCC_OscConfig+0x54e>
      while (__HAL_RCC_GET_FLAG(RCC_FLAG_LSIRDY) == RESET)
 8001934:	4b0c      	ldr	r3, [pc, #48]	; (8001968 <HAL_RCC_OscConfig+0x280>)
 8001936:	6f5b      	ldr	r3, [r3, #116]	; 0x74
 8001938:	f003 0302 	and.w	r3, r3, #2
 800193c:	2b00      	cmp	r3, #0
 800193e:	d0f0      	beq.n	8001922 <HAL_RCC_OscConfig+0x23a>
 8001940:	e01a      	b.n	8001978 <HAL_RCC_OscConfig+0x290>
      }
    }
    else
    {
      /* Disable the Internal Low Speed oscillator (LSI). */
      __HAL_RCC_LSI_DISABLE();
 8001942:	4b09      	ldr	r3, [pc, #36]	; (8001968 <HAL_RCC_OscConfig+0x280>)
 8001944:	6f5b      	ldr	r3, [r3, #116]	; 0x74
 8001946:	4a08      	ldr	r2, [pc, #32]	; (8001968 <HAL_RCC_OscConfig+0x280>)
 8001948:	f023 0301 	bic.w	r3, r3, #1
 800194c:	6753      	str	r3, [r2, #116]	; 0x74

      /* Get Start Tick*/
      tickstart = HAL_GetTick();
 800194e:	f7ff f993 	bl	8000c78 <HAL_GetTick>
 8001952:	6138      	str	r0, [r7, #16]

      /* Wait till LSI is ready */
      while (__HAL_RCC_GET_FLAG(RCC_FLAG_LSIRDY) != RESET)
 8001954:	e00a      	b.n	800196c <HAL_RCC_OscConfig+0x284>
      {
        if ((HAL_GetTick() - tickstart) > LSI_TIMEOUT_VALUE)
 8001956:	f7ff f98f 	bl	8000c78 <HAL_GetTick>
 800195a:	4602      	mov	r2, r0
 800195c:	693b      	ldr	r3, [r7, #16]
 800195e:	1ad3      	subs	r3, r2, r3
 8001960:	2b02      	cmp	r3, #2
 8001962:	d903      	bls.n	800196c <HAL_RCC_OscConfig+0x284>
        {
          return HAL_TIMEOUT;
 8001964:	2303      	movs	r3, #3
 8001966:	e166      	b.n	8001c36 <HAL_RCC_OscConfig+0x54e>
 8001968:	40023800 	.word	0x40023800
      while (__HAL_RCC_GET_FLAG(RCC_FLAG_LSIRDY) != RESET)
 800196c:	4b92      	ldr	r3, [pc, #584]	; (8001bb8 <HAL_RCC_OscConfig+0x4d0>)
 800196e:	6f5b      	ldr	r3, [r3, #116]	; 0x74
 8001970:	f003 0302 	and.w	r3, r3, #2
 8001974:	2b00      	cmp	r3, #0
 8001976:	d1ee      	bne.n	8001956 <HAL_RCC_OscConfig+0x26e>
        }
      }
    }
  }
  /*------------------------------ LSE Configuration -------------------------*/
  if (((RCC_OscInitStruct->OscillatorType) & RCC_OSCILLATORTYPE_LSE) == RCC_OSCILLATORTYPE_LSE)
 8001978:	687b      	ldr	r3, [r7, #4]
 800197a:	681b      	ldr	r3, [r3, #0]
 800197c:	f003 0304 	and.w	r3, r3, #4
 8001980:	2b00      	cmp	r3, #0
 8001982:	f000 80a4 	beq.w	8001ace <HAL_RCC_OscConfig+0x3e6>
    /* Check the parameters */
    assert_param(IS_RCC_LSE(RCC_OscInitStruct->LSEState));

    /* Update LSE configuration in Backup Domain control register    */
    /* Requires to enable write access to Backup Domain of necessary */
    if (__HAL_RCC_PWR_IS_CLK_DISABLED())
 8001986:	4b8c      	ldr	r3, [pc, #560]	; (8001bb8 <HAL_RCC_OscConfig+0x4d0>)
 8001988:	6c1b      	ldr	r3, [r3, #64]	; 0x40
 800198a:	f003 5380 	and.w	r3, r3, #268435456	; 0x10000000
 800198e:	2b00      	cmp	r3, #0
 8001990:	d10d      	bne.n	80019ae <HAL_RCC_OscConfig+0x2c6>
    {
      /* Enable Power Clock*/
      __HAL_RCC_PWR_CLK_ENABLE();
 8001992:	4b89      	ldr	r3, [pc, #548]	; (8001bb8 <HAL_RCC_OscConfig+0x4d0>)
 8001994:	6c1b      	ldr	r3, [r3, #64]	; 0x40
 8001996:	4a88      	ldr	r2, [pc, #544]	; (8001bb8 <HAL_RCC_OscConfig+0x4d0>)
 8001998:	f043 5380 	orr.w	r3, r3, #268435456	; 0x10000000
 800199c:	6413      	str	r3, [r2, #64]	; 0x40
 800199e:	4b86      	ldr	r3, [pc, #536]	; (8001bb8 <HAL_RCC_OscConfig+0x4d0>)
 80019a0:	6c1b      	ldr	r3, [r3, #64]	; 0x40
 80019a2:	f003 5380 	and.w	r3, r3, #268435456	; 0x10000000
 80019a6:	60bb      	str	r3, [r7, #8]
 80019a8:	68bb      	ldr	r3, [r7, #8]
      pwrclkchanged = SET;
 80019aa:	2301      	movs	r3, #1
 80019ac:	75fb      	strb	r3, [r7, #23]
    }

    if (HAL_IS_BIT_CLR(PWR->CR1, PWR_CR1_DBP))
 80019ae:	4b83      	ldr	r3, [pc, #524]	; (8001bbc <HAL_RCC_OscConfig+0x4d4>)
 80019b0:	681b      	ldr	r3, [r3, #0]
 80019b2:	f403 7380 	and.w	r3, r3, #256	; 0x100
 80019b6:	2b00      	cmp	r3, #0
 80019b8:	d118      	bne.n	80019ec <HAL_RCC_OscConfig+0x304>
    {
      /* Enable write access to Backup domain */
      PWR->CR1 |= PWR_CR1_DBP;
 80019ba:	4b80      	ldr	r3, [pc, #512]	; (8001bbc <HAL_RCC_OscConfig+0x4d4>)
 80019bc:	681b      	ldr	r3, [r3, #0]
 80019be:	4a7f      	ldr	r2, [pc, #508]	; (8001bbc <HAL_RCC_OscConfig+0x4d4>)
 80019c0:	f443 7380 	orr.w	r3, r3, #256	; 0x100
 80019c4:	6013      	str	r3, [r2, #0]

      /* Wait for Backup domain Write protection disable */
      tickstart = HAL_GetTick();
 80019c6:	f7ff f957 	bl	8000c78 <HAL_GetTick>
 80019ca:	6138      	str	r0, [r7, #16]

      while (HAL_IS_BIT_CLR(PWR->CR1, PWR_CR1_DBP))
 80019cc:	e008      	b.n	80019e0 <HAL_RCC_OscConfig+0x2f8>
      {
        if ((HAL_GetTick() - tickstart) > RCC_DBP_TIMEOUT_VALUE)
 80019ce:	f7ff f953 	bl	8000c78 <HAL_GetTick>
 80019d2:	4602      	mov	r2, r0
 80019d4:	693b      	ldr	r3, [r7, #16]
 80019d6:	1ad3      	subs	r3, r2, r3
 80019d8:	2b64      	cmp	r3, #100	; 0x64
 80019da:	d901      	bls.n	80019e0 <HAL_RCC_OscConfig+0x2f8>
        {
          return HAL_TIMEOUT;
 80019dc:	2303      	movs	r3, #3
 80019de:	e12a      	b.n	8001c36 <HAL_RCC_OscConfig+0x54e>
      while (HAL_IS_BIT_CLR(PWR->CR1, PWR_CR1_DBP))
 80019e0:	4b76      	ldr	r3, [pc, #472]	; (8001bbc <HAL_RCC_OscConfig+0x4d4>)
 80019e2:	681b      	ldr	r3, [r3, #0]
 80019e4:	f403 7380 	and.w	r3, r3, #256	; 0x100
 80019e8:	2b00      	cmp	r3, #0
 80019ea:	d0f0      	beq.n	80019ce <HAL_RCC_OscConfig+0x2e6>
        }
      }
    }

    /* Set the new LSE configuration -----------------------------------------*/
    __HAL_RCC_LSE_CONFIG(RCC_OscInitStruct->LSEState);
 80019ec:	687b      	ldr	r3, [r7, #4]
 80019ee:	689b      	ldr	r3, [r3, #8]
 80019f0:	2b01      	cmp	r3, #1
 80019f2:	d106      	bne.n	8001a02 <HAL_RCC_OscConfig+0x31a>
 80019f4:	4b70      	ldr	r3, [pc, #448]	; (8001bb8 <HAL_RCC_OscConfig+0x4d0>)
 80019f6:	6f1b      	ldr	r3, [r3, #112]	; 0x70
 80019f8:	4a6f      	ldr	r2, [pc, #444]	; (8001bb8 <HAL_RCC_OscConfig+0x4d0>)
 80019fa:	f043 0301 	orr.w	r3, r3, #1
 80019fe:	6713      	str	r3, [r2, #112]	; 0x70
 8001a00:	e02d      	b.n	8001a5e <HAL_RCC_OscConfig+0x376>
 8001a02:	687b      	ldr	r3, [r7, #4]
 8001a04:	689b      	ldr	r3, [r3, #8]
 8001a06:	2b00      	cmp	r3, #0
 8001a08:	d10c      	bne.n	8001a24 <HAL_RCC_OscConfig+0x33c>
 8001a0a:	4b6b      	ldr	r3, [pc, #428]	; (8001bb8 <HAL_RCC_OscConfig+0x4d0>)
 8001a0c:	6f1b      	ldr	r3, [r3, #112]	; 0x70
 8001a0e:	4a6a      	ldr	r2, [pc, #424]	; (8001bb8 <HAL_RCC_OscConfig+0x4d0>)
 8001a10:	f023 0301 	bic.w	r3, r3, #1
 8001a14:	6713      	str	r3, [r2, #112]	; 0x70
 8001a16:	4b68      	ldr	r3, [pc, #416]	; (8001bb8 <HAL_RCC_OscConfig+0x4d0>)
 8001a18:	6f1b      	ldr	r3, [r3, #112]	; 0x70
 8001a1a:	4a67      	ldr	r2, [pc, #412]	; (8001bb8 <HAL_RCC_OscConfig+0x4d0>)
 8001a1c:	f023 0304 	bic.w	r3, r3, #4
 8001a20:	6713      	str	r3, [r2, #112]	; 0x70
 8001a22:	e01c      	b.n	8001a5e <HAL_RCC_OscConfig+0x376>
 8001a24:	687b      	ldr	r3, [r7, #4]
 8001a26:	689b      	ldr	r3, [r3, #8]
 8001a28:	2b05      	cmp	r3, #5
 8001a2a:	d10c      	bne.n	8001a46 <HAL_RCC_OscConfig+0x35e>
 8001a2c:	4b62      	ldr	r3, [pc, #392]	; (8001bb8 <HAL_RCC_OscConfig+0x4d0>)
 8001a2e:	6f1b      	ldr	r3, [r3, #112]	; 0x70
 8001a30:	4a61      	ldr	r2, [pc, #388]	; (8001bb8 <HAL_RCC_OscConfig+0x4d0>)
 8001a32:	f043 0304 	orr.w	r3, r3, #4
 8001a36:	6713      	str	r3, [r2, #112]	; 0x70
 8001a38:	4b5f      	ldr	r3, [pc, #380]	; (8001bb8 <HAL_RCC_OscConfig+0x4d0>)
 8001a3a:	6f1b      	ldr	r3, [r3, #112]	; 0x70
 8001a3c:	4a5e      	ldr	r2, [pc, #376]	; (8001bb8 <HAL_RCC_OscConfig+0x4d0>)
 8001a3e:	f043 0301 	orr.w	r3, r3, #1
 8001a42:	6713      	str	r3, [r2, #112]	; 0x70
 8001a44:	e00b      	b.n	8001a5e <HAL_RCC_OscConfig+0x376>
 8001a46:	4b5c      	ldr	r3, [pc, #368]	; (8001bb8 <HAL_RCC_OscConfig+0x4d0>)
 8001a48:	6f1b      	ldr	r3, [r3, #112]	; 0x70
 8001a4a:	4a5b      	ldr	r2, [pc, #364]	; (8001bb8 <HAL_RCC_OscConfig+0x4d0>)
 8001a4c:	f023 0301 	bic.w	r3, r3, #1
 8001a50:	6713      	str	r3, [r2, #112]	; 0x70
 8001a52:	4b59      	ldr	r3, [pc, #356]	; (8001bb8 <HAL_RCC_OscConfig+0x4d0>)
 8001a54:	6f1b      	ldr	r3, [r3, #112]	; 0x70
 8001a56:	4a58      	ldr	r2, [pc, #352]	; (8001bb8 <HAL_RCC_OscConfig+0x4d0>)
 8001a58:	f023 0304 	bic.w	r3, r3, #4
 8001a5c:	6713      	str	r3, [r2, #112]	; 0x70
    /* Check the LSE State */
    if ((RCC_OscInitStruct->LSEState) != RCC_LSE_OFF)
 8001a5e:	687b      	ldr	r3, [r7, #4]
 8001a60:	689b      	ldr	r3, [r3, #8]
 8001a62:	2b00      	cmp	r3, #0
 8001a64:	d015      	beq.n	8001a92 <HAL_RCC_OscConfig+0x3aa>
    {
      /* Get Start Tick*/
      tickstart = HAL_GetTick();
 8001a66:	f7ff f907 	bl	8000c78 <HAL_GetTick>
 8001a6a:	6138      	str	r0, [r7, #16]

      /* Wait till LSE is ready */
      while (__HAL_RCC_GET_FLAG(RCC_FLAG_LSERDY) == RESET)
 8001a6c:	e00a      	b.n	8001a84 <HAL_RCC_OscConfig+0x39c>
      {
        if ((HAL_GetTick() - tickstart) > RCC_LSE_TIMEOUT_VALUE)
 8001a6e:	f7ff f903 	bl	8000c78 <HAL_GetTick>
 8001a72:	4602      	mov	r2, r0
 8001a74:	693b      	ldr	r3, [r7, #16]
 8001a76:	1ad3      	subs	r3, r2, r3
 8001a78:	f241 3288 	movw	r2, #5000	; 0x1388
 8001a7c:	4293      	cmp	r3, r2
 8001a7e:	d901      	bls.n	8001a84 <HAL_RCC_OscConfig+0x39c>
        {
          return HAL_TIMEOUT;
 8001a80:	2303      	movs	r3, #3
 8001a82:	e0d8      	b.n	8001c36 <HAL_RCC_OscConfig+0x54e>
      while (__HAL_RCC_GET_FLAG(RCC_FLAG_LSERDY) == RESET)
 8001a84:	4b4c      	ldr	r3, [pc, #304]	; (8001bb8 <HAL_RCC_OscConfig+0x4d0>)
 8001a86:	6f1b      	ldr	r3, [r3, #112]	; 0x70
 8001a88:	f003 0302 	and.w	r3, r3, #2
 8001a8c:	2b00      	cmp	r3, #0
 8001a8e:	d0ee      	beq.n	8001a6e <HAL_RCC_OscConfig+0x386>
 8001a90:	e014      	b.n	8001abc <HAL_RCC_OscConfig+0x3d4>
      }
    }
    else
    {
      /* Get Start Tick*/
      tickstart = HAL_GetTick();
 8001a92:	f7ff f8f1 	bl	8000c78 <HAL_GetTick>
 8001a96:	6138      	str	r0, [r7, #16]

      /* Wait till LSE is ready */
      while (__HAL_RCC_GET_FLAG(RCC_FLAG_LSERDY) != RESET)
 8001a98:	e00a      	b.n	8001ab0 <HAL_RCC_OscConfig+0x3c8>
      {
        if ((HAL_GetTick() - tickstart) > RCC_LSE_TIMEOUT_VALUE)
 8001a9a:	f7ff f8ed 	bl	8000c78 <HAL_GetTick>
 8001a9e:	4602      	mov	r2, r0
 8001aa0:	693b      	ldr	r3, [r7, #16]
 8001aa2:	1ad3      	subs	r3, r2, r3
 8001aa4:	f241 3288 	movw	r2, #5000	; 0x1388
 8001aa8:	4293      	cmp	r3, r2
 8001aaa:	d901      	bls.n	8001ab0 <HAL_RCC_OscConfig+0x3c8>
        {
          return HAL_TIMEOUT;
 8001aac:	2303      	movs	r3, #3
 8001aae:	e0c2      	b.n	8001c36 <HAL_RCC_OscConfig+0x54e>
      while (__HAL_RCC_GET_FLAG(RCC_FLAG_LSERDY) != RESET)
 8001ab0:	4b41      	ldr	r3, [pc, #260]	; (8001bb8 <HAL_RCC_OscConfig+0x4d0>)
 8001ab2:	6f1b      	ldr	r3, [r3, #112]	; 0x70
 8001ab4:	f003 0302 	and.w	r3, r3, #2
 8001ab8:	2b00      	cmp	r3, #0
 8001aba:	d1ee      	bne.n	8001a9a <HAL_RCC_OscConfig+0x3b2>
        }
      }
    }

    /* Restore clock configuration if changed */
    if (pwrclkchanged == SET)
 8001abc:	7dfb      	ldrb	r3, [r7, #23]
 8001abe:	2b01      	cmp	r3, #1
 8001ac0:	d105      	bne.n	8001ace <HAL_RCC_OscConfig+0x3e6>
    {
      __HAL_RCC_PWR_CLK_DISABLE();
 8001ac2:	4b3d      	ldr	r3, [pc, #244]	; (8001bb8 <HAL_RCC_OscConfig+0x4d0>)
 8001ac4:	6c1b      	ldr	r3, [r3, #64]	; 0x40
 8001ac6:	4a3c      	ldr	r2, [pc, #240]	; (8001bb8 <HAL_RCC_OscConfig+0x4d0>)
 8001ac8:	f023 5380 	bic.w	r3, r3, #268435456	; 0x10000000
 8001acc:	6413      	str	r3, [r2, #64]	; 0x40
    }
  }
  /*-------------------------------- PLL Configuration -----------------------*/
  /* Check the parameters */
  assert_param(IS_RCC_PLL(RCC_OscInitStruct->PLL.PLLState));
  if ((RCC_OscInitStruct->PLL.PLLState) != RCC_PLL_NONE)
 8001ace:	687b      	ldr	r3, [r7, #4]
 8001ad0:	699b      	ldr	r3, [r3, #24]
 8001ad2:	2b00      	cmp	r3, #0
 8001ad4:	f000 80ae 	beq.w	8001c34 <HAL_RCC_OscConfig+0x54c>
  {
    /* Check if the PLL is used as system clock or not */
    if (__HAL_RCC_GET_SYSCLK_SOURCE() != RCC_SYSCLKSOURCE_STATUS_PLLCLK)
 8001ad8:	4b37      	ldr	r3, [pc, #220]	; (8001bb8 <HAL_RCC_OscConfig+0x4d0>)
 8001ada:	689b      	ldr	r3, [r3, #8]
 8001adc:	f003 030c 	and.w	r3, r3, #12
 8001ae0:	2b08      	cmp	r3, #8
 8001ae2:	d06d      	beq.n	8001bc0 <HAL_RCC_OscConfig+0x4d8>
    {
      if ((RCC_OscInitStruct->PLL.PLLState) == RCC_PLL_ON)
 8001ae4:	687b      	ldr	r3, [r7, #4]
 8001ae6:	699b      	ldr	r3, [r3, #24]
 8001ae8:	2b02      	cmp	r3, #2
 8001aea:	d14b      	bne.n	8001b84 <HAL_RCC_OscConfig+0x49c>
#if defined (RCC_PLLCFGR_PLLR)
        assert_param(IS_RCC_PLLR_VALUE(RCC_OscInitStruct->PLL.PLLR));
#endif

        /* Disable the main PLL. */
        __HAL_RCC_PLL_DISABLE();
 8001aec:	4b32      	ldr	r3, [pc, #200]	; (8001bb8 <HAL_RCC_OscConfig+0x4d0>)
 8001aee:	681b      	ldr	r3, [r3, #0]
 8001af0:	4a31      	ldr	r2, [pc, #196]	; (8001bb8 <HAL_RCC_OscConfig+0x4d0>)
 8001af2:	f023 7380 	bic.w	r3, r3, #16777216	; 0x1000000
 8001af6:	6013      	str	r3, [r2, #0]

        /* Get Start Tick*/
        tickstart = HAL_GetTick();
 8001af8:	f7ff f8be 	bl	8000c78 <HAL_GetTick>
 8001afc:	6138      	str	r0, [r7, #16]

        /* Wait till PLL is ready */
        while (__HAL_RCC_GET_FLAG(RCC_FLAG_PLLRDY) != RESET)
 8001afe:	e008      	b.n	8001b12 <HAL_RCC_OscConfig+0x42a>
        {
          if ((HAL_GetTick() - tickstart) > PLL_TIMEOUT_VALUE)
 8001b00:	f7ff f8ba 	bl	8000c78 <HAL_GetTick>
 8001b04:	4602      	mov	r2, r0
 8001b06:	693b      	ldr	r3, [r7, #16]
 8001b08:	1ad3      	subs	r3, r2, r3
 8001b0a:	2b02      	cmp	r3, #2
 8001b0c:	d901      	bls.n	8001b12 <HAL_RCC_OscConfig+0x42a>
          {
            return HAL_TIMEOUT;
 8001b0e:	2303      	movs	r3, #3
 8001b10:	e091      	b.n	8001c36 <HAL_RCC_OscConfig+0x54e>
        while (__HAL_RCC_GET_FLAG(RCC_FLAG_PLLRDY) != RESET)
 8001b12:	4b29      	ldr	r3, [pc, #164]	; (8001bb8 <HAL_RCC_OscConfig+0x4d0>)
 8001b14:	681b      	ldr	r3, [r3, #0]
 8001b16:	f003 7300 	and.w	r3, r3, #33554432	; 0x2000000
 8001b1a:	2b00      	cmp	r3, #0
 8001b1c:	d1f0      	bne.n	8001b00 <HAL_RCC_OscConfig+0x418>
          }
        }

        /* Configure the main PLL clock source, multiplication and division factors. */
#if defined (RCC_PLLCFGR_PLLR)
        __HAL_RCC_PLL_CONFIG(RCC_OscInitStruct->PLL.PLLSource,
 8001b1e:	687b      	ldr	r3, [r7, #4]
 8001b20:	69da      	ldr	r2, [r3, #28]
 8001b22:	687b      	ldr	r3, [r7, #4]
 8001b24:	6a1b      	ldr	r3, [r3, #32]
 8001b26:	431a      	orrs	r2, r3
 8001b28:	687b      	ldr	r3, [r7, #4]
 8001b2a:	6a5b      	ldr	r3, [r3, #36]	; 0x24
 8001b2c:	019b      	lsls	r3, r3, #6
 8001b2e:	431a      	orrs	r2, r3
 8001b30:	687b      	ldr	r3, [r7, #4]
 8001b32:	6a9b      	ldr	r3, [r3, #40]	; 0x28
 8001b34:	085b      	lsrs	r3, r3, #1
 8001b36:	3b01      	subs	r3, #1
 8001b38:	041b      	lsls	r3, r3, #16
 8001b3a:	431a      	orrs	r2, r3
 8001b3c:	687b      	ldr	r3, [r7, #4]
 8001b3e:	6adb      	ldr	r3, [r3, #44]	; 0x2c
 8001b40:	061b      	lsls	r3, r3, #24
 8001b42:	431a      	orrs	r2, r3
 8001b44:	687b      	ldr	r3, [r7, #4]
 8001b46:	6b1b      	ldr	r3, [r3, #48]	; 0x30
 8001b48:	071b      	lsls	r3, r3, #28
 8001b4a:	491b      	ldr	r1, [pc, #108]	; (8001bb8 <HAL_RCC_OscConfig+0x4d0>)
 8001b4c:	4313      	orrs	r3, r2
 8001b4e:	604b      	str	r3, [r1, #4]
                             RCC_OscInitStruct->PLL.PLLP,
                             RCC_OscInitStruct->PLL.PLLQ);
#endif

        /* Enable the main PLL. */
        __HAL_RCC_PLL_ENABLE();
 8001b50:	4b19      	ldr	r3, [pc, #100]	; (8001bb8 <HAL_RCC_OscConfig+0x4d0>)
 8001b52:	681b      	ldr	r3, [r3, #0]
 8001b54:	4a18      	ldr	r2, [pc, #96]	; (8001bb8 <HAL_RCC_OscConfig+0x4d0>)
 8001b56:	f043 7380 	orr.w	r3, r3, #16777216	; 0x1000000
 8001b5a:	6013      	str	r3, [r2, #0]

        /* Get Start Tick*/
        tickstart = HAL_GetTick();
 8001b5c:	f7ff f88c 	bl	8000c78 <HAL_GetTick>
 8001b60:	6138      	str	r0, [r7, #16]

        /* Wait till PLL is ready */
        while (__HAL_RCC_GET_FLAG(RCC_FLAG_PLLRDY) == RESET)
 8001b62:	e008      	b.n	8001b76 <HAL_RCC_OscConfig+0x48e>
        {
          if ((HAL_GetTick() - tickstart) > PLL_TIMEOUT_VALUE)
 8001b64:	f7ff f888 	bl	8000c78 <HAL_GetTick>
 8001b68:	4602      	mov	r2, r0
 8001b6a:	693b      	ldr	r3, [r7, #16]
 8001b6c:	1ad3      	subs	r3, r2, r3
 8001b6e:	2b02      	cmp	r3, #2
 8001b70:	d901      	bls.n	8001b76 <HAL_RCC_OscConfig+0x48e>
          {
            return HAL_TIMEOUT;
 8001b72:	2303      	movs	r3, #3
 8001b74:	e05f      	b.n	8001c36 <HAL_RCC_OscConfig+0x54e>
        while (__HAL_RCC_GET_FLAG(RCC_FLAG_PLLRDY) == RESET)
 8001b76:	4b10      	ldr	r3, [pc, #64]	; (8001bb8 <HAL_RCC_OscConfig+0x4d0>)
 8001b78:	681b      	ldr	r3, [r3, #0]
 8001b7a:	f003 7300 	and.w	r3, r3, #33554432	; 0x2000000
 8001b7e:	2b00      	cmp	r3, #0
 8001b80:	d0f0      	beq.n	8001b64 <HAL_RCC_OscConfig+0x47c>
 8001b82:	e057      	b.n	8001c34 <HAL_RCC_OscConfig+0x54c>
        }
      }
      else
      {
        /* Disable the main PLL. */
        __HAL_RCC_PLL_DISABLE();
 8001b84:	4b0c      	ldr	r3, [pc, #48]	; (8001bb8 <HAL_RCC_OscConfig+0x4d0>)
 8001b86:	681b      	ldr	r3, [r3, #0]
 8001b88:	4a0b      	ldr	r2, [pc, #44]	; (8001bb8 <HAL_RCC_OscConfig+0x4d0>)
 8001b8a:	f023 7380 	bic.w	r3, r3, #16777216	; 0x1000000
 8001b8e:	6013      	str	r3, [r2, #0]

        /* Get Start Tick*/
        tickstart = HAL_GetTick();
 8001b90:	f7ff f872 	bl	8000c78 <HAL_GetTick>
 8001b94:	6138      	str	r0, [r7, #16]

        /* Wait till PLL is ready */
        while (__HAL_RCC_GET_FLAG(RCC_FLAG_PLLRDY) != RESET)
 8001b96:	e008      	b.n	8001baa <HAL_RCC_OscConfig+0x4c2>
        {
          if ((HAL_GetTick() - tickstart) > PLL_TIMEOUT_VALUE)
 8001b98:	f7ff f86e 	bl	8000c78 <HAL_GetTick>
 8001b9c:	4602      	mov	r2, r0
 8001b9e:	693b      	ldr	r3, [r7, #16]
 8001ba0:	1ad3      	subs	r3, r2, r3
 8001ba2:	2b02      	cmp	r3, #2
 8001ba4:	d901      	bls.n	8001baa <HAL_RCC_OscConfig+0x4c2>
          {
            return HAL_TIMEOUT;
 8001ba6:	2303      	movs	r3, #3
 8001ba8:	e045      	b.n	8001c36 <HAL_RCC_OscConfig+0x54e>
        while (__HAL_RCC_GET_FLAG(RCC_FLAG_PLLRDY) != RESET)
 8001baa:	4b03      	ldr	r3, [pc, #12]	; (8001bb8 <HAL_RCC_OscConfig+0x4d0>)
 8001bac:	681b      	ldr	r3, [r3, #0]
 8001bae:	f003 7300 	and.w	r3, r3, #33554432	; 0x2000000
 8001bb2:	2b00      	cmp	r3, #0
 8001bb4:	d1f0      	bne.n	8001b98 <HAL_RCC_OscConfig+0x4b0>
 8001bb6:	e03d      	b.n	8001c34 <HAL_RCC_OscConfig+0x54c>
 8001bb8:	40023800 	.word	0x40023800
 8001bbc:	40007000 	.word	0x40007000
      }
    }
    else
    {
      /* Do not return HAL_ERROR if request repeats the current configuration */
      pll_config = RCC->PLLCFGR;
 8001bc0:	4b1f      	ldr	r3, [pc, #124]	; (8001c40 <HAL_RCC_OscConfig+0x558>)
 8001bc2:	685b      	ldr	r3, [r3, #4]
 8001bc4:	60fb      	str	r3, [r7, #12]
#if defined (RCC_PLLCFGR_PLLR)
      if (((RCC_OscInitStruct->PLL.PLLState) == RCC_PLL_OFF) ||
 8001bc6:	687b      	ldr	r3, [r7, #4]
 8001bc8:	699b      	ldr	r3, [r3, #24]
 8001bca:	2b01      	cmp	r3, #1
 8001bcc:	d030      	beq.n	8001c30 <HAL_RCC_OscConfig+0x548>
          (READ_BIT(pll_config, RCC_PLLCFGR_PLLSRC) != RCC_OscInitStruct->PLL.PLLSource) ||
 8001bce:	68fb      	ldr	r3, [r7, #12]
 8001bd0:	f403 0280 	and.w	r2, r3, #4194304	; 0x400000
 8001bd4:	687b      	ldr	r3, [r7, #4]
 8001bd6:	69db      	ldr	r3, [r3, #28]
      if (((RCC_OscInitStruct->PLL.PLLState) == RCC_PLL_OFF) ||
 8001bd8:	429a      	cmp	r2, r3
 8001bda:	d129      	bne.n	8001c30 <HAL_RCC_OscConfig+0x548>
          (READ_BIT(pll_config, RCC_PLLCFGR_PLLM) != RCC_OscInitStruct->PLL.PLLM) ||
 8001bdc:	68fb      	ldr	r3, [r7, #12]
 8001bde:	f003 023f 	and.w	r2, r3, #63	; 0x3f
 8001be2:	687b      	ldr	r3, [r7, #4]
 8001be4:	6a1b      	ldr	r3, [r3, #32]
          (READ_BIT(pll_config, RCC_PLLCFGR_PLLSRC) != RCC_OscInitStruct->PLL.PLLSource) ||
 8001be6:	429a      	cmp	r2, r3
 8001be8:	d122      	bne.n	8001c30 <HAL_RCC_OscConfig+0x548>
          (READ_BIT(pll_config, RCC_PLLCFGR_PLLN) != (RCC_OscInitStruct->PLL.PLLN << RCC_PLLCFGR_PLLN_Pos)) ||
 8001bea:	68fa      	ldr	r2, [r7, #12]
 8001bec:	f647 73c0 	movw	r3, #32704	; 0x7fc0
 8001bf0:	4013      	ands	r3, r2
 8001bf2:	687a      	ldr	r2, [r7, #4]
 8001bf4:	6a52      	ldr	r2, [r2, #36]	; 0x24
 8001bf6:	0192      	lsls	r2, r2, #6
          (READ_BIT(pll_config, RCC_PLLCFGR_PLLM) != RCC_OscInitStruct->PLL.PLLM) ||
 8001bf8:	4293      	cmp	r3, r2
 8001bfa:	d119      	bne.n	8001c30 <HAL_RCC_OscConfig+0x548>
          (READ_BIT(pll_config, RCC_PLLCFGR_PLLP) != ((((RCC_OscInitStruct->PLL.PLLP) >> 1U) - 1U) << RCC_PLLCFGR_PLLP_Pos)) ||
 8001bfc:	68fb      	ldr	r3, [r7, #12]
 8001bfe:	f403 3240 	and.w	r2, r3, #196608	; 0x30000
 8001c02:	687b      	ldr	r3, [r7, #4]
 8001c04:	6a9b      	ldr	r3, [r3, #40]	; 0x28
 8001c06:	085b      	lsrs	r3, r3, #1
 8001c08:	3b01      	subs	r3, #1
 8001c0a:	041b      	lsls	r3, r3, #16
          (READ_BIT(pll_config, RCC_PLLCFGR_PLLN) != (RCC_OscInitStruct->PLL.PLLN << RCC_PLLCFGR_PLLN_Pos)) ||
 8001c0c:	429a      	cmp	r2, r3
 8001c0e:	d10f      	bne.n	8001c30 <HAL_RCC_OscConfig+0x548>
          (READ_BIT(pll_config, RCC_PLLCFGR_PLLQ) != (RCC_OscInitStruct->PLL.PLLQ << RCC_PLLCFGR_PLLQ_Pos)) ||
 8001c10:	68fb      	ldr	r3, [r7, #12]
 8001c12:	f003 6270 	and.w	r2, r3, #251658240	; 0xf000000
 8001c16:	687b      	ldr	r3, [r7, #4]
 8001c18:	6adb      	ldr	r3, [r3, #44]	; 0x2c
 8001c1a:	061b      	lsls	r3, r3, #24
          (READ_BIT(pll_config, RCC_PLLCFGR_PLLP) != ((((RCC_OscInitStruct->PLL.PLLP) >> 1U) - 1U) << RCC_PLLCFGR_PLLP_Pos)) ||
 8001c1c:	429a      	cmp	r2, r3
 8001c1e:	d107      	bne.n	8001c30 <HAL_RCC_OscConfig+0x548>
          (READ_BIT(pll_config, RCC_PLLCFGR_PLLR) != (RCC_OscInitStruct->PLL.PLLR << RCC_PLLCFGR_PLLR_Pos)))
 8001c20:	68fb      	ldr	r3, [r7, #12]
 8001c22:	f003 42e0 	and.w	r2, r3, #1879048192	; 0x70000000
 8001c26:	687b      	ldr	r3, [r7, #4]
 8001c28:	6b1b      	ldr	r3, [r3, #48]	; 0x30
 8001c2a:	071b      	lsls	r3, r3, #28
          (READ_BIT(pll_config, RCC_PLLCFGR_PLLQ) != (RCC_OscInitStruct->PLL.PLLQ << RCC_PLLCFGR_PLLQ_Pos)) ||
 8001c2c:	429a      	cmp	r2, r3
 8001c2e:	d001      	beq.n	8001c34 <HAL_RCC_OscConfig+0x54c>
          (READ_BIT(pll_config, RCC_PLLCFGR_PLLN) != (RCC_OscInitStruct->PLL.PLLN << RCC_PLLCFGR_PLLN_Pos)) ||
          (READ_BIT(pll_config, RCC_PLLCFGR_PLLP) != ((((RCC_OscInitStruct->PLL.PLLP) >> 1U) - 1U) << RCC_PLLCFGR_PLLP_Pos)) ||
          (READ_BIT(pll_config, RCC_PLLCFGR_PLLQ) != (RCC_OscInitStruct->PLL.PLLQ << RCC_PLLCFGR_PLLQ_Pos)))
#endif
      {
        return HAL_ERROR;
 8001c30:	2301      	movs	r3, #1
 8001c32:	e000      	b.n	8001c36 <HAL_RCC_OscConfig+0x54e>
      }
    }
  }
  return HAL_OK;
 8001c34:	2300      	movs	r3, #0
}
 8001c36:	4618      	mov	r0, r3
 8001c38:	3718      	adds	r7, #24
 8001c3a:	46bd      	mov	sp, r7
 8001c3c:	bd80      	pop	{r7, pc}
 8001c3e:	bf00      	nop
 8001c40:	40023800 	.word	0x40023800

08001c44 <HAL_RCC_ClockConfig>:
  *         HPRE[3:0] bits to ensure that HCLK not exceed the maximum allowed frequency
  *         (for more details refer to section above "Initialization/de-initialization functions")
  * @retval None
  */
HAL_StatusTypeDef HAL_RCC_ClockConfig(RCC_ClkInitTypeDef  *RCC_ClkInitStruct, uint32_t FLatency)
{
 8001c44:	b580      	push	{r7, lr}
 8001c46:	b084      	sub	sp, #16
 8001c48:	af00      	add	r7, sp, #0
 8001c4a:	6078      	str	r0, [r7, #4]
 8001c4c:	6039      	str	r1, [r7, #0]
  uint32_t tickstart = 0;
 8001c4e:	2300      	movs	r3, #0
 8001c50:	60fb      	str	r3, [r7, #12]

  /* Check Null pointer */
  if (RCC_ClkInitStruct == NULL)
 8001c52:	687b      	ldr	r3, [r7, #4]
 8001c54:	2b00      	cmp	r3, #0
 8001c56:	d101      	bne.n	8001c5c <HAL_RCC_ClockConfig+0x18>
  {
    return HAL_ERROR;
 8001c58:	2301      	movs	r3, #1
 8001c5a:	e0d0      	b.n	8001dfe <HAL_RCC_ClockConfig+0x1ba>
  /* To correctly read data from FLASH memory, the number of wait states (LATENCY)
     must be correctly programmed according to the frequency of the CPU clock
     (HCLK) and the supply voltage of the device. */

  /* Increasing the CPU frequency */
  if (FLatency > __HAL_FLASH_GET_LATENCY())
 8001c5c:	4b6a      	ldr	r3, [pc, #424]	; (8001e08 <HAL_RCC_ClockConfig+0x1c4>)
 8001c5e:	681b      	ldr	r3, [r3, #0]
 8001c60:	f003 030f 	and.w	r3, r3, #15
 8001c64:	683a      	ldr	r2, [r7, #0]
 8001c66:	429a      	cmp	r2, r3
 8001c68:	d910      	bls.n	8001c8c <HAL_RCC_ClockConfig+0x48>
  {
    /* Program the new number of wait states to the LATENCY bits in the FLASH_ACR register */
    __HAL_FLASH_SET_LATENCY(FLatency);
 8001c6a:	4b67      	ldr	r3, [pc, #412]	; (8001e08 <HAL_RCC_ClockConfig+0x1c4>)
 8001c6c:	681b      	ldr	r3, [r3, #0]
 8001c6e:	f023 020f 	bic.w	r2, r3, #15
 8001c72:	4965      	ldr	r1, [pc, #404]	; (8001e08 <HAL_RCC_ClockConfig+0x1c4>)
 8001c74:	683b      	ldr	r3, [r7, #0]
 8001c76:	4313      	orrs	r3, r2
 8001c78:	600b      	str	r3, [r1, #0]

    /* Check that the new number of wait states is taken into account to access the Flash
    memory by reading the FLASH_ACR register */
    if (__HAL_FLASH_GET_LATENCY() != FLatency)
 8001c7a:	4b63      	ldr	r3, [pc, #396]	; (8001e08 <HAL_RCC_ClockConfig+0x1c4>)
 8001c7c:	681b      	ldr	r3, [r3, #0]
 8001c7e:	f003 030f 	and.w	r3, r3, #15
 8001c82:	683a      	ldr	r2, [r7, #0]
 8001c84:	429a      	cmp	r2, r3
 8001c86:	d001      	beq.n	8001c8c <HAL_RCC_ClockConfig+0x48>
    {
      return HAL_ERROR;
 8001c88:	2301      	movs	r3, #1
 8001c8a:	e0b8      	b.n	8001dfe <HAL_RCC_ClockConfig+0x1ba>
    }
  }

  /*-------------------------- HCLK Configuration --------------------------*/
  if (((RCC_ClkInitStruct->ClockType) & RCC_CLOCKTYPE_HCLK) == RCC_CLOCKTYPE_HCLK)
 8001c8c:	687b      	ldr	r3, [r7, #4]
 8001c8e:	681b      	ldr	r3, [r3, #0]
 8001c90:	f003 0302 	and.w	r3, r3, #2
 8001c94:	2b00      	cmp	r3, #0
 8001c96:	d020      	beq.n	8001cda <HAL_RCC_ClockConfig+0x96>
  {
    /* Set the highest APBx dividers in order to ensure that we do not go through
       a non-spec phase whatever we decrease or increase HCLK. */
    if (((RCC_ClkInitStruct->ClockType) & RCC_CLOCKTYPE_PCLK1) == RCC_CLOCKTYPE_PCLK1)
 8001c98:	687b      	ldr	r3, [r7, #4]
 8001c9a:	681b      	ldr	r3, [r3, #0]
 8001c9c:	f003 0304 	and.w	r3, r3, #4
 8001ca0:	2b00      	cmp	r3, #0
 8001ca2:	d005      	beq.n	8001cb0 <HAL_RCC_ClockConfig+0x6c>
    {
      MODIFY_REG(RCC->CFGR, RCC_CFGR_PPRE1, RCC_HCLK_DIV16);
 8001ca4:	4b59      	ldr	r3, [pc, #356]	; (8001e0c <HAL_RCC_ClockConfig+0x1c8>)
 8001ca6:	689b      	ldr	r3, [r3, #8]
 8001ca8:	4a58      	ldr	r2, [pc, #352]	; (8001e0c <HAL_RCC_ClockConfig+0x1c8>)
 8001caa:	f443 53e0 	orr.w	r3, r3, #7168	; 0x1c00
 8001cae:	6093      	str	r3, [r2, #8]
    }

    if (((RCC_ClkInitStruct->ClockType) & RCC_CLOCKTYPE_PCLK2) == RCC_CLOCKTYPE_PCLK2)
 8001cb0:	687b      	ldr	r3, [r7, #4]
 8001cb2:	681b      	ldr	r3, [r3, #0]
 8001cb4:	f003 0308 	and.w	r3, r3, #8
 8001cb8:	2b00      	cmp	r3, #0
 8001cba:	d005      	beq.n	8001cc8 <HAL_RCC_ClockConfig+0x84>
    {
      MODIFY_REG(RCC->CFGR, RCC_CFGR_PPRE2, (RCC_HCLK_DIV16 << 3));
 8001cbc:	4b53      	ldr	r3, [pc, #332]	; (8001e0c <HAL_RCC_ClockConfig+0x1c8>)
 8001cbe:	689b      	ldr	r3, [r3, #8]
 8001cc0:	4a52      	ldr	r2, [pc, #328]	; (8001e0c <HAL_RCC_ClockConfig+0x1c8>)
 8001cc2:	f443 4360 	orr.w	r3, r3, #57344	; 0xe000
 8001cc6:	6093      	str	r3, [r2, #8]
    }

    /* Set the new HCLK clock divider */
    assert_param(IS_RCC_HCLK(RCC_ClkInitStruct->AHBCLKDivider));
    MODIFY_REG(RCC->CFGR, RCC_CFGR_HPRE, RCC_ClkInitStruct->AHBCLKDivider);
 8001cc8:	4b50      	ldr	r3, [pc, #320]	; (8001e0c <HAL_RCC_ClockConfig+0x1c8>)
 8001cca:	689b      	ldr	r3, [r3, #8]
 8001ccc:	f023 02f0 	bic.w	r2, r3, #240	; 0xf0
 8001cd0:	687b      	ldr	r3, [r7, #4]
 8001cd2:	689b      	ldr	r3, [r3, #8]
 8001cd4:	494d      	ldr	r1, [pc, #308]	; (8001e0c <HAL_RCC_ClockConfig+0x1c8>)
 8001cd6:	4313      	orrs	r3, r2
 8001cd8:	608b      	str	r3, [r1, #8]
  }

  /*------------------------- SYSCLK Configuration ---------------------------*/
  if (((RCC_ClkInitStruct->ClockType) & RCC_CLOCKTYPE_SYSCLK) == RCC_CLOCKTYPE_SYSCLK)
 8001cda:	687b      	ldr	r3, [r7, #4]
 8001cdc:	681b      	ldr	r3, [r3, #0]
 8001cde:	f003 0301 	and.w	r3, r3, #1
 8001ce2:	2b00      	cmp	r3, #0
 8001ce4:	d040      	beq.n	8001d68 <HAL_RCC_ClockConfig+0x124>
  {
    assert_param(IS_RCC_SYSCLKSOURCE(RCC_ClkInitStruct->SYSCLKSource));

    /* HSE is selected as System Clock Source */
    if (RCC_ClkInitStruct->SYSCLKSource == RCC_SYSCLKSOURCE_HSE)
 8001ce6:	687b      	ldr	r3, [r7, #4]
 8001ce8:	685b      	ldr	r3, [r3, #4]
 8001cea:	2b01      	cmp	r3, #1
 8001cec:	d107      	bne.n	8001cfe <HAL_RCC_ClockConfig+0xba>
    {
      /* Check the HSE ready flag */
      if (__HAL_RCC_GET_FLAG(RCC_FLAG_HSERDY) == RESET)
 8001cee:	4b47      	ldr	r3, [pc, #284]	; (8001e0c <HAL_RCC_ClockConfig+0x1c8>)
 8001cf0:	681b      	ldr	r3, [r3, #0]
 8001cf2:	f403 3300 	and.w	r3, r3, #131072	; 0x20000
 8001cf6:	2b00      	cmp	r3, #0
 8001cf8:	d115      	bne.n	8001d26 <HAL_RCC_ClockConfig+0xe2>
      {
        return HAL_ERROR;
 8001cfa:	2301      	movs	r3, #1
 8001cfc:	e07f      	b.n	8001dfe <HAL_RCC_ClockConfig+0x1ba>
      }
    }
    /* PLL is selected as System Clock Source */
    else if (RCC_ClkInitStruct->SYSCLKSource == RCC_SYSCLKSOURCE_PLLCLK)
 8001cfe:	687b      	ldr	r3, [r7, #4]
 8001d00:	685b      	ldr	r3, [r3, #4]
 8001d02:	2b02      	cmp	r3, #2
 8001d04:	d107      	bne.n	8001d16 <HAL_RCC_ClockConfig+0xd2>
    {
      /* Check the PLL ready flag */
      if (__HAL_RCC_GET_FLAG(RCC_FLAG_PLLRDY) == RESET)
 8001d06:	4b41      	ldr	r3, [pc, #260]	; (8001e0c <HAL_RCC_ClockConfig+0x1c8>)
 8001d08:	681b      	ldr	r3, [r3, #0]
 8001d0a:	f003 7300 	and.w	r3, r3, #33554432	; 0x2000000
 8001d0e:	2b00      	cmp	r3, #0
 8001d10:	d109      	bne.n	8001d26 <HAL_RCC_ClockConfig+0xe2>
      {
        return HAL_ERROR;
 8001d12:	2301      	movs	r3, #1
 8001d14:	e073      	b.n	8001dfe <HAL_RCC_ClockConfig+0x1ba>
    }
    /* HSI is selected as System Clock Source */
    else
    {
      /* Check the HSI ready flag */
      if (__HAL_RCC_GET_FLAG(RCC_FLAG_HSIRDY) == RESET)
 8001d16:	4b3d      	ldr	r3, [pc, #244]	; (8001e0c <HAL_RCC_ClockConfig+0x1c8>)
 8001d18:	681b      	ldr	r3, [r3, #0]
 8001d1a:	f003 0302 	and.w	r3, r3, #2
 8001d1e:	2b00      	cmp	r3, #0
 8001d20:	d101      	bne.n	8001d26 <HAL_RCC_ClockConfig+0xe2>
      {
        return HAL_ERROR;
 8001d22:	2301      	movs	r3, #1
 8001d24:	e06b      	b.n	8001dfe <HAL_RCC_ClockConfig+0x1ba>
      }
    }

    __HAL_RCC_SYSCLK_CONFIG(RCC_ClkInitStruct->SYSCLKSource);
 8001d26:	4b39      	ldr	r3, [pc, #228]	; (8001e0c <HAL_RCC_ClockConfig+0x1c8>)
 8001d28:	689b      	ldr	r3, [r3, #8]
 8001d2a:	f023 0203 	bic.w	r2, r3, #3
 8001d2e:	687b      	ldr	r3, [r7, #4]
 8001d30:	685b      	ldr	r3, [r3, #4]
 8001d32:	4936      	ldr	r1, [pc, #216]	; (8001e0c <HAL_RCC_ClockConfig+0x1c8>)
 8001d34:	4313      	orrs	r3, r2
 8001d36:	608b      	str	r3, [r1, #8]

    /* Get Start Tick*/
    tickstart = HAL_GetTick();
 8001d38:	f7fe ff9e 	bl	8000c78 <HAL_GetTick>
 8001d3c:	60f8      	str	r0, [r7, #12]

    while (__HAL_RCC_GET_SYSCLK_SOURCE() != (RCC_ClkInitStruct->SYSCLKSource << RCC_CFGR_SWS_Pos))
 8001d3e:	e00a      	b.n	8001d56 <HAL_RCC_ClockConfig+0x112>
    {
      if ((HAL_GetTick() - tickstart) > CLOCKSWITCH_TIMEOUT_VALUE)
 8001d40:	f7fe ff9a 	bl	8000c78 <HAL_GetTick>
 8001d44:	4602      	mov	r2, r0
 8001d46:	68fb      	ldr	r3, [r7, #12]
 8001d48:	1ad3      	subs	r3, r2, r3
 8001d4a:	f241 3288 	movw	r2, #5000	; 0x1388
 8001d4e:	4293      	cmp	r3, r2
 8001d50:	d901      	bls.n	8001d56 <HAL_RCC_ClockConfig+0x112>
      {
        return HAL_TIMEOUT;
 8001d52:	2303      	movs	r3, #3
 8001d54:	e053      	b.n	8001dfe <HAL_RCC_ClockConfig+0x1ba>
    while (__HAL_RCC_GET_SYSCLK_SOURCE() != (RCC_ClkInitStruct->SYSCLKSource << RCC_CFGR_SWS_Pos))
 8001d56:	4b2d      	ldr	r3, [pc, #180]	; (8001e0c <HAL_RCC_ClockConfig+0x1c8>)
 8001d58:	689b      	ldr	r3, [r3, #8]
 8001d5a:	f003 020c 	and.w	r2, r3, #12
 8001d5e:	687b      	ldr	r3, [r7, #4]
 8001d60:	685b      	ldr	r3, [r3, #4]
 8001d62:	009b      	lsls	r3, r3, #2
 8001d64:	429a      	cmp	r2, r3
 8001d66:	d1eb      	bne.n	8001d40 <HAL_RCC_ClockConfig+0xfc>
      }
    }
  }

  /* Decreasing the number of wait states because of lower CPU frequency */
  if (FLatency < __HAL_FLASH_GET_LATENCY())
 8001d68:	4b27      	ldr	r3, [pc, #156]	; (8001e08 <HAL_RCC_ClockConfig+0x1c4>)
 8001d6a:	681b      	ldr	r3, [r3, #0]
 8001d6c:	f003 030f 	and.w	r3, r3, #15
 8001d70:	683a      	ldr	r2, [r7, #0]
 8001d72:	429a      	cmp	r2, r3
 8001d74:	d210      	bcs.n	8001d98 <HAL_RCC_ClockConfig+0x154>
  {
    /* Program the new number of wait states to the LATENCY bits in the FLASH_ACR register */
    __HAL_FLASH_SET_LATENCY(FLatency);
 8001d76:	4b24      	ldr	r3, [pc, #144]	; (8001e08 <HAL_RCC_ClockConfig+0x1c4>)
 8001d78:	681b      	ldr	r3, [r3, #0]
 8001d7a:	f023 020f 	bic.w	r2, r3, #15
 8001d7e:	4922      	ldr	r1, [pc, #136]	; (8001e08 <HAL_RCC_ClockConfig+0x1c4>)
 8001d80:	683b      	ldr	r3, [r7, #0]
 8001d82:	4313      	orrs	r3, r2
 8001d84:	600b      	str	r3, [r1, #0]

    /* Check that the new number of wait states is taken into account to access the Flash
    memory by reading the FLASH_ACR register */
    if (__HAL_FLASH_GET_LATENCY() != FLatency)
 8001d86:	4b20      	ldr	r3, [pc, #128]	; (8001e08 <HAL_RCC_ClockConfig+0x1c4>)
 8001d88:	681b      	ldr	r3, [r3, #0]
 8001d8a:	f003 030f 	and.w	r3, r3, #15
 8001d8e:	683a      	ldr	r2, [r7, #0]
 8001d90:	429a      	cmp	r2, r3
 8001d92:	d001      	beq.n	8001d98 <HAL_RCC_ClockConfig+0x154>
    {
      return HAL_ERROR;
 8001d94:	2301      	movs	r3, #1
 8001d96:	e032      	b.n	8001dfe <HAL_RCC_ClockConfig+0x1ba>
    }
  }

  /*-------------------------- PCLK1 Configuration ---------------------------*/
  if (((RCC_ClkInitStruct->ClockType) & RCC_CLOCKTYPE_PCLK1) == RCC_CLOCKTYPE_PCLK1)
 8001d98:	687b      	ldr	r3, [r7, #4]
 8001d9a:	681b      	ldr	r3, [r3, #0]
 8001d9c:	f003 0304 	and.w	r3, r3, #4
 8001da0:	2b00      	cmp	r3, #0
 8001da2:	d008      	beq.n	8001db6 <HAL_RCC_ClockConfig+0x172>
  {
    assert_param(IS_RCC_PCLK(RCC_ClkInitStruct->APB1CLKDivider));
    MODIFY_REG(RCC->CFGR, RCC_CFGR_PPRE1, RCC_ClkInitStruct->APB1CLKDivider);
 8001da4:	4b19      	ldr	r3, [pc, #100]	; (8001e0c <HAL_RCC_ClockConfig+0x1c8>)
 8001da6:	689b      	ldr	r3, [r3, #8]
 8001da8:	f423 52e0 	bic.w	r2, r3, #7168	; 0x1c00
 8001dac:	687b      	ldr	r3, [r7, #4]
 8001dae:	68db      	ldr	r3, [r3, #12]
 8001db0:	4916      	ldr	r1, [pc, #88]	; (8001e0c <HAL_RCC_ClockConfig+0x1c8>)
 8001db2:	4313      	orrs	r3, r2
 8001db4:	608b      	str	r3, [r1, #8]
  }

  /*-------------------------- PCLK2 Configuration ---------------------------*/
  if (((RCC_ClkInitStruct->ClockType) & RCC_CLOCKTYPE_PCLK2) == RCC_CLOCKTYPE_PCLK2)
 8001db6:	687b      	ldr	r3, [r7, #4]
 8001db8:	681b      	ldr	r3, [r3, #0]
 8001dba:	f003 0308 	and.w	r3, r3, #8
 8001dbe:	2b00      	cmp	r3, #0
 8001dc0:	d009      	beq.n	8001dd6 <HAL_RCC_ClockConfig+0x192>
  {
    assert_param(IS_RCC_PCLK(RCC_ClkInitStruct->APB2CLKDivider));
    MODIFY_REG(RCC->CFGR, RCC_CFGR_PPRE2, ((RCC_ClkInitStruct->APB2CLKDivider) << 3));
 8001dc2:	4b12      	ldr	r3, [pc, #72]	; (8001e0c <HAL_RCC_ClockConfig+0x1c8>)
 8001dc4:	689b      	ldr	r3, [r3, #8]
 8001dc6:	f423 4260 	bic.w	r2, r3, #57344	; 0xe000
 8001dca:	687b      	ldr	r3, [r7, #4]
 8001dcc:	691b      	ldr	r3, [r3, #16]
 8001dce:	00db      	lsls	r3, r3, #3
 8001dd0:	490e      	ldr	r1, [pc, #56]	; (8001e0c <HAL_RCC_ClockConfig+0x1c8>)
 8001dd2:	4313      	orrs	r3, r2
 8001dd4:	608b      	str	r3, [r1, #8]
  }

  /* Update the SystemCoreClock global variable */
  SystemCoreClock = HAL_RCC_GetSysClockFreq() >> AHBPrescTable[(RCC->CFGR & RCC_CFGR_HPRE) >> RCC_CFGR_HPRE_Pos];
 8001dd6:	f000 f821 	bl	8001e1c <HAL_RCC_GetSysClockFreq>
 8001dda:	4602      	mov	r2, r0
 8001ddc:	4b0b      	ldr	r3, [pc, #44]	; (8001e0c <HAL_RCC_ClockConfig+0x1c8>)
 8001dde:	689b      	ldr	r3, [r3, #8]
 8001de0:	091b      	lsrs	r3, r3, #4
 8001de2:	f003 030f 	and.w	r3, r3, #15
 8001de6:	490a      	ldr	r1, [pc, #40]	; (8001e10 <HAL_RCC_ClockConfig+0x1cc>)
 8001de8:	5ccb      	ldrb	r3, [r1, r3]
 8001dea:	fa22 f303 	lsr.w	r3, r2, r3
 8001dee:	4a09      	ldr	r2, [pc, #36]	; (8001e14 <HAL_RCC_ClockConfig+0x1d0>)
 8001df0:	6013      	str	r3, [r2, #0]

  /* Configure the source of time base considering new system clocks settings*/
  HAL_InitTick(uwTickPrio);
 8001df2:	4b09      	ldr	r3, [pc, #36]	; (8001e18 <HAL_RCC_ClockConfig+0x1d4>)
 8001df4:	681b      	ldr	r3, [r3, #0]
 8001df6:	4618      	mov	r0, r3
 8001df8:	f7fe fdaa 	bl	8000950 <HAL_InitTick>

  return HAL_OK;
 8001dfc:	2300      	movs	r3, #0
}
 8001dfe:	4618      	mov	r0, r3
 8001e00:	3710      	adds	r7, #16
 8001e02:	46bd      	mov	sp, r7
 8001e04:	bd80      	pop	{r7, pc}
 8001e06:	bf00      	nop
 8001e08:	40023c00 	.word	0x40023c00
 8001e0c:	40023800 	.word	0x40023800
 8001e10:	08002f8c 	.word	0x08002f8c
 8001e14:	20000000 	.word	0x20000000
 8001e18:	20000004 	.word	0x20000004

08001e1c <HAL_RCC_GetSysClockFreq>:
  *
  *
  * @retval SYSCLK frequency
  */
uint32_t HAL_RCC_GetSysClockFreq(void)
{
 8001e1c:	e92d 4fb0 	stmdb	sp!, {r4, r5, r7, r8, r9, sl, fp, lr}
 8001e20:	b090      	sub	sp, #64	; 0x40
 8001e22:	af00      	add	r7, sp, #0
  uint32_t pllm = 0, pllvco = 0, pllp = 0;
 8001e24:	2300      	movs	r3, #0
 8001e26:	637b      	str	r3, [r7, #52]	; 0x34
 8001e28:	2300      	movs	r3, #0
 8001e2a:	63fb      	str	r3, [r7, #60]	; 0x3c
 8001e2c:	2300      	movs	r3, #0
 8001e2e:	633b      	str	r3, [r7, #48]	; 0x30
  uint32_t sysclockfreq = 0;
 8001e30:	2300      	movs	r3, #0
 8001e32:	63bb      	str	r3, [r7, #56]	; 0x38

  /* Get SYSCLK source -------------------------------------------------------*/
  switch (RCC->CFGR & RCC_CFGR_SWS)
 8001e34:	4b59      	ldr	r3, [pc, #356]	; (8001f9c <HAL_RCC_GetSysClockFreq+0x180>)
 8001e36:	689b      	ldr	r3, [r3, #8]
 8001e38:	f003 030c 	and.w	r3, r3, #12
 8001e3c:	2b08      	cmp	r3, #8
 8001e3e:	d00d      	beq.n	8001e5c <HAL_RCC_GetSysClockFreq+0x40>
 8001e40:	2b08      	cmp	r3, #8
 8001e42:	f200 80a1 	bhi.w	8001f88 <HAL_RCC_GetSysClockFreq+0x16c>
 8001e46:	2b00      	cmp	r3, #0
 8001e48:	d002      	beq.n	8001e50 <HAL_RCC_GetSysClockFreq+0x34>
 8001e4a:	2b04      	cmp	r3, #4
 8001e4c:	d003      	beq.n	8001e56 <HAL_RCC_GetSysClockFreq+0x3a>
 8001e4e:	e09b      	b.n	8001f88 <HAL_RCC_GetSysClockFreq+0x16c>
  {
    case RCC_SYSCLKSOURCE_STATUS_HSI:  /* HSI used as system clock source */
    {
      sysclockfreq = HSI_VALUE;
 8001e50:	4b53      	ldr	r3, [pc, #332]	; (8001fa0 <HAL_RCC_GetSysClockFreq+0x184>)
 8001e52:	63bb      	str	r3, [r7, #56]	; 0x38
      break;
 8001e54:	e09b      	b.n	8001f8e <HAL_RCC_GetSysClockFreq+0x172>
    }
    case RCC_SYSCLKSOURCE_STATUS_HSE:  /* HSE used as system clock  source */
    {
      sysclockfreq = HSE_VALUE;
 8001e56:	4b53      	ldr	r3, [pc, #332]	; (8001fa4 <HAL_RCC_GetSysClockFreq+0x188>)
 8001e58:	63bb      	str	r3, [r7, #56]	; 0x38
      break;
 8001e5a:	e098      	b.n	8001f8e <HAL_RCC_GetSysClockFreq+0x172>
    }
    case RCC_SYSCLKSOURCE_STATUS_PLLCLK:  /* PLL used as system clock  source */
    {
      /* PLL_VCO = (HSE_VALUE or HSI_VALUE / PLLM) * PLLN
      SYSCLK = PLL_VCO / PLLP */
      pllm = RCC->PLLCFGR & RCC_PLLCFGR_PLLM;
 8001e5c:	4b4f      	ldr	r3, [pc, #316]	; (8001f9c <HAL_RCC_GetSysClockFreq+0x180>)
 8001e5e:	685b      	ldr	r3, [r3, #4]
 8001e60:	f003 033f 	and.w	r3, r3, #63	; 0x3f
 8001e64:	637b      	str	r3, [r7, #52]	; 0x34
      if (__HAL_RCC_GET_PLL_OSCSOURCE() != RCC_PLLCFGR_PLLSRC_HSI)
 8001e66:	4b4d      	ldr	r3, [pc, #308]	; (8001f9c <HAL_RCC_GetSysClockFreq+0x180>)
 8001e68:	685b      	ldr	r3, [r3, #4]
 8001e6a:	f403 0380 	and.w	r3, r3, #4194304	; 0x400000
 8001e6e:	2b00      	cmp	r3, #0
 8001e70:	d028      	beq.n	8001ec4 <HAL_RCC_GetSysClockFreq+0xa8>
      {
        /* HSE used as PLL clock source */
        pllvco = (uint32_t)((((uint64_t) HSE_VALUE * ((uint64_t)((RCC->PLLCFGR & RCC_PLLCFGR_PLLN) >> RCC_PLLCFGR_PLLN_Pos)))) / (uint64_t)pllm);
 8001e72:	4b4a      	ldr	r3, [pc, #296]	; (8001f9c <HAL_RCC_GetSysClockFreq+0x180>)
 8001e74:	685b      	ldr	r3, [r3, #4]
 8001e76:	099b      	lsrs	r3, r3, #6
 8001e78:	2200      	movs	r2, #0
 8001e7a:	623b      	str	r3, [r7, #32]
 8001e7c:	627a      	str	r2, [r7, #36]	; 0x24
 8001e7e:	6a3b      	ldr	r3, [r7, #32]
 8001e80:	f3c3 0008 	ubfx	r0, r3, #0, #9
 8001e84:	2100      	movs	r1, #0
 8001e86:	4b47      	ldr	r3, [pc, #284]	; (8001fa4 <HAL_RCC_GetSysClockFreq+0x188>)
 8001e88:	fb03 f201 	mul.w	r2, r3, r1
 8001e8c:	2300      	movs	r3, #0
 8001e8e:	fb00 f303 	mul.w	r3, r0, r3
 8001e92:	4413      	add	r3, r2
 8001e94:	4a43      	ldr	r2, [pc, #268]	; (8001fa4 <HAL_RCC_GetSysClockFreq+0x188>)
 8001e96:	fba0 1202 	umull	r1, r2, r0, r2
 8001e9a:	62fa      	str	r2, [r7, #44]	; 0x2c
 8001e9c:	460a      	mov	r2, r1
 8001e9e:	62ba      	str	r2, [r7, #40]	; 0x28
 8001ea0:	6afa      	ldr	r2, [r7, #44]	; 0x2c
 8001ea2:	4413      	add	r3, r2
 8001ea4:	62fb      	str	r3, [r7, #44]	; 0x2c
 8001ea6:	6b7b      	ldr	r3, [r7, #52]	; 0x34
 8001ea8:	2200      	movs	r2, #0
 8001eaa:	61bb      	str	r3, [r7, #24]
 8001eac:	61fa      	str	r2, [r7, #28]
 8001eae:	e9d7 2306 	ldrd	r2, r3, [r7, #24]
 8001eb2:	e9d7 010a 	ldrd	r0, r1, [r7, #40]	; 0x28
 8001eb6:	f7fe f9bf 	bl	8000238 <__aeabi_uldivmod>
 8001eba:	4602      	mov	r2, r0
 8001ebc:	460b      	mov	r3, r1
 8001ebe:	4613      	mov	r3, r2
 8001ec0:	63fb      	str	r3, [r7, #60]	; 0x3c
 8001ec2:	e053      	b.n	8001f6c <HAL_RCC_GetSysClockFreq+0x150>
      }
      else
      {
        /* HSI used as PLL clock source */
        pllvco = (uint32_t)((((uint64_t) HSI_VALUE * ((uint64_t)((RCC->PLLCFGR & RCC_PLLCFGR_PLLN) >> RCC_PLLCFGR_PLLN_Pos)))) / (uint64_t)pllm);
 8001ec4:	4b35      	ldr	r3, [pc, #212]	; (8001f9c <HAL_RCC_GetSysClockFreq+0x180>)
 8001ec6:	685b      	ldr	r3, [r3, #4]
 8001ec8:	099b      	lsrs	r3, r3, #6
 8001eca:	2200      	movs	r2, #0
 8001ecc:	613b      	str	r3, [r7, #16]
 8001ece:	617a      	str	r2, [r7, #20]
 8001ed0:	693b      	ldr	r3, [r7, #16]
 8001ed2:	f3c3 0a08 	ubfx	sl, r3, #0, #9
 8001ed6:	f04f 0b00 	mov.w	fp, #0
 8001eda:	4652      	mov	r2, sl
 8001edc:	465b      	mov	r3, fp
 8001ede:	f04f 0000 	mov.w	r0, #0
 8001ee2:	f04f 0100 	mov.w	r1, #0
 8001ee6:	0159      	lsls	r1, r3, #5
 8001ee8:	ea41 61d2 	orr.w	r1, r1, r2, lsr #27
 8001eec:	0150      	lsls	r0, r2, #5
 8001eee:	4602      	mov	r2, r0
 8001ef0:	460b      	mov	r3, r1
 8001ef2:	ebb2 080a 	subs.w	r8, r2, sl
 8001ef6:	eb63 090b 	sbc.w	r9, r3, fp
 8001efa:	f04f 0200 	mov.w	r2, #0
 8001efe:	f04f 0300 	mov.w	r3, #0
 8001f02:	ea4f 1389 	mov.w	r3, r9, lsl #6
 8001f06:	ea43 6398 	orr.w	r3, r3, r8, lsr #26
 8001f0a:	ea4f 1288 	mov.w	r2, r8, lsl #6
 8001f0e:	ebb2 0408 	subs.w	r4, r2, r8
 8001f12:	eb63 0509 	sbc.w	r5, r3, r9
 8001f16:	f04f 0200 	mov.w	r2, #0
 8001f1a:	f04f 0300 	mov.w	r3, #0
 8001f1e:	00eb      	lsls	r3, r5, #3
 8001f20:	ea43 7354 	orr.w	r3, r3, r4, lsr #29
 8001f24:	00e2      	lsls	r2, r4, #3
 8001f26:	4614      	mov	r4, r2
 8001f28:	461d      	mov	r5, r3
 8001f2a:	eb14 030a 	adds.w	r3, r4, sl
 8001f2e:	603b      	str	r3, [r7, #0]
 8001f30:	eb45 030b 	adc.w	r3, r5, fp
 8001f34:	607b      	str	r3, [r7, #4]
 8001f36:	f04f 0200 	mov.w	r2, #0
 8001f3a:	f04f 0300 	mov.w	r3, #0
 8001f3e:	e9d7 4500 	ldrd	r4, r5, [r7]
 8001f42:	4629      	mov	r1, r5
 8001f44:	028b      	lsls	r3, r1, #10
 8001f46:	4621      	mov	r1, r4
 8001f48:	ea43 5391 	orr.w	r3, r3, r1, lsr #22
 8001f4c:	4621      	mov	r1, r4
 8001f4e:	028a      	lsls	r2, r1, #10
 8001f50:	4610      	mov	r0, r2
 8001f52:	4619      	mov	r1, r3
 8001f54:	6b7b      	ldr	r3, [r7, #52]	; 0x34
 8001f56:	2200      	movs	r2, #0
 8001f58:	60bb      	str	r3, [r7, #8]
 8001f5a:	60fa      	str	r2, [r7, #12]
 8001f5c:	e9d7 2302 	ldrd	r2, r3, [r7, #8]
 8001f60:	f7fe f96a 	bl	8000238 <__aeabi_uldivmod>
 8001f64:	4602      	mov	r2, r0
 8001f66:	460b      	mov	r3, r1
 8001f68:	4613      	mov	r3, r2
 8001f6a:	63fb      	str	r3, [r7, #60]	; 0x3c
      }
      pllp = ((((RCC->PLLCFGR & RCC_PLLCFGR_PLLP) >> RCC_PLLCFGR_PLLP_Pos) + 1) * 2);
 8001f6c:	4b0b      	ldr	r3, [pc, #44]	; (8001f9c <HAL_RCC_GetSysClockFreq+0x180>)
 8001f6e:	685b      	ldr	r3, [r3, #4]
 8001f70:	0c1b      	lsrs	r3, r3, #16
 8001f72:	f003 0303 	and.w	r3, r3, #3
 8001f76:	3301      	adds	r3, #1
 8001f78:	005b      	lsls	r3, r3, #1
 8001f7a:	633b      	str	r3, [r7, #48]	; 0x30

      sysclockfreq = pllvco / pllp;
 8001f7c:	6bfa      	ldr	r2, [r7, #60]	; 0x3c
 8001f7e:	6b3b      	ldr	r3, [r7, #48]	; 0x30
 8001f80:	fbb2 f3f3 	udiv	r3, r2, r3
 8001f84:	63bb      	str	r3, [r7, #56]	; 0x38
      break;
 8001f86:	e002      	b.n	8001f8e <HAL_RCC_GetSysClockFreq+0x172>
    }
    default:
    {
      sysclockfreq = HSI_VALUE;
 8001f88:	4b05      	ldr	r3, [pc, #20]	; (8001fa0 <HAL_RCC_GetSysClockFreq+0x184>)
 8001f8a:	63bb      	str	r3, [r7, #56]	; 0x38
      break;
 8001f8c:	bf00      	nop
    }
  }
  return sysclockfreq;
 8001f8e:	6bbb      	ldr	r3, [r7, #56]	; 0x38
}
 8001f90:	4618      	mov	r0, r3
 8001f92:	3740      	adds	r7, #64	; 0x40
 8001f94:	46bd      	mov	sp, r7
 8001f96:	e8bd 8fb0 	ldmia.w	sp!, {r4, r5, r7, r8, r9, sl, fp, pc}
 8001f9a:	bf00      	nop
 8001f9c:	40023800 	.word	0x40023800
 8001fa0:	00f42400 	.word	0x00f42400
 8001fa4:	016e3600 	.word	0x016e3600

08001fa8 <HAL_RCC_GetHCLKFreq>:
  *         right HCLK value. Otherwise, any configuration based on this function will be incorrect.
  * @note   The SystemCoreClock CMSIS variable is used to store System Clock Frequency.
  * @retval HCLK frequency
  */
uint32_t HAL_RCC_GetHCLKFreq(void)
{
 8001fa8:	b480      	push	{r7}
 8001faa:	af00      	add	r7, sp, #0
  return SystemCoreClock;
 8001fac:	4b03      	ldr	r3, [pc, #12]	; (8001fbc <HAL_RCC_GetHCLKFreq+0x14>)
 8001fae:	681b      	ldr	r3, [r3, #0]
}
 8001fb0:	4618      	mov	r0, r3
 8001fb2:	46bd      	mov	sp, r7
 8001fb4:	f85d 7b04 	ldr.w	r7, [sp], #4
 8001fb8:	4770      	bx	lr
 8001fba:	bf00      	nop
 8001fbc:	20000000 	.word	0x20000000

08001fc0 <HAL_RCC_GetPCLK1Freq>:
  * @note   Each time PCLK1 changes, this function must be called to update the
  *         right PCLK1 value. Otherwise, any configuration based on this function will be incorrect.
  * @retval PCLK1 frequency
  */
uint32_t HAL_RCC_GetPCLK1Freq(void)
{
 8001fc0:	b580      	push	{r7, lr}
 8001fc2:	af00      	add	r7, sp, #0
  /* Get HCLK source and Compute PCLK1 frequency ---------------------------*/
  return (HAL_RCC_GetHCLKFreq() >> APBPrescTable[(RCC->CFGR & RCC_CFGR_PPRE1) >> RCC_CFGR_PPRE1_Pos]);
 8001fc4:	f7ff fff0 	bl	8001fa8 <HAL_RCC_GetHCLKFreq>
 8001fc8:	4602      	mov	r2, r0
 8001fca:	4b05      	ldr	r3, [pc, #20]	; (8001fe0 <HAL_RCC_GetPCLK1Freq+0x20>)
 8001fcc:	689b      	ldr	r3, [r3, #8]
 8001fce:	0a9b      	lsrs	r3, r3, #10
 8001fd0:	f003 0307 	and.w	r3, r3, #7
 8001fd4:	4903      	ldr	r1, [pc, #12]	; (8001fe4 <HAL_RCC_GetPCLK1Freq+0x24>)
 8001fd6:	5ccb      	ldrb	r3, [r1, r3]
 8001fd8:	fa22 f303 	lsr.w	r3, r2, r3
}
 8001fdc:	4618      	mov	r0, r3
 8001fde:	bd80      	pop	{r7, pc}
 8001fe0:	40023800 	.word	0x40023800
 8001fe4:	08002f9c 	.word	0x08002f9c

08001fe8 <HAL_RCC_GetClockConfig>:
  * will be configured.
  * @param  pFLatency Pointer on the Flash Latency.
  * @retval None
  */
void HAL_RCC_GetClockConfig(RCC_ClkInitTypeDef  *RCC_ClkInitStruct, uint32_t *pFLatency)
{
 8001fe8:	b480      	push	{r7}
 8001fea:	b083      	sub	sp, #12
 8001fec:	af00      	add	r7, sp, #0
 8001fee:	6078      	str	r0, [r7, #4]
 8001ff0:	6039      	str	r1, [r7, #0]
  /* Set all possible values for the Clock type parameter --------------------*/
  RCC_ClkInitStruct->ClockType = RCC_CLOCKTYPE_SYSCLK | RCC_CLOCKTYPE_HCLK | RCC_CLOCKTYPE_PCLK1 | RCC_CLOCKTYPE_PCLK2;
 8001ff2:	687b      	ldr	r3, [r7, #4]
 8001ff4:	220f      	movs	r2, #15
 8001ff6:	601a      	str	r2, [r3, #0]

  /* Get the SYSCLK configuration --------------------------------------------*/
  RCC_ClkInitStruct->SYSCLKSource = (uint32_t)(RCC->CFGR & RCC_CFGR_SW);
 8001ff8:	4b12      	ldr	r3, [pc, #72]	; (8002044 <HAL_RCC_GetClockConfig+0x5c>)
 8001ffa:	689b      	ldr	r3, [r3, #8]
 8001ffc:	f003 0203 	and.w	r2, r3, #3
 8002000:	687b      	ldr	r3, [r7, #4]
 8002002:	605a      	str	r2, [r3, #4]

  /* Get the HCLK configuration ----------------------------------------------*/
  RCC_ClkInitStruct->AHBCLKDivider = (uint32_t)(RCC->CFGR & RCC_CFGR_HPRE);
 8002004:	4b0f      	ldr	r3, [pc, #60]	; (8002044 <HAL_RCC_GetClockConfig+0x5c>)
 8002006:	689b      	ldr	r3, [r3, #8]
 8002008:	f003 02f0 	and.w	r2, r3, #240	; 0xf0
 800200c:	687b      	ldr	r3, [r7, #4]
 800200e:	609a      	str	r2, [r3, #8]

  /* Get the APB1 configuration ----------------------------------------------*/
  RCC_ClkInitStruct->APB1CLKDivider = (uint32_t)(RCC->CFGR & RCC_CFGR_PPRE1);
 8002010:	4b0c      	ldr	r3, [pc, #48]	; (8002044 <HAL_RCC_GetClockConfig+0x5c>)
 8002012:	689b      	ldr	r3, [r3, #8]
 8002014:	f403 52e0 	and.w	r2, r3, #7168	; 0x1c00
 8002018:	687b      	ldr	r3, [r7, #4]
 800201a:	60da      	str	r2, [r3, #12]

  /* Get the APB2 configuration ----------------------------------------------*/
  RCC_ClkInitStruct->APB2CLKDivider = (uint32_t)((RCC->CFGR & RCC_CFGR_PPRE2) >> 3);
 800201c:	4b09      	ldr	r3, [pc, #36]	; (8002044 <HAL_RCC_GetClockConfig+0x5c>)
 800201e:	689b      	ldr	r3, [r3, #8]
 8002020:	08db      	lsrs	r3, r3, #3
 8002022:	f403 52e0 	and.w	r2, r3, #7168	; 0x1c00
 8002026:	687b      	ldr	r3, [r7, #4]
 8002028:	611a      	str	r2, [r3, #16]

  /* Get the Flash Wait State (Latency) configuration ------------------------*/
  *pFLatency = (uint32_t)(FLASH->ACR & FLASH_ACR_LATENCY);
 800202a:	4b07      	ldr	r3, [pc, #28]	; (8002048 <HAL_RCC_GetClockConfig+0x60>)
 800202c:	681b      	ldr	r3, [r3, #0]
 800202e:	f003 020f 	and.w	r2, r3, #15
 8002032:	683b      	ldr	r3, [r7, #0]
 8002034:	601a      	str	r2, [r3, #0]
}
 8002036:	bf00      	nop
 8002038:	370c      	adds	r7, #12
 800203a:	46bd      	mov	sp, r7
 800203c:	f85d 7b04 	ldr.w	r7, [sp], #4
 8002040:	4770      	bx	lr
 8002042:	bf00      	nop
 8002044:	40023800 	.word	0x40023800
 8002048:	40023c00 	.word	0x40023c00

0800204c <HAL_TIM_Base_Init>:
  *         Ex: call @ref HAL_TIM_Base_DeInit() before HAL_TIM_Base_Init()
  * @param  htim TIM Base handle
  * @retval HAL status
  */
HAL_StatusTypeDef HAL_TIM_Base_Init(TIM_HandleTypeDef *htim)
{
 800204c:	b580      	push	{r7, lr}
 800204e:	b082      	sub	sp, #8
 8002050:	af00      	add	r7, sp, #0
 8002052:	6078      	str	r0, [r7, #4]
  /* Check the TIM handle allocation */
  if (htim == NULL)
 8002054:	687b      	ldr	r3, [r7, #4]
 8002056:	2b00      	cmp	r3, #0
 8002058:	d101      	bne.n	800205e <HAL_TIM_Base_Init+0x12>
  {
    return HAL_ERROR;
 800205a:	2301      	movs	r3, #1
 800205c:	e049      	b.n	80020f2 <HAL_TIM_Base_Init+0xa6>
  assert_param(IS_TIM_COUNTER_MODE(htim->Init.CounterMode));
  assert_param(IS_TIM_CLOCKDIVISION_DIV(htim->Init.ClockDivision));
  assert_param(IS_TIM_PERIOD(htim, htim->Init.Period));
  assert_param(IS_TIM_AUTORELOAD_PRELOAD(htim->Init.AutoReloadPreload));

  if (htim->State == HAL_TIM_STATE_RESET)
 800205e:	687b      	ldr	r3, [r7, #4]
 8002060:	f893 303d 	ldrb.w	r3, [r3, #61]	; 0x3d
 8002064:	b2db      	uxtb	r3, r3
 8002066:	2b00      	cmp	r3, #0
 8002068:	d106      	bne.n	8002078 <HAL_TIM_Base_Init+0x2c>
  {
    /* Allocate lock resource and initialize it */
    htim->Lock = HAL_UNLOCKED;
 800206a:	687b      	ldr	r3, [r7, #4]
 800206c:	2200      	movs	r2, #0
 800206e:	f883 203c 	strb.w	r2, [r3, #60]	; 0x3c
    }
    /* Init the low level hardware : GPIO, CLOCK, NVIC */
    htim->Base_MspInitCallback(htim);
#else
    /* Init the low level hardware : GPIO, CLOCK, NVIC */
    HAL_TIM_Base_MspInit(htim);
 8002072:	6878      	ldr	r0, [r7, #4]
 8002074:	f000 f841 	bl	80020fa <HAL_TIM_Base_MspInit>
#endif /* USE_HAL_TIM_REGISTER_CALLBACKS */
  }

  /* Set the TIM state */
  htim->State = HAL_TIM_STATE_BUSY;
 8002078:	687b      	ldr	r3, [r7, #4]
 800207a:	2202      	movs	r2, #2
 800207c:	f883 203d 	strb.w	r2, [r3, #61]	; 0x3d

  /* Set the Time Base configuration */
  TIM_Base_SetConfig(htim->Instance, &htim->Init);
 8002080:	687b      	ldr	r3, [r7, #4]
 8002082:	681a      	ldr	r2, [r3, #0]
 8002084:	687b      	ldr	r3, [r7, #4]
 8002086:	3304      	adds	r3, #4
 8002088:	4619      	mov	r1, r3
 800208a:	4610      	mov	r0, r2
 800208c:	f000 fa00 	bl	8002490 <TIM_Base_SetConfig>

